{"contracts/ChamaFactory.sol":{"ChamaFactory":{"abi":[{"inputs":[{"internalType":"address","name":"initialOwner","type":"address"}],"stateMutability":"nonpayable","type":"constructor"},{"inputs":[],"name":"EnforcedPause","type":"error"},{"inputs":[],"name":"ExpectedPause","type":"error"},{"inputs":[{"internalType":"address","name":"owner","type":"address"}],"name":"OwnableInvalidOwner","type":"error"},{"inputs":[{"internalType":"address","name":"account","type":"address"}],"name":"OwnableUnauthorizedAccount","type":"error"},{"anonymous":false,"inputs":[{"indexed":true,"internalType":"address","name":"creator","type":"address"},{"indexed":true,"internalType":"address","name":"groupAddress","type":"address"},{"indexed":false,"internalType":"string","name":"name","type":"string"},{"indexed":false,"internalType":"uint256","name":"contributionAmount","type":"uint256"},{"indexed":false,"internalType":"uint256","name":"maxMembers","type":"uint256"}],"name":"GroupCreated","type":"event"},{"anonymous":false,"inputs":[{"indexed":true,"internalType":"address","name":"previousOwner","type":"address"},{"indexed":true,"internalType":"address","name":"newOwner","type":"address"}],"name":"OwnershipTransferred","type":"event"},{"anonymous":false,"inputs":[{"indexed":false,"internalType":"address","name":"account","type":"address"}],"name":"Paused","type":"event"},{"anonymous":false,"inputs":[{"indexed":false,"internalType":"address","name":"account","type":"address"}],"name":"Unpaused","type":"event"},{"inputs":[],"name":"MAX_CONTRIBUTION_AMOUNT","outputs":[{"internalType":"uint256","name":"","type":"uint256"}],"stateMutability":"view","type":"function"},{"inputs":[],"name":"MAX_GROUPS_PER_CREATOR","outputs":[{"internalType":"uint256","name":"","type":"uint256"}],"stateMutability":"view","type":"function"},{"inputs":[],"name":"MAX_MEMBERS","outputs":[{"internalType":"uint256","name":"","type":"uint256"}],"stateMutability":"view","type":"function"},{"inputs":[],"name":"MIN_CONTRIBUTION_AMOUNT","outputs":[{"internalType":"uint256","name":"","type":"uint256"}],"stateMutability":"view","type":"function"},{"inputs":[],"name":"MIN_MEMBERS","outputs":[{"internalType":"uint256","name":"","type":"uint256"}],"stateMutability":"view","type":"function"},{"inputs":[{"internalType":"uint256","name":"","type":"uint256"}],"name":"allGroups","outputs":[{"internalType":"address","name":"","type":"address"}],"stateMutability":"view","type":"function"},{"inputs":[{"components":[{"internalType":"string","name":"name","type":"string"},{"internalType":"uint256","name":"contributionAmount","type":"uint256"},{"internalType":"uint256","name":"maxMembers","type":"uint256"},{"internalType":"uint256","name":"startDate","type":"uint256"},{"internalType":"uint256","name":"endDate","type":"uint256"},{"internalType":"string","name":"contributionFrequency","type":"string"},{"internalType":"enum ChamaStructs.PunishmentAction","name":"punishmentMode","type":"uint8"},{"internalType":"bool","name":"approvalRequired","type":"bool"},{"internalType":"bool","name":"emergencyWithdrawAllowed","type":"bool"},{"internalType":"address","name":"creator","type":"address"},{"internalType":"address","name":"contributionToken","type":"address"},{"internalType":"uint256","name":"gracePeriod","type":"uint256"},{"internalType":"uint256","name":"contributionWindow","type":"uint256"}],"internalType":"struct ChamaStructs.GroupConfig","name":"config","type":"tuple"}],"name":"createGroup","outputs":[],"stateMutability":"nonpayable","type":"function"},{"inputs":[{"internalType":"address","name":"","type":"address"},{"internalType":"uint256","name":"","type":"uint256"}],"name":"creatorGroups","outputs":[{"internalType":"address","name":"","type":"address"}],"stateMutability":"view","type":"function"},{"inputs":[],"name":"getAllGroups","outputs":[{"internalType":"address[]","name":"","type":"address[]"}],"stateMutability":"view","type":"function"},{"inputs":[{"internalType":"address","name":"creator","type":"address"}],"name":"getCreatorGroups","outputs":[{"internalType":"address[]","name":"","type":"address[]"}],"stateMutability":"view","type":"function"},{"inputs":[],"name":"groupCounter","outputs":[{"internalType":"uint256","name":"","type":"uint256"}],"stateMutability":"view","type":"function"},{"inputs":[{"internalType":"address","name":"","type":"address"}],"name":"isValidGroup","outputs":[{"internalType":"bool","name":"","type":"bool"}],"stateMutability":"view","type":"function"},{"inputs":[],"name":"owner","outputs":[{"internalType":"address","name":"","type":"address"}],"stateMutability":"view","type":"function"},{"inputs":[],"name":"pause","outputs":[],"stateMutability":"nonpayable","type":"function"},{"inputs":[],"name":"paused","outputs":[{"internalType":"bool","name":"","type":"bool"}],"stateMutability":"view","type":"function"},{"inputs":[],"name":"renounceOwnership","outputs":[],"stateMutability":"nonpayable","type":"function"},{"inputs":[{"internalType":"address","name":"newOwner","type":"address"}],"name":"transferOwnership","outputs":[],"stateMutability":"nonpayable","type":"function"},{"inputs":[],"name":"unpause","outputs":[],"stateMutability":"nonpayable","type":"function"}],"evm":{"bytecode":{"linkReferences":{},"object":"60803460bc57601f615b3f38819003918201601f19168301916001600160401b0383118484101760c15780849260209460405283398101031260bc57516001600160a01b0381169081900360bc57801560a657600080546001600160a01b031981168317825560405192916001600160a01b03909116907f8be0079c531659141344cd1fd0a4f28419497f9722a3daafe3b4186f6b6457e09080a3615a6790816100d88239f35b631e4fbdf760e01b600052600060045260246000fd5b600080fd5b634e487b7160e01b600052604160045260246000fdfe608080604052600436101561001357600080fd5b60003560e01c9081630c49c0a214610bec575080631b89c1ad14610bc857806321cd3cae14610b485780633f4ba83a14610ad75780634d88d1ad14610a475780635c975abb14610a21578063715018a6146109c857806373c7125b1461038e5780638456cb591461032c5780638da5cb5b146103035780639c6f5374146102e7578063c2e70bb6146102a8578063d24924fe1461028a578063d8802c4614610227578063d9a672201461020b578063ea0e35b1146101ef578063f2fde38b146101665763fd16c1d3146100e557600080fd5b34610161576020366003190112610161576004356003548110156101615760009060035481101561014d5760039091527fc2575a0e9e593c00f959f8c92f12db2869c3395a3b0502d05e2516446f71f85b01546040516001600160a01b039091168152602090f35b634e487b7160e01b82526032600452602482fd5b600080fd5b346101615760203660031901126101615761017f610c4f565b610187610d6e565b6001600160a01b031680156101d957600080546001600160a01b03198116831782556001600160a01b0316907f8be0079c531659141344cd1fd0a4f28419497f9722a3daafe3b4186f6b6457e09080a3005b631e4fbdf760e01b600052600060045260246000fd5b3461016157600036600319011261016157602060405160648152f35b3461016157600036600319011261016157602060405160038152f35b3461016157604036600319011261016157610240610c4f565b6001600160a01b03166000908152600160205260409020805460243591908210156101615760209161027191610cff565b905460405160039290921b1c6001600160a01b03168152f35b34610161576000366003190112610161576020600454604051908152f35b34610161576020366003190112610161576001600160a01b036102c9610c4f565b166000526002602052602060ff604060002054166040519015158152f35b34610161576000366003190112610161576020604051600a8152f35b34610161576000366003190112610161576000546040516001600160a01b039091168152602090f35b3461016157600036600319011261016157610345610d6e565b61034d610d97565b6000805460ff60a01b1916600160a01b1790556040513381527f62e78cea01bee320cd4e420270b5ea74000d11b0c9f74754ebdbfc544b05a25890602090a1005b346101615760203660031901126101615760043567ffffffffffffffff8111610161576101a06003198236030112610161576040516101a0810181811067ffffffffffffffff82111761078157604052816004013567ffffffffffffffff8111610161576104029060043691850101610c9b565b81526020810160248301358152604082019060448401358252606083016064850135815260808401906084860135825260a486013567ffffffffffffffff8111610161576104569060043691890101610c9b565b9160a0860192835260c48701359260048410156101615760c0870193845261048060e48901610cf2565b9060e088019182526104956101048a01610cf2565b9261010089019384526104ab6101248b01610c65565b6101208a01526104be6101448b01610c65565b996101408a019a8b526101608a0161016482013581526101846101808c0192013582526104e9610d97565b8a515180151590816109bc575b501561098157885166038d7ea4c68000811015908161096d575b50156109285789516003811015908161091c575b50156108e157865142101561089c5782518751101561084d5782516301e1338042019081421161083757116107f257336000526001602052600a60406000205410156107ad5760049b8b518a51968c519951955196519a519e8f101561079757511515975115159160018060a01b0390511692519351966040519a614c7a97888d01978d891067ffffffffffffffff8a1117610781578d9c6105de610600968f9c6101809d610db890396101a08c526101a08c0190610d2d565b9460208b015260408a01526060890152608088015286820360a0880152610d2d565b9660009d60c086015260e0850152610100840152336101208401526101408301526101608201520152039085f080156107765760018060a01b031692338552600160205260408520805490600160401b821015610762579061066791600182018155610cff565b8154600391821b87811b6001600160a01b0390911b1990911617909155848652600260205260408620805460ff1916600117905554600160401b81101561074e578060016106ba92016003556003610cff565b81546001600160a01b0360039290921b91821b19169086901b179055600454600019811461073a579060017fdabfbddd3c17390733a672db1121758da191fc5b5ce4a81a1bbe0d8ab456ff63939201600455519051925161072660405192606084526060840190610d2d565b93602083015260408201528033930390a380f35b634e487b7160e01b86526011600452602486fd5b634e487b7160e01b86526041600452602486fd5b634e487b7160e01b87526041600452602487fd5b6040513d86823e3d90fd5b634e487b7160e01b600052604160045260246000fd5b634e487b7160e01b600052602160045260246000fd5b60405162461bcd60e51b815260206004820152601760248201527f546f6f206d616e792067726f75707320637265617465640000000000000000006044820152606490fd5b60405162461bcd60e51b815260206004820152601a60248201527f456e64206461746520746f6f2066617220696e206675747572650000000000006044820152606490fd5b634e487b7160e01b600052601160045260246000fd5b60405162461bcd60e51b815260206004820152602160248201527f456e642064617465206d757374206265206166746572207374617274206461746044820152606560f81b6064820152608490fd5b60405162461bcd60e51b815260206004820152601c60248201527f53746172742064617465206d75737420626520696e20667574757265000000006044820152606490fd5b60405162461bcd60e51b8152602060048201526013602482015272496e76616c6964206d6178206d656d6265727360681b6044820152606490fd5b6064915011158d610524565b60405162461bcd60e51b815260206004820152601b60248201527f496e76616c696420636f6e747269627574696f6e20616d6f756e7400000000006044820152606490fd5b68056bc75e2d63100000915011158d610510565b60405162461bcd60e51b8152602060048201526013602482015272092dcecc2d8d2c840dcc2daca40d8cadccee8d606b1b6044820152606490fd5b6032915011158d6104f6565b34610161576000366003190112610161576109e1610d6e565b600080546001600160a01b0319811682556001600160a01b03167f8be0079c531659141344cd1fd0a4f28419497f9722a3daafe3b4186f6b6457e08280a3005b3461016157600036600319011261016157602060ff60005460a01c166040519015158152f35b34610161576020366003190112610161576001600160a01b03610a68610c4f565b166000526001602052604060002060405190816020825491828152019160005260206000209060005b818110610ab857610ab485610aa881870382610c79565b60405191829182610c0c565b0390f35b82546001600160a01b0316845260209093019260019283019201610a91565b3461016157600036600319011261016157610af0610d6e565b60005460ff8160a01c1615610b375760ff60a01b19166000556040513381527f5db9ee0a495bf2e6ff9c91a7834c1ba4fdd244a5e8aa4e537bd38aeae4b073aa90602090a1005b638dfc202b60e01b60005260046000fd5b346101615760003660031901126101615760405180602060035491828152019060036000527fc2575a0e9e593c00f959f8c92f12db2869c3395a3b0502d05e2516446f71f85b9060005b818110610ba957610ab485610aa881870382610c79565b82546001600160a01b0316845260209093019260019283019201610b92565b3461016157600036600319011261016157602060405168056bc75e2d631000008152f35b34610161576000366003190112610161578066038d7ea4c6800060209252f35b602060408183019282815284518094520192019060005b818110610c305750505090565b82516001600160a01b0316845260209384019390920191600101610c23565b600435906001600160a01b038216820361016157565b35906001600160a01b038216820361016157565b90601f8019910116810190811067ffffffffffffffff82111761078157604052565b81601f820112156101615780359067ffffffffffffffff82116107815760405192610cd0601f8401601f191660200185610c79565b8284526020838301011161016157816000926020809301838601378301015290565b3590811515820361016157565b8054821015610d175760005260206000200190600090565b634e487b7160e01b600052603260045260246000fd5b919082519283825260005b848110610d59575050826000602080949584010152601f8019910116010190565b80602080928401015182828601015201610d38565b6000546001600160a01b03163303610d8257565b63118cdaa760e01b6000523360045260246000fd5b60ff60005460a01c16610da657565b63d93c066560e01b60005260046000fdfe60806040523461061957614c7a803803806100198161061e565b9283398101906101a0818303126106195780516001600160401b0381116106195782610046918301610643565b602082015160408301516060840151608085015160a08601519396909493906001600160401b0382116106195761007e918701610643565b9360c08601519360048510156106195761009a60e088016106ae565b916100a861010089016106ae565b936100b66101208a016106bb565b956100c46101408b016106bb565b986101806101608c01519b01519b60016000556202a300601b5562069780601c556203f480601d5560405195610120870187811060018060401b038211176106035760405286526020860190815260408601918252606086019283526080860193845260a0860194855260c086019560009a875260e081019715158852610100810198151589525180519060018060401b0382116105ef57600254600181811c911680156105e5575b60208210146105d1579081601f849311610560575b506020908d601f84116001146104fb57926104f0575b50508160011b916000199060031b1c1916176002555b51600355518051906001600160401b0382116104dc57600454600181811c911680156104d2575b60208210146104be579081601f849311610450575b50602090601f83116001146103eb578b926103e0575b50508160011b916000199060031b1c1916176004555b5160055551600655516007555160048110156103cc57600880549251935162ffffff1990931660ff9290921691909117921515811b61ff00169290921790151560101b62ff000016179055601980546001600160a01b0319166001600160a01b0392909216918217905580825260126020526040808320805460ff19166001179055519060c082016001600160401b038111838210176103b85790600491604052600183526020830160018152604084014281526060850190868252608086019287845260a087019488865288526009602052604088209651151560ff8019895416911617875551151561ff0087549160081b169061ff001916178655516001860155516002850155516003840155519101556103346014546106cf565b6014556103426015546106cf565b6015556019805460ff60a01b1916600160a01b1790556017556001600160a01b031680610399575b5080610390575b5080610387575b60405161458590816106f58239f35b601c5538610378565b601b5538610371565b601a80546001600160a81b031916909117600160a01b1790553861036a565b634e487b7160e01b84526041600452602484fd5b634e487b7160e01b85526021600452602485fd5b015190503880610200565b60048c52818c209250601f1984168c5b818110610438575090846001959493921061041f575b505050811b01600455610216565b015160001960f88460031b161c19169055388080610411565b929360206001819287860151815501950193016103fb565b60048c529091507f8a35acfbc15ff81a39ae7d344fd709f28e8600b4aa8c65c6b64bfe7fe36bd19b601f840160051c810191602085106104b4575b90601f859493920160051c01905b8181106104a657506101ea565b8c8155849350600101610499565b909150819061048b565b634e487b7160e01b8b52602260045260248bfd5b90607f16906101d5565b634e487b7160e01b8a52604160045260248afd5b015190503880610198565b600281528281209350601f198516905b818110610548575090846001959493921061052f575b505050811b016002556101ae565b015160001960f88460031b161c19169055388080610521565b9293602060018192878601518155019501930161050b565b60028e529091507f405787fa12a823e0f2b7631cc41b3ba8828b3321ca811111fa75cd3aa3bb5ace601f840160051c810191602085106105c7575b849392918f91601f0160051c0191905b8282106105b9575050610182565b81558493506001018e6105ab565b909150819061059b565b634e487b7160e01b8d52602260045260248dfd5b90607f169061016d565b634e487b7160e01b8c52604160045260248cfd5b634e487b7160e01b600052604160045260246000fd5b600080fd5b6040519190601f01601f191682016001600160401b0381118382101761060357604052565b81601f82011215610619578051906001600160401b03821161060357610672601f8301601f191660200161061e565b92828452602083830101116106195760005b82811061069957505060206000918301015290565b80602080928401015182828701015201610684565b5190811515820361061957565b51906001600160a01b038216820361061957565b60001981146106de5760010190565b634e487b7160e01b600052601160045260246000fdfe60806040526004361015610010575b005b60003560e01c8063013cf08b14612c3957806302d05d3f14612c105780630604061814612bf2578063086146d214612bd757806308ae4b0c14612b4f5780630c0512e914612b315780630d3a9f0d14612aba5780630d61b5191461291157806311aee380146128f357806312065fe0146128d0578063133357861461289a5780631614665c1461272f5780631785f53c146126915780631a8456c4146126575780631bb1f108146126395780631d6b10581461261357806322f3e2d4146125ed57806322faa41f14611c705780632768c62c14612282578063286eb1e0146122605780632b81a65b146121b457806330109962146121965780633b4d01a7146121285780633ca48edc146120845780633f4ba83a14612009578063414570f314611fc7578063429b62e514611f885780634353be8914611f6c57806347bbf00714611f315780634bedf9a814611f085780634dcdb23714611eaa57806352f6747a14611cb15780635c975abb14611c8e5780635fb6c6ed14611c70578063600303d814611343578063615601db146118b95780636558954f1461189b5780636bca1ed2146110b25780636d531e83146116e557806370480275146116205780637a5c15c81461159e5780637afca9a7146115805780637d8b62051461151c57806383fd0954146114615780638456cb59146113e35780638a8a18bc146113905780638e1f6a2c14611343578063968ed600146113255780639ac79e0a14611171578063a06db7dc14611153578063aa6cd9d6146110fa578063af40c983146110b2578063b20ca92214610e9e578063b478c1eb14610e27578063b6a5a16614610df3578063cb1fb49014610ca8578063d449540f14610ab5578063d7bb99ba14610741578063dabefbde14610548578063dcbfee4c1461052c578063dfb748aa14610414578063ef213106146103d55763fa3fa1960361000e57346103d05760203660031901126103d0576102e3612e9a565b601954906001600160a01b038216906102fd33831461318e565b6001600160a01b031691821561039957818314610362576001600160a01b03191682176019556000828152601260205260408120805460ff191660011790557f7f11fe0c7098e1a76afcc68f35abaa07ef156fa7d6dd2d39664812fe37348d169080a3005b60405162461bcd60e51b815260206004820152600f60248201526e20b63932b0b23c9031b932b0ba37b960891b6044820152606490fd5b60405162461bcd60e51b815260206004820152600f60248201526e496e76616c6964206164647265737360881b6044820152606490fd5b600080fd5b346103d05760203660031901126103d0576001600160a01b036103f6612e9a565b166000526013602052602060ff604060002054166040519015158152f35b346103d05760203660031901126103d05761042d612e9a565b33600052601260205261044760ff60406000205416613048565b61045860ff60195460a01c166132d8565b61046660065442101561331a565b61047460075442111561335d565b6001600160a01b03811660008181526013602052604090205490919060ff16156104ef576104c6906104ab60145460055411613422565b826000526013602052604060002060ff198154169055614036565b33907f2ed8ced05f0bf5751c86b0f3520b9f501827ab6a1f26a190c721ae2fa8a5d482600080a3005b60405162461bcd60e51b8152602060048201526015602482015274139bc81a9bda5b881c995c5d595cdd08199bdd5b99605a1b6044820152606490fd5b346103d05760003660031901126103d057602060405160328152f35b346103d05760003660031901126103d05733600052601260205261057360ff60406000205416613048565b61057b613efc565b60ff60085460101c16156106fc57601a5460a01c60ff161561069a57601a546040516370a0823160e01b8152306004820152906001600160a01b0316602082602481845afa91821561068e57600092610657575b5081801561061a576105e2913390614191565b60006016556040519081527f378c5d0d6dec48ecf81cdeab52145598556d2a86fb096d5a344cd4d4bf06411360203392a26001600055005b60405162461bcd60e51b81526020600482015260156024820152744e6f20746f6b656e7320746f20776974686472617760581b6044820152606490fd5b90916020823d602011610686575b8161067260209383612d32565b8101031261068357505190826105cf565b80fd5b3d9150610665565b6040513d6000823e3d90fd5b4780156106c0576106bb600080808085335af16106b56135e7565b50613617565b6105e2565b60405162461bcd60e51b81526020600482015260146024820152734e6f2066756e647320746f20776974686472617760601b6044820152606490fd5b60405162461bcd60e51b815260206004820152601e60248201527f456d657267656e6379207769746864726177206e6f7420616c6c6f77656400006044820152606490fd5b60003660031901126103d05733600052600960205260ff6040600020541680610a99575b61076e9061313c565b61077f60ff60195460a01c166132d8565b61078d60065442101561331a565b61079b60075442111561335d565b6107a3613efc565b6107ab613019565b336000526011602052604060002081600052602052604060002054610a54576107d33361388c565b33600052600960205260ff60406000205460081c16156109e95760065462093a80820282810462093a8014831517156109d35761081661081f916108289361303b565b601c549061303b565b601b549061303b565b421161098e57601a5460ff8160a01c1660001461093f57346108eb5760035461085d91309033906001600160a01b0316613fed565b33600052601160205260406000208160005260205242604060002055600354336000526009602052610898600260406000200191825461303b565b9055600354906108aa8260165461303b565b60165560405191825260208201524260408201527fbe446d8cd0c11cac7c17817d3cc2a18d11008ab0c439d03564c978df9780572860603392a26001600055005b60405162461bcd60e51b815260206004820152602660248201527f446f6e27742073656e642045544820666f7220746f6b656e20636f6e747269626044820152657574696f6e7360d01b6064820152608490fd5b50600354341461085d5760405162461bcd60e51b815260206004820152601d60248201527f496e636f727265637420636f6e747269627574696f6e20616d6f756e740000006044820152606490fd5b60405162461bcd60e51b815260206004820152601a60248201527f436f6e747269627574696f6e2077696e646f7720636c6f7365640000000000006044820152606490fd5b634e487b7160e01b600052601160045260246000fd5b60405162461bcd60e51b815260206004820152603f60248201527f4d656d626572206973206e6f74206163746976652028706f737369626c79206260448201527f616e6e656420666f72206d697373656420636f6e747269627574696f6e7329006064820152608490fd5b60405162461bcd60e51b815260206004820152601f60248201527f416c726561647920636f6e7472696275746564207468697320706572696f64006044820152606490fd5b503360009081526009602052604090205460081c60ff16610765565b346103d05760803660031901126103d05760043560058110156103d057610ada612eb0565b906064356001600160401b0381116103d057610afa903690600401612ec6565b92909233600052600960205260ff6040600020541680610c8c575b610b1e9061313c565b610b29601e5461317f565b601e8190556000908152600e6020526040812080546001600160a81b03191660ff86161760089490941b610100600160a81b0316939093178355604435600184015560028301916001600160401b038111610c7857602095610b9582610b8f8654612ca7565b86613286565b82601f8311600114610c1557610bc293909183610c0a575b50508160011b916000199060031b1c19161790565b90555b600542910155601e5490610bdc6040518092612df7565b817f3263432a41f78a4701cc9465f62411ed717ade32290c084135a3dd6b29f4bf28843393a3604051908152f35b013590508780610bad565b9192601f198416858452888420935b818110610c615750908460019594939210610c47575b505050811b019055610bc5565b0135600019600384901b60f8161c19169055868080610c3a565b919389600181928787013581550195019201610c24565b634e487b7160e01b82526041600452602482fd5b503360009081526009602052604090205460081c60ff16610b15565b346103d05760003660031901126103d05733600052600960205260ff6040600020541680610dd7575b610cda9061313c565b610ce2613efc565b33600052600a60205260ff60026040600020015416610d8657610d0433614128565b336000526009602052604060002061ff00198154169055610d266015546132cb565b60155580610d68575b6040519081524260208201527f9fe2549e029dc601c32d2b99a63bb5d8790e62936ae6dfd93013cbae2a3f2e1e60403392a26001600055005b610d748160165461300c565b601655610d818133613fa6565b610d2f565b60405162461bcd60e51b815260206004820152602360248201527f43616e6e6f74206c656176652077697468206163746976652070756e6973686d604482015262195b9d60ea1b6064820152608490fd5b503360009081526009602052604090205460081c60ff16610cd1565b346103d05760203660031901126103d057610e23610e17610e12612e9a565b6134bb565b60405191829182612fd2565b0390f35b346103d05760203660031901126103d0576001600160a01b03610e48612e9a565b16600052600d602052604060002060405190816020825491828152019160005260206000209060005b818110610e8857610e2385610e1781870382612d32565b8254845260209093019260019283019201610e71565b346103d057610eac36612f80565b90610ec260018060a01b0360195416331461318e565b600b548061107657601454830361103a5760005b838110610fbb57506001600160401b038311610fa557600160401b8311610fa55782600b55808310610f51575b5090600b60005260005b818110610f1657005b6001906020610f248561340e565b940193817f0175b7a638427703f0dbe7bb9bbf987a2551717b34e79f33b5b1008d1fa01db9015501610f0d565b610f9f907f0175b7a638427703f0dbe7bb9bbf987a2551717b34e79f33b5b1008d1fa01db901837f0175b7a638427703f0dbe7bb9bbf987a2551717b34e79f33b5b1008d1fa01db90161326f565b82610f03565b634e487b7160e01b600052604160045260246000fd5b6001600160a01b03610fd6610fd18387876133fe565b61340e565b16600052600960205260ff6040600020541615610ff557600101610ed6565b60405162461bcd60e51b815260206004820152601760248201527f496e76616c6964206d656d62657220696e2071756575650000000000000000006044820152606490fd5b60405162461bcd60e51b8152602060048201526014602482015273092dcecc2d8d2c840e2eacaeaca40d8cadccee8d60631b6044820152606490fd5b60405162461bcd60e51b8152602060048201526014602482015273145d595d59481a5cc8185b1c9958591e481cd95d60621b6044820152606490fd5b346103d05760403660031901126103d0576001600160a01b036110d3612e9a565b16600052601160205260406000206024356000526020526020604060002054604051908152f35b346103d05760403660031901126103d057611113612e9a565b6001600160a01b03166000908152600d60205260409020805460243591908210156103d05760209161114491612f68565b90549060031b1c604051908152f35b346103d05760003660031901126103d0576020601b54604051908152f35b346103d05760003660031901126103d05761119360ff60195460a01c166132d8565b6111a160065442101561331a565b6111af60075442111561335d565b33600052600960205260ff604060002054166112ed576111d460145460055411613422565b33600052600a60205260ff600260406000200154166112a85760ff60085460081c1660001461129f5733600052601360205260ff6040600020541661125a573360005260136020526040600020600160ff198254161790556040514281527f2f11fedbf3e827478272cb1ff550237376aa545f3d4742ceba5ca14f195bb53a60203392a2005b60405162461bcd60e51b815260206004820152601e60248201527f4a6f696e207265717565737420616c7265616479207375626d697474656400006044820152606490fd5b61000e33614036565b60405162461bcd60e51b815260206004820152601a60248201527f5573657220686173206163746976652070756e6973686d656e740000000000006044820152606490fd5b60405162461bcd60e51b815260206004820152601060248201526f20b63932b0b23c90309036b2b6b132b960811b6044820152606490fd5b346103d05760003660031901126103d0576020601654604051908152f35b346103d05760403660031901126103d05761135c612eb0565b600435600052601060205260406000209060018060a01b0316600052602052602060ff604060002054166040519015158152f35b346103d05761139e36612f80565b3360005260126020526113b860ff60406000205416613048565b60005b8181106113c457005b806113dd6113d8610fd160019486886133fe565b61388c565b016113bb565b346103d05760003660031901126103d05733600052601260205261140e60ff60406000205416613048565b60015460ff81166114505760019060ff1916176001557f62e78cea01bee320cd4e420270b5ea74000d11b0c9f74754ebdbfc544b05a2586020604051338152a1005b63d93c066560e01b60005260046000fd5b346103d05760203660031901126103d0576001600160a01b03611482612e9a565b16600052600960205260406000206040519061149d82612d17565b610e2360a082549260ff80851615159485875260081c161515948560208201526001820154806040830152600283015491826060820152600460038501549485608084015201549485910152604051968796879260a094919796959260c085019815158552151560208501526040840152606083015260808201520152565b346103d05760203660031901126103d0576001600160a01b0361153d612e9a565b16600052600a602052604060002060ff815416610e2361155f60018401612d53565b9260ff60028201541690600460038201549101549160405195869586612f00565b346103d05760003660031901126103d0576020601854604051908152f35b346103d05760203660031901126103d057600435600052600c6020526040600020604051906115cc82612cfc565b80546001600160a01b0316808352600182015460208085018290526002840154604080870182905260039095015460ff16151560609687018190528551948552918401929092529282015291820152608090f35b346103d05760203660031901126103d057611639612e9a565b61164e60018060a01b0360195416331461318e565b6001600160a01b031660008181526012602052604090205460ff166116ad578060005260126020526040600020600160ff198254161790557f44d6d25963f097ad14f29f06854a01f575648a1ef82f30e562ccd3889717e339600080a2005b60405162461bcd60e51b815260206004820152601060248201526f20b63932b0b23c9030b71030b236b4b760811b6044820152606490fd5b60003660031901126103d0576116f9613efc565b33600052600a6020526040600020600281019061171960ff8354166133bb565b60ff815416600481101561188557600203611848576004015490601a5460ff8160a01c1660001461180357346117be57611761908390309033906001600160a01b0316613fed565b60ff198154169055336000526009602052600060046040822001556117888160165461303b565b6016556040519081527fea01a5db185fb713c48073ed217455c9e653281d3c5ba9509467be58f467706d60203392a26001600055005b60405162461bcd60e51b815260206004820152601e60248201527f446f6e27742073656e642045544820666f7220746f6b656e2066696e657300006044820152606490fd5b503482146117615760405162461bcd60e51b8152602060048201526015602482015274125b98dbdc9c9958dd08199a5b9948185b5bdd5b9d605a1b6044820152606490fd5b60405162461bcd60e51b8152602060048201526015602482015274139bdd081848199a5b99481c1d5b9a5cda1b595b9d605a1b6044820152606490fd5b634e487b7160e01b600052602160045260246000fd5b346103d05760003660031901126103d057602060405162093a808152f35b346103d05760003660031901126103d0573360005260126020526118e460ff60406000205416613048565b6118f560ff60195460a01c166132d8565b61190360065442101561331a565b61191160075442111561335d565b611919613efc565b611921613019565b6000818152600c60205260409020546001600160a01b0316611c2b57600b549060005b828110611b6157506119626018549261195d848461300c565b61339b565b9161196c83612f37565b60018060a01b0391549060031b1c1690600093828552600960205260ff604086205460081c16158015611b48575b611ad9575b5050600354601554908181029181830414901517156109d3576119c48160165461300c565b601655604051936119d485612cfc565b611a5160018060a01b038416958681526003602082019385855260408301428152606084019115159586835289600052600c60205260406000209460018060a01b039051166bffffffffffffffffffffffff60a01b86541617855551600185015551600284015551151591019060ff801983541691151516179055565b84600052600d602052604060002093845494600160401b861015610fa55783606095611aa788611ac19460017fc1fe199bd1ec460de9ba76650239b5f5da0d631f4d02bdc57fb26925f8d6b7cf9b018155612f68565b81549060031b9086821b91600019901b1916179055613fa6565b60405192835260208301526040820152a26001600055005b909350611af49150611aec60019461317f565b601855613f1e565b6001600160a01b03811615611b0a57838061199f565b60405162461bcd60e51b81526020600482015260166024820152754e6f20656c696769626c6520726563697069656e747360501b6044820152606490fd5b50828552600a60205260ff60026040872001541661199a565b611b6a81612f37565b905460039190911b1c6001600160a01b031660008181526009602052604090205460081c60ff1680611c0f575b611ba5575b50600101611944565b600052601160205260406000208260005260205260406000205415611bca5783611b9c565b60405162461bcd60e51b815260206004820152601e60248201527f4d656d62657220686173206e6f7420636f6e74726962757465642079657400006044820152606490fd5b5080600052600a60205260ff6002604060002001541615611b97565b60405162461bcd60e51b815260206004820152601d60248201527f416c72656164792070726f636573736564207468697320706572696f640000006044820152606490fd5b346103d05760003660031901126103d0576020601554604051908152f35b346103d05760003660031901126103d057602060ff600154166040519015158152f35b346103d05760003660031901126103d057604051600254816000611cd483612ca7565b8083529260018116908115611e8b5750600114611e2b575b611cf892500382612d32565b60035490604051916000600454611d0e81612ca7565b8086529060018116908115611e095750600114611db0575b5083611d39611d619560ff930382612d32565b60055492600654611d746007549260085494604051998a996101208b526101208b0190612e04565b9160208a015288820360408a0152612e04565b946060870152608086015260a0850152611d9360c08501838316612ef3565b818160081c16151560e085015260101c1615156101008301520390f35b6004600090815291507f8a35acfbc15ff81a39ae7d344fd709f28e8600b4aa8c65c6b64bfe7fe36bd19b5b818310611def575050830160200183611d26565b6001816020929493945483858a0101520191019190611ddb565b60ff191660208088019190915291151560051b86019091019150849050611d26565b506002600090815290917f405787fa12a823e0f2b7631cc41b3ba8828b3321ca811111fa75cd3aa3bb5ace5b818310611e6f575050906020611cf892820101611cec565b6020919350806001915483858801015201910190918392611e57565b60209250611cf894915060ff191682840152151560051b820101611cec565b346103d05760203660031901126103d0576004356000908152600c602090815260409182902080546001820154600283015460039093015485516001600160a01b039093168352938201529283015260ff1615156060820152608090f35b346103d05760003660031901126103d057601a546040516001600160a01b039091168152602090f35b346103d05760203660031901126103d05761000e611f4d612e9a565b336000526012602052611f6760ff60406000205416613048565b613e2e565b346103d05760003660031901126103d057602060405160038152f35b346103d05760203660031901126103d0576001600160a01b03611fa9612e9a565b166000526012602052602060ff604060002054166040519015158152f35b346103d05760203660031901126103d057600435600b548110156103d057611ff0602091612f37565b905460405160039290921b1c6001600160a01b03168152f35b346103d05760003660031901126103d05733600052601260205261203460ff60406000205416613048565b60015460ff8116156120735760ff19166001557f5db9ee0a495bf2e6ff9c91a7834c1ba4fdd244a5e8aa4e537bd38aeae4b073aa6020604051338152a1005b638dfc202b60e01b60005260046000fd5b346103d05760403660031901126103d05761209d612e9a565b602435903360005260126020526120bb60ff60406000205416613048565b6120c3613019565b82116120e3576001600160a01b03166000908152600f6020526040902055005b60405162461bcd60e51b815260206004820152601860248201527f43616e6e6f74207365742066757475726520706572696f6400000000000000006044820152606490fd5b346103d05760203660031901126103d057600435600052600e60205260406000208054610e2360018301549260038101546004820154600583015491612178600260ff6006870154169501612d53565b604051978897600881901c6001600160a01b03169060ff1689612e45565b346103d05760003660031901126103d0576020601d54604051908152f35b346103d05760203660031901126103d0576001600160a01b036121d5612e9a565b16600052600a60205260406000206040516121ef81612ce1565b6121fd60ff83541682613248565b61220960018301612d53565b6020820190815260ff60028401541692604083019315158452600460038201549160608501928352015492608081019384525192600484101561188557610e23925194511515915190519160405195869586612f00565b346103d05760003660031901126103d0576020604051662386f26fc100008152f35b346103d05760603660031901126103d05761229b612e9a565b6024359060048210156103d0576044356001600160401b0381116103d0576122c7903690600401612ec6565b90913360005260126020526122e360ff60406000205416613048565b6001600160a01b031660008181526009602052604090205490929060ff16156125b1576000841561256c576002851461255e575b6040519461232486612ce1565b61232e8187613248565b61233784613254565b956123456040519788612d32565b84875236858501116103d0578484602089013760006020868901015260208101968752604081016001815260608201428152608083019185835288600052600a602052604060002093519960048b10156118855760009a60ff801987541691161785556001850190518051906001600160401b03821161254a576123d3826123cd8554612ca7565b85613286565b6020908d601f84116001146124c2578c9b99956000805160206145308339815191529d99956124278660049760809f9c9761247a9c9761244297926124b75750508160011b916000199060031b1c19161790565b90555b511515600286019060ff801983541691151516179055565b516003840155519101556003811461248f575b6040519687956060875281606088015287870137898685870101526020850190612ef3565b6040830152601f01601f19168101030190a280f35b888a52600960205260408a2061ff001981541690556124af6015546132cb565b601555612455565b015190503880610bad565b9190601f198416858452828420935b8181106125325750958d9c9a969560016000805160206145308339815191529f9b979660809e9b9661247a9b96612442968360049b10612519575b505050811b01905561242a565b015160001960f88460031b161c1916905538808061250c565b929360206001819287860151815501950193016124d1565b634e487b7160e01b8d52604160045260248dfd5b50662386f26fc10000612317565b60405162461bcd60e51b815260206004820152601960248201527f496e76616c69642070756e6973686d656e7420616374696f6e000000000000006044820152606490fd5b60405162461bcd60e51b81526020600482015260146024820152732ab9b2b91034b9903737ba10309036b2b6b132b960611b6044820152606490fd5b346103d05760003660031901126103d057602060ff60195460a01c166040519015158152f35b346103d05760003660031901126103d057602060ff601a5460a01c166040519015158152f35b346103d05760003660031901126103d0576020601c54604051908152f35b346103d05760203660031901126103d0576001600160a01b03612678612e9a565b16600052600f6020526020604060002054604051908152f35b346103d05760203660031901126103d0576126aa612e9a565b6019546001600160a01b0316906126d8906126c633841461318e565b6001600160a01b0316918214156131c9565b8060005260126020526126f260ff6040600020541661320d565b806000526012602052604060002060ff1981541690557fa3b62bc36326052d97ea62d63c3d60308ed4c3ea8ac079dd8499f1e9c4f80c0f600080a2005b346103d05760403660031901126103d05760043560243580151581036103d05733600052600960205260ff604060002054168061287e575b6127709061313c565b81600052600e60205260406000209161279060ff60068501541615613080565b6127a16005840154601d549061303b565b421161284457600081815260106020908152604080832033845290915290205460ff1661280f5760009081526010602090815260408083203384529091529020805460ff1916600117905515612802576003016127fe815461317f565b9055005b6004016127fe815461317f565b60405162461bcd60e51b815260206004820152600d60248201526c105b1c9958591e481d9bdd1959609a1b6044820152606490fd5b60405162461bcd60e51b81526020600482015260126024820152712b37ba34b733903832b934b7b21037bb32b960711b6044820152606490fd5b503360009081526009602052604090205460081c60ff16612767565b346103d05760203660031901126103d05761000e6128b6612e9a565b3360005260126020526113d860ff60406000205416613048565b346103d05760003660031901126103d05760206128eb6130bf565b604051908152f35b346103d05760003660031901126103d0576020601454604051908152f35b346103d05760203660031901126103d05760043533600052601260205261293f60ff60406000205416613048565b80600052600e6020526040600020600681019061296060ff83541615613080565b6129716005820154601d549061303b565b421115612a7f57600381015460048201549061298d828261303b565b6015546032810290808204603214901517156109d357606381018091116109d3576064900411612a3a571115612a01577f948f4a9cd986f1118c3fbd459f7a22b23c0693e1ca3ef06a6a8be5aa7d39cc03916129ea602092613655565b815460ff19166001179091556040519015158152a2005b60405162461bcd60e51b8152602060048201526011602482015270141c9bdc1bdcd85b081c995a9958dd1959607a1b6044820152606490fd5b60405162461bcd60e51b815260206004820152601a60248201527f496e73756666696369656e742070617274696369706174696f6e0000000000006044820152606490fd5b60405162461bcd60e51b8152602060048201526013602482015272566f74696e67207374696c6c2061637469766560681b6044820152606490fd5b346103d05760003660031901126103d05760065462093a80612adc824261300c565b049062093a8082029180830462093a8014901517156109d357602091612b019161303b565b612b1061081f601c548361303b565b904210159081612b26575b506040519015158152f35b905042111582612b1b565b346103d05760003660031901126103d0576020601e54604051908152f35b346103d05760203660031901126103d0576001600160a01b03612b70612e9a565b16600052600960205260406000208054610e236001830154926002810154906004600382015491015491604051958560ff80899860081c169116879260a094919796959260c085019815158552151560208501526040840152606083015260808201520152565b346103d05760003660031901126103d05760206128eb613019565b346103d05760003660031901126103d0576020601754604051908152f35b346103d05760003660031901126103d0576019546040516001600160a01b039091168152602090f35b346103d05760203660031901126103d057600435600052600e60205260406000208054610e23600183015492612c7160028201612d53565b90600381015460048201549060ff60066005850154940154169360405197889760ff60018060a01b038260081c16911689612e45565b90600182811c92168015612cd7575b6020831014612cc157565b634e487b7160e01b600052602260045260246000fd5b91607f1691612cb6565b60a081019081106001600160401b03821117610fa557604052565b608081019081106001600160401b03821117610fa557604052565b60c081019081106001600160401b03821117610fa557604052565b90601f801991011681019081106001600160401b03821117610fa557604052565b9060405191826000825492612d6784612ca7565b8084529360018116908115612dd55750600114612d8e575b50612d8c92500383612d32565b565b90506000929192526020600020906000915b818310612db9575050906020612d8c9282010138612d7f565b6020919350806001915483858901015201910190918492612da0565b905060209250612d8c94915060ff191682840152151560051b82010138612d7f565b9060058210156118855752565b919082519283825260005b848110612e30575050826000602080949584010152601f8019910116010190565b80602080928401015182828601015201612e0f565b96939092612e8392612e5e8960e099969c9b989c612df7565b6001600160a01b03166020890152604088015261010060608801819052870190612e04565b96608086015260a085015260c08401521515910152565b600435906001600160a01b03821682036103d057565b602435906001600160a01b03821682036103d057565b9181601f840112156103d0578235916001600160401b0383116103d057602083818601950101116103d057565b9060048210156118855752565b91612f2690612f158460809699989794612ef3565b60a0602085015260a0840190612e04565b951515604083015260608201520152565b600b54811015612f5257600b60005260206000200190600090565b634e487b7160e01b600052603260045260246000fd5b8054821015612f525760005260206000200190600090565b9060206003198301126103d0576004356001600160401b0381116103d057826023820112156103d0578060040135926001600160401b0384116103d05760248460051b830101116103d0576024019190565b602060408183019282815284518094520192019060005b818110612ff65750505090565b8251845260209384019390920191600101612fe9565b919082039182116109d357565b6006548042106130355761303162093a80914261300c565b0490565b50600090565b919082018092116109d357565b1561304f57565b60405162461bcd60e51b81526020600482015260096024820152682737ba1030b236b4b760b91b6044820152606490fd5b1561308757565b60405162461bcd60e51b815260206004820152601060248201526f105b1c9958591e48195e1958dd5d195960821b6044820152606490fd5b601a5460ff8160a01c166130d257504790565b6040516370a0823160e01b815230600482015290602090829060249082906001600160a01b03165afa90811561068e5760009161310d575090565b90506020813d602011613134575b8161312860209383612d32565b810103126103d0575190565b3d915061311b565b1561314357565b60405162461bcd60e51b81526020600482015260146024820152732737ba1030b71030b1ba34bb329036b2b6b132b960611b6044820152606490fd5b60001981146109d35760010190565b1561319557565b60405162461bcd60e51b815260206004820152600c60248201526b27b7363c9031b932b0ba37b960a11b6044820152606490fd5b156131d057565b60405162461bcd60e51b815260206004820152601560248201527421b0b73737ba103932b6b7bb329031b932b0ba37b960591b6044820152606490fd5b1561321457565b60405162461bcd60e51b815260206004820152600c60248201526b2737ba1030b71030b236b4b760a11b6044820152606490fd5b60048210156118855752565b6001600160401b038111610fa557601f01601f191660200190565b81811061327a575050565b6000815560010161326f565b9190601f811161329557505050565b612d8c926000526020600020906020601f840160051c830193106132c1575b601f0160051c019061326f565b90915081906132b4565b80156109d3576000190190565b156132df57565b60405162461bcd60e51b815260206004820152601360248201527247726f7570206973206e6f742061637469766560681b6044820152606490fd5b1561332157565b60405162461bcd60e51b815260206004820152601460248201527311dc9bdd5c081a185cdb89dd081cdd185c9d195960621b6044820152606490fd5b1561336457565b60405162461bcd60e51b815260206004820152600f60248201526e11dc9bdd5c081a185cc8195b991959608a1b6044820152606490fd5b81156133a5570690565b634e487b7160e01b600052601260045260246000fd5b156133c257565b60405162461bcd60e51b8152602060048201526014602482015273139bc81858dd1a5d99481c1d5b9a5cda1b595b9d60621b6044820152606490fd5b9190811015612f525760051b0190565b356001600160a01b03811681036103d05790565b1561342957565b60405162461bcd60e51b815260206004820152600d60248201526c11dc9bdd5c081a5cc8199d5b1b609a1b6044820152606490fd5b6001600160401b038111610fa55760051b60200190565b9061347f8261345e565b61348c6040519182612d32565b828152809261349d601f199161345e565b0190602036910137565b8051821015612f525760209160051b010190565b6001600160a01b031660008181526009602052604090205490919060ff16156135cb576134e6613019565b6134ef81613475565b600654601c54601b54929560009492855b8481106135475750505050505061351681613475565b9060005b818110613528575090925050565b80613535600192876134a7565b5161354082866134a7565b520161351a565b62093a80810281810462093a8014821517156109d3578661356f8661356f613574948761303b565b61303b565b4211806135a9575b613589575b600101613500565b956135a1818861359b6001948d6134a7565b5261317f565b969050613581565b508260005260116020526040600020816000526020526040600020541561357c565b90506040516135db602082612d32565b60008152600036813790565b3d15613612573d906135f882613254565b916136066040519384612d32565b82523d6000602084013e565b606090565b1561361e57565b60405162461bcd60e51b815260206004820152600f60248201526e151c985b9cd9995c8819985a5b1959608a1b6044820152606490fd5b805460ff8116906005821015611885576001820361368a575050546136859060081c6001600160a01b0316613e2e565b600190565b600060028303613743575050815460081c6001600160a01b031660008181526012602052604090205490915060ff1661370e576000908152601260205260408120805460ff19166001179055905460081c6001600160a01b0316907f44d6d25963f097ad14f29f06854a01f575648a1ef82f30e562ccd3889717e3399080a2600190565b60405162461bcd60e51b815260206004820152600d60248201526c20b63932b0b23c9030b236b4b760991b6044820152606490fd5b50600382036137d957505080546019546001600160a01b0360089290921c82169161377191168214156131c9565b80600052601260205261378b60ff6040600020541661320d565b6000908152601260205260408120805460ff19169055905460081c6001600160a01b0316907fa3b62bc36326052d97ea62d63c3d60308ed4c3ea8ac079dd8499f1e9c4f80c0f9080a2600190565b60009250906004146137ec575050600090565b60081c6001600160a01b03168082526009602052604082205490919060ff1680613873575b1561383d57604091815260096020522061ff001981541690556138356015546132cb565b601555600190565b60405162461bcd60e51b815260206004820152600e60248201526d24b73b30b634b21036b2b6b132b960911b6044820152606490fd5b50818152600960205260ff604082205460081c16613811565b6001600160a01b03811660008181526009602052604090205460ff16158015613e12575b613e0e576138bc613019565b6000828152600f60205260409020546000198103613dbf5760005b6139446040926139128585516138ed8782612d32565b60138152722232b13ab390169031bab9392832b934b7b21d60691b60208201526141cc565b835161391e8582612d32565b60148152732232b13ab39016903630b9ba21b432b1b5b2b21d60611b60208201526141cc565b61397a8183516139548582612d32565b60148152732232b13ab390169039ba30b93a2832b934b7b21d60611b60208201526141cc565b8281106139f8575b50908092935061399157505050565b60001982019182116109d357612d8c92600052600f6020528181600020556432103a379d60d91b8151916139c6606084612d32565b602583527f4465627567202d2055706461746564206c617374436865636b6564506572696f60208401528201526141cc565b60065462093a80820282810462093a8014831517156109d35761081661081f91613a219361303b565b613a60828451613a318682612d32565b601881527f4465627567202d20436865636b696e6720706572696f643a000000000000000060208201526141cc565b613a9f818451613a708682612d32565b601881527f4465627567202d20506572696f6420646561646c696e653a000000000000000060208201526141cc565b613adf8351613aae8582612d32565b601a81527f4465627567202d2043757272656e742074696d657374616d703a000000000000602082015242906141cc565b4211613b20818451613af18682612d32565b601981527f4465627567202d204973207061737420646561646c696e653a000000000000006020820152614227565b8460005260116020528260002082600052602052613b79836000205415158451613b4a8682612d32565b601981527f4465627567202d2048617320636f6e747269627574696f6e3a000000000000006020820152614227565b80613d9f575b613b8c575b60010161397a565b83600052600960205260038260002001613ba6815461317f565b90556060613c01828451613bba8482612d32565b603081527f4465627567202d204d697373656420636f6e747269627574696f6e206465746560208201526f31ba32b2103337b9103832b934b7b21d60811b868201526141cc565b846000526009602052613c5b60038460002001548451613c218482612d32565b602381527f4465627567202d20546f74616c206d697373656420636f6e747269627574696f60208201526237399d60e91b868201526141cc565b847fe7131eea105622e12d8e35be7bde01bb5dd1869b7f695186a0db0de3b2ef38f0848051858152426020820152a28460005260096020526003808460002001541015613ca85750613b84565b905081929394600080613d2b613d39613d969651613cc68782612d32565b603081527f4465627567202d204170706c79696e672070756e6973686d656e74202d206d6160208201526f1e081b5a5cdcd959081c995858da195960821b89820152885192839163104c13eb60e21b6020840152602060248401526044830190612e04565b03601f198101835282612d32565b6020815191016a636f6e736f6c652e6c6f675afa50613d5a84519283612d32565b602582527f4578636565646564206d6178696d756d206d697373656420636f6e747269627560208301526474696f6e7360d81b8483015261426d565b90829138613982565b508360005260116020528160002081600052602052816000205415613b7f565b801580613df5575b15613dd35760006138d7565b60018101808211156138d757634e487b7160e01b600052601160045260246000fd5b5082600052600960205260026040600020015415613dc7565b5050565b5080600052600960205260ff60406000205460081c16156138b0565b6001600160a01b03166000818152600a6020526040902060020154613e559060ff166133bb565b80600052600a60205260ff60406000205416600481101561188557600314613ece575b6000818152600a60209081526040808320600201805460ff1916905560099091528120600381018290556004018190557fe392f41381026e9d0df0330d30d754dcd2d3e5b50efd896ebf8ec1499f8497159080a2565b806000526009602052604060002061010061ff0019825416179055613ef460155461317f565b601555613e78565b600260005414613f0d576002600055565b633ee5aeb560e01b60005260046000fd5b600b5460015b818110613f3357505050600090565b613f49613f448361195d848761303b565b612f37565b905460039190911b1c6001600160a01b031660008181526009602052604090205460081c60ff1680613f8a575b613f835750600101613f24565b9250505090565b5080600052600a60205260ff6002604060002001541615613f76565b9060ff601a5460a01c16600014613fcd57601a54612d8c92906001600160a01b0316614191565b612d8c916000918291829182916001600160a01b03165af16106b56135e7565b6040516323b872dd60e01b60208201526001600160a01b039283166024820152929091166044830152606480830193909352918152612d8c91614031608483612d32565b6144d4565b60405161404281612d17565b60018152600460208201926001845260408301428152606084016000815260808501916000835260a08601936000855260018060a01b0316968760005260096020526140a2604060002097511515889060ff801983541691151516179055565b51865461ff00191690151560081b61ff0016178655516001860155516002850155516003840155519101556014546140d99061317f565b60145580600052600f6020526000196040600020556140f960155461317f565b6015557f7f3b9effe05cfb4f31f854004de03199fd03fe56bf38a48b2aa9a9f4402d6e236020604051428152a2565b6001600160a01b03166000818152600d60205260409020546130355760009081526009602052604090206002810154600390910154662386f26fc1000080820291801590830490911417156109d357808211614185575050600090565b61418e9161300c565b90565b60405163a9059cbb60e01b60208201526001600160a01b039092166024830152604480830193909352918152612d8c91614031606483612d32565b6141fc614210600093928493604051938492632d839cb360e21b6020850152604060248501526064840190612e04565b90604483015203601f198101835282612d32565b6020815191016a636f6e736f6c652e6c6f675afa50565b61425761421060009392849360405193849263c3b5563560e01b6020850152604060248501526064840190612e04565b901515604483015203601f198101835282612d32565b9060ff6008541660048110156118855780156144cf5760008160028103614485575050662386f26fc1000060018060a01b03841680600052600960205260046040600020016142bc815461317f565b905580600052600960205260036004604060002001541015614456575b505b6040516142e781612ce1565b6142f18382613248565b602081019484865260408201600181526060830190428252608084019285845260018060a01b03169788600052600a6020526040600020945160048110156118855760009060ff80198854169116178655600186019151908151916001600160401b038311610c785761436883610b8f8654612ca7565b602091601f84116001146143ee5793612427846143d99c9a98956143b8956000805160206145308339815191529f9d9b989560049a96926124b75750508160011b916000199060031b1c19161790565b516003840155519101556143e4604051948594606086526060860190612e04565b926020850190612ef3565b60408301520390a2565b9190601f198416858452828420935b81811061443e5750846143b894600498946000805160206145308339815191529f9d9b98946143d99f9d9b986001951061251957505050811b01905561242a565b929360206001819287860151815501950193016143fd565b91506003916000526009602052604060002061ff0019815416905561447c6015546132cb565b601555386142d9565b6003036142db576001600160a01b038416808252600960205260408220805461ff00191690556015546144b7906132cb565b601555815260096020528060046040822001556142db565b505050565b906000602091828151910182855af11561068e576000513d61452657506001600160a01b0381163b155b6145055750565b635274afe760e01b60009081526001600160a01b0391909116600452602490fd5b600114156144fe56fe92ae28d1fd76d6083fe6c8a95100bb3b117195e864014e4aa144d26fa47d0c17a264697066735822122027eb803fd4f71d8a83ec4c2e3f28b4ec0cbc8c88be4db9c9db13cb622ffbd14064736f6c634300081c0033a2646970667358221220ae1beb52fa9ff81456f61ad1214201ba88510ee7d77f27509f628f36cec12e3b64736f6c634300081c0033","opcodes":"PUSH1 0x80 CALLVALUE PUSH1 0xBC JUMPI PUSH1 0x1F PUSH2 0x5B3F CODESIZE DUP2 SWAP1 SUB SWAP2 DUP3 ADD PUSH1 0x1F NOT AND DUP4 ADD SWAP2 PUSH1 0x1 PUSH1 0x1 PUSH1 0x40 SHL SUB DUP4 GT DUP5 DUP5 LT OR PUSH1 0xC1 JUMPI DUP1 DUP5 SWAP3 PUSH1 0x20 SWAP5 PUSH1 0x40 MSTORE DUP4 CODECOPY DUP2 ADD SUB SLT PUSH1 0xBC JUMPI MLOAD PUSH1 0x1 PUSH1 0x1 PUSH1 0xA0 SHL SUB DUP2 AND SWAP1 DUP2 SWAP1 SUB PUSH1 0xBC JUMPI DUP1 ISZERO PUSH1 0xA6 JUMPI PUSH1 0x0 DUP1 SLOAD PUSH1 0x1 PUSH1 0x1 PUSH1 0xA0 SHL SUB NOT DUP2 AND DUP4 OR DUP3 SSTORE PUSH1 0x40 MLOAD SWAP3 SWAP2 PUSH1 0x1 PUSH1 0x1 PUSH1 0xA0 SHL SUB SWAP1 SWAP2 AND SWAP1 PUSH32 0x8BE0079C531659141344CD1FD0A4F28419497F9722A3DAAFE3B4186F6B6457E0 SWAP1 DUP1 LOG3 PUSH2 0x5A67 SWAP1 DUP2 PUSH2 0xD8 DUP3 CODECOPY RETURN JUMPDEST PUSH4 0x1E4FBDF7 PUSH1 0xE0 SHL PUSH1 0x0 MSTORE PUSH1 0x0 PUSH1 0x4 MSTORE PUSH1 0x24 PUSH1 0x0 REVERT JUMPDEST PUSH1 0x0 DUP1 REVERT JUMPDEST PUSH4 0x4E487B71 PUSH1 0xE0 SHL PUSH1 0x0 MSTORE PUSH1 0x41 PUSH1 0x4 MSTORE PUSH1 0x24 PUSH1 0x0 REVERT INVALID PUSH1 0x80 DUP1 PUSH1 0x40 MSTORE PUSH1 0x4 CALLDATASIZE LT ISZERO PUSH2 0x13 JUMPI PUSH1 0x0 DUP1 REVERT JUMPDEST PUSH1 0x0 CALLDATALOAD PUSH1 0xE0 SHR SWAP1 DUP2 PUSH4 0xC49C0A2 EQ PUSH2 0xBEC JUMPI POP DUP1 PUSH4 0x1B89C1AD EQ PUSH2 0xBC8 JUMPI DUP1 PUSH4 0x21CD3CAE EQ PUSH2 0xB48 JUMPI DUP1 PUSH4 0x3F4BA83A EQ PUSH2 0xAD7 JUMPI DUP1 PUSH4 0x4D88D1AD EQ PUSH2 0xA47 JUMPI DUP1 PUSH4 0x5C975ABB EQ PUSH2 0xA21 JUMPI DUP1 PUSH4 0x715018A6 EQ PUSH2 0x9C8 JUMPI DUP1 PUSH4 0x73C7125B EQ PUSH2 0x38E JUMPI DUP1 PUSH4 0x8456CB59 EQ PUSH2 0x32C JUMPI DUP1 PUSH4 0x8DA5CB5B EQ PUSH2 0x303 JUMPI DUP1 PUSH4 0x9C6F5374 EQ PUSH2 0x2E7 JUMPI DUP1 PUSH4 0xC2E70BB6 EQ PUSH2 0x2A8 JUMPI DUP1 PUSH4 0xD24924FE EQ PUSH2 0x28A JUMPI DUP1 PUSH4 0xD8802C46 EQ PUSH2 0x227 JUMPI DUP1 PUSH4 0xD9A67220 EQ PUSH2 0x20B JUMPI DUP1 PUSH4 0xEA0E35B1 EQ PUSH2 0x1EF JUMPI DUP1 PUSH4 0xF2FDE38B EQ PUSH2 0x166 JUMPI PUSH4 0xFD16C1D3 EQ PUSH2 0xE5 JUMPI PUSH1 0x0 DUP1 REVERT JUMPDEST CALLVALUE PUSH2 0x161 JUMPI PUSH1 0x20 CALLDATASIZE PUSH1 0x3 NOT ADD SLT PUSH2 0x161 JUMPI PUSH1 0x4 CALLDATALOAD PUSH1 0x3 SLOAD DUP2 LT ISZERO PUSH2 0x161 JUMPI PUSH1 0x0 SWAP1 PUSH1 0x3 SLOAD DUP2 LT ISZERO PUSH2 0x14D JUMPI PUSH1 0x3 SWAP1 SWAP2 MSTORE PUSH32 0xC2575A0E9E593C00F959F8C92F12DB2869C3395A3B0502D05E2516446F71F85B ADD SLOAD PUSH1 0x40 MLOAD PUSH1 0x1 PUSH1 0x1 PUSH1 0xA0 SHL SUB SWAP1 SWAP2 AND DUP2 MSTORE PUSH1 0x20 SWAP1 RETURN JUMPDEST PUSH4 0x4E487B71 PUSH1 0xE0 SHL DUP3 MSTORE PUSH1 0x32 PUSH1 0x4 MSTORE PUSH1 0x24 DUP3 REVERT JUMPDEST PUSH1 0x0 DUP1 REVERT JUMPDEST CALLVALUE PUSH2 0x161 JUMPI PUSH1 0x20 CALLDATASIZE PUSH1 0x3 NOT ADD SLT PUSH2 0x161 JUMPI PUSH2 0x17F PUSH2 0xC4F JUMP JUMPDEST PUSH2 0x187 PUSH2 0xD6E JUMP JUMPDEST PUSH1 0x1 PUSH1 0x1 PUSH1 0xA0 SHL SUB AND DUP1 ISZERO PUSH2 0x1D9 JUMPI PUSH1 0x0 DUP1 SLOAD PUSH1 0x1 PUSH1 0x1 PUSH1 0xA0 SHL SUB NOT DUP2 AND DUP4 OR DUP3 SSTORE PUSH1 0x1 PUSH1 0x1 PUSH1 0xA0 SHL SUB AND SWAP1 PUSH32 0x8BE0079C531659141344CD1FD0A4F28419497F9722A3DAAFE3B4186F6B6457E0 SWAP1 DUP1 LOG3 STOP JUMPDEST PUSH4 0x1E4FBDF7 PUSH1 0xE0 SHL PUSH1 0x0 MSTORE PUSH1 0x0 PUSH1 0x4 MSTORE PUSH1 0x24 PUSH1 0x0 REVERT JUMPDEST CALLVALUE PUSH2 0x161 JUMPI PUSH1 0x0 CALLDATASIZE PUSH1 0x3 NOT ADD SLT PUSH2 0x161 JUMPI PUSH1 0x20 PUSH1 0x40 MLOAD PUSH1 0x64 DUP2 MSTORE RETURN JUMPDEST CALLVALUE PUSH2 0x161 JUMPI PUSH1 0x0 CALLDATASIZE PUSH1 0x3 NOT ADD SLT PUSH2 0x161 JUMPI PUSH1 0x20 PUSH1 0x40 MLOAD PUSH1 0x3 DUP2 MSTORE RETURN JUMPDEST CALLVALUE PUSH2 0x161 JUMPI PUSH1 0x40 CALLDATASIZE PUSH1 0x3 NOT ADD SLT PUSH2 0x161 JUMPI PUSH2 0x240 PUSH2 0xC4F JUMP JUMPDEST PUSH1 0x1 PUSH1 0x1 PUSH1 0xA0 SHL SUB AND PUSH1 0x0 SWAP1 DUP2 MSTORE PUSH1 0x1 PUSH1 0x20 MSTORE PUSH1 0x40 SWAP1 KECCAK256 DUP1 SLOAD PUSH1 0x24 CALLDATALOAD SWAP2 SWAP1 DUP3 LT ISZERO PUSH2 0x161 JUMPI PUSH1 0x20 SWAP2 PUSH2 0x271 SWAP2 PUSH2 0xCFF JUMP JUMPDEST SWAP1 SLOAD PUSH1 0x40 MLOAD PUSH1 0x3 SWAP3 SWAP1 SWAP3 SHL SHR PUSH1 0x1 PUSH1 0x1 PUSH1 0xA0 SHL SUB AND DUP2 MSTORE RETURN JUMPDEST CALLVALUE PUSH2 0x161 JUMPI PUSH1 0x0 CALLDATASIZE PUSH1 0x3 NOT ADD SLT PUSH2 0x161 JUMPI PUSH1 0x20 PUSH1 0x4 SLOAD PUSH1 0x40 MLOAD SWAP1 DUP2 MSTORE RETURN JUMPDEST CALLVALUE PUSH2 0x161 JUMPI PUSH1 0x20 CALLDATASIZE PUSH1 0x3 NOT ADD SLT PUSH2 0x161 JUMPI PUSH1 0x1 PUSH1 0x1 PUSH1 0xA0 SHL SUB PUSH2 0x2C9 PUSH2 0xC4F JUMP JUMPDEST AND PUSH1 0x0 MSTORE PUSH1 0x2 PUSH1 0x20 MSTORE PUSH1 0x20 PUSH1 0xFF PUSH1 0x40 PUSH1 0x0 KECCAK256 SLOAD AND PUSH1 0x40 MLOAD SWAP1 ISZERO ISZERO DUP2 MSTORE RETURN JUMPDEST CALLVALUE PUSH2 0x161 JUMPI PUSH1 0x0 CALLDATASIZE PUSH1 0x3 NOT ADD SLT PUSH2 0x161 JUMPI PUSH1 0x20 PUSH1 0x40 MLOAD PUSH1 0xA DUP2 MSTORE RETURN JUMPDEST CALLVALUE PUSH2 0x161 JUMPI PUSH1 0x0 CALLDATASIZE PUSH1 0x3 NOT ADD SLT PUSH2 0x161 JUMPI PUSH1 0x0 SLOAD PUSH1 0x40 MLOAD PUSH1 0x1 PUSH1 0x1 PUSH1 0xA0 SHL SUB SWAP1 SWAP2 AND DUP2 MSTORE PUSH1 0x20 SWAP1 RETURN JUMPDEST CALLVALUE PUSH2 0x161 JUMPI PUSH1 0x0 CALLDATASIZE PUSH1 0x3 NOT ADD SLT PUSH2 0x161 JUMPI PUSH2 0x345 PUSH2 0xD6E JUMP JUMPDEST PUSH2 0x34D PUSH2 0xD97 JUMP JUMPDEST PUSH1 0x0 DUP1 SLOAD PUSH1 0xFF PUSH1 0xA0 SHL NOT AND PUSH1 0x1 PUSH1 0xA0 SHL OR SWAP1 SSTORE PUSH1 0x40 MLOAD CALLER DUP2 MSTORE PUSH32 0x62E78CEA01BEE320CD4E420270B5EA74000D11B0C9F74754EBDBFC544B05A258 SWAP1 PUSH1 0x20 SWAP1 LOG1 STOP JUMPDEST CALLVALUE PUSH2 0x161 JUMPI PUSH1 0x20 CALLDATASIZE PUSH1 0x3 NOT ADD SLT PUSH2 0x161 JUMPI PUSH1 0x4 CALLDATALOAD PUSH8 0xFFFFFFFFFFFFFFFF DUP2 GT PUSH2 0x161 JUMPI PUSH2 0x1A0 PUSH1 0x3 NOT DUP3 CALLDATASIZE SUB ADD SLT PUSH2 0x161 JUMPI PUSH1 0x40 MLOAD PUSH2 0x1A0 DUP2 ADD DUP2 DUP2 LT PUSH8 0xFFFFFFFFFFFFFFFF DUP3 GT OR PUSH2 0x781 JUMPI PUSH1 0x40 MSTORE DUP2 PUSH1 0x4 ADD CALLDATALOAD PUSH8 0xFFFFFFFFFFFFFFFF DUP2 GT PUSH2 0x161 JUMPI PUSH2 0x402 SWAP1 PUSH1 0x4 CALLDATASIZE SWAP2 DUP6 ADD ADD PUSH2 0xC9B JUMP JUMPDEST DUP2 MSTORE PUSH1 0x20 DUP2 ADD PUSH1 0x24 DUP4 ADD CALLDATALOAD DUP2 MSTORE PUSH1 0x40 DUP3 ADD SWAP1 PUSH1 0x44 DUP5 ADD CALLDATALOAD DUP3 MSTORE PUSH1 0x60 DUP4 ADD PUSH1 0x64 DUP6 ADD CALLDATALOAD DUP2 MSTORE PUSH1 0x80 DUP5 ADD SWAP1 PUSH1 0x84 DUP7 ADD CALLDATALOAD DUP3 MSTORE PUSH1 0xA4 DUP7 ADD CALLDATALOAD PUSH8 0xFFFFFFFFFFFFFFFF DUP2 GT PUSH2 0x161 JUMPI PUSH2 0x456 SWAP1 PUSH1 0x4 CALLDATASIZE SWAP2 DUP10 ADD ADD PUSH2 0xC9B JUMP JUMPDEST SWAP2 PUSH1 0xA0 DUP7 ADD SWAP3 DUP4 MSTORE PUSH1 0xC4 DUP8 ADD CALLDATALOAD SWAP3 PUSH1 0x4 DUP5 LT ISZERO PUSH2 0x161 JUMPI PUSH1 0xC0 DUP8 ADD SWAP4 DUP5 MSTORE PUSH2 0x480 PUSH1 0xE4 DUP10 ADD PUSH2 0xCF2 JUMP JUMPDEST SWAP1 PUSH1 0xE0 DUP9 ADD SWAP2 DUP3 MSTORE PUSH2 0x495 PUSH2 0x104 DUP11 ADD PUSH2 0xCF2 JUMP JUMPDEST SWAP3 PUSH2 0x100 DUP10 ADD SWAP4 DUP5 MSTORE PUSH2 0x4AB PUSH2 0x124 DUP12 ADD PUSH2 0xC65 JUMP JUMPDEST PUSH2 0x120 DUP11 ADD MSTORE PUSH2 0x4BE PUSH2 0x144 DUP12 ADD PUSH2 0xC65 JUMP JUMPDEST SWAP10 PUSH2 0x140 DUP11 ADD SWAP11 DUP12 MSTORE PUSH2 0x160 DUP11 ADD PUSH2 0x164 DUP3 ADD CALLDATALOAD DUP2 MSTORE PUSH2 0x184 PUSH2 0x180 DUP13 ADD SWAP3 ADD CALLDATALOAD DUP3 MSTORE PUSH2 0x4E9 PUSH2 0xD97 JUMP JUMPDEST DUP11 MLOAD MLOAD DUP1 ISZERO ISZERO SWAP1 DUP2 PUSH2 0x9BC JUMPI JUMPDEST POP ISZERO PUSH2 0x981 JUMPI DUP9 MLOAD PUSH7 0x38D7EA4C68000 DUP2 LT ISZERO SWAP1 DUP2 PUSH2 0x96D JUMPI JUMPDEST POP ISZERO PUSH2 0x928 JUMPI DUP10 MLOAD PUSH1 0x3 DUP2 LT ISZERO SWAP1 DUP2 PUSH2 0x91C JUMPI JUMPDEST POP ISZERO PUSH2 0x8E1 JUMPI DUP7 MLOAD TIMESTAMP LT ISZERO PUSH2 0x89C JUMPI DUP3 MLOAD DUP8 MLOAD LT ISZERO PUSH2 0x84D JUMPI DUP3 MLOAD PUSH4 0x1E13380 TIMESTAMP ADD SWAP1 DUP2 TIMESTAMP GT PUSH2 0x837 JUMPI GT PUSH2 0x7F2 JUMPI CALLER PUSH1 0x0 MSTORE PUSH1 0x1 PUSH1 0x20 MSTORE PUSH1 0xA PUSH1 0x40 PUSH1 0x0 KECCAK256 SLOAD LT ISZERO PUSH2 0x7AD JUMPI PUSH1 0x4 SWAP12 DUP12 MLOAD DUP11 MLOAD SWAP7 DUP13 MLOAD SWAP10 MLOAD SWAP6 MLOAD SWAP7 MLOAD SWAP11 MLOAD SWAP15 DUP16 LT ISZERO PUSH2 0x797 JUMPI MLOAD ISZERO ISZERO SWAP8 MLOAD ISZERO ISZERO SWAP2 PUSH1 0x1 DUP1 PUSH1 0xA0 SHL SUB SWAP1 MLOAD AND SWAP3 MLOAD SWAP4 MLOAD SWAP7 PUSH1 0x40 MLOAD SWAP11 PUSH2 0x4C7A SWAP8 DUP9 DUP14 ADD SWAP8 DUP14 DUP10 LT PUSH8 0xFFFFFFFFFFFFFFFF DUP11 GT OR PUSH2 0x781 JUMPI DUP14 SWAP13 PUSH2 0x5DE PUSH2 0x600 SWAP7 DUP16 SWAP13 PUSH2 0x180 SWAP14 PUSH2 0xDB8 SWAP1 CODECOPY PUSH2 0x1A0 DUP13 MSTORE PUSH2 0x1A0 DUP13 ADD SWAP1 PUSH2 0xD2D JUMP JUMPDEST SWAP5 PUSH1 0x20 DUP12 ADD MSTORE PUSH1 0x40 DUP11 ADD MSTORE PUSH1 0x60 DUP10 ADD MSTORE PUSH1 0x80 DUP9 ADD MSTORE DUP7 DUP3 SUB PUSH1 0xA0 DUP9 ADD MSTORE PUSH2 0xD2D JUMP JUMPDEST SWAP7 PUSH1 0x0 SWAP14 PUSH1 0xC0 DUP7 ADD MSTORE PUSH1 0xE0 DUP6 ADD MSTORE PUSH2 0x100 DUP5 ADD MSTORE CALLER PUSH2 0x120 DUP5 ADD MSTORE PUSH2 0x140 DUP4 ADD MSTORE PUSH2 0x160 DUP3 ADD MSTORE ADD MSTORE SUB SWAP1 DUP6 CREATE DUP1 ISZERO PUSH2 0x776 JUMPI PUSH1 0x1 DUP1 PUSH1 0xA0 SHL SUB AND SWAP3 CALLER DUP6 MSTORE PUSH1 0x1 PUSH1 0x20 MSTORE PUSH1 0x40 DUP6 KECCAK256 DUP1 SLOAD SWAP1 PUSH1 0x1 PUSH1 0x40 SHL DUP3 LT ISZERO PUSH2 0x762 JUMPI SWAP1 PUSH2 0x667 SWAP2 PUSH1 0x1 DUP3 ADD DUP2 SSTORE PUSH2 0xCFF JUMP JUMPDEST DUP2 SLOAD PUSH1 0x3 SWAP2 DUP3 SHL DUP8 DUP2 SHL PUSH1 0x1 PUSH1 0x1 PUSH1 0xA0 SHL SUB SWAP1 SWAP2 SHL NOT SWAP1 SWAP2 AND OR SWAP1 SWAP2 SSTORE DUP5 DUP7 MSTORE PUSH1 0x2 PUSH1 0x20 MSTORE PUSH1 0x40 DUP7 KECCAK256 DUP1 SLOAD PUSH1 0xFF NOT AND PUSH1 0x1 OR SWAP1 SSTORE SLOAD PUSH1 0x1 PUSH1 0x40 SHL DUP2 LT ISZERO PUSH2 0x74E JUMPI DUP1 PUSH1 0x1 PUSH2 0x6BA SWAP3 ADD PUSH1 0x3 SSTORE PUSH1 0x3 PUSH2 0xCFF JUMP JUMPDEST DUP2 SLOAD PUSH1 0x1 PUSH1 0x1 PUSH1 0xA0 SHL SUB PUSH1 0x3 SWAP3 SWAP1 SWAP3 SHL SWAP2 DUP3 SHL NOT AND SWAP1 DUP7 SWAP1 SHL OR SWAP1 SSTORE PUSH1 0x4 SLOAD PUSH1 0x0 NOT DUP2 EQ PUSH2 0x73A JUMPI SWAP1 PUSH1 0x1 PUSH32 0xDABFBDDD3C17390733A672DB1121758DA191FC5B5CE4A81A1BBE0D8AB456FF63 SWAP4 SWAP3 ADD PUSH1 0x4 SSTORE MLOAD SWAP1 MLOAD SWAP3 MLOAD PUSH2 0x726 PUSH1 0x40 MLOAD SWAP3 PUSH1 0x60 DUP5 MSTORE PUSH1 0x60 DUP5 ADD SWAP1 PUSH2 0xD2D JUMP JUMPDEST SWAP4 PUSH1 0x20 DUP4 ADD MSTORE PUSH1 0x40 DUP3 ADD MSTORE DUP1 CALLER SWAP4 SUB SWAP1 LOG3 DUP1 RETURN JUMPDEST PUSH4 0x4E487B71 PUSH1 0xE0 SHL DUP7 MSTORE PUSH1 0x11 PUSH1 0x4 MSTORE PUSH1 0x24 DUP7 REVERT JUMPDEST PUSH4 0x4E487B71 PUSH1 0xE0 SHL DUP7 MSTORE PUSH1 0x41 PUSH1 0x4 MSTORE PUSH1 0x24 DUP7 REVERT JUMPDEST PUSH4 0x4E487B71 PUSH1 0xE0 SHL DUP8 MSTORE PUSH1 0x41 PUSH1 0x4 MSTORE PUSH1 0x24 DUP8 REVERT JUMPDEST PUSH1 0x40 MLOAD RETURNDATASIZE DUP7 DUP3 RETURNDATACOPY RETURNDATASIZE SWAP1 REVERT JUMPDEST PUSH4 0x4E487B71 PUSH1 0xE0 SHL PUSH1 0x0 MSTORE PUSH1 0x41 PUSH1 0x4 MSTORE PUSH1 0x24 PUSH1 0x0 REVERT JUMPDEST PUSH4 0x4E487B71 PUSH1 0xE0 SHL PUSH1 0x0 MSTORE PUSH1 0x21 PUSH1 0x4 MSTORE PUSH1 0x24 PUSH1 0x0 REVERT JUMPDEST PUSH1 0x40 MLOAD PUSH3 0x461BCD PUSH1 0xE5 SHL DUP2 MSTORE PUSH1 0x20 PUSH1 0x4 DUP3 ADD MSTORE PUSH1 0x17 PUSH1 0x24 DUP3 ADD MSTORE PUSH32 0x546F6F206D616E792067726F7570732063726561746564000000000000000000 PUSH1 0x44 DUP3 ADD MSTORE PUSH1 0x64 SWAP1 REVERT JUMPDEST PUSH1 0x40 MLOAD PUSH3 0x461BCD PUSH1 0xE5 SHL DUP2 MSTORE PUSH1 0x20 PUSH1 0x4 DUP3 ADD MSTORE PUSH1 0x1A PUSH1 0x24 DUP3 ADD MSTORE PUSH32 0x456E64206461746520746F6F2066617220696E20667574757265000000000000 PUSH1 0x44 DUP3 ADD MSTORE PUSH1 0x64 SWAP1 REVERT JUMPDEST PUSH4 0x4E487B71 PUSH1 0xE0 SHL PUSH1 0x0 MSTORE PUSH1 0x11 PUSH1 0x4 MSTORE PUSH1 0x24 PUSH1 0x0 REVERT JUMPDEST PUSH1 0x40 MLOAD PUSH3 0x461BCD PUSH1 0xE5 SHL DUP2 MSTORE PUSH1 0x20 PUSH1 0x4 DUP3 ADD MSTORE PUSH1 0x21 PUSH1 0x24 DUP3 ADD MSTORE PUSH32 0x456E642064617465206D75737420626520616674657220737461727420646174 PUSH1 0x44 DUP3 ADD MSTORE PUSH1 0x65 PUSH1 0xF8 SHL PUSH1 0x64 DUP3 ADD MSTORE PUSH1 0x84 SWAP1 REVERT JUMPDEST PUSH1 0x40 MLOAD PUSH3 0x461BCD PUSH1 0xE5 SHL DUP2 MSTORE PUSH1 0x20 PUSH1 0x4 DUP3 ADD MSTORE PUSH1 0x1C PUSH1 0x24 DUP3 ADD MSTORE PUSH32 0x53746172742064617465206D75737420626520696E2066757475726500000000 PUSH1 0x44 DUP3 ADD MSTORE PUSH1 0x64 SWAP1 REVERT JUMPDEST PUSH1 0x40 MLOAD PUSH3 0x461BCD PUSH1 0xE5 SHL DUP2 MSTORE PUSH1 0x20 PUSH1 0x4 DUP3 ADD MSTORE PUSH1 0x13 PUSH1 0x24 DUP3 ADD MSTORE PUSH19 0x496E76616C6964206D6178206D656D62657273 PUSH1 0x68 SHL PUSH1 0x44 DUP3 ADD MSTORE PUSH1 0x64 SWAP1 REVERT JUMPDEST PUSH1 0x64 SWAP2 POP GT ISZERO DUP14 PUSH2 0x524 JUMP JUMPDEST PUSH1 0x40 MLOAD PUSH3 0x461BCD PUSH1 0xE5 SHL DUP2 MSTORE PUSH1 0x20 PUSH1 0x4 DUP3 ADD MSTORE PUSH1 0x1B PUSH1 0x24 DUP3 ADD MSTORE PUSH32 0x496E76616C696420636F6E747269627574696F6E20616D6F756E740000000000 PUSH1 0x44 DUP3 ADD MSTORE PUSH1 0x64 SWAP1 REVERT JUMPDEST PUSH9 0x56BC75E2D63100000 SWAP2 POP GT ISZERO DUP14 PUSH2 0x510 JUMP JUMPDEST PUSH1 0x40 MLOAD PUSH3 0x461BCD PUSH1 0xE5 SHL DUP2 MSTORE PUSH1 0x20 PUSH1 0x4 DUP3 ADD MSTORE PUSH1 0x13 PUSH1 0x24 DUP3 ADD MSTORE PUSH19 0x92DCECC2D8D2C840DCC2DACA40D8CADCCEE8D PUSH1 0x6B SHL PUSH1 0x44 DUP3 ADD MSTORE PUSH1 0x64 SWAP1 REVERT JUMPDEST PUSH1 0x32 SWAP2 POP GT ISZERO DUP14 PUSH2 0x4F6 JUMP JUMPDEST CALLVALUE PUSH2 0x161 JUMPI PUSH1 0x0 CALLDATASIZE PUSH1 0x3 NOT ADD SLT PUSH2 0x161 JUMPI PUSH2 0x9E1 PUSH2 0xD6E JUMP JUMPDEST PUSH1 0x0 DUP1 SLOAD PUSH1 0x1 PUSH1 0x1 PUSH1 0xA0 SHL SUB NOT DUP2 AND DUP3 SSTORE PUSH1 0x1 PUSH1 0x1 PUSH1 0xA0 SHL SUB AND PUSH32 0x8BE0079C531659141344CD1FD0A4F28419497F9722A3DAAFE3B4186F6B6457E0 DUP3 DUP1 LOG3 STOP JUMPDEST CALLVALUE PUSH2 0x161 JUMPI PUSH1 0x0 CALLDATASIZE PUSH1 0x3 NOT ADD SLT PUSH2 0x161 JUMPI PUSH1 0x20 PUSH1 0xFF PUSH1 0x0 SLOAD PUSH1 0xA0 SHR AND PUSH1 0x40 MLOAD SWAP1 ISZERO ISZERO DUP2 MSTORE RETURN JUMPDEST CALLVALUE PUSH2 0x161 JUMPI PUSH1 0x20 CALLDATASIZE PUSH1 0x3 NOT ADD SLT PUSH2 0x161 JUMPI PUSH1 0x1 PUSH1 0x1 PUSH1 0xA0 SHL SUB PUSH2 0xA68 PUSH2 0xC4F JUMP JUMPDEST AND PUSH1 0x0 MSTORE PUSH1 0x1 PUSH1 0x20 MSTORE PUSH1 0x40 PUSH1 0x0 KECCAK256 PUSH1 0x40 MLOAD SWAP1 DUP2 PUSH1 0x20 DUP3 SLOAD SWAP2 DUP3 DUP2 MSTORE ADD SWAP2 PUSH1 0x0 MSTORE PUSH1 0x20 PUSH1 0x0 KECCAK256 SWAP1 PUSH1 0x0 JUMPDEST DUP2 DUP2 LT PUSH2 0xAB8 JUMPI PUSH2 0xAB4 DUP6 PUSH2 0xAA8 DUP2 DUP8 SUB DUP3 PUSH2 0xC79 JUMP JUMPDEST PUSH1 0x40 MLOAD SWAP2 DUP3 SWAP2 DUP3 PUSH2 0xC0C JUMP JUMPDEST SUB SWAP1 RETURN JUMPDEST DUP3 SLOAD PUSH1 0x1 PUSH1 0x1 PUSH1 0xA0 SHL SUB AND DUP5 MSTORE PUSH1 0x20 SWAP1 SWAP4 ADD SWAP3 PUSH1 0x1 SWAP3 DUP4 ADD SWAP3 ADD PUSH2 0xA91 JUMP JUMPDEST CALLVALUE PUSH2 0x161 JUMPI PUSH1 0x0 CALLDATASIZE PUSH1 0x3 NOT ADD SLT PUSH2 0x161 JUMPI PUSH2 0xAF0 PUSH2 0xD6E JUMP JUMPDEST PUSH1 0x0 SLOAD PUSH1 0xFF DUP2 PUSH1 0xA0 SHR AND ISZERO PUSH2 0xB37 JUMPI PUSH1 0xFF PUSH1 0xA0 SHL NOT AND PUSH1 0x0 SSTORE PUSH1 0x40 MLOAD CALLER DUP2 MSTORE PUSH32 0x5DB9EE0A495BF2E6FF9C91A7834C1BA4FDD244A5E8AA4E537BD38AEAE4B073AA SWAP1 PUSH1 0x20 SWAP1 LOG1 STOP JUMPDEST PUSH4 0x8DFC202B PUSH1 0xE0 SHL PUSH1 0x0 MSTORE PUSH1 0x4 PUSH1 0x0 REVERT JUMPDEST CALLVALUE PUSH2 0x161 JUMPI PUSH1 0x0 CALLDATASIZE PUSH1 0x3 NOT ADD SLT PUSH2 0x161 JUMPI PUSH1 0x40 MLOAD DUP1 PUSH1 0x20 PUSH1 0x3 SLOAD SWAP2 DUP3 DUP2 MSTORE ADD SWAP1 PUSH1 0x3 PUSH1 0x0 MSTORE PUSH32 0xC2575A0E9E593C00F959F8C92F12DB2869C3395A3B0502D05E2516446F71F85B SWAP1 PUSH1 0x0 JUMPDEST DUP2 DUP2 LT PUSH2 0xBA9 JUMPI PUSH2 0xAB4 DUP6 PUSH2 0xAA8 DUP2 DUP8 SUB DUP3 PUSH2 0xC79 JUMP JUMPDEST DUP3 SLOAD PUSH1 0x1 PUSH1 0x1 PUSH1 0xA0 SHL SUB AND DUP5 MSTORE PUSH1 0x20 SWAP1 SWAP4 ADD SWAP3 PUSH1 0x1 SWAP3 DUP4 ADD SWAP3 ADD PUSH2 0xB92 JUMP JUMPDEST CALLVALUE PUSH2 0x161 JUMPI PUSH1 0x0 CALLDATASIZE PUSH1 0x3 NOT ADD SLT PUSH2 0x161 JUMPI PUSH1 0x20 PUSH1 0x40 MLOAD PUSH9 0x56BC75E2D63100000 DUP2 MSTORE RETURN JUMPDEST CALLVALUE PUSH2 0x161 JUMPI PUSH1 0x0 CALLDATASIZE PUSH1 0x3 NOT ADD SLT PUSH2 0x161 JUMPI DUP1 PUSH7 0x38D7EA4C68000 PUSH1 0x20 SWAP3 MSTORE RETURN JUMPDEST PUSH1 0x20 PUSH1 0x40 DUP2 DUP4 ADD SWAP3 DUP3 DUP2 MSTORE DUP5 MLOAD DUP1 SWAP5 MSTORE ADD SWAP3 ADD SWAP1 PUSH1 0x0 JUMPDEST DUP2 DUP2 LT PUSH2 0xC30 JUMPI POP POP POP SWAP1 JUMP JUMPDEST DUP3 MLOAD PUSH1 0x1 PUSH1 0x1 PUSH1 0xA0 SHL SUB AND DUP5 MSTORE PUSH1 0x20 SWAP4 DUP5 ADD SWAP4 SWAP1 SWAP3 ADD SWAP2 PUSH1 0x1 ADD PUSH2 0xC23 JUMP JUMPDEST PUSH1 0x4 CALLDATALOAD SWAP1 PUSH1 0x1 PUSH1 0x1 PUSH1 0xA0 SHL SUB DUP3 AND DUP3 SUB PUSH2 0x161 JUMPI JUMP JUMPDEST CALLDATALOAD SWAP1 PUSH1 0x1 PUSH1 0x1 PUSH1 0xA0 SHL SUB DUP3 AND DUP3 SUB PUSH2 0x161 JUMPI JUMP JUMPDEST SWAP1 PUSH1 0x1F DUP1 NOT SWAP2 ADD AND DUP2 ADD SWAP1 DUP2 LT PUSH8 0xFFFFFFFFFFFFFFFF DUP3 GT OR PUSH2 0x781 JUMPI PUSH1 0x40 MSTORE JUMP JUMPDEST DUP2 PUSH1 0x1F DUP3 ADD SLT ISZERO PUSH2 0x161 JUMPI DUP1 CALLDATALOAD SWAP1 PUSH8 0xFFFFFFFFFFFFFFFF DUP3 GT PUSH2 0x781 JUMPI PUSH1 0x40 MLOAD SWAP3 PUSH2 0xCD0 PUSH1 0x1F DUP5 ADD PUSH1 0x1F NOT AND PUSH1 0x20 ADD DUP6 PUSH2 0xC79 JUMP JUMPDEST DUP3 DUP5 MSTORE PUSH1 0x20 DUP4 DUP4 ADD ADD GT PUSH2 0x161 JUMPI DUP2 PUSH1 0x0 SWAP3 PUSH1 0x20 DUP1 SWAP4 ADD DUP4 DUP7 ADD CALLDATACOPY DUP4 ADD ADD MSTORE SWAP1 JUMP JUMPDEST CALLDATALOAD SWAP1 DUP2 ISZERO ISZERO DUP3 SUB PUSH2 0x161 JUMPI JUMP JUMPDEST DUP1 SLOAD DUP3 LT ISZERO PUSH2 0xD17 JUMPI PUSH1 0x0 MSTORE PUSH1 0x20 PUSH1 0x0 KECCAK256 ADD SWAP1 PUSH1 0x0 SWAP1 JUMP JUMPDEST PUSH4 0x4E487B71 PUSH1 0xE0 SHL PUSH1 0x0 MSTORE PUSH1 0x32 PUSH1 0x4 MSTORE PUSH1 0x24 PUSH1 0x0 REVERT JUMPDEST SWAP2 SWAP1 DUP3 MLOAD SWAP3 DUP4 DUP3 MSTORE PUSH1 0x0 JUMPDEST DUP5 DUP2 LT PUSH2 0xD59 JUMPI POP POP DUP3 PUSH1 0x0 PUSH1 0x20 DUP1 SWAP5 SWAP6 DUP5 ADD ADD MSTORE PUSH1 0x1F DUP1 NOT SWAP2 ADD AND ADD ADD SWAP1 JUMP JUMPDEST DUP1 PUSH1 0x20 DUP1 SWAP3 DUP5 ADD ADD MLOAD DUP3 DUP3 DUP7 ADD ADD MSTORE ADD PUSH2 0xD38 JUMP JUMPDEST PUSH1 0x0 SLOAD PUSH1 0x1 PUSH1 0x1 PUSH1 0xA0 SHL SUB AND CALLER SUB PUSH2 0xD82 JUMPI JUMP JUMPDEST PUSH4 0x118CDAA7 PUSH1 0xE0 SHL PUSH1 0x0 MSTORE CALLER PUSH1 0x4 MSTORE PUSH1 0x24 PUSH1 0x0 REVERT JUMPDEST PUSH1 0xFF PUSH1 0x0 SLOAD PUSH1 0xA0 SHR AND PUSH2 0xDA6 JUMPI JUMP JUMPDEST PUSH4 0xD93C0665 PUSH1 0xE0 SHL PUSH1 0x0 MSTORE PUSH1 0x4 PUSH1 0x0 REVERT INVALID PUSH1 0x80 PUSH1 0x40 MSTORE CALLVALUE PUSH2 0x619 JUMPI PUSH2 0x4C7A DUP1 CODESIZE SUB DUP1 PUSH2 0x19 DUP2 PUSH2 0x61E JUMP JUMPDEST SWAP3 DUP4 CODECOPY DUP2 ADD SWAP1 PUSH2 0x1A0 DUP2 DUP4 SUB SLT PUSH2 0x619 JUMPI DUP1 MLOAD PUSH1 0x1 PUSH1 0x1 PUSH1 0x40 SHL SUB DUP2 GT PUSH2 0x619 JUMPI DUP3 PUSH2 0x46 SWAP2 DUP4 ADD PUSH2 0x643 JUMP JUMPDEST PUSH1 0x20 DUP3 ADD MLOAD PUSH1 0x40 DUP4 ADD MLOAD PUSH1 0x60 DUP5 ADD MLOAD PUSH1 0x80 DUP6 ADD MLOAD PUSH1 0xA0 DUP7 ADD MLOAD SWAP4 SWAP7 SWAP1 SWAP5 SWAP4 SWAP1 PUSH1 0x1 PUSH1 0x1 PUSH1 0x40 SHL SUB DUP3 GT PUSH2 0x619 JUMPI PUSH2 0x7E SWAP2 DUP8 ADD PUSH2 0x643 JUMP JUMPDEST SWAP4 PUSH1 0xC0 DUP7 ADD MLOAD SWAP4 PUSH1 0x4 DUP6 LT ISZERO PUSH2 0x619 JUMPI PUSH2 0x9A PUSH1 0xE0 DUP9 ADD PUSH2 0x6AE JUMP JUMPDEST SWAP2 PUSH2 0xA8 PUSH2 0x100 DUP10 ADD PUSH2 0x6AE JUMP JUMPDEST SWAP4 PUSH2 0xB6 PUSH2 0x120 DUP11 ADD PUSH2 0x6BB JUMP JUMPDEST SWAP6 PUSH2 0xC4 PUSH2 0x140 DUP12 ADD PUSH2 0x6BB JUMP JUMPDEST SWAP9 PUSH2 0x180 PUSH2 0x160 DUP13 ADD MLOAD SWAP12 ADD MLOAD SWAP12 PUSH1 0x1 PUSH1 0x0 SSTORE PUSH3 0x2A300 PUSH1 0x1B SSTORE PUSH3 0x69780 PUSH1 0x1C SSTORE PUSH3 0x3F480 PUSH1 0x1D SSTORE PUSH1 0x40 MLOAD SWAP6 PUSH2 0x120 DUP8 ADD DUP8 DUP2 LT PUSH1 0x1 DUP1 PUSH1 0x40 SHL SUB DUP3 GT OR PUSH2 0x603 JUMPI PUSH1 0x40 MSTORE DUP7 MSTORE PUSH1 0x20 DUP7 ADD SWAP1 DUP2 MSTORE PUSH1 0x40 DUP7 ADD SWAP2 DUP3 MSTORE PUSH1 0x60 DUP7 ADD SWAP3 DUP4 MSTORE PUSH1 0x80 DUP7 ADD SWAP4 DUP5 MSTORE PUSH1 0xA0 DUP7 ADD SWAP5 DUP6 MSTORE PUSH1 0xC0 DUP7 ADD SWAP6 PUSH1 0x0 SWAP11 DUP8 MSTORE PUSH1 0xE0 DUP2 ADD SWAP8 ISZERO ISZERO DUP9 MSTORE PUSH2 0x100 DUP2 ADD SWAP9 ISZERO ISZERO DUP10 MSTORE MLOAD DUP1 MLOAD SWAP1 PUSH1 0x1 DUP1 PUSH1 0x40 SHL SUB DUP3 GT PUSH2 0x5EF JUMPI PUSH1 0x2 SLOAD PUSH1 0x1 DUP2 DUP2 SHR SWAP2 AND DUP1 ISZERO PUSH2 0x5E5 JUMPI JUMPDEST PUSH1 0x20 DUP3 LT EQ PUSH2 0x5D1 JUMPI SWAP1 DUP2 PUSH1 0x1F DUP5 SWAP4 GT PUSH2 0x560 JUMPI JUMPDEST POP PUSH1 0x20 SWAP1 DUP14 PUSH1 0x1F DUP5 GT PUSH1 0x1 EQ PUSH2 0x4FB JUMPI SWAP3 PUSH2 0x4F0 JUMPI JUMPDEST POP POP DUP2 PUSH1 0x1 SHL SWAP2 PUSH1 0x0 NOT SWAP1 PUSH1 0x3 SHL SHR NOT AND OR PUSH1 0x2 SSTORE JUMPDEST MLOAD PUSH1 0x3 SSTORE MLOAD DUP1 MLOAD SWAP1 PUSH1 0x1 PUSH1 0x1 PUSH1 0x40 SHL SUB DUP3 GT PUSH2 0x4DC JUMPI PUSH1 0x4 SLOAD PUSH1 0x1 DUP2 DUP2 SHR SWAP2 AND DUP1 ISZERO PUSH2 0x4D2 JUMPI JUMPDEST PUSH1 0x20 DUP3 LT EQ PUSH2 0x4BE JUMPI SWAP1 DUP2 PUSH1 0x1F DUP5 SWAP4 GT PUSH2 0x450 JUMPI JUMPDEST POP PUSH1 0x20 SWAP1 PUSH1 0x1F DUP4 GT PUSH1 0x1 EQ PUSH2 0x3EB JUMPI DUP12 SWAP3 PUSH2 0x3E0 JUMPI JUMPDEST POP POP DUP2 PUSH1 0x1 SHL SWAP2 PUSH1 0x0 NOT SWAP1 PUSH1 0x3 SHL SHR NOT AND OR PUSH1 0x4 SSTORE JUMPDEST MLOAD PUSH1 0x5 SSTORE MLOAD PUSH1 0x6 SSTORE MLOAD PUSH1 0x7 SSTORE MLOAD PUSH1 0x4 DUP2 LT ISZERO PUSH2 0x3CC JUMPI PUSH1 0x8 DUP1 SLOAD SWAP3 MLOAD SWAP4 MLOAD PUSH3 0xFFFFFF NOT SWAP1 SWAP4 AND PUSH1 0xFF SWAP3 SWAP1 SWAP3 AND SWAP2 SWAP1 SWAP2 OR SWAP3 ISZERO ISZERO DUP2 SHL PUSH2 0xFF00 AND SWAP3 SWAP1 SWAP3 OR SWAP1 ISZERO ISZERO PUSH1 0x10 SHL PUSH3 0xFF0000 AND OR SWAP1 SSTORE PUSH1 0x19 DUP1 SLOAD PUSH1 0x1 PUSH1 0x1 PUSH1 0xA0 SHL SUB NOT AND PUSH1 0x1 PUSH1 0x1 PUSH1 0xA0 SHL SUB SWAP3 SWAP1 SWAP3 AND SWAP2 DUP3 OR SWAP1 SSTORE DUP1 DUP3 MSTORE PUSH1 0x12 PUSH1 0x20 MSTORE PUSH1 0x40 DUP1 DUP4 KECCAK256 DUP1 SLOAD PUSH1 0xFF NOT AND PUSH1 0x1 OR SWAP1 SSTORE MLOAD SWAP1 PUSH1 0xC0 DUP3 ADD PUSH1 0x1 PUSH1 0x1 PUSH1 0x40 SHL SUB DUP2 GT DUP4 DUP3 LT OR PUSH2 0x3B8 JUMPI SWAP1 PUSH1 0x4 SWAP2 PUSH1 0x40 MSTORE PUSH1 0x1 DUP4 MSTORE PUSH1 0x20 DUP4 ADD PUSH1 0x1 DUP2 MSTORE PUSH1 0x40 DUP5 ADD TIMESTAMP DUP2 MSTORE PUSH1 0x60 DUP6 ADD SWAP1 DUP7 DUP3 MSTORE PUSH1 0x80 DUP7 ADD SWAP3 DUP8 DUP5 MSTORE PUSH1 0xA0 DUP8 ADD SWAP5 DUP9 DUP7 MSTORE DUP9 MSTORE PUSH1 0x9 PUSH1 0x20 MSTORE PUSH1 0x40 DUP9 KECCAK256 SWAP7 MLOAD ISZERO ISZERO PUSH1 0xFF DUP1 NOT DUP10 SLOAD AND SWAP2 AND OR DUP8 SSTORE MLOAD ISZERO ISZERO PUSH2 0xFF00 DUP8 SLOAD SWAP2 PUSH1 0x8 SHL AND SWAP1 PUSH2 0xFF00 NOT AND OR DUP7 SSTORE MLOAD PUSH1 0x1 DUP7 ADD SSTORE MLOAD PUSH1 0x2 DUP6 ADD SSTORE MLOAD PUSH1 0x3 DUP5 ADD SSTORE MLOAD SWAP2 ADD SSTORE PUSH2 0x334 PUSH1 0x14 SLOAD PUSH2 0x6CF JUMP JUMPDEST PUSH1 0x14 SSTORE PUSH2 0x342 PUSH1 0x15 SLOAD PUSH2 0x6CF JUMP JUMPDEST PUSH1 0x15 SSTORE PUSH1 0x19 DUP1 SLOAD PUSH1 0xFF PUSH1 0xA0 SHL NOT AND PUSH1 0x1 PUSH1 0xA0 SHL OR SWAP1 SSTORE PUSH1 0x17 SSTORE PUSH1 0x1 PUSH1 0x1 PUSH1 0xA0 SHL SUB AND DUP1 PUSH2 0x399 JUMPI JUMPDEST POP DUP1 PUSH2 0x390 JUMPI JUMPDEST POP DUP1 PUSH2 0x387 JUMPI JUMPDEST PUSH1 0x40 MLOAD PUSH2 0x4585 SWAP1 DUP2 PUSH2 0x6F5 DUP3 CODECOPY RETURN JUMPDEST PUSH1 0x1C SSTORE CODESIZE PUSH2 0x378 JUMP JUMPDEST PUSH1 0x1B SSTORE CODESIZE PUSH2 0x371 JUMP JUMPDEST PUSH1 0x1A DUP1 SLOAD PUSH1 0x1 PUSH1 0x1 PUSH1 0xA8 SHL SUB NOT AND SWAP1 SWAP2 OR PUSH1 0x1 PUSH1 0xA0 SHL OR SWAP1 SSTORE CODESIZE PUSH2 0x36A JUMP JUMPDEST PUSH4 0x4E487B71 PUSH1 0xE0 SHL DUP5 MSTORE PUSH1 0x41 PUSH1 0x4 MSTORE PUSH1 0x24 DUP5 REVERT JUMPDEST PUSH4 0x4E487B71 PUSH1 0xE0 SHL DUP6 MSTORE PUSH1 0x21 PUSH1 0x4 MSTORE PUSH1 0x24 DUP6 REVERT JUMPDEST ADD MLOAD SWAP1 POP CODESIZE DUP1 PUSH2 0x200 JUMP JUMPDEST PUSH1 0x4 DUP13 MSTORE DUP2 DUP13 KECCAK256 SWAP3 POP PUSH1 0x1F NOT DUP5 AND DUP13 JUMPDEST DUP2 DUP2 LT PUSH2 0x438 JUMPI POP SWAP1 DUP5 PUSH1 0x1 SWAP6 SWAP5 SWAP4 SWAP3 LT PUSH2 0x41F JUMPI JUMPDEST POP POP POP DUP2 SHL ADD PUSH1 0x4 SSTORE PUSH2 0x216 JUMP JUMPDEST ADD MLOAD PUSH1 0x0 NOT PUSH1 0xF8 DUP5 PUSH1 0x3 SHL AND SHR NOT AND SWAP1 SSTORE CODESIZE DUP1 DUP1 PUSH2 0x411 JUMP JUMPDEST SWAP3 SWAP4 PUSH1 0x20 PUSH1 0x1 DUP2 SWAP3 DUP8 DUP7 ADD MLOAD DUP2 SSTORE ADD SWAP6 ADD SWAP4 ADD PUSH2 0x3FB JUMP JUMPDEST PUSH1 0x4 DUP13 MSTORE SWAP1 SWAP2 POP PUSH32 0x8A35ACFBC15FF81A39AE7D344FD709F28E8600B4AA8C65C6B64BFE7FE36BD19B PUSH1 0x1F DUP5 ADD PUSH1 0x5 SHR DUP2 ADD SWAP2 PUSH1 0x20 DUP6 LT PUSH2 0x4B4 JUMPI JUMPDEST SWAP1 PUSH1 0x1F DUP6 SWAP5 SWAP4 SWAP3 ADD PUSH1 0x5 SHR ADD SWAP1 JUMPDEST DUP2 DUP2 LT PUSH2 0x4A6 JUMPI POP PUSH2 0x1EA JUMP JUMPDEST DUP13 DUP2 SSTORE DUP5 SWAP4 POP PUSH1 0x1 ADD PUSH2 0x499 JUMP JUMPDEST SWAP1 SWAP2 POP DUP2 SWAP1 PUSH2 0x48B JUMP JUMPDEST PUSH4 0x4E487B71 PUSH1 0xE0 SHL DUP12 MSTORE PUSH1 0x22 PUSH1 0x4 MSTORE PUSH1 0x24 DUP12 REVERT JUMPDEST SWAP1 PUSH1 0x7F AND SWAP1 PUSH2 0x1D5 JUMP JUMPDEST PUSH4 0x4E487B71 PUSH1 0xE0 SHL DUP11 MSTORE PUSH1 0x41 PUSH1 0x4 MSTORE PUSH1 0x24 DUP11 REVERT JUMPDEST ADD MLOAD SWAP1 POP CODESIZE DUP1 PUSH2 0x198 JUMP JUMPDEST PUSH1 0x2 DUP2 MSTORE DUP3 DUP2 KECCAK256 SWAP4 POP PUSH1 0x1F NOT DUP6 AND SWAP1 JUMPDEST DUP2 DUP2 LT PUSH2 0x548 JUMPI POP SWAP1 DUP5 PUSH1 0x1 SWAP6 SWAP5 SWAP4 SWAP3 LT PUSH2 0x52F JUMPI JUMPDEST POP POP POP DUP2 SHL ADD PUSH1 0x2 SSTORE PUSH2 0x1AE JUMP JUMPDEST ADD MLOAD PUSH1 0x0 NOT PUSH1 0xF8 DUP5 PUSH1 0x3 SHL AND SHR NOT AND SWAP1 SSTORE CODESIZE DUP1 DUP1 PUSH2 0x521 JUMP JUMPDEST SWAP3 SWAP4 PUSH1 0x20 PUSH1 0x1 DUP2 SWAP3 DUP8 DUP7 ADD MLOAD DUP2 SSTORE ADD SWAP6 ADD SWAP4 ADD PUSH2 0x50B JUMP JUMPDEST PUSH1 0x2 DUP15 MSTORE SWAP1 SWAP2 POP PUSH32 0x405787FA12A823E0F2B7631CC41B3BA8828B3321CA811111FA75CD3AA3BB5ACE PUSH1 0x1F DUP5 ADD PUSH1 0x5 SHR DUP2 ADD SWAP2 PUSH1 0x20 DUP6 LT PUSH2 0x5C7 JUMPI JUMPDEST DUP5 SWAP4 SWAP3 SWAP2 DUP16 SWAP2 PUSH1 0x1F ADD PUSH1 0x5 SHR ADD SWAP2 SWAP1 JUMPDEST DUP3 DUP3 LT PUSH2 0x5B9 JUMPI POP POP PUSH2 0x182 JUMP JUMPDEST DUP2 SSTORE DUP5 SWAP4 POP PUSH1 0x1 ADD DUP15 PUSH2 0x5AB JUMP JUMPDEST SWAP1 SWAP2 POP DUP2 SWAP1 PUSH2 0x59B JUMP JUMPDEST PUSH4 0x4E487B71 PUSH1 0xE0 SHL DUP14 MSTORE PUSH1 0x22 PUSH1 0x4 MSTORE PUSH1 0x24 DUP14 REVERT JUMPDEST SWAP1 PUSH1 0x7F AND SWAP1 PUSH2 0x16D JUMP JUMPDEST PUSH4 0x4E487B71 PUSH1 0xE0 SHL DUP13 MSTORE PUSH1 0x41 PUSH1 0x4 MSTORE PUSH1 0x24 DUP13 REVERT JUMPDEST PUSH4 0x4E487B71 PUSH1 0xE0 SHL PUSH1 0x0 MSTORE PUSH1 0x41 PUSH1 0x4 MSTORE PUSH1 0x24 PUSH1 0x0 REVERT JUMPDEST PUSH1 0x0 DUP1 REVERT JUMPDEST PUSH1 0x40 MLOAD SWAP2 SWAP1 PUSH1 0x1F ADD PUSH1 0x1F NOT AND DUP3 ADD PUSH1 0x1 PUSH1 0x1 PUSH1 0x40 SHL SUB DUP2 GT DUP4 DUP3 LT OR PUSH2 0x603 JUMPI PUSH1 0x40 MSTORE JUMP JUMPDEST DUP2 PUSH1 0x1F DUP3 ADD SLT ISZERO PUSH2 0x619 JUMPI DUP1 MLOAD SWAP1 PUSH1 0x1 PUSH1 0x1 PUSH1 0x40 SHL SUB DUP3 GT PUSH2 0x603 JUMPI PUSH2 0x672 PUSH1 0x1F DUP4 ADD PUSH1 0x1F NOT AND PUSH1 0x20 ADD PUSH2 0x61E JUMP JUMPDEST SWAP3 DUP3 DUP5 MSTORE PUSH1 0x20 DUP4 DUP4 ADD ADD GT PUSH2 0x619 JUMPI PUSH1 0x0 JUMPDEST DUP3 DUP2 LT PUSH2 0x699 JUMPI POP POP PUSH1 0x20 PUSH1 0x0 SWAP2 DUP4 ADD ADD MSTORE SWAP1 JUMP JUMPDEST DUP1 PUSH1 0x20 DUP1 SWAP3 DUP5 ADD ADD MLOAD DUP3 DUP3 DUP8 ADD ADD MSTORE ADD PUSH2 0x684 JUMP JUMPDEST MLOAD SWAP1 DUP2 ISZERO ISZERO DUP3 SUB PUSH2 0x619 JUMPI JUMP JUMPDEST MLOAD SWAP1 PUSH1 0x1 PUSH1 0x1 PUSH1 0xA0 SHL SUB DUP3 AND DUP3 SUB PUSH2 0x619 JUMPI JUMP JUMPDEST PUSH1 0x0 NOT DUP2 EQ PUSH2 0x6DE JUMPI PUSH1 0x1 ADD SWAP1 JUMP JUMPDEST PUSH4 0x4E487B71 PUSH1 0xE0 SHL PUSH1 0x0 MSTORE PUSH1 0x11 PUSH1 0x4 MSTORE PUSH1 0x24 PUSH1 0x0 REVERT INVALID PUSH1 0x80 PUSH1 0x40 MSTORE PUSH1 0x4 CALLDATASIZE LT ISZERO PUSH2 0x10 JUMPI JUMPDEST STOP JUMPDEST PUSH1 0x0 CALLDATALOAD PUSH1 0xE0 SHR DUP1 PUSH4 0x13CF08B EQ PUSH2 0x2C39 JUMPI DUP1 PUSH4 0x2D05D3F EQ PUSH2 0x2C10 JUMPI DUP1 PUSH4 0x6040618 EQ PUSH2 0x2BF2 JUMPI DUP1 PUSH4 0x86146D2 EQ PUSH2 0x2BD7 JUMPI DUP1 PUSH4 0x8AE4B0C EQ PUSH2 0x2B4F JUMPI DUP1 PUSH4 0xC0512E9 EQ PUSH2 0x2B31 JUMPI DUP1 PUSH4 0xD3A9F0D EQ PUSH2 0x2ABA JUMPI DUP1 PUSH4 0xD61B519 EQ PUSH2 0x2911 JUMPI DUP1 PUSH4 0x11AEE380 EQ PUSH2 0x28F3 JUMPI DUP1 PUSH4 0x12065FE0 EQ PUSH2 0x28D0 JUMPI DUP1 PUSH4 0x13335786 EQ PUSH2 0x289A JUMPI DUP1 PUSH4 0x1614665C EQ PUSH2 0x272F JUMPI DUP1 PUSH4 0x1785F53C EQ PUSH2 0x2691 JUMPI DUP1 PUSH4 0x1A8456C4 EQ PUSH2 0x2657 JUMPI DUP1 PUSH4 0x1BB1F108 EQ PUSH2 0x2639 JUMPI DUP1 PUSH4 0x1D6B1058 EQ PUSH2 0x2613 JUMPI DUP1 PUSH4 0x22F3E2D4 EQ PUSH2 0x25ED JUMPI DUP1 PUSH4 0x22FAA41F EQ PUSH2 0x1C70 JUMPI DUP1 PUSH4 0x2768C62C EQ PUSH2 0x2282 JUMPI DUP1 PUSH4 0x286EB1E0 EQ PUSH2 0x2260 JUMPI DUP1 PUSH4 0x2B81A65B EQ PUSH2 0x21B4 JUMPI DUP1 PUSH4 0x30109962 EQ PUSH2 0x2196 JUMPI DUP1 PUSH4 0x3B4D01A7 EQ PUSH2 0x2128 JUMPI DUP1 PUSH4 0x3CA48EDC EQ PUSH2 0x2084 JUMPI DUP1 PUSH4 0x3F4BA83A EQ PUSH2 0x2009 JUMPI DUP1 PUSH4 0x414570F3 EQ PUSH2 0x1FC7 JUMPI DUP1 PUSH4 0x429B62E5 EQ PUSH2 0x1F88 JUMPI DUP1 PUSH4 0x4353BE89 EQ PUSH2 0x1F6C JUMPI DUP1 PUSH4 0x47BBF007 EQ PUSH2 0x1F31 JUMPI DUP1 PUSH4 0x4BEDF9A8 EQ PUSH2 0x1F08 JUMPI DUP1 PUSH4 0x4DCDB237 EQ PUSH2 0x1EAA JUMPI DUP1 PUSH4 0x52F6747A EQ PUSH2 0x1CB1 JUMPI DUP1 PUSH4 0x5C975ABB EQ PUSH2 0x1C8E JUMPI DUP1 PUSH4 0x5FB6C6ED EQ PUSH2 0x1C70 JUMPI DUP1 PUSH4 0x600303D8 EQ PUSH2 0x1343 JUMPI DUP1 PUSH4 0x615601DB EQ PUSH2 0x18B9 JUMPI DUP1 PUSH4 0x6558954F EQ PUSH2 0x189B JUMPI DUP1 PUSH4 0x6BCA1ED2 EQ PUSH2 0x10B2 JUMPI DUP1 PUSH4 0x6D531E83 EQ PUSH2 0x16E5 JUMPI DUP1 PUSH4 0x70480275 EQ PUSH2 0x1620 JUMPI DUP1 PUSH4 0x7A5C15C8 EQ PUSH2 0x159E JUMPI DUP1 PUSH4 0x7AFCA9A7 EQ PUSH2 0x1580 JUMPI DUP1 PUSH4 0x7D8B6205 EQ PUSH2 0x151C JUMPI DUP1 PUSH4 0x83FD0954 EQ PUSH2 0x1461 JUMPI DUP1 PUSH4 0x8456CB59 EQ PUSH2 0x13E3 JUMPI DUP1 PUSH4 0x8A8A18BC EQ PUSH2 0x1390 JUMPI DUP1 PUSH4 0x8E1F6A2C EQ PUSH2 0x1343 JUMPI DUP1 PUSH4 0x968ED600 EQ PUSH2 0x1325 JUMPI DUP1 PUSH4 0x9AC79E0A EQ PUSH2 0x1171 JUMPI DUP1 PUSH4 0xA06DB7DC EQ PUSH2 0x1153 JUMPI DUP1 PUSH4 0xAA6CD9D6 EQ PUSH2 0x10FA JUMPI DUP1 PUSH4 0xAF40C983 EQ PUSH2 0x10B2 JUMPI DUP1 PUSH4 0xB20CA922 EQ PUSH2 0xE9E JUMPI DUP1 PUSH4 0xB478C1EB EQ PUSH2 0xE27 JUMPI DUP1 PUSH4 0xB6A5A166 EQ PUSH2 0xDF3 JUMPI DUP1 PUSH4 0xCB1FB490 EQ PUSH2 0xCA8 JUMPI DUP1 PUSH4 0xD449540F EQ PUSH2 0xAB5 JUMPI DUP1 PUSH4 0xD7BB99BA EQ PUSH2 0x741 JUMPI DUP1 PUSH4 0xDABEFBDE EQ PUSH2 0x548 JUMPI DUP1 PUSH4 0xDCBFEE4C EQ PUSH2 0x52C JUMPI DUP1 PUSH4 0xDFB748AA EQ PUSH2 0x414 JUMPI DUP1 PUSH4 0xEF213106 EQ PUSH2 0x3D5 JUMPI PUSH4 0xFA3FA196 SUB PUSH2 0xE JUMPI CALLVALUE PUSH2 0x3D0 JUMPI PUSH1 0x20 CALLDATASIZE PUSH1 0x3 NOT ADD SLT PUSH2 0x3D0 JUMPI PUSH2 0x2E3 PUSH2 0x2E9A JUMP JUMPDEST PUSH1 0x19 SLOAD SWAP1 PUSH1 0x1 PUSH1 0x1 PUSH1 0xA0 SHL SUB DUP3 AND SWAP1 PUSH2 0x2FD CALLER DUP4 EQ PUSH2 0x318E JUMP JUMPDEST PUSH1 0x1 PUSH1 0x1 PUSH1 0xA0 SHL SUB AND SWAP2 DUP3 ISZERO PUSH2 0x399 JUMPI DUP2 DUP4 EQ PUSH2 0x362 JUMPI PUSH1 0x1 PUSH1 0x1 PUSH1 0xA0 SHL SUB NOT AND DUP3 OR PUSH1 0x19 SSTORE PUSH1 0x0 DUP3 DUP2 MSTORE PUSH1 0x12 PUSH1 0x20 MSTORE PUSH1 0x40 DUP2 KECCAK256 DUP1 SLOAD PUSH1 0xFF NOT AND PUSH1 0x1 OR SWAP1 SSTORE PUSH32 0x7F11FE0C7098E1A76AFCC68F35ABAA07EF156FA7D6DD2D39664812FE37348D16 SWAP1 DUP1 LOG3 STOP JUMPDEST PUSH1 0x40 MLOAD PUSH3 0x461BCD PUSH1 0xE5 SHL DUP2 MSTORE PUSH1 0x20 PUSH1 0x4 DUP3 ADD MSTORE PUSH1 0xF PUSH1 0x24 DUP3 ADD MSTORE PUSH15 0x20B63932B0B23C9031B932B0BA37B9 PUSH1 0x89 SHL PUSH1 0x44 DUP3 ADD MSTORE PUSH1 0x64 SWAP1 REVERT JUMPDEST PUSH1 0x40 MLOAD PUSH3 0x461BCD PUSH1 0xE5 SHL DUP2 MSTORE PUSH1 0x20 PUSH1 0x4 DUP3 ADD MSTORE PUSH1 0xF PUSH1 0x24 DUP3 ADD MSTORE PUSH15 0x496E76616C69642061646472657373 PUSH1 0x88 SHL PUSH1 0x44 DUP3 ADD MSTORE PUSH1 0x64 SWAP1 REVERT JUMPDEST PUSH1 0x0 DUP1 REVERT JUMPDEST CALLVALUE PUSH2 0x3D0 JUMPI PUSH1 0x20 CALLDATASIZE PUSH1 0x3 NOT ADD SLT PUSH2 0x3D0 JUMPI PUSH1 0x1 PUSH1 0x1 PUSH1 0xA0 SHL SUB PUSH2 0x3F6 PUSH2 0x2E9A JUMP JUMPDEST AND PUSH1 0x0 MSTORE PUSH1 0x13 PUSH1 0x20 MSTORE PUSH1 0x20 PUSH1 0xFF PUSH1 0x40 PUSH1 0x0 KECCAK256 SLOAD AND PUSH1 0x40 MLOAD SWAP1 ISZERO ISZERO DUP2 MSTORE RETURN JUMPDEST CALLVALUE PUSH2 0x3D0 JUMPI PUSH1 0x20 CALLDATASIZE PUSH1 0x3 NOT ADD SLT PUSH2 0x3D0 JUMPI PUSH2 0x42D PUSH2 0x2E9A JUMP JUMPDEST CALLER PUSH1 0x0 MSTORE PUSH1 0x12 PUSH1 0x20 MSTORE PUSH2 0x447 PUSH1 0xFF PUSH1 0x40 PUSH1 0x0 KECCAK256 SLOAD AND PUSH2 0x3048 JUMP JUMPDEST PUSH2 0x458 PUSH1 0xFF PUSH1 0x19 SLOAD PUSH1 0xA0 SHR AND PUSH2 0x32D8 JUMP JUMPDEST PUSH2 0x466 PUSH1 0x6 SLOAD TIMESTAMP LT ISZERO PUSH2 0x331A JUMP JUMPDEST PUSH2 0x474 PUSH1 0x7 SLOAD TIMESTAMP GT ISZERO PUSH2 0x335D JUMP JUMPDEST PUSH1 0x1 PUSH1 0x1 PUSH1 0xA0 SHL SUB DUP2 AND PUSH1 0x0 DUP2 DUP2 MSTORE PUSH1 0x13 PUSH1 0x20 MSTORE PUSH1 0x40 SWAP1 KECCAK256 SLOAD SWAP1 SWAP2 SWAP1 PUSH1 0xFF AND ISZERO PUSH2 0x4EF JUMPI PUSH2 0x4C6 SWAP1 PUSH2 0x4AB PUSH1 0x14 SLOAD PUSH1 0x5 SLOAD GT PUSH2 0x3422 JUMP JUMPDEST DUP3 PUSH1 0x0 MSTORE PUSH1 0x13 PUSH1 0x20 MSTORE PUSH1 0x40 PUSH1 0x0 KECCAK256 PUSH1 0xFF NOT DUP2 SLOAD AND SWAP1 SSTORE PUSH2 0x4036 JUMP JUMPDEST CALLER SWAP1 PUSH32 0x2ED8CED05F0BF5751C86B0F3520B9F501827AB6A1F26A190C721AE2FA8A5D482 PUSH1 0x0 DUP1 LOG3 STOP JUMPDEST PUSH1 0x40 MLOAD PUSH3 0x461BCD PUSH1 0xE5 SHL DUP2 MSTORE PUSH1 0x20 PUSH1 0x4 DUP3 ADD MSTORE PUSH1 0x15 PUSH1 0x24 DUP3 ADD MSTORE PUSH21 0x139BC81A9BDA5B881C995C5D595CDD08199BDD5B99 PUSH1 0x5A SHL PUSH1 0x44 DUP3 ADD MSTORE PUSH1 0x64 SWAP1 REVERT JUMPDEST CALLVALUE PUSH2 0x3D0 JUMPI PUSH1 0x0 CALLDATASIZE PUSH1 0x3 NOT ADD SLT PUSH2 0x3D0 JUMPI PUSH1 0x20 PUSH1 0x40 MLOAD PUSH1 0x32 DUP2 MSTORE RETURN JUMPDEST CALLVALUE PUSH2 0x3D0 JUMPI PUSH1 0x0 CALLDATASIZE PUSH1 0x3 NOT ADD SLT PUSH2 0x3D0 JUMPI CALLER PUSH1 0x0 MSTORE PUSH1 0x12 PUSH1 0x20 MSTORE PUSH2 0x573 PUSH1 0xFF PUSH1 0x40 PUSH1 0x0 KECCAK256 SLOAD AND PUSH2 0x3048 JUMP JUMPDEST PUSH2 0x57B PUSH2 0x3EFC JUMP JUMPDEST PUSH1 0xFF PUSH1 0x8 SLOAD PUSH1 0x10 SHR AND ISZERO PUSH2 0x6FC JUMPI PUSH1 0x1A SLOAD PUSH1 0xA0 SHR PUSH1 0xFF AND ISZERO PUSH2 0x69A JUMPI PUSH1 0x1A SLOAD PUSH1 0x40 MLOAD PUSH4 0x70A08231 PUSH1 0xE0 SHL DUP2 MSTORE ADDRESS PUSH1 0x4 DUP3 ADD MSTORE SWAP1 PUSH1 0x1 PUSH1 0x1 PUSH1 0xA0 SHL SUB AND PUSH1 0x20 DUP3 PUSH1 0x24 DUP2 DUP5 GAS STATICCALL SWAP2 DUP3 ISZERO PUSH2 0x68E JUMPI PUSH1 0x0 SWAP3 PUSH2 0x657 JUMPI JUMPDEST POP DUP2 DUP1 ISZERO PUSH2 0x61A JUMPI PUSH2 0x5E2 SWAP2 CALLER SWAP1 PUSH2 0x4191 JUMP JUMPDEST PUSH1 0x0 PUSH1 0x16 SSTORE PUSH1 0x40 MLOAD SWAP1 DUP2 MSTORE PUSH32 0x378C5D0D6DEC48ECF81CDEAB52145598556D2A86FB096D5A344CD4D4BF064113 PUSH1 0x20 CALLER SWAP3 LOG2 PUSH1 0x1 PUSH1 0x0 SSTORE STOP JUMPDEST PUSH1 0x40 MLOAD PUSH3 0x461BCD PUSH1 0xE5 SHL DUP2 MSTORE PUSH1 0x20 PUSH1 0x4 DUP3 ADD MSTORE PUSH1 0x15 PUSH1 0x24 DUP3 ADD MSTORE PUSH21 0x4E6F20746F6B656E7320746F207769746864726177 PUSH1 0x58 SHL PUSH1 0x44 DUP3 ADD MSTORE PUSH1 0x64 SWAP1 REVERT JUMPDEST SWAP1 SWAP2 PUSH1 0x20 DUP3 RETURNDATASIZE PUSH1 0x20 GT PUSH2 0x686 JUMPI JUMPDEST DUP2 PUSH2 0x672 PUSH1 0x20 SWAP4 DUP4 PUSH2 0x2D32 JUMP JUMPDEST DUP2 ADD SUB SLT PUSH2 0x683 JUMPI POP MLOAD SWAP1 DUP3 PUSH2 0x5CF JUMP JUMPDEST DUP1 REVERT JUMPDEST RETURNDATASIZE SWAP2 POP PUSH2 0x665 JUMP JUMPDEST PUSH1 0x40 MLOAD RETURNDATASIZE PUSH1 0x0 DUP3 RETURNDATACOPY RETURNDATASIZE SWAP1 REVERT JUMPDEST SELFBALANCE DUP1 ISZERO PUSH2 0x6C0 JUMPI PUSH2 0x6BB PUSH1 0x0 DUP1 DUP1 DUP1 DUP6 CALLER GAS CALL PUSH2 0x6B5 PUSH2 0x35E7 JUMP JUMPDEST POP PUSH2 0x3617 JUMP JUMPDEST PUSH2 0x5E2 JUMP JUMPDEST PUSH1 0x40 MLOAD PUSH3 0x461BCD PUSH1 0xE5 SHL DUP2 MSTORE PUSH1 0x20 PUSH1 0x4 DUP3 ADD MSTORE PUSH1 0x14 PUSH1 0x24 DUP3 ADD MSTORE PUSH20 0x4E6F2066756E647320746F207769746864726177 PUSH1 0x60 SHL PUSH1 0x44 DUP3 ADD MSTORE PUSH1 0x64 SWAP1 REVERT JUMPDEST PUSH1 0x40 MLOAD PUSH3 0x461BCD PUSH1 0xE5 SHL DUP2 MSTORE PUSH1 0x20 PUSH1 0x4 DUP3 ADD MSTORE PUSH1 0x1E PUSH1 0x24 DUP3 ADD MSTORE PUSH32 0x456D657267656E6379207769746864726177206E6F7420616C6C6F7765640000 PUSH1 0x44 DUP3 ADD MSTORE PUSH1 0x64 SWAP1 REVERT JUMPDEST PUSH1 0x0 CALLDATASIZE PUSH1 0x3 NOT ADD SLT PUSH2 0x3D0 JUMPI CALLER PUSH1 0x0 MSTORE PUSH1 0x9 PUSH1 0x20 MSTORE PUSH1 0xFF PUSH1 0x40 PUSH1 0x0 KECCAK256 SLOAD AND DUP1 PUSH2 0xA99 JUMPI JUMPDEST PUSH2 0x76E SWAP1 PUSH2 0x313C JUMP JUMPDEST PUSH2 0x77F PUSH1 0xFF PUSH1 0x19 SLOAD PUSH1 0xA0 SHR AND PUSH2 0x32D8 JUMP JUMPDEST PUSH2 0x78D PUSH1 0x6 SLOAD TIMESTAMP LT ISZERO PUSH2 0x331A JUMP JUMPDEST PUSH2 0x79B PUSH1 0x7 SLOAD TIMESTAMP GT ISZERO PUSH2 0x335D JUMP JUMPDEST PUSH2 0x7A3 PUSH2 0x3EFC JUMP JUMPDEST PUSH2 0x7AB PUSH2 0x3019 JUMP JUMPDEST CALLER PUSH1 0x0 MSTORE PUSH1 0x11 PUSH1 0x20 MSTORE PUSH1 0x40 PUSH1 0x0 KECCAK256 DUP2 PUSH1 0x0 MSTORE PUSH1 0x20 MSTORE PUSH1 0x40 PUSH1 0x0 KECCAK256 SLOAD PUSH2 0xA54 JUMPI PUSH2 0x7D3 CALLER PUSH2 0x388C JUMP JUMPDEST CALLER PUSH1 0x0 MSTORE PUSH1 0x9 PUSH1 0x20 MSTORE PUSH1 0xFF PUSH1 0x40 PUSH1 0x0 KECCAK256 SLOAD PUSH1 0x8 SHR AND ISZERO PUSH2 0x9E9 JUMPI PUSH1 0x6 SLOAD PUSH3 0x93A80 DUP3 MUL DUP3 DUP2 DIV PUSH3 0x93A80 EQ DUP4 ISZERO OR ISZERO PUSH2 0x9D3 JUMPI PUSH2 0x816 PUSH2 0x81F SWAP2 PUSH2 0x828 SWAP4 PUSH2 0x303B JUMP JUMPDEST PUSH1 0x1C SLOAD SWAP1 PUSH2 0x303B JUMP JUMPDEST PUSH1 0x1B SLOAD SWAP1 PUSH2 0x303B JUMP JUMPDEST TIMESTAMP GT PUSH2 0x98E JUMPI PUSH1 0x1A SLOAD PUSH1 0xFF DUP2 PUSH1 0xA0 SHR AND PUSH1 0x0 EQ PUSH2 0x93F JUMPI CALLVALUE PUSH2 0x8EB JUMPI PUSH1 0x3 SLOAD PUSH2 0x85D SWAP2 ADDRESS SWAP1 CALLER SWAP1 PUSH1 0x1 PUSH1 0x1 PUSH1 0xA0 SHL SUB AND PUSH2 0x3FED JUMP JUMPDEST CALLER PUSH1 0x0 MSTORE PUSH1 0x11 PUSH1 0x20 MSTORE PUSH1 0x40 PUSH1 0x0 KECCAK256 DUP2 PUSH1 0x0 MSTORE PUSH1 0x20 MSTORE TIMESTAMP PUSH1 0x40 PUSH1 0x0 KECCAK256 SSTORE PUSH1 0x3 SLOAD CALLER PUSH1 0x0 MSTORE PUSH1 0x9 PUSH1 0x20 MSTORE PUSH2 0x898 PUSH1 0x2 PUSH1 0x40 PUSH1 0x0 KECCAK256 ADD SWAP2 DUP3 SLOAD PUSH2 0x303B JUMP JUMPDEST SWAP1 SSTORE PUSH1 0x3 SLOAD SWAP1 PUSH2 0x8AA DUP3 PUSH1 0x16 SLOAD PUSH2 0x303B JUMP JUMPDEST PUSH1 0x16 SSTORE PUSH1 0x40 MLOAD SWAP2 DUP3 MSTORE PUSH1 0x20 DUP3 ADD MSTORE TIMESTAMP PUSH1 0x40 DUP3 ADD MSTORE PUSH32 0xBE446D8CD0C11CAC7C17817D3CC2A18D11008AB0C439D03564C978DF97805728 PUSH1 0x60 CALLER SWAP3 LOG2 PUSH1 0x1 PUSH1 0x0 SSTORE STOP JUMPDEST PUSH1 0x40 MLOAD PUSH3 0x461BCD PUSH1 0xE5 SHL DUP2 MSTORE PUSH1 0x20 PUSH1 0x4 DUP3 ADD MSTORE PUSH1 0x26 PUSH1 0x24 DUP3 ADD MSTORE PUSH32 0x446F6E27742073656E642045544820666F7220746F6B656E20636F6E74726962 PUSH1 0x44 DUP3 ADD MSTORE PUSH6 0x7574696F6E73 PUSH1 0xD0 SHL PUSH1 0x64 DUP3 ADD MSTORE PUSH1 0x84 SWAP1 REVERT JUMPDEST POP PUSH1 0x3 SLOAD CALLVALUE EQ PUSH2 0x85D JUMPI PUSH1 0x40 MLOAD PUSH3 0x461BCD PUSH1 0xE5 SHL DUP2 MSTORE PUSH1 0x20 PUSH1 0x4 DUP3 ADD MSTORE PUSH1 0x1D PUSH1 0x24 DUP3 ADD MSTORE PUSH32 0x496E636F727265637420636F6E747269627574696F6E20616D6F756E74000000 PUSH1 0x44 DUP3 ADD MSTORE PUSH1 0x64 SWAP1 REVERT JUMPDEST PUSH1 0x40 MLOAD PUSH3 0x461BCD PUSH1 0xE5 SHL DUP2 MSTORE PUSH1 0x20 PUSH1 0x4 DUP3 ADD MSTORE PUSH1 0x1A PUSH1 0x24 DUP3 ADD MSTORE PUSH32 0x436F6E747269627574696F6E2077696E646F7720636C6F736564000000000000 PUSH1 0x44 DUP3 ADD MSTORE PUSH1 0x64 SWAP1 REVERT JUMPDEST PUSH4 0x4E487B71 PUSH1 0xE0 SHL PUSH1 0x0 MSTORE PUSH1 0x11 PUSH1 0x4 MSTORE PUSH1 0x24 PUSH1 0x0 REVERT JUMPDEST PUSH1 0x40 MLOAD PUSH3 0x461BCD PUSH1 0xE5 SHL DUP2 MSTORE PUSH1 0x20 PUSH1 0x4 DUP3 ADD MSTORE PUSH1 0x3F PUSH1 0x24 DUP3 ADD MSTORE PUSH32 0x4D656D626572206973206E6F74206163746976652028706F737369626C792062 PUSH1 0x44 DUP3 ADD MSTORE PUSH32 0x616E6E656420666F72206D697373656420636F6E747269627574696F6E732900 PUSH1 0x64 DUP3 ADD MSTORE PUSH1 0x84 SWAP1 REVERT JUMPDEST PUSH1 0x40 MLOAD PUSH3 0x461BCD PUSH1 0xE5 SHL DUP2 MSTORE PUSH1 0x20 PUSH1 0x4 DUP3 ADD MSTORE PUSH1 0x1F PUSH1 0x24 DUP3 ADD MSTORE PUSH32 0x416C726561647920636F6E7472696275746564207468697320706572696F6400 PUSH1 0x44 DUP3 ADD MSTORE PUSH1 0x64 SWAP1 REVERT JUMPDEST POP CALLER PUSH1 0x0 SWAP1 DUP2 MSTORE PUSH1 0x9 PUSH1 0x20 MSTORE PUSH1 0x40 SWAP1 KECCAK256 SLOAD PUSH1 0x8 SHR PUSH1 0xFF AND PUSH2 0x765 JUMP JUMPDEST CALLVALUE PUSH2 0x3D0 JUMPI PUSH1 0x80 CALLDATASIZE PUSH1 0x3 NOT ADD SLT PUSH2 0x3D0 JUMPI PUSH1 0x4 CALLDATALOAD PUSH1 0x5 DUP2 LT ISZERO PUSH2 0x3D0 JUMPI PUSH2 0xADA PUSH2 0x2EB0 JUMP JUMPDEST SWAP1 PUSH1 0x64 CALLDATALOAD PUSH1 0x1 PUSH1 0x1 PUSH1 0x40 SHL SUB DUP2 GT PUSH2 0x3D0 JUMPI PUSH2 0xAFA SWAP1 CALLDATASIZE SWAP1 PUSH1 0x4 ADD PUSH2 0x2EC6 JUMP JUMPDEST SWAP3 SWAP1 SWAP3 CALLER PUSH1 0x0 MSTORE PUSH1 0x9 PUSH1 0x20 MSTORE PUSH1 0xFF PUSH1 0x40 PUSH1 0x0 KECCAK256 SLOAD AND DUP1 PUSH2 0xC8C JUMPI JUMPDEST PUSH2 0xB1E SWAP1 PUSH2 0x313C JUMP JUMPDEST PUSH2 0xB29 PUSH1 0x1E SLOAD PUSH2 0x317F JUMP JUMPDEST PUSH1 0x1E DUP2 SWAP1 SSTORE PUSH1 0x0 SWAP1 DUP2 MSTORE PUSH1 0xE PUSH1 0x20 MSTORE PUSH1 0x40 DUP2 KECCAK256 DUP1 SLOAD PUSH1 0x1 PUSH1 0x1 PUSH1 0xA8 SHL SUB NOT AND PUSH1 0xFF DUP7 AND OR PUSH1 0x8 SWAP5 SWAP1 SWAP5 SHL PUSH2 0x100 PUSH1 0x1 PUSH1 0xA8 SHL SUB AND SWAP4 SWAP1 SWAP4 OR DUP4 SSTORE PUSH1 0x44 CALLDATALOAD PUSH1 0x1 DUP5 ADD SSTORE PUSH1 0x2 DUP4 ADD SWAP2 PUSH1 0x1 PUSH1 0x1 PUSH1 0x40 SHL SUB DUP2 GT PUSH2 0xC78 JUMPI PUSH1 0x20 SWAP6 PUSH2 0xB95 DUP3 PUSH2 0xB8F DUP7 SLOAD PUSH2 0x2CA7 JUMP JUMPDEST DUP7 PUSH2 0x3286 JUMP JUMPDEST DUP3 PUSH1 0x1F DUP4 GT PUSH1 0x1 EQ PUSH2 0xC15 JUMPI PUSH2 0xBC2 SWAP4 SWAP1 SWAP2 DUP4 PUSH2 0xC0A JUMPI JUMPDEST POP POP DUP2 PUSH1 0x1 SHL SWAP2 PUSH1 0x0 NOT SWAP1 PUSH1 0x3 SHL SHR NOT AND OR SWAP1 JUMP JUMPDEST SWAP1 SSTORE JUMPDEST PUSH1 0x5 TIMESTAMP SWAP2 ADD SSTORE PUSH1 0x1E SLOAD SWAP1 PUSH2 0xBDC PUSH1 0x40 MLOAD DUP1 SWAP3 PUSH2 0x2DF7 JUMP JUMPDEST DUP2 PUSH32 0x3263432A41F78A4701CC9465F62411ED717ADE32290C084135A3DD6B29F4BF28 DUP5 CALLER SWAP4 LOG3 PUSH1 0x40 MLOAD SWAP1 DUP2 MSTORE RETURN JUMPDEST ADD CALLDATALOAD SWAP1 POP DUP8 DUP1 PUSH2 0xBAD JUMP JUMPDEST SWAP2 SWAP3 PUSH1 0x1F NOT DUP5 AND DUP6 DUP5 MSTORE DUP9 DUP5 KECCAK256 SWAP4 JUMPDEST DUP2 DUP2 LT PUSH2 0xC61 JUMPI POP SWAP1 DUP5 PUSH1 0x1 SWAP6 SWAP5 SWAP4 SWAP3 LT PUSH2 0xC47 JUMPI JUMPDEST POP POP POP DUP2 SHL ADD SWAP1 SSTORE PUSH2 0xBC5 JUMP JUMPDEST ADD CALLDATALOAD PUSH1 0x0 NOT PUSH1 0x3 DUP5 SWAP1 SHL PUSH1 0xF8 AND SHR NOT AND SWAP1 SSTORE DUP7 DUP1 DUP1 PUSH2 0xC3A JUMP JUMPDEST SWAP2 SWAP4 DUP10 PUSH1 0x1 DUP2 SWAP3 DUP8 DUP8 ADD CALLDATALOAD DUP2 SSTORE ADD SWAP6 ADD SWAP3 ADD PUSH2 0xC24 JUMP JUMPDEST PUSH4 0x4E487B71 PUSH1 0xE0 SHL DUP3 MSTORE PUSH1 0x41 PUSH1 0x4 MSTORE PUSH1 0x24 DUP3 REVERT JUMPDEST POP CALLER PUSH1 0x0 SWAP1 DUP2 MSTORE PUSH1 0x9 PUSH1 0x20 MSTORE PUSH1 0x40 SWAP1 KECCAK256 SLOAD PUSH1 0x8 SHR PUSH1 0xFF AND PUSH2 0xB15 JUMP JUMPDEST CALLVALUE PUSH2 0x3D0 JUMPI PUSH1 0x0 CALLDATASIZE PUSH1 0x3 NOT ADD SLT PUSH2 0x3D0 JUMPI CALLER PUSH1 0x0 MSTORE PUSH1 0x9 PUSH1 0x20 MSTORE PUSH1 0xFF PUSH1 0x40 PUSH1 0x0 KECCAK256 SLOAD AND DUP1 PUSH2 0xDD7 JUMPI JUMPDEST PUSH2 0xCDA SWAP1 PUSH2 0x313C JUMP JUMPDEST PUSH2 0xCE2 PUSH2 0x3EFC JUMP JUMPDEST CALLER PUSH1 0x0 MSTORE PUSH1 0xA PUSH1 0x20 MSTORE PUSH1 0xFF PUSH1 0x2 PUSH1 0x40 PUSH1 0x0 KECCAK256 ADD SLOAD AND PUSH2 0xD86 JUMPI PUSH2 0xD04 CALLER PUSH2 0x4128 JUMP JUMPDEST CALLER PUSH1 0x0 MSTORE PUSH1 0x9 PUSH1 0x20 MSTORE PUSH1 0x40 PUSH1 0x0 KECCAK256 PUSH2 0xFF00 NOT DUP2 SLOAD AND SWAP1 SSTORE PUSH2 0xD26 PUSH1 0x15 SLOAD PUSH2 0x32CB JUMP JUMPDEST PUSH1 0x15 SSTORE DUP1 PUSH2 0xD68 JUMPI JUMPDEST PUSH1 0x40 MLOAD SWAP1 DUP2 MSTORE TIMESTAMP PUSH1 0x20 DUP3 ADD MSTORE PUSH32 0x9FE2549E029DC601C32D2B99A63BB5D8790E62936AE6DFD93013CBAE2A3F2E1E PUSH1 0x40 CALLER SWAP3 LOG2 PUSH1 0x1 PUSH1 0x0 SSTORE STOP JUMPDEST PUSH2 0xD74 DUP2 PUSH1 0x16 SLOAD PUSH2 0x300C JUMP JUMPDEST PUSH1 0x16 SSTORE PUSH2 0xD81 DUP2 CALLER PUSH2 0x3FA6 JUMP JUMPDEST PUSH2 0xD2F JUMP JUMPDEST PUSH1 0x40 MLOAD PUSH3 0x461BCD PUSH1 0xE5 SHL DUP2 MSTORE PUSH1 0x20 PUSH1 0x4 DUP3 ADD MSTORE PUSH1 0x23 PUSH1 0x24 DUP3 ADD MSTORE PUSH32 0x43616E6E6F74206C656176652077697468206163746976652070756E6973686D PUSH1 0x44 DUP3 ADD MSTORE PUSH3 0x195B9D PUSH1 0xEA SHL PUSH1 0x64 DUP3 ADD MSTORE PUSH1 0x84 SWAP1 REVERT JUMPDEST POP CALLER PUSH1 0x0 SWAP1 DUP2 MSTORE PUSH1 0x9 PUSH1 0x20 MSTORE PUSH1 0x40 SWAP1 KECCAK256 SLOAD PUSH1 0x8 SHR PUSH1 0xFF AND PUSH2 0xCD1 JUMP JUMPDEST CALLVALUE PUSH2 0x3D0 JUMPI PUSH1 0x20 CALLDATASIZE PUSH1 0x3 NOT ADD SLT PUSH2 0x3D0 JUMPI PUSH2 0xE23 PUSH2 0xE17 PUSH2 0xE12 PUSH2 0x2E9A JUMP JUMPDEST PUSH2 0x34BB JUMP JUMPDEST PUSH1 0x40 MLOAD SWAP2 DUP3 SWAP2 DUP3 PUSH2 0x2FD2 JUMP JUMPDEST SUB SWAP1 RETURN JUMPDEST CALLVALUE PUSH2 0x3D0 JUMPI PUSH1 0x20 CALLDATASIZE PUSH1 0x3 NOT ADD SLT PUSH2 0x3D0 JUMPI PUSH1 0x1 PUSH1 0x1 PUSH1 0xA0 SHL SUB PUSH2 0xE48 PUSH2 0x2E9A JUMP JUMPDEST AND PUSH1 0x0 MSTORE PUSH1 0xD PUSH1 0x20 MSTORE PUSH1 0x40 PUSH1 0x0 KECCAK256 PUSH1 0x40 MLOAD SWAP1 DUP2 PUSH1 0x20 DUP3 SLOAD SWAP2 DUP3 DUP2 MSTORE ADD SWAP2 PUSH1 0x0 MSTORE PUSH1 0x20 PUSH1 0x0 KECCAK256 SWAP1 PUSH1 0x0 JUMPDEST DUP2 DUP2 LT PUSH2 0xE88 JUMPI PUSH2 0xE23 DUP6 PUSH2 0xE17 DUP2 DUP8 SUB DUP3 PUSH2 0x2D32 JUMP JUMPDEST DUP3 SLOAD DUP5 MSTORE PUSH1 0x20 SWAP1 SWAP4 ADD SWAP3 PUSH1 0x1 SWAP3 DUP4 ADD SWAP3 ADD PUSH2 0xE71 JUMP JUMPDEST CALLVALUE PUSH2 0x3D0 JUMPI PUSH2 0xEAC CALLDATASIZE PUSH2 0x2F80 JUMP JUMPDEST SWAP1 PUSH2 0xEC2 PUSH1 0x1 DUP1 PUSH1 0xA0 SHL SUB PUSH1 0x19 SLOAD AND CALLER EQ PUSH2 0x318E JUMP JUMPDEST PUSH1 0xB SLOAD DUP1 PUSH2 0x1076 JUMPI PUSH1 0x14 SLOAD DUP4 SUB PUSH2 0x103A JUMPI PUSH1 0x0 JUMPDEST DUP4 DUP2 LT PUSH2 0xFBB JUMPI POP PUSH1 0x1 PUSH1 0x1 PUSH1 0x40 SHL SUB DUP4 GT PUSH2 0xFA5 JUMPI PUSH1 0x1 PUSH1 0x40 SHL DUP4 GT PUSH2 0xFA5 JUMPI DUP3 PUSH1 0xB SSTORE DUP1 DUP4 LT PUSH2 0xF51 JUMPI JUMPDEST POP SWAP1 PUSH1 0xB PUSH1 0x0 MSTORE PUSH1 0x0 JUMPDEST DUP2 DUP2 LT PUSH2 0xF16 JUMPI STOP JUMPDEST PUSH1 0x1 SWAP1 PUSH1 0x20 PUSH2 0xF24 DUP6 PUSH2 0x340E JUMP JUMPDEST SWAP5 ADD SWAP4 DUP2 PUSH32 0x175B7A638427703F0DBE7BB9BBF987A2551717B34E79F33B5B1008D1FA01DB9 ADD SSTORE ADD PUSH2 0xF0D JUMP JUMPDEST PUSH2 0xF9F SWAP1 PUSH32 0x175B7A638427703F0DBE7BB9BBF987A2551717B34E79F33B5B1008D1FA01DB9 ADD DUP4 PUSH32 0x175B7A638427703F0DBE7BB9BBF987A2551717B34E79F33B5B1008D1FA01DB9 ADD PUSH2 0x326F JUMP JUMPDEST DUP3 PUSH2 0xF03 JUMP JUMPDEST PUSH4 0x4E487B71 PUSH1 0xE0 SHL PUSH1 0x0 MSTORE PUSH1 0x41 PUSH1 0x4 MSTORE PUSH1 0x24 PUSH1 0x0 REVERT JUMPDEST PUSH1 0x1 PUSH1 0x1 PUSH1 0xA0 SHL SUB PUSH2 0xFD6 PUSH2 0xFD1 DUP4 DUP8 DUP8 PUSH2 0x33FE JUMP JUMPDEST PUSH2 0x340E JUMP JUMPDEST AND PUSH1 0x0 MSTORE PUSH1 0x9 PUSH1 0x20 MSTORE PUSH1 0xFF PUSH1 0x40 PUSH1 0x0 KECCAK256 SLOAD AND ISZERO PUSH2 0xFF5 JUMPI PUSH1 0x1 ADD PUSH2 0xED6 JUMP JUMPDEST PUSH1 0x40 MLOAD PUSH3 0x461BCD PUSH1 0xE5 SHL DUP2 MSTORE PUSH1 0x20 PUSH1 0x4 DUP3 ADD MSTORE PUSH1 0x17 PUSH1 0x24 DUP3 ADD MSTORE PUSH32 0x496E76616C6964206D656D62657220696E207175657565000000000000000000 PUSH1 0x44 DUP3 ADD MSTORE PUSH1 0x64 SWAP1 REVERT JUMPDEST PUSH1 0x40 MLOAD PUSH3 0x461BCD PUSH1 0xE5 SHL DUP2 MSTORE PUSH1 0x20 PUSH1 0x4 DUP3 ADD MSTORE PUSH1 0x14 PUSH1 0x24 DUP3 ADD MSTORE PUSH20 0x92DCECC2D8D2C840E2EACAEACA40D8CADCCEE8D PUSH1 0x63 SHL PUSH1 0x44 DUP3 ADD MSTORE PUSH1 0x64 SWAP1 REVERT JUMPDEST PUSH1 0x40 MLOAD PUSH3 0x461BCD PUSH1 0xE5 SHL DUP2 MSTORE PUSH1 0x20 PUSH1 0x4 DUP3 ADD MSTORE PUSH1 0x14 PUSH1 0x24 DUP3 ADD MSTORE PUSH20 0x145D595D59481A5CC8185B1C9958591E481CD95D PUSH1 0x62 SHL PUSH1 0x44 DUP3 ADD MSTORE PUSH1 0x64 SWAP1 REVERT JUMPDEST CALLVALUE PUSH2 0x3D0 JUMPI PUSH1 0x40 CALLDATASIZE PUSH1 0x3 NOT ADD SLT PUSH2 0x3D0 JUMPI PUSH1 0x1 PUSH1 0x1 PUSH1 0xA0 SHL SUB PUSH2 0x10D3 PUSH2 0x2E9A JUMP JUMPDEST AND PUSH1 0x0 MSTORE PUSH1 0x11 PUSH1 0x20 MSTORE PUSH1 0x40 PUSH1 0x0 KECCAK256 PUSH1 0x24 CALLDATALOAD PUSH1 0x0 MSTORE PUSH1 0x20 MSTORE PUSH1 0x20 PUSH1 0x40 PUSH1 0x0 KECCAK256 SLOAD PUSH1 0x40 MLOAD SWAP1 DUP2 MSTORE RETURN JUMPDEST CALLVALUE PUSH2 0x3D0 JUMPI PUSH1 0x40 CALLDATASIZE PUSH1 0x3 NOT ADD SLT PUSH2 0x3D0 JUMPI PUSH2 0x1113 PUSH2 0x2E9A JUMP JUMPDEST PUSH1 0x1 PUSH1 0x1 PUSH1 0xA0 SHL SUB AND PUSH1 0x0 SWAP1 DUP2 MSTORE PUSH1 0xD PUSH1 0x20 MSTORE PUSH1 0x40 SWAP1 KECCAK256 DUP1 SLOAD PUSH1 0x24 CALLDATALOAD SWAP2 SWAP1 DUP3 LT ISZERO PUSH2 0x3D0 JUMPI PUSH1 0x20 SWAP2 PUSH2 0x1144 SWAP2 PUSH2 0x2F68 JUMP JUMPDEST SWAP1 SLOAD SWAP1 PUSH1 0x3 SHL SHR PUSH1 0x40 MLOAD SWAP1 DUP2 MSTORE RETURN JUMPDEST CALLVALUE PUSH2 0x3D0 JUMPI PUSH1 0x0 CALLDATASIZE PUSH1 0x3 NOT ADD SLT PUSH2 0x3D0 JUMPI PUSH1 0x20 PUSH1 0x1B SLOAD PUSH1 0x40 MLOAD SWAP1 DUP2 MSTORE RETURN JUMPDEST CALLVALUE PUSH2 0x3D0 JUMPI PUSH1 0x0 CALLDATASIZE PUSH1 0x3 NOT ADD SLT PUSH2 0x3D0 JUMPI PUSH2 0x1193 PUSH1 0xFF PUSH1 0x19 SLOAD PUSH1 0xA0 SHR AND PUSH2 0x32D8 JUMP JUMPDEST PUSH2 0x11A1 PUSH1 0x6 SLOAD TIMESTAMP LT ISZERO PUSH2 0x331A JUMP JUMPDEST PUSH2 0x11AF PUSH1 0x7 SLOAD TIMESTAMP GT ISZERO PUSH2 0x335D JUMP JUMPDEST CALLER PUSH1 0x0 MSTORE PUSH1 0x9 PUSH1 0x20 MSTORE PUSH1 0xFF PUSH1 0x40 PUSH1 0x0 KECCAK256 SLOAD AND PUSH2 0x12ED JUMPI PUSH2 0x11D4 PUSH1 0x14 SLOAD PUSH1 0x5 SLOAD GT PUSH2 0x3422 JUMP JUMPDEST CALLER PUSH1 0x0 MSTORE PUSH1 0xA PUSH1 0x20 MSTORE PUSH1 0xFF PUSH1 0x2 PUSH1 0x40 PUSH1 0x0 KECCAK256 ADD SLOAD AND PUSH2 0x12A8 JUMPI PUSH1 0xFF PUSH1 0x8 SLOAD PUSH1 0x8 SHR AND PUSH1 0x0 EQ PUSH2 0x129F JUMPI CALLER PUSH1 0x0 MSTORE PUSH1 0x13 PUSH1 0x20 MSTORE PUSH1 0xFF PUSH1 0x40 PUSH1 0x0 KECCAK256 SLOAD AND PUSH2 0x125A JUMPI CALLER PUSH1 0x0 MSTORE PUSH1 0x13 PUSH1 0x20 MSTORE PUSH1 0x40 PUSH1 0x0 KECCAK256 PUSH1 0x1 PUSH1 0xFF NOT DUP3 SLOAD AND OR SWAP1 SSTORE PUSH1 0x40 MLOAD TIMESTAMP DUP2 MSTORE PUSH32 0x2F11FEDBF3E827478272CB1FF550237376AA545F3D4742CEBA5CA14F195BB53A PUSH1 0x20 CALLER SWAP3 LOG2 STOP JUMPDEST PUSH1 0x40 MLOAD PUSH3 0x461BCD PUSH1 0xE5 SHL DUP2 MSTORE PUSH1 0x20 PUSH1 0x4 DUP3 ADD MSTORE PUSH1 0x1E PUSH1 0x24 DUP3 ADD MSTORE PUSH32 0x4A6F696E207265717565737420616C7265616479207375626D69747465640000 PUSH1 0x44 DUP3 ADD MSTORE PUSH1 0x64 SWAP1 REVERT JUMPDEST PUSH2 0xE CALLER PUSH2 0x4036 JUMP JUMPDEST PUSH1 0x40 MLOAD PUSH3 0x461BCD PUSH1 0xE5 SHL DUP2 MSTORE PUSH1 0x20 PUSH1 0x4 DUP3 ADD MSTORE PUSH1 0x1A PUSH1 0x24 DUP3 ADD MSTORE PUSH32 0x5573657220686173206163746976652070756E6973686D656E74000000000000 PUSH1 0x44 DUP3 ADD MSTORE PUSH1 0x64 SWAP1 REVERT JUMPDEST PUSH1 0x40 MLOAD PUSH3 0x461BCD PUSH1 0xE5 SHL DUP2 MSTORE PUSH1 0x20 PUSH1 0x4 DUP3 ADD MSTORE PUSH1 0x10 PUSH1 0x24 DUP3 ADD MSTORE PUSH16 0x20B63932B0B23C90309036B2B6B132B9 PUSH1 0x81 SHL PUSH1 0x44 DUP3 ADD MSTORE PUSH1 0x64 SWAP1 REVERT JUMPDEST CALLVALUE PUSH2 0x3D0 JUMPI PUSH1 0x0 CALLDATASIZE PUSH1 0x3 NOT ADD SLT PUSH2 0x3D0 JUMPI PUSH1 0x20 PUSH1 0x16 SLOAD PUSH1 0x40 MLOAD SWAP1 DUP2 MSTORE RETURN JUMPDEST CALLVALUE PUSH2 0x3D0 JUMPI PUSH1 0x40 CALLDATASIZE PUSH1 0x3 NOT ADD SLT PUSH2 0x3D0 JUMPI PUSH2 0x135C PUSH2 0x2EB0 JUMP JUMPDEST PUSH1 0x4 CALLDATALOAD PUSH1 0x0 MSTORE PUSH1 0x10 PUSH1 0x20 MSTORE PUSH1 0x40 PUSH1 0x0 KECCAK256 SWAP1 PUSH1 0x1 DUP1 PUSH1 0xA0 SHL SUB AND PUSH1 0x0 MSTORE PUSH1 0x20 MSTORE PUSH1 0x20 PUSH1 0xFF PUSH1 0x40 PUSH1 0x0 KECCAK256 SLOAD AND PUSH1 0x40 MLOAD SWAP1 ISZERO ISZERO DUP2 MSTORE RETURN JUMPDEST CALLVALUE PUSH2 0x3D0 JUMPI PUSH2 0x139E CALLDATASIZE PUSH2 0x2F80 JUMP JUMPDEST CALLER PUSH1 0x0 MSTORE PUSH1 0x12 PUSH1 0x20 MSTORE PUSH2 0x13B8 PUSH1 0xFF PUSH1 0x40 PUSH1 0x0 KECCAK256 SLOAD AND PUSH2 0x3048 JUMP JUMPDEST PUSH1 0x0 JUMPDEST DUP2 DUP2 LT PUSH2 0x13C4 JUMPI STOP JUMPDEST DUP1 PUSH2 0x13DD PUSH2 0x13D8 PUSH2 0xFD1 PUSH1 0x1 SWAP5 DUP7 DUP9 PUSH2 0x33FE JUMP JUMPDEST PUSH2 0x388C JUMP JUMPDEST ADD PUSH2 0x13BB JUMP JUMPDEST CALLVALUE PUSH2 0x3D0 JUMPI PUSH1 0x0 CALLDATASIZE PUSH1 0x3 NOT ADD SLT PUSH2 0x3D0 JUMPI CALLER PUSH1 0x0 MSTORE PUSH1 0x12 PUSH1 0x20 MSTORE PUSH2 0x140E PUSH1 0xFF PUSH1 0x40 PUSH1 0x0 KECCAK256 SLOAD AND PUSH2 0x3048 JUMP JUMPDEST PUSH1 0x1 SLOAD PUSH1 0xFF DUP2 AND PUSH2 0x1450 JUMPI PUSH1 0x1 SWAP1 PUSH1 0xFF NOT AND OR PUSH1 0x1 SSTORE PUSH32 0x62E78CEA01BEE320CD4E420270B5EA74000D11B0C9F74754EBDBFC544B05A258 PUSH1 0x20 PUSH1 0x40 MLOAD CALLER DUP2 MSTORE LOG1 STOP JUMPDEST PUSH4 0xD93C0665 PUSH1 0xE0 SHL PUSH1 0x0 MSTORE PUSH1 0x4 PUSH1 0x0 REVERT JUMPDEST CALLVALUE PUSH2 0x3D0 JUMPI PUSH1 0x20 CALLDATASIZE PUSH1 0x3 NOT ADD SLT PUSH2 0x3D0 JUMPI PUSH1 0x1 PUSH1 0x1 PUSH1 0xA0 SHL SUB PUSH2 0x1482 PUSH2 0x2E9A JUMP JUMPDEST AND PUSH1 0x0 MSTORE PUSH1 0x9 PUSH1 0x20 MSTORE PUSH1 0x40 PUSH1 0x0 KECCAK256 PUSH1 0x40 MLOAD SWAP1 PUSH2 0x149D DUP3 PUSH2 0x2D17 JUMP JUMPDEST PUSH2 0xE23 PUSH1 0xA0 DUP3 SLOAD SWAP3 PUSH1 0xFF DUP1 DUP6 AND ISZERO ISZERO SWAP5 DUP6 DUP8 MSTORE PUSH1 0x8 SHR AND ISZERO ISZERO SWAP5 DUP6 PUSH1 0x20 DUP3 ADD MSTORE PUSH1 0x1 DUP3 ADD SLOAD DUP1 PUSH1 0x40 DUP4 ADD MSTORE PUSH1 0x2 DUP4 ADD SLOAD SWAP2 DUP3 PUSH1 0x60 DUP3 ADD MSTORE PUSH1 0x4 PUSH1 0x3 DUP6 ADD SLOAD SWAP5 DUP6 PUSH1 0x80 DUP5 ADD MSTORE ADD SLOAD SWAP5 DUP6 SWAP2 ADD MSTORE PUSH1 0x40 MLOAD SWAP7 DUP8 SWAP7 DUP8 SWAP3 PUSH1 0xA0 SWAP5 SWAP2 SWAP8 SWAP7 SWAP6 SWAP3 PUSH1 0xC0 DUP6 ADD SWAP9 ISZERO ISZERO DUP6 MSTORE ISZERO ISZERO PUSH1 0x20 DUP6 ADD MSTORE PUSH1 0x40 DUP5 ADD MSTORE PUSH1 0x60 DUP4 ADD MSTORE PUSH1 0x80 DUP3 ADD MSTORE ADD MSTORE JUMP JUMPDEST CALLVALUE PUSH2 0x3D0 JUMPI PUSH1 0x20 CALLDATASIZE PUSH1 0x3 NOT ADD SLT PUSH2 0x3D0 JUMPI PUSH1 0x1 PUSH1 0x1 PUSH1 0xA0 SHL SUB PUSH2 0x153D PUSH2 0x2E9A JUMP JUMPDEST AND PUSH1 0x0 MSTORE PUSH1 0xA PUSH1 0x20 MSTORE PUSH1 0x40 PUSH1 0x0 KECCAK256 PUSH1 0xFF DUP2 SLOAD AND PUSH2 0xE23 PUSH2 0x155F PUSH1 0x1 DUP5 ADD PUSH2 0x2D53 JUMP JUMPDEST SWAP3 PUSH1 0xFF PUSH1 0x2 DUP3 ADD SLOAD AND SWAP1 PUSH1 0x4 PUSH1 0x3 DUP3 ADD SLOAD SWAP2 ADD SLOAD SWAP2 PUSH1 0x40 MLOAD SWAP6 DUP7 SWAP6 DUP7 PUSH2 0x2F00 JUMP JUMPDEST CALLVALUE PUSH2 0x3D0 JUMPI PUSH1 0x0 CALLDATASIZE PUSH1 0x3 NOT ADD SLT PUSH2 0x3D0 JUMPI PUSH1 0x20 PUSH1 0x18 SLOAD PUSH1 0x40 MLOAD SWAP1 DUP2 MSTORE RETURN JUMPDEST CALLVALUE PUSH2 0x3D0 JUMPI PUSH1 0x20 CALLDATASIZE PUSH1 0x3 NOT ADD SLT PUSH2 0x3D0 JUMPI PUSH1 0x4 CALLDATALOAD PUSH1 0x0 MSTORE PUSH1 0xC PUSH1 0x20 MSTORE PUSH1 0x40 PUSH1 0x0 KECCAK256 PUSH1 0x40 MLOAD SWAP1 PUSH2 0x15CC DUP3 PUSH2 0x2CFC JUMP JUMPDEST DUP1 SLOAD PUSH1 0x1 PUSH1 0x1 PUSH1 0xA0 SHL SUB AND DUP1 DUP4 MSTORE PUSH1 0x1 DUP3 ADD SLOAD PUSH1 0x20 DUP1 DUP6 ADD DUP3 SWAP1 MSTORE PUSH1 0x2 DUP5 ADD SLOAD PUSH1 0x40 DUP1 DUP8 ADD DUP3 SWAP1 MSTORE PUSH1 0x3 SWAP1 SWAP6 ADD SLOAD PUSH1 0xFF AND ISZERO ISZERO PUSH1 0x60 SWAP7 DUP8 ADD DUP2 SWAP1 MSTORE DUP6 MLOAD SWAP5 DUP6 MSTORE SWAP2 DUP5 ADD SWAP3 SWAP1 SWAP3 MSTORE SWAP3 DUP3 ADD MSTORE SWAP2 DUP3 ADD MSTORE PUSH1 0x80 SWAP1 RETURN JUMPDEST CALLVALUE PUSH2 0x3D0 JUMPI PUSH1 0x20 CALLDATASIZE PUSH1 0x3 NOT ADD SLT PUSH2 0x3D0 JUMPI PUSH2 0x1639 PUSH2 0x2E9A JUMP JUMPDEST PUSH2 0x164E PUSH1 0x1 DUP1 PUSH1 0xA0 SHL SUB PUSH1 0x19 SLOAD AND CALLER EQ PUSH2 0x318E JUMP JUMPDEST PUSH1 0x1 PUSH1 0x1 PUSH1 0xA0 SHL SUB AND PUSH1 0x0 DUP2 DUP2 MSTORE PUSH1 0x12 PUSH1 0x20 MSTORE PUSH1 0x40 SWAP1 KECCAK256 SLOAD PUSH1 0xFF AND PUSH2 0x16AD JUMPI DUP1 PUSH1 0x0 MSTORE PUSH1 0x12 PUSH1 0x20 MSTORE PUSH1 0x40 PUSH1 0x0 KECCAK256 PUSH1 0x1 PUSH1 0xFF NOT DUP3 SLOAD AND OR SWAP1 SSTORE PUSH32 0x44D6D25963F097AD14F29F06854A01F575648A1EF82F30E562CCD3889717E339 PUSH1 0x0 DUP1 LOG2 STOP JUMPDEST PUSH1 0x40 MLOAD PUSH3 0x461BCD PUSH1 0xE5 SHL DUP2 MSTORE PUSH1 0x20 PUSH1 0x4 DUP3 ADD MSTORE PUSH1 0x10 PUSH1 0x24 DUP3 ADD MSTORE PUSH16 0x20B63932B0B23C9030B71030B236B4B7 PUSH1 0x81 SHL PUSH1 0x44 DUP3 ADD MSTORE PUSH1 0x64 SWAP1 REVERT JUMPDEST PUSH1 0x0 CALLDATASIZE PUSH1 0x3 NOT ADD SLT PUSH2 0x3D0 JUMPI PUSH2 0x16F9 PUSH2 0x3EFC JUMP JUMPDEST CALLER PUSH1 0x0 MSTORE PUSH1 0xA PUSH1 0x20 MSTORE PUSH1 0x40 PUSH1 0x0 KECCAK256 PUSH1 0x2 DUP2 ADD SWAP1 PUSH2 0x1719 PUSH1 0xFF DUP4 SLOAD AND PUSH2 0x33BB JUMP JUMPDEST PUSH1 0xFF DUP2 SLOAD AND PUSH1 0x4 DUP2 LT ISZERO PUSH2 0x1885 JUMPI PUSH1 0x2 SUB PUSH2 0x1848 JUMPI PUSH1 0x4 ADD SLOAD SWAP1 PUSH1 0x1A SLOAD PUSH1 0xFF DUP2 PUSH1 0xA0 SHR AND PUSH1 0x0 EQ PUSH2 0x1803 JUMPI CALLVALUE PUSH2 0x17BE JUMPI PUSH2 0x1761 SWAP1 DUP4 SWAP1 ADDRESS SWAP1 CALLER SWAP1 PUSH1 0x1 PUSH1 0x1 PUSH1 0xA0 SHL SUB AND PUSH2 0x3FED JUMP JUMPDEST PUSH1 0xFF NOT DUP2 SLOAD AND SWAP1 SSTORE CALLER PUSH1 0x0 MSTORE PUSH1 0x9 PUSH1 0x20 MSTORE PUSH1 0x0 PUSH1 0x4 PUSH1 0x40 DUP3 KECCAK256 ADD SSTORE PUSH2 0x1788 DUP2 PUSH1 0x16 SLOAD PUSH2 0x303B JUMP JUMPDEST PUSH1 0x16 SSTORE PUSH1 0x40 MLOAD SWAP1 DUP2 MSTORE PUSH32 0xEA01A5DB185FB713C48073ED217455C9E653281D3C5BA9509467BE58F467706D PUSH1 0x20 CALLER SWAP3 LOG2 PUSH1 0x1 PUSH1 0x0 SSTORE STOP JUMPDEST PUSH1 0x40 MLOAD PUSH3 0x461BCD PUSH1 0xE5 SHL DUP2 MSTORE PUSH1 0x20 PUSH1 0x4 DUP3 ADD MSTORE PUSH1 0x1E PUSH1 0x24 DUP3 ADD MSTORE PUSH32 0x446F6E27742073656E642045544820666F7220746F6B656E2066696E65730000 PUSH1 0x44 DUP3 ADD MSTORE PUSH1 0x64 SWAP1 REVERT JUMPDEST POP CALLVALUE DUP3 EQ PUSH2 0x1761 JUMPI PUSH1 0x40 MLOAD PUSH3 0x461BCD PUSH1 0xE5 SHL DUP2 MSTORE PUSH1 0x20 PUSH1 0x4 DUP3 ADD MSTORE PUSH1 0x15 PUSH1 0x24 DUP3 ADD MSTORE PUSH21 0x125B98DBDC9C9958DD08199A5B9948185B5BDD5B9D PUSH1 0x5A SHL PUSH1 0x44 DUP3 ADD MSTORE PUSH1 0x64 SWAP1 REVERT JUMPDEST PUSH1 0x40 MLOAD PUSH3 0x461BCD PUSH1 0xE5 SHL DUP2 MSTORE PUSH1 0x20 PUSH1 0x4 DUP3 ADD MSTORE PUSH1 0x15 PUSH1 0x24 DUP3 ADD MSTORE PUSH21 0x139BDD081848199A5B99481C1D5B9A5CDA1B595B9D PUSH1 0x5A SHL PUSH1 0x44 DUP3 ADD MSTORE PUSH1 0x64 SWAP1 REVERT JUMPDEST PUSH4 0x4E487B71 PUSH1 0xE0 SHL PUSH1 0x0 MSTORE PUSH1 0x21 PUSH1 0x4 MSTORE PUSH1 0x24 PUSH1 0x0 REVERT JUMPDEST CALLVALUE PUSH2 0x3D0 JUMPI PUSH1 0x0 CALLDATASIZE PUSH1 0x3 NOT ADD SLT PUSH2 0x3D0 JUMPI PUSH1 0x20 PUSH1 0x40 MLOAD PUSH3 0x93A80 DUP2 MSTORE RETURN JUMPDEST CALLVALUE PUSH2 0x3D0 JUMPI PUSH1 0x0 CALLDATASIZE PUSH1 0x3 NOT ADD SLT PUSH2 0x3D0 JUMPI CALLER PUSH1 0x0 MSTORE PUSH1 0x12 PUSH1 0x20 MSTORE PUSH2 0x18E4 PUSH1 0xFF PUSH1 0x40 PUSH1 0x0 KECCAK256 SLOAD AND PUSH2 0x3048 JUMP JUMPDEST PUSH2 0x18F5 PUSH1 0xFF PUSH1 0x19 SLOAD PUSH1 0xA0 SHR AND PUSH2 0x32D8 JUMP JUMPDEST PUSH2 0x1903 PUSH1 0x6 SLOAD TIMESTAMP LT ISZERO PUSH2 0x331A JUMP JUMPDEST PUSH2 0x1911 PUSH1 0x7 SLOAD TIMESTAMP GT ISZERO PUSH2 0x335D JUMP JUMPDEST PUSH2 0x1919 PUSH2 0x3EFC JUMP JUMPDEST PUSH2 0x1921 PUSH2 0x3019 JUMP JUMPDEST PUSH1 0x0 DUP2 DUP2 MSTORE PUSH1 0xC PUSH1 0x20 MSTORE PUSH1 0x40 SWAP1 KECCAK256 SLOAD PUSH1 0x1 PUSH1 0x1 PUSH1 0xA0 SHL SUB AND PUSH2 0x1C2B JUMPI PUSH1 0xB SLOAD SWAP1 PUSH1 0x0 JUMPDEST DUP3 DUP2 LT PUSH2 0x1B61 JUMPI POP PUSH2 0x1962 PUSH1 0x18 SLOAD SWAP3 PUSH2 0x195D DUP5 DUP5 PUSH2 0x300C JUMP JUMPDEST PUSH2 0x339B JUMP JUMPDEST SWAP2 PUSH2 0x196C DUP4 PUSH2 0x2F37 JUMP JUMPDEST PUSH1 0x1 DUP1 PUSH1 0xA0 SHL SUB SWAP2 SLOAD SWAP1 PUSH1 0x3 SHL SHR AND SWAP1 PUSH1 0x0 SWAP4 DUP3 DUP6 MSTORE PUSH1 0x9 PUSH1 0x20 MSTORE PUSH1 0xFF PUSH1 0x40 DUP7 KECCAK256 SLOAD PUSH1 0x8 SHR AND ISZERO DUP1 ISZERO PUSH2 0x1B48 JUMPI JUMPDEST PUSH2 0x1AD9 JUMPI JUMPDEST POP POP PUSH1 0x3 SLOAD PUSH1 0x15 SLOAD SWAP1 DUP2 DUP2 MUL SWAP2 DUP2 DUP4 DIV EQ SWAP1 ISZERO OR ISZERO PUSH2 0x9D3 JUMPI PUSH2 0x19C4 DUP2 PUSH1 0x16 SLOAD PUSH2 0x300C JUMP JUMPDEST PUSH1 0x16 SSTORE PUSH1 0x40 MLOAD SWAP4 PUSH2 0x19D4 DUP6 PUSH2 0x2CFC JUMP JUMPDEST PUSH2 0x1A51 PUSH1 0x1 DUP1 PUSH1 0xA0 SHL SUB DUP5 AND SWAP6 DUP7 DUP2 MSTORE PUSH1 0x3 PUSH1 0x20 DUP3 ADD SWAP4 DUP6 DUP6 MSTORE PUSH1 0x40 DUP4 ADD TIMESTAMP DUP2 MSTORE PUSH1 0x60 DUP5 ADD SWAP2 ISZERO ISZERO SWAP6 DUP7 DUP4 MSTORE DUP10 PUSH1 0x0 MSTORE PUSH1 0xC PUSH1 0x20 MSTORE PUSH1 0x40 PUSH1 0x0 KECCAK256 SWAP5 PUSH1 0x1 DUP1 PUSH1 0xA0 SHL SUB SWAP1 MLOAD AND PUSH12 0xFFFFFFFFFFFFFFFFFFFFFFFF PUSH1 0xA0 SHL DUP7 SLOAD AND OR DUP6 SSTORE MLOAD PUSH1 0x1 DUP6 ADD SSTORE MLOAD PUSH1 0x2 DUP5 ADD SSTORE MLOAD ISZERO ISZERO SWAP2 ADD SWAP1 PUSH1 0xFF DUP1 NOT DUP4 SLOAD AND SWAP2 ISZERO ISZERO AND OR SWAP1 SSTORE JUMP JUMPDEST DUP5 PUSH1 0x0 MSTORE PUSH1 0xD PUSH1 0x20 MSTORE PUSH1 0x40 PUSH1 0x0 KECCAK256 SWAP4 DUP5 SLOAD SWAP5 PUSH1 0x1 PUSH1 0x40 SHL DUP7 LT ISZERO PUSH2 0xFA5 JUMPI DUP4 PUSH1 0x60 SWAP6 PUSH2 0x1AA7 DUP9 PUSH2 0x1AC1 SWAP5 PUSH1 0x1 PUSH32 0xC1FE199BD1EC460DE9BA76650239B5F5DA0D631F4D02BDC57FB26925F8D6B7CF SWAP12 ADD DUP2 SSTORE PUSH2 0x2F68 JUMP JUMPDEST DUP2 SLOAD SWAP1 PUSH1 0x3 SHL SWAP1 DUP7 DUP3 SHL SWAP2 PUSH1 0x0 NOT SWAP1 SHL NOT AND OR SWAP1 SSTORE PUSH2 0x3FA6 JUMP JUMPDEST PUSH1 0x40 MLOAD SWAP3 DUP4 MSTORE PUSH1 0x20 DUP4 ADD MSTORE PUSH1 0x40 DUP3 ADD MSTORE LOG2 PUSH1 0x1 PUSH1 0x0 SSTORE STOP JUMPDEST SWAP1 SWAP4 POP PUSH2 0x1AF4 SWAP2 POP PUSH2 0x1AEC PUSH1 0x1 SWAP5 PUSH2 0x317F JUMP JUMPDEST PUSH1 0x18 SSTORE PUSH2 0x3F1E JUMP JUMPDEST PUSH1 0x1 PUSH1 0x1 PUSH1 0xA0 SHL SUB DUP2 AND ISZERO PUSH2 0x1B0A JUMPI DUP4 DUP1 PUSH2 0x199F JUMP JUMPDEST PUSH1 0x40 MLOAD PUSH3 0x461BCD PUSH1 0xE5 SHL DUP2 MSTORE PUSH1 0x20 PUSH1 0x4 DUP3 ADD MSTORE PUSH1 0x16 PUSH1 0x24 DUP3 ADD MSTORE PUSH22 0x4E6F20656C696769626C6520726563697069656E7473 PUSH1 0x50 SHL PUSH1 0x44 DUP3 ADD MSTORE PUSH1 0x64 SWAP1 REVERT JUMPDEST POP DUP3 DUP6 MSTORE PUSH1 0xA PUSH1 0x20 MSTORE PUSH1 0xFF PUSH1 0x2 PUSH1 0x40 DUP8 KECCAK256 ADD SLOAD AND PUSH2 0x199A JUMP JUMPDEST PUSH2 0x1B6A DUP2 PUSH2 0x2F37 JUMP JUMPDEST SWAP1 SLOAD PUSH1 0x3 SWAP2 SWAP1 SWAP2 SHL SHR PUSH1 0x1 PUSH1 0x1 PUSH1 0xA0 SHL SUB AND PUSH1 0x0 DUP2 DUP2 MSTORE PUSH1 0x9 PUSH1 0x20 MSTORE PUSH1 0x40 SWAP1 KECCAK256 SLOAD PUSH1 0x8 SHR PUSH1 0xFF AND DUP1 PUSH2 0x1C0F JUMPI JUMPDEST PUSH2 0x1BA5 JUMPI JUMPDEST POP PUSH1 0x1 ADD PUSH2 0x1944 JUMP JUMPDEST PUSH1 0x0 MSTORE PUSH1 0x11 PUSH1 0x20 MSTORE PUSH1 0x40 PUSH1 0x0 KECCAK256 DUP3 PUSH1 0x0 MSTORE PUSH1 0x20 MSTORE PUSH1 0x40 PUSH1 0x0 KECCAK256 SLOAD ISZERO PUSH2 0x1BCA JUMPI DUP4 PUSH2 0x1B9C JUMP JUMPDEST PUSH1 0x40 MLOAD PUSH3 0x461BCD PUSH1 0xE5 SHL DUP2 MSTORE PUSH1 0x20 PUSH1 0x4 DUP3 ADD MSTORE PUSH1 0x1E PUSH1 0x24 DUP3 ADD MSTORE PUSH32 0x4D656D62657220686173206E6F7420636F6E7472696275746564207965740000 PUSH1 0x44 DUP3 ADD MSTORE PUSH1 0x64 SWAP1 REVERT JUMPDEST POP DUP1 PUSH1 0x0 MSTORE PUSH1 0xA PUSH1 0x20 MSTORE PUSH1 0xFF PUSH1 0x2 PUSH1 0x40 PUSH1 0x0 KECCAK256 ADD SLOAD AND ISZERO PUSH2 0x1B97 JUMP JUMPDEST PUSH1 0x40 MLOAD PUSH3 0x461BCD PUSH1 0xE5 SHL DUP2 MSTORE PUSH1 0x20 PUSH1 0x4 DUP3 ADD MSTORE PUSH1 0x1D PUSH1 0x24 DUP3 ADD MSTORE PUSH32 0x416C72656164792070726F636573736564207468697320706572696F64000000 PUSH1 0x44 DUP3 ADD MSTORE PUSH1 0x64 SWAP1 REVERT JUMPDEST CALLVALUE PUSH2 0x3D0 JUMPI PUSH1 0x0 CALLDATASIZE PUSH1 0x3 NOT ADD SLT PUSH2 0x3D0 JUMPI PUSH1 0x20 PUSH1 0x15 SLOAD PUSH1 0x40 MLOAD SWAP1 DUP2 MSTORE RETURN JUMPDEST CALLVALUE PUSH2 0x3D0 JUMPI PUSH1 0x0 CALLDATASIZE PUSH1 0x3 NOT ADD SLT PUSH2 0x3D0 JUMPI PUSH1 0x20 PUSH1 0xFF PUSH1 0x1 SLOAD AND PUSH1 0x40 MLOAD SWAP1 ISZERO ISZERO DUP2 MSTORE RETURN JUMPDEST CALLVALUE PUSH2 0x3D0 JUMPI PUSH1 0x0 CALLDATASIZE PUSH1 0x3 NOT ADD SLT PUSH2 0x3D0 JUMPI PUSH1 0x40 MLOAD PUSH1 0x2 SLOAD DUP2 PUSH1 0x0 PUSH2 0x1CD4 DUP4 PUSH2 0x2CA7 JUMP JUMPDEST DUP1 DUP4 MSTORE SWAP3 PUSH1 0x1 DUP2 AND SWAP1 DUP2 ISZERO PUSH2 0x1E8B JUMPI POP PUSH1 0x1 EQ PUSH2 0x1E2B JUMPI JUMPDEST PUSH2 0x1CF8 SWAP3 POP SUB DUP3 PUSH2 0x2D32 JUMP JUMPDEST PUSH1 0x3 SLOAD SWAP1 PUSH1 0x40 MLOAD SWAP2 PUSH1 0x0 PUSH1 0x4 SLOAD PUSH2 0x1D0E DUP2 PUSH2 0x2CA7 JUMP JUMPDEST DUP1 DUP7 MSTORE SWAP1 PUSH1 0x1 DUP2 AND SWAP1 DUP2 ISZERO PUSH2 0x1E09 JUMPI POP PUSH1 0x1 EQ PUSH2 0x1DB0 JUMPI JUMPDEST POP DUP4 PUSH2 0x1D39 PUSH2 0x1D61 SWAP6 PUSH1 0xFF SWAP4 SUB DUP3 PUSH2 0x2D32 JUMP JUMPDEST PUSH1 0x5 SLOAD SWAP3 PUSH1 0x6 SLOAD PUSH2 0x1D74 PUSH1 0x7 SLOAD SWAP3 PUSH1 0x8 SLOAD SWAP5 PUSH1 0x40 MLOAD SWAP10 DUP11 SWAP10 PUSH2 0x120 DUP12 MSTORE PUSH2 0x120 DUP12 ADD SWAP1 PUSH2 0x2E04 JUMP JUMPDEST SWAP2 PUSH1 0x20 DUP11 ADD MSTORE DUP9 DUP3 SUB PUSH1 0x40 DUP11 ADD MSTORE PUSH2 0x2E04 JUMP JUMPDEST SWAP5 PUSH1 0x60 DUP8 ADD MSTORE PUSH1 0x80 DUP7 ADD MSTORE PUSH1 0xA0 DUP6 ADD MSTORE PUSH2 0x1D93 PUSH1 0xC0 DUP6 ADD DUP4 DUP4 AND PUSH2 0x2EF3 JUMP JUMPDEST DUP2 DUP2 PUSH1 0x8 SHR AND ISZERO ISZERO PUSH1 0xE0 DUP6 ADD MSTORE PUSH1 0x10 SHR AND ISZERO ISZERO PUSH2 0x100 DUP4 ADD MSTORE SUB SWAP1 RETURN JUMPDEST PUSH1 0x4 PUSH1 0x0 SWAP1 DUP2 MSTORE SWAP2 POP PUSH32 0x8A35ACFBC15FF81A39AE7D344FD709F28E8600B4AA8C65C6B64BFE7FE36BD19B JUMPDEST DUP2 DUP4 LT PUSH2 0x1DEF JUMPI POP POP DUP4 ADD PUSH1 0x20 ADD DUP4 PUSH2 0x1D26 JUMP JUMPDEST PUSH1 0x1 DUP2 PUSH1 0x20 SWAP3 SWAP5 SWAP4 SWAP5 SLOAD DUP4 DUP6 DUP11 ADD ADD MSTORE ADD SWAP2 ADD SWAP2 SWAP1 PUSH2 0x1DDB JUMP JUMPDEST PUSH1 0xFF NOT AND PUSH1 0x20 DUP1 DUP9 ADD SWAP2 SWAP1 SWAP2 MSTORE SWAP2 ISZERO ISZERO PUSH1 0x5 SHL DUP7 ADD SWAP1 SWAP2 ADD SWAP2 POP DUP5 SWAP1 POP PUSH2 0x1D26 JUMP JUMPDEST POP PUSH1 0x2 PUSH1 0x0 SWAP1 DUP2 MSTORE SWAP1 SWAP2 PUSH32 0x405787FA12A823E0F2B7631CC41B3BA8828B3321CA811111FA75CD3AA3BB5ACE JUMPDEST DUP2 DUP4 LT PUSH2 0x1E6F JUMPI POP POP SWAP1 PUSH1 0x20 PUSH2 0x1CF8 SWAP3 DUP3 ADD ADD PUSH2 0x1CEC JUMP JUMPDEST PUSH1 0x20 SWAP2 SWAP4 POP DUP1 PUSH1 0x1 SWAP2 SLOAD DUP4 DUP6 DUP9 ADD ADD MSTORE ADD SWAP2 ADD SWAP1 SWAP2 DUP4 SWAP3 PUSH2 0x1E57 JUMP JUMPDEST PUSH1 0x20 SWAP3 POP PUSH2 0x1CF8 SWAP5 SWAP2 POP PUSH1 0xFF NOT AND DUP3 DUP5 ADD MSTORE ISZERO ISZERO PUSH1 0x5 SHL DUP3 ADD ADD PUSH2 0x1CEC JUMP JUMPDEST CALLVALUE PUSH2 0x3D0 JUMPI PUSH1 0x20 CALLDATASIZE PUSH1 0x3 NOT ADD SLT PUSH2 0x3D0 JUMPI PUSH1 0x4 CALLDATALOAD PUSH1 0x0 SWAP1 DUP2 MSTORE PUSH1 0xC PUSH1 0x20 SWAP1 DUP2 MSTORE PUSH1 0x40 SWAP2 DUP3 SWAP1 KECCAK256 DUP1 SLOAD PUSH1 0x1 DUP3 ADD SLOAD PUSH1 0x2 DUP4 ADD SLOAD PUSH1 0x3 SWAP1 SWAP4 ADD SLOAD DUP6 MLOAD PUSH1 0x1 PUSH1 0x1 PUSH1 0xA0 SHL SUB SWAP1 SWAP4 AND DUP4 MSTORE SWAP4 DUP3 ADD MSTORE SWAP3 DUP4 ADD MSTORE PUSH1 0xFF AND ISZERO ISZERO PUSH1 0x60 DUP3 ADD MSTORE PUSH1 0x80 SWAP1 RETURN JUMPDEST CALLVALUE PUSH2 0x3D0 JUMPI PUSH1 0x0 CALLDATASIZE PUSH1 0x3 NOT ADD SLT PUSH2 0x3D0 JUMPI PUSH1 0x1A SLOAD PUSH1 0x40 MLOAD PUSH1 0x1 PUSH1 0x1 PUSH1 0xA0 SHL SUB SWAP1 SWAP2 AND DUP2 MSTORE PUSH1 0x20 SWAP1 RETURN JUMPDEST CALLVALUE PUSH2 0x3D0 JUMPI PUSH1 0x20 CALLDATASIZE PUSH1 0x3 NOT ADD SLT PUSH2 0x3D0 JUMPI PUSH2 0xE PUSH2 0x1F4D PUSH2 0x2E9A JUMP JUMPDEST CALLER PUSH1 0x0 MSTORE PUSH1 0x12 PUSH1 0x20 MSTORE PUSH2 0x1F67 PUSH1 0xFF PUSH1 0x40 PUSH1 0x0 KECCAK256 SLOAD AND PUSH2 0x3048 JUMP JUMPDEST PUSH2 0x3E2E JUMP JUMPDEST CALLVALUE PUSH2 0x3D0 JUMPI PUSH1 0x0 CALLDATASIZE PUSH1 0x3 NOT ADD SLT PUSH2 0x3D0 JUMPI PUSH1 0x20 PUSH1 0x40 MLOAD PUSH1 0x3 DUP2 MSTORE RETURN JUMPDEST CALLVALUE PUSH2 0x3D0 JUMPI PUSH1 0x20 CALLDATASIZE PUSH1 0x3 NOT ADD SLT PUSH2 0x3D0 JUMPI PUSH1 0x1 PUSH1 0x1 PUSH1 0xA0 SHL SUB PUSH2 0x1FA9 PUSH2 0x2E9A JUMP JUMPDEST AND PUSH1 0x0 MSTORE PUSH1 0x12 PUSH1 0x20 MSTORE PUSH1 0x20 PUSH1 0xFF PUSH1 0x40 PUSH1 0x0 KECCAK256 SLOAD AND PUSH1 0x40 MLOAD SWAP1 ISZERO ISZERO DUP2 MSTORE RETURN JUMPDEST CALLVALUE PUSH2 0x3D0 JUMPI PUSH1 0x20 CALLDATASIZE PUSH1 0x3 NOT ADD SLT PUSH2 0x3D0 JUMPI PUSH1 0x4 CALLDATALOAD PUSH1 0xB SLOAD DUP2 LT ISZERO PUSH2 0x3D0 JUMPI PUSH2 0x1FF0 PUSH1 0x20 SWAP2 PUSH2 0x2F37 JUMP JUMPDEST SWAP1 SLOAD PUSH1 0x40 MLOAD PUSH1 0x3 SWAP3 SWAP1 SWAP3 SHL SHR PUSH1 0x1 PUSH1 0x1 PUSH1 0xA0 SHL SUB AND DUP2 MSTORE RETURN JUMPDEST CALLVALUE PUSH2 0x3D0 JUMPI PUSH1 0x0 CALLDATASIZE PUSH1 0x3 NOT ADD SLT PUSH2 0x3D0 JUMPI CALLER PUSH1 0x0 MSTORE PUSH1 0x12 PUSH1 0x20 MSTORE PUSH2 0x2034 PUSH1 0xFF PUSH1 0x40 PUSH1 0x0 KECCAK256 SLOAD AND PUSH2 0x3048 JUMP JUMPDEST PUSH1 0x1 SLOAD PUSH1 0xFF DUP2 AND ISZERO PUSH2 0x2073 JUMPI PUSH1 0xFF NOT AND PUSH1 0x1 SSTORE PUSH32 0x5DB9EE0A495BF2E6FF9C91A7834C1BA4FDD244A5E8AA4E537BD38AEAE4B073AA PUSH1 0x20 PUSH1 0x40 MLOAD CALLER DUP2 MSTORE LOG1 STOP JUMPDEST PUSH4 0x8DFC202B PUSH1 0xE0 SHL PUSH1 0x0 MSTORE PUSH1 0x4 PUSH1 0x0 REVERT JUMPDEST CALLVALUE PUSH2 0x3D0 JUMPI PUSH1 0x40 CALLDATASIZE PUSH1 0x3 NOT ADD SLT PUSH2 0x3D0 JUMPI PUSH2 0x209D PUSH2 0x2E9A JUMP JUMPDEST PUSH1 0x24 CALLDATALOAD SWAP1 CALLER PUSH1 0x0 MSTORE PUSH1 0x12 PUSH1 0x20 MSTORE PUSH2 0x20BB PUSH1 0xFF PUSH1 0x40 PUSH1 0x0 KECCAK256 SLOAD AND PUSH2 0x3048 JUMP JUMPDEST PUSH2 0x20C3 PUSH2 0x3019 JUMP JUMPDEST DUP3 GT PUSH2 0x20E3 JUMPI PUSH1 0x1 PUSH1 0x1 PUSH1 0xA0 SHL SUB AND PUSH1 0x0 SWAP1 DUP2 MSTORE PUSH1 0xF PUSH1 0x20 MSTORE PUSH1 0x40 SWAP1 KECCAK256 SSTORE STOP JUMPDEST PUSH1 0x40 MLOAD PUSH3 0x461BCD PUSH1 0xE5 SHL DUP2 MSTORE PUSH1 0x20 PUSH1 0x4 DUP3 ADD MSTORE PUSH1 0x18 PUSH1 0x24 DUP3 ADD MSTORE PUSH32 0x43616E6E6F74207365742066757475726520706572696F640000000000000000 PUSH1 0x44 DUP3 ADD MSTORE PUSH1 0x64 SWAP1 REVERT JUMPDEST CALLVALUE PUSH2 0x3D0 JUMPI PUSH1 0x20 CALLDATASIZE PUSH1 0x3 NOT ADD SLT PUSH2 0x3D0 JUMPI PUSH1 0x4 CALLDATALOAD PUSH1 0x0 MSTORE PUSH1 0xE PUSH1 0x20 MSTORE PUSH1 0x40 PUSH1 0x0 KECCAK256 DUP1 SLOAD PUSH2 0xE23 PUSH1 0x1 DUP4 ADD SLOAD SWAP3 PUSH1 0x3 DUP2 ADD SLOAD PUSH1 0x4 DUP3 ADD SLOAD PUSH1 0x5 DUP4 ADD SLOAD SWAP2 PUSH2 0x2178 PUSH1 0x2 PUSH1 0xFF PUSH1 0x6 DUP8 ADD SLOAD AND SWAP6 ADD PUSH2 0x2D53 JUMP JUMPDEST PUSH1 0x40 MLOAD SWAP8 DUP9 SWAP8 PUSH1 0x8 DUP2 SWAP1 SHR PUSH1 0x1 PUSH1 0x1 PUSH1 0xA0 SHL SUB AND SWAP1 PUSH1 0xFF AND DUP10 PUSH2 0x2E45 JUMP JUMPDEST CALLVALUE PUSH2 0x3D0 JUMPI PUSH1 0x0 CALLDATASIZE PUSH1 0x3 NOT ADD SLT PUSH2 0x3D0 JUMPI PUSH1 0x20 PUSH1 0x1D SLOAD PUSH1 0x40 MLOAD SWAP1 DUP2 MSTORE RETURN JUMPDEST CALLVALUE PUSH2 0x3D0 JUMPI PUSH1 0x20 CALLDATASIZE PUSH1 0x3 NOT ADD SLT PUSH2 0x3D0 JUMPI PUSH1 0x1 PUSH1 0x1 PUSH1 0xA0 SHL SUB PUSH2 0x21D5 PUSH2 0x2E9A JUMP JUMPDEST AND PUSH1 0x0 MSTORE PUSH1 0xA PUSH1 0x20 MSTORE PUSH1 0x40 PUSH1 0x0 KECCAK256 PUSH1 0x40 MLOAD PUSH2 0x21EF DUP2 PUSH2 0x2CE1 JUMP JUMPDEST PUSH2 0x21FD PUSH1 0xFF DUP4 SLOAD AND DUP3 PUSH2 0x3248 JUMP JUMPDEST PUSH2 0x2209 PUSH1 0x1 DUP4 ADD PUSH2 0x2D53 JUMP JUMPDEST PUSH1 0x20 DUP3 ADD SWAP1 DUP2 MSTORE PUSH1 0xFF PUSH1 0x2 DUP5 ADD SLOAD AND SWAP3 PUSH1 0x40 DUP4 ADD SWAP4 ISZERO ISZERO DUP5 MSTORE PUSH1 0x4 PUSH1 0x3 DUP3 ADD SLOAD SWAP2 PUSH1 0x60 DUP6 ADD SWAP3 DUP4 MSTORE ADD SLOAD SWAP3 PUSH1 0x80 DUP2 ADD SWAP4 DUP5 MSTORE MLOAD SWAP3 PUSH1 0x4 DUP5 LT ISZERO PUSH2 0x1885 JUMPI PUSH2 0xE23 SWAP3 MLOAD SWAP5 MLOAD ISZERO ISZERO SWAP2 MLOAD SWAP1 MLOAD SWAP2 PUSH1 0x40 MLOAD SWAP6 DUP7 SWAP6 DUP7 PUSH2 0x2F00 JUMP JUMPDEST CALLVALUE PUSH2 0x3D0 JUMPI PUSH1 0x0 CALLDATASIZE PUSH1 0x3 NOT ADD SLT PUSH2 0x3D0 JUMPI PUSH1 0x20 PUSH1 0x40 MLOAD PUSH7 0x2386F26FC10000 DUP2 MSTORE RETURN JUMPDEST CALLVALUE PUSH2 0x3D0 JUMPI PUSH1 0x60 CALLDATASIZE PUSH1 0x3 NOT ADD SLT PUSH2 0x3D0 JUMPI PUSH2 0x229B PUSH2 0x2E9A JUMP JUMPDEST PUSH1 0x24 CALLDATALOAD SWAP1 PUSH1 0x4 DUP3 LT ISZERO PUSH2 0x3D0 JUMPI PUSH1 0x44 CALLDATALOAD PUSH1 0x1 PUSH1 0x1 PUSH1 0x40 SHL SUB DUP2 GT PUSH2 0x3D0 JUMPI PUSH2 0x22C7 SWAP1 CALLDATASIZE SWAP1 PUSH1 0x4 ADD PUSH2 0x2EC6 JUMP JUMPDEST SWAP1 SWAP2 CALLER PUSH1 0x0 MSTORE PUSH1 0x12 PUSH1 0x20 MSTORE PUSH2 0x22E3 PUSH1 0xFF PUSH1 0x40 PUSH1 0x0 KECCAK256 SLOAD AND PUSH2 0x3048 JUMP JUMPDEST PUSH1 0x1 PUSH1 0x1 PUSH1 0xA0 SHL SUB AND PUSH1 0x0 DUP2 DUP2 MSTORE PUSH1 0x9 PUSH1 0x20 MSTORE PUSH1 0x40 SWAP1 KECCAK256 SLOAD SWAP1 SWAP3 SWAP1 PUSH1 0xFF AND ISZERO PUSH2 0x25B1 JUMPI PUSH1 0x0 DUP5 ISZERO PUSH2 0x256C JUMPI PUSH1 0x2 DUP6 EQ PUSH2 0x255E JUMPI JUMPDEST PUSH1 0x40 MLOAD SWAP5 PUSH2 0x2324 DUP7 PUSH2 0x2CE1 JUMP JUMPDEST PUSH2 0x232E DUP2 DUP8 PUSH2 0x3248 JUMP JUMPDEST PUSH2 0x2337 DUP5 PUSH2 0x3254 JUMP JUMPDEST SWAP6 PUSH2 0x2345 PUSH1 0x40 MLOAD SWAP8 DUP9 PUSH2 0x2D32 JUMP JUMPDEST DUP5 DUP8 MSTORE CALLDATASIZE DUP6 DUP6 ADD GT PUSH2 0x3D0 JUMPI DUP5 DUP5 PUSH1 0x20 DUP10 ADD CALLDATACOPY PUSH1 0x0 PUSH1 0x20 DUP7 DUP10 ADD ADD MSTORE PUSH1 0x20 DUP2 ADD SWAP7 DUP8 MSTORE PUSH1 0x40 DUP2 ADD PUSH1 0x1 DUP2 MSTORE PUSH1 0x60 DUP3 ADD TIMESTAMP DUP2 MSTORE PUSH1 0x80 DUP4 ADD SWAP2 DUP6 DUP4 MSTORE DUP9 PUSH1 0x0 MSTORE PUSH1 0xA PUSH1 0x20 MSTORE PUSH1 0x40 PUSH1 0x0 KECCAK256 SWAP4 MLOAD SWAP10 PUSH1 0x4 DUP12 LT ISZERO PUSH2 0x1885 JUMPI PUSH1 0x0 SWAP11 PUSH1 0xFF DUP1 NOT DUP8 SLOAD AND SWAP2 AND OR DUP6 SSTORE PUSH1 0x1 DUP6 ADD SWAP1 MLOAD DUP1 MLOAD SWAP1 PUSH1 0x1 PUSH1 0x1 PUSH1 0x40 SHL SUB DUP3 GT PUSH2 0x254A JUMPI PUSH2 0x23D3 DUP3 PUSH2 0x23CD DUP6 SLOAD PUSH2 0x2CA7 JUMP JUMPDEST DUP6 PUSH2 0x3286 JUMP JUMPDEST PUSH1 0x20 SWAP1 DUP14 PUSH1 0x1F DUP5 GT PUSH1 0x1 EQ PUSH2 0x24C2 JUMPI DUP13 SWAP12 SWAP10 SWAP6 PUSH1 0x0 DUP1 MLOAD PUSH1 0x20 PUSH2 0x4530 DUP4 CODECOPY DUP2 MLOAD SWAP2 MSTORE SWAP14 SWAP10 SWAP6 PUSH2 0x2427 DUP7 PUSH1 0x4 SWAP8 PUSH1 0x80 SWAP16 SWAP13 SWAP8 PUSH2 0x247A SWAP13 SWAP8 PUSH2 0x2442 SWAP8 SWAP3 PUSH2 0x24B7 JUMPI POP POP DUP2 PUSH1 0x1 SHL SWAP2 PUSH1 0x0 NOT SWAP1 PUSH1 0x3 SHL SHR NOT AND OR SWAP1 JUMP JUMPDEST SWAP1 SSTORE JUMPDEST MLOAD ISZERO ISZERO PUSH1 0x2 DUP7 ADD SWAP1 PUSH1 0xFF DUP1 NOT DUP4 SLOAD AND SWAP2 ISZERO ISZERO AND OR SWAP1 SSTORE JUMP JUMPDEST MLOAD PUSH1 0x3 DUP5 ADD SSTORE MLOAD SWAP2 ADD SSTORE PUSH1 0x3 DUP2 EQ PUSH2 0x248F JUMPI JUMPDEST PUSH1 0x40 MLOAD SWAP7 DUP8 SWAP6 PUSH1 0x60 DUP8 MSTORE DUP2 PUSH1 0x60 DUP9 ADD MSTORE DUP8 DUP8 ADD CALLDATACOPY DUP10 DUP7 DUP6 DUP8 ADD ADD MSTORE PUSH1 0x20 DUP6 ADD SWAP1 PUSH2 0x2EF3 JUMP JUMPDEST PUSH1 0x40 DUP4 ADD MSTORE PUSH1 0x1F ADD PUSH1 0x1F NOT AND DUP2 ADD SUB ADD SWAP1 LOG2 DUP1 RETURN JUMPDEST DUP9 DUP11 MSTORE PUSH1 0x9 PUSH1 0x20 MSTORE PUSH1 0x40 DUP11 KECCAK256 PUSH2 0xFF00 NOT DUP2 SLOAD AND SWAP1 SSTORE PUSH2 0x24AF PUSH1 0x15 SLOAD PUSH2 0x32CB JUMP JUMPDEST PUSH1 0x15 SSTORE PUSH2 0x2455 JUMP JUMPDEST ADD MLOAD SWAP1 POP CODESIZE DUP1 PUSH2 0xBAD JUMP JUMPDEST SWAP2 SWAP1 PUSH1 0x1F NOT DUP5 AND DUP6 DUP5 MSTORE DUP3 DUP5 KECCAK256 SWAP4 JUMPDEST DUP2 DUP2 LT PUSH2 0x2532 JUMPI POP SWAP6 DUP14 SWAP13 SWAP11 SWAP7 SWAP6 PUSH1 0x1 PUSH1 0x0 DUP1 MLOAD PUSH1 0x20 PUSH2 0x4530 DUP4 CODECOPY DUP2 MLOAD SWAP2 MSTORE SWAP16 SWAP12 SWAP8 SWAP7 PUSH1 0x80 SWAP15 SWAP12 SWAP7 PUSH2 0x247A SWAP12 SWAP7 PUSH2 0x2442 SWAP7 DUP4 PUSH1 0x4 SWAP12 LT PUSH2 0x2519 JUMPI JUMPDEST POP POP POP DUP2 SHL ADD SWAP1 SSTORE PUSH2 0x242A JUMP JUMPDEST ADD MLOAD PUSH1 0x0 NOT PUSH1 0xF8 DUP5 PUSH1 0x3 SHL AND SHR NOT AND SWAP1 SSTORE CODESIZE DUP1 DUP1 PUSH2 0x250C JUMP JUMPDEST SWAP3 SWAP4 PUSH1 0x20 PUSH1 0x1 DUP2 SWAP3 DUP8 DUP7 ADD MLOAD DUP2 SSTORE ADD SWAP6 ADD SWAP4 ADD PUSH2 0x24D1 JUMP JUMPDEST PUSH4 0x4E487B71 PUSH1 0xE0 SHL DUP14 MSTORE PUSH1 0x41 PUSH1 0x4 MSTORE PUSH1 0x24 DUP14 REVERT JUMPDEST POP PUSH7 0x2386F26FC10000 PUSH2 0x2317 JUMP JUMPDEST PUSH1 0x40 MLOAD PUSH3 0x461BCD PUSH1 0xE5 SHL DUP2 MSTORE PUSH1 0x20 PUSH1 0x4 DUP3 ADD MSTORE PUSH1 0x19 PUSH1 0x24 DUP3 ADD MSTORE PUSH32 0x496E76616C69642070756E6973686D656E7420616374696F6E00000000000000 PUSH1 0x44 DUP3 ADD MSTORE PUSH1 0x64 SWAP1 REVERT JUMPDEST PUSH1 0x40 MLOAD PUSH3 0x461BCD PUSH1 0xE5 SHL DUP2 MSTORE PUSH1 0x20 PUSH1 0x4 DUP3 ADD MSTORE PUSH1 0x14 PUSH1 0x24 DUP3 ADD MSTORE PUSH20 0x2AB9B2B91034B9903737BA10309036B2B6B132B9 PUSH1 0x61 SHL PUSH1 0x44 DUP3 ADD MSTORE PUSH1 0x64 SWAP1 REVERT JUMPDEST CALLVALUE PUSH2 0x3D0 JUMPI PUSH1 0x0 CALLDATASIZE PUSH1 0x3 NOT ADD SLT PUSH2 0x3D0 JUMPI PUSH1 0x20 PUSH1 0xFF PUSH1 0x19 SLOAD PUSH1 0xA0 SHR AND PUSH1 0x40 MLOAD SWAP1 ISZERO ISZERO DUP2 MSTORE RETURN JUMPDEST CALLVALUE PUSH2 0x3D0 JUMPI PUSH1 0x0 CALLDATASIZE PUSH1 0x3 NOT ADD SLT PUSH2 0x3D0 JUMPI PUSH1 0x20 PUSH1 0xFF PUSH1 0x1A SLOAD PUSH1 0xA0 SHR AND PUSH1 0x40 MLOAD SWAP1 ISZERO ISZERO DUP2 MSTORE RETURN JUMPDEST CALLVALUE PUSH2 0x3D0 JUMPI PUSH1 0x0 CALLDATASIZE PUSH1 0x3 NOT ADD SLT PUSH2 0x3D0 JUMPI PUSH1 0x20 PUSH1 0x1C SLOAD PUSH1 0x40 MLOAD SWAP1 DUP2 MSTORE RETURN JUMPDEST CALLVALUE PUSH2 0x3D0 JUMPI PUSH1 0x20 CALLDATASIZE PUSH1 0x3 NOT ADD SLT PUSH2 0x3D0 JUMPI PUSH1 0x1 PUSH1 0x1 PUSH1 0xA0 SHL SUB PUSH2 0x2678 PUSH2 0x2E9A JUMP JUMPDEST AND PUSH1 0x0 MSTORE PUSH1 0xF PUSH1 0x20 MSTORE PUSH1 0x20 PUSH1 0x40 PUSH1 0x0 KECCAK256 SLOAD PUSH1 0x40 MLOAD SWAP1 DUP2 MSTORE RETURN JUMPDEST CALLVALUE PUSH2 0x3D0 JUMPI PUSH1 0x20 CALLDATASIZE PUSH1 0x3 NOT ADD SLT PUSH2 0x3D0 JUMPI PUSH2 0x26AA PUSH2 0x2E9A JUMP JUMPDEST PUSH1 0x19 SLOAD PUSH1 0x1 PUSH1 0x1 PUSH1 0xA0 SHL SUB AND SWAP1 PUSH2 0x26D8 SWAP1 PUSH2 0x26C6 CALLER DUP5 EQ PUSH2 0x318E JUMP JUMPDEST PUSH1 0x1 PUSH1 0x1 PUSH1 0xA0 SHL SUB AND SWAP2 DUP3 EQ ISZERO PUSH2 0x31C9 JUMP JUMPDEST DUP1 PUSH1 0x0 MSTORE PUSH1 0x12 PUSH1 0x20 MSTORE PUSH2 0x26F2 PUSH1 0xFF PUSH1 0x40 PUSH1 0x0 KECCAK256 SLOAD AND PUSH2 0x320D JUMP JUMPDEST DUP1 PUSH1 0x0 MSTORE PUSH1 0x12 PUSH1 0x20 MSTORE PUSH1 0x40 PUSH1 0x0 KECCAK256 PUSH1 0xFF NOT DUP2 SLOAD AND SWAP1 SSTORE PUSH32 0xA3B62BC36326052D97EA62D63C3D60308ED4C3EA8AC079DD8499F1E9C4F80C0F PUSH1 0x0 DUP1 LOG2 STOP JUMPDEST CALLVALUE PUSH2 0x3D0 JUMPI PUSH1 0x40 CALLDATASIZE PUSH1 0x3 NOT ADD SLT PUSH2 0x3D0 JUMPI PUSH1 0x4 CALLDATALOAD PUSH1 0x24 CALLDATALOAD DUP1 ISZERO ISZERO DUP2 SUB PUSH2 0x3D0 JUMPI CALLER PUSH1 0x0 MSTORE PUSH1 0x9 PUSH1 0x20 MSTORE PUSH1 0xFF PUSH1 0x40 PUSH1 0x0 KECCAK256 SLOAD AND DUP1 PUSH2 0x287E JUMPI JUMPDEST PUSH2 0x2770 SWAP1 PUSH2 0x313C JUMP JUMPDEST DUP2 PUSH1 0x0 MSTORE PUSH1 0xE PUSH1 0x20 MSTORE PUSH1 0x40 PUSH1 0x0 KECCAK256 SWAP2 PUSH2 0x2790 PUSH1 0xFF PUSH1 0x6 DUP6 ADD SLOAD AND ISZERO PUSH2 0x3080 JUMP JUMPDEST PUSH2 0x27A1 PUSH1 0x5 DUP5 ADD SLOAD PUSH1 0x1D SLOAD SWAP1 PUSH2 0x303B JUMP JUMPDEST TIMESTAMP GT PUSH2 0x2844 JUMPI PUSH1 0x0 DUP2 DUP2 MSTORE PUSH1 0x10 PUSH1 0x20 SWAP1 DUP2 MSTORE PUSH1 0x40 DUP1 DUP4 KECCAK256 CALLER DUP5 MSTORE SWAP1 SWAP2 MSTORE SWAP1 KECCAK256 SLOAD PUSH1 0xFF AND PUSH2 0x280F JUMPI PUSH1 0x0 SWAP1 DUP2 MSTORE PUSH1 0x10 PUSH1 0x20 SWAP1 DUP2 MSTORE PUSH1 0x40 DUP1 DUP4 KECCAK256 CALLER DUP5 MSTORE SWAP1 SWAP2 MSTORE SWAP1 KECCAK256 DUP1 SLOAD PUSH1 0xFF NOT AND PUSH1 0x1 OR SWAP1 SSTORE ISZERO PUSH2 0x2802 JUMPI PUSH1 0x3 ADD PUSH2 0x27FE DUP2 SLOAD PUSH2 0x317F JUMP JUMPDEST SWAP1 SSTORE STOP JUMPDEST PUSH1 0x4 ADD PUSH2 0x27FE DUP2 SLOAD PUSH2 0x317F JUMP JUMPDEST PUSH1 0x40 MLOAD PUSH3 0x461BCD PUSH1 0xE5 SHL DUP2 MSTORE PUSH1 0x20 PUSH1 0x4 DUP3 ADD MSTORE PUSH1 0xD PUSH1 0x24 DUP3 ADD MSTORE PUSH13 0x105B1C9958591E481D9BDD1959 PUSH1 0x9A SHL PUSH1 0x44 DUP3 ADD MSTORE PUSH1 0x64 SWAP1 REVERT JUMPDEST PUSH1 0x40 MLOAD PUSH3 0x461BCD PUSH1 0xE5 SHL DUP2 MSTORE PUSH1 0x20 PUSH1 0x4 DUP3 ADD MSTORE PUSH1 0x12 PUSH1 0x24 DUP3 ADD MSTORE PUSH18 0x2B37BA34B733903832B934B7B21037BB32B9 PUSH1 0x71 SHL PUSH1 0x44 DUP3 ADD MSTORE PUSH1 0x64 SWAP1 REVERT JUMPDEST POP CALLER PUSH1 0x0 SWAP1 DUP2 MSTORE PUSH1 0x9 PUSH1 0x20 MSTORE PUSH1 0x40 SWAP1 KECCAK256 SLOAD PUSH1 0x8 SHR PUSH1 0xFF AND PUSH2 0x2767 JUMP JUMPDEST CALLVALUE PUSH2 0x3D0 JUMPI PUSH1 0x20 CALLDATASIZE PUSH1 0x3 NOT ADD SLT PUSH2 0x3D0 JUMPI PUSH2 0xE PUSH2 0x28B6 PUSH2 0x2E9A JUMP JUMPDEST CALLER PUSH1 0x0 MSTORE PUSH1 0x12 PUSH1 0x20 MSTORE PUSH2 0x13D8 PUSH1 0xFF PUSH1 0x40 PUSH1 0x0 KECCAK256 SLOAD AND PUSH2 0x3048 JUMP JUMPDEST CALLVALUE PUSH2 0x3D0 JUMPI PUSH1 0x0 CALLDATASIZE PUSH1 0x3 NOT ADD SLT PUSH2 0x3D0 JUMPI PUSH1 0x20 PUSH2 0x28EB PUSH2 0x30BF JUMP JUMPDEST PUSH1 0x40 MLOAD SWAP1 DUP2 MSTORE RETURN JUMPDEST CALLVALUE PUSH2 0x3D0 JUMPI PUSH1 0x0 CALLDATASIZE PUSH1 0x3 NOT ADD SLT PUSH2 0x3D0 JUMPI PUSH1 0x20 PUSH1 0x14 SLOAD PUSH1 0x40 MLOAD SWAP1 DUP2 MSTORE RETURN JUMPDEST CALLVALUE PUSH2 0x3D0 JUMPI PUSH1 0x20 CALLDATASIZE PUSH1 0x3 NOT ADD SLT PUSH2 0x3D0 JUMPI PUSH1 0x4 CALLDATALOAD CALLER PUSH1 0x0 MSTORE PUSH1 0x12 PUSH1 0x20 MSTORE PUSH2 0x293F PUSH1 0xFF PUSH1 0x40 PUSH1 0x0 KECCAK256 SLOAD AND PUSH2 0x3048 JUMP JUMPDEST DUP1 PUSH1 0x0 MSTORE PUSH1 0xE PUSH1 0x20 MSTORE PUSH1 0x40 PUSH1 0x0 KECCAK256 PUSH1 0x6 DUP2 ADD SWAP1 PUSH2 0x2960 PUSH1 0xFF DUP4 SLOAD AND ISZERO PUSH2 0x3080 JUMP JUMPDEST PUSH2 0x2971 PUSH1 0x5 DUP3 ADD SLOAD PUSH1 0x1D SLOAD SWAP1 PUSH2 0x303B JUMP JUMPDEST TIMESTAMP GT ISZERO PUSH2 0x2A7F JUMPI PUSH1 0x3 DUP2 ADD SLOAD PUSH1 0x4 DUP3 ADD SLOAD SWAP1 PUSH2 0x298D DUP3 DUP3 PUSH2 0x303B JUMP JUMPDEST PUSH1 0x15 SLOAD PUSH1 0x32 DUP2 MUL SWAP1 DUP1 DUP3 DIV PUSH1 0x32 EQ SWAP1 ISZERO OR ISZERO PUSH2 0x9D3 JUMPI PUSH1 0x63 DUP2 ADD DUP1 SWAP2 GT PUSH2 0x9D3 JUMPI PUSH1 0x64 SWAP1 DIV GT PUSH2 0x2A3A JUMPI GT ISZERO PUSH2 0x2A01 JUMPI PUSH32 0x948F4A9CD986F1118C3FBD459F7A22B23C0693E1CA3EF06A6A8BE5AA7D39CC03 SWAP2 PUSH2 0x29EA PUSH1 0x20 SWAP3 PUSH2 0x3655 JUMP JUMPDEST DUP2 SLOAD PUSH1 0xFF NOT AND PUSH1 0x1 OR SWAP1 SWAP2 SSTORE PUSH1 0x40 MLOAD SWAP1 ISZERO ISZERO DUP2 MSTORE LOG2 STOP JUMPDEST PUSH1 0x40 MLOAD PUSH3 0x461BCD PUSH1 0xE5 SHL DUP2 MSTORE PUSH1 0x20 PUSH1 0x4 DUP3 ADD MSTORE PUSH1 0x11 PUSH1 0x24 DUP3 ADD MSTORE PUSH17 0x141C9BDC1BDCD85B081C995A9958DD1959 PUSH1 0x7A SHL PUSH1 0x44 DUP3 ADD MSTORE PUSH1 0x64 SWAP1 REVERT JUMPDEST PUSH1 0x40 MLOAD PUSH3 0x461BCD PUSH1 0xE5 SHL DUP2 MSTORE PUSH1 0x20 PUSH1 0x4 DUP3 ADD MSTORE PUSH1 0x1A PUSH1 0x24 DUP3 ADD MSTORE PUSH32 0x496E73756666696369656E742070617274696369706174696F6E000000000000 PUSH1 0x44 DUP3 ADD MSTORE PUSH1 0x64 SWAP1 REVERT JUMPDEST PUSH1 0x40 MLOAD PUSH3 0x461BCD PUSH1 0xE5 SHL DUP2 MSTORE PUSH1 0x20 PUSH1 0x4 DUP3 ADD MSTORE PUSH1 0x13 PUSH1 0x24 DUP3 ADD MSTORE PUSH19 0x566F74696E67207374696C6C20616374697665 PUSH1 0x68 SHL PUSH1 0x44 DUP3 ADD MSTORE PUSH1 0x64 SWAP1 REVERT JUMPDEST CALLVALUE PUSH2 0x3D0 JUMPI PUSH1 0x0 CALLDATASIZE PUSH1 0x3 NOT ADD SLT PUSH2 0x3D0 JUMPI PUSH1 0x6 SLOAD PUSH3 0x93A80 PUSH2 0x2ADC DUP3 TIMESTAMP PUSH2 0x300C JUMP JUMPDEST DIV SWAP1 PUSH3 0x93A80 DUP3 MUL SWAP2 DUP1 DUP4 DIV PUSH3 0x93A80 EQ SWAP1 ISZERO OR ISZERO PUSH2 0x9D3 JUMPI PUSH1 0x20 SWAP2 PUSH2 0x2B01 SWAP2 PUSH2 0x303B JUMP JUMPDEST PUSH2 0x2B10 PUSH2 0x81F PUSH1 0x1C SLOAD DUP4 PUSH2 0x303B JUMP JUMPDEST SWAP1 TIMESTAMP LT ISZERO SWAP1 DUP2 PUSH2 0x2B26 JUMPI JUMPDEST POP PUSH1 0x40 MLOAD SWAP1 ISZERO ISZERO DUP2 MSTORE RETURN JUMPDEST SWAP1 POP TIMESTAMP GT ISZERO DUP3 PUSH2 0x2B1B JUMP JUMPDEST CALLVALUE PUSH2 0x3D0 JUMPI PUSH1 0x0 CALLDATASIZE PUSH1 0x3 NOT ADD SLT PUSH2 0x3D0 JUMPI PUSH1 0x20 PUSH1 0x1E SLOAD PUSH1 0x40 MLOAD SWAP1 DUP2 MSTORE RETURN JUMPDEST CALLVALUE PUSH2 0x3D0 JUMPI PUSH1 0x20 CALLDATASIZE PUSH1 0x3 NOT ADD SLT PUSH2 0x3D0 JUMPI PUSH1 0x1 PUSH1 0x1 PUSH1 0xA0 SHL SUB PUSH2 0x2B70 PUSH2 0x2E9A JUMP JUMPDEST AND PUSH1 0x0 MSTORE PUSH1 0x9 PUSH1 0x20 MSTORE PUSH1 0x40 PUSH1 0x0 KECCAK256 DUP1 SLOAD PUSH2 0xE23 PUSH1 0x1 DUP4 ADD SLOAD SWAP3 PUSH1 0x2 DUP2 ADD SLOAD SWAP1 PUSH1 0x4 PUSH1 0x3 DUP3 ADD SLOAD SWAP2 ADD SLOAD SWAP2 PUSH1 0x40 MLOAD SWAP6 DUP6 PUSH1 0xFF DUP1 DUP10 SWAP9 PUSH1 0x8 SHR AND SWAP2 AND DUP8 SWAP3 PUSH1 0xA0 SWAP5 SWAP2 SWAP8 SWAP7 SWAP6 SWAP3 PUSH1 0xC0 DUP6 ADD SWAP9 ISZERO ISZERO DUP6 MSTORE ISZERO ISZERO PUSH1 0x20 DUP6 ADD MSTORE PUSH1 0x40 DUP5 ADD MSTORE PUSH1 0x60 DUP4 ADD MSTORE PUSH1 0x80 DUP3 ADD MSTORE ADD MSTORE JUMP JUMPDEST CALLVALUE PUSH2 0x3D0 JUMPI PUSH1 0x0 CALLDATASIZE PUSH1 0x3 NOT ADD SLT PUSH2 0x3D0 JUMPI PUSH1 0x20 PUSH2 0x28EB PUSH2 0x3019 JUMP JUMPDEST CALLVALUE PUSH2 0x3D0 JUMPI PUSH1 0x0 CALLDATASIZE PUSH1 0x3 NOT ADD SLT PUSH2 0x3D0 JUMPI PUSH1 0x20 PUSH1 0x17 SLOAD PUSH1 0x40 MLOAD SWAP1 DUP2 MSTORE RETURN JUMPDEST CALLVALUE PUSH2 0x3D0 JUMPI PUSH1 0x0 CALLDATASIZE PUSH1 0x3 NOT ADD SLT PUSH2 0x3D0 JUMPI PUSH1 0x19 SLOAD PUSH1 0x40 MLOAD PUSH1 0x1 PUSH1 0x1 PUSH1 0xA0 SHL SUB SWAP1 SWAP2 AND DUP2 MSTORE PUSH1 0x20 SWAP1 RETURN JUMPDEST CALLVALUE PUSH2 0x3D0 JUMPI PUSH1 0x20 CALLDATASIZE PUSH1 0x3 NOT ADD SLT PUSH2 0x3D0 JUMPI PUSH1 0x4 CALLDATALOAD PUSH1 0x0 MSTORE PUSH1 0xE PUSH1 0x20 MSTORE PUSH1 0x40 PUSH1 0x0 KECCAK256 DUP1 SLOAD PUSH2 0xE23 PUSH1 0x1 DUP4 ADD SLOAD SWAP3 PUSH2 0x2C71 PUSH1 0x2 DUP3 ADD PUSH2 0x2D53 JUMP JUMPDEST SWAP1 PUSH1 0x3 DUP2 ADD SLOAD PUSH1 0x4 DUP3 ADD SLOAD SWAP1 PUSH1 0xFF PUSH1 0x6 PUSH1 0x5 DUP6 ADD SLOAD SWAP5 ADD SLOAD AND SWAP4 PUSH1 0x40 MLOAD SWAP8 DUP9 SWAP8 PUSH1 0xFF PUSH1 0x1 DUP1 PUSH1 0xA0 SHL SUB DUP3 PUSH1 0x8 SHR AND SWAP2 AND DUP10 PUSH2 0x2E45 JUMP JUMPDEST SWAP1 PUSH1 0x1 DUP3 DUP2 SHR SWAP3 AND DUP1 ISZERO PUSH2 0x2CD7 JUMPI JUMPDEST PUSH1 0x20 DUP4 LT EQ PUSH2 0x2CC1 JUMPI JUMP JUMPDEST PUSH4 0x4E487B71 PUSH1 0xE0 SHL PUSH1 0x0 MSTORE PUSH1 0x22 PUSH1 0x4 MSTORE PUSH1 0x24 PUSH1 0x0 REVERT JUMPDEST SWAP2 PUSH1 0x7F AND SWAP2 PUSH2 0x2CB6 JUMP JUMPDEST PUSH1 0xA0 DUP2 ADD SWAP1 DUP2 LT PUSH1 0x1 PUSH1 0x1 PUSH1 0x40 SHL SUB DUP3 GT OR PUSH2 0xFA5 JUMPI PUSH1 0x40 MSTORE JUMP JUMPDEST PUSH1 0x80 DUP2 ADD SWAP1 DUP2 LT PUSH1 0x1 PUSH1 0x1 PUSH1 0x40 SHL SUB DUP3 GT OR PUSH2 0xFA5 JUMPI PUSH1 0x40 MSTORE JUMP JUMPDEST PUSH1 0xC0 DUP2 ADD SWAP1 DUP2 LT PUSH1 0x1 PUSH1 0x1 PUSH1 0x40 SHL SUB DUP3 GT OR PUSH2 0xFA5 JUMPI PUSH1 0x40 MSTORE JUMP JUMPDEST SWAP1 PUSH1 0x1F DUP1 NOT SWAP2 ADD AND DUP2 ADD SWAP1 DUP2 LT PUSH1 0x1 PUSH1 0x1 PUSH1 0x40 SHL SUB DUP3 GT OR PUSH2 0xFA5 JUMPI PUSH1 0x40 MSTORE JUMP JUMPDEST SWAP1 PUSH1 0x40 MLOAD SWAP2 DUP3 PUSH1 0x0 DUP3 SLOAD SWAP3 PUSH2 0x2D67 DUP5 PUSH2 0x2CA7 JUMP JUMPDEST DUP1 DUP5 MSTORE SWAP4 PUSH1 0x1 DUP2 AND SWAP1 DUP2 ISZERO PUSH2 0x2DD5 JUMPI POP PUSH1 0x1 EQ PUSH2 0x2D8E JUMPI JUMPDEST POP PUSH2 0x2D8C SWAP3 POP SUB DUP4 PUSH2 0x2D32 JUMP JUMPDEST JUMP JUMPDEST SWAP1 POP PUSH1 0x0 SWAP3 SWAP2 SWAP3 MSTORE PUSH1 0x20 PUSH1 0x0 KECCAK256 SWAP1 PUSH1 0x0 SWAP2 JUMPDEST DUP2 DUP4 LT PUSH2 0x2DB9 JUMPI POP POP SWAP1 PUSH1 0x20 PUSH2 0x2D8C SWAP3 DUP3 ADD ADD CODESIZE PUSH2 0x2D7F JUMP JUMPDEST PUSH1 0x20 SWAP2 SWAP4 POP DUP1 PUSH1 0x1 SWAP2 SLOAD DUP4 DUP6 DUP10 ADD ADD MSTORE ADD SWAP2 ADD SWAP1 SWAP2 DUP5 SWAP3 PUSH2 0x2DA0 JUMP JUMPDEST SWAP1 POP PUSH1 0x20 SWAP3 POP PUSH2 0x2D8C SWAP5 SWAP2 POP PUSH1 0xFF NOT AND DUP3 DUP5 ADD MSTORE ISZERO ISZERO PUSH1 0x5 SHL DUP3 ADD ADD CODESIZE PUSH2 0x2D7F JUMP JUMPDEST SWAP1 PUSH1 0x5 DUP3 LT ISZERO PUSH2 0x1885 JUMPI MSTORE JUMP JUMPDEST SWAP2 SWAP1 DUP3 MLOAD SWAP3 DUP4 DUP3 MSTORE PUSH1 0x0 JUMPDEST DUP5 DUP2 LT PUSH2 0x2E30 JUMPI POP POP DUP3 PUSH1 0x0 PUSH1 0x20 DUP1 SWAP5 SWAP6 DUP5 ADD ADD MSTORE PUSH1 0x1F DUP1 NOT SWAP2 ADD AND ADD ADD SWAP1 JUMP JUMPDEST DUP1 PUSH1 0x20 DUP1 SWAP3 DUP5 ADD ADD MLOAD DUP3 DUP3 DUP7 ADD ADD MSTORE ADD PUSH2 0x2E0F JUMP JUMPDEST SWAP7 SWAP4 SWAP1 SWAP3 PUSH2 0x2E83 SWAP3 PUSH2 0x2E5E DUP10 PUSH1 0xE0 SWAP10 SWAP7 SWAP13 SWAP12 SWAP9 SWAP13 PUSH2 0x2DF7 JUMP JUMPDEST PUSH1 0x1 PUSH1 0x1 PUSH1 0xA0 SHL SUB AND PUSH1 0x20 DUP10 ADD MSTORE PUSH1 0x40 DUP9 ADD MSTORE PUSH2 0x100 PUSH1 0x60 DUP9 ADD DUP2 SWAP1 MSTORE DUP8 ADD SWAP1 PUSH2 0x2E04 JUMP JUMPDEST SWAP7 PUSH1 0x80 DUP7 ADD MSTORE PUSH1 0xA0 DUP6 ADD MSTORE PUSH1 0xC0 DUP5 ADD MSTORE ISZERO ISZERO SWAP2 ADD MSTORE JUMP JUMPDEST PUSH1 0x4 CALLDATALOAD SWAP1 PUSH1 0x1 PUSH1 0x1 PUSH1 0xA0 SHL SUB DUP3 AND DUP3 SUB PUSH2 0x3D0 JUMPI JUMP JUMPDEST PUSH1 0x24 CALLDATALOAD SWAP1 PUSH1 0x1 PUSH1 0x1 PUSH1 0xA0 SHL SUB DUP3 AND DUP3 SUB PUSH2 0x3D0 JUMPI JUMP JUMPDEST SWAP2 DUP2 PUSH1 0x1F DUP5 ADD SLT ISZERO PUSH2 0x3D0 JUMPI DUP3 CALLDATALOAD SWAP2 PUSH1 0x1 PUSH1 0x1 PUSH1 0x40 SHL SUB DUP4 GT PUSH2 0x3D0 JUMPI PUSH1 0x20 DUP4 DUP2 DUP7 ADD SWAP6 ADD ADD GT PUSH2 0x3D0 JUMPI JUMP JUMPDEST SWAP1 PUSH1 0x4 DUP3 LT ISZERO PUSH2 0x1885 JUMPI MSTORE JUMP JUMPDEST SWAP2 PUSH2 0x2F26 SWAP1 PUSH2 0x2F15 DUP5 PUSH1 0x80 SWAP7 SWAP10 SWAP9 SWAP8 SWAP5 PUSH2 0x2EF3 JUMP JUMPDEST PUSH1 0xA0 PUSH1 0x20 DUP6 ADD MSTORE PUSH1 0xA0 DUP5 ADD SWAP1 PUSH2 0x2E04 JUMP JUMPDEST SWAP6 ISZERO ISZERO PUSH1 0x40 DUP4 ADD MSTORE PUSH1 0x60 DUP3 ADD MSTORE ADD MSTORE JUMP JUMPDEST PUSH1 0xB SLOAD DUP2 LT ISZERO PUSH2 0x2F52 JUMPI PUSH1 0xB PUSH1 0x0 MSTORE PUSH1 0x20 PUSH1 0x0 KECCAK256 ADD SWAP1 PUSH1 0x0 SWAP1 JUMP JUMPDEST PUSH4 0x4E487B71 PUSH1 0xE0 SHL PUSH1 0x0 MSTORE PUSH1 0x32 PUSH1 0x4 MSTORE PUSH1 0x24 PUSH1 0x0 REVERT JUMPDEST DUP1 SLOAD DUP3 LT ISZERO PUSH2 0x2F52 JUMPI PUSH1 0x0 MSTORE PUSH1 0x20 PUSH1 0x0 KECCAK256 ADD SWAP1 PUSH1 0x0 SWAP1 JUMP JUMPDEST SWAP1 PUSH1 0x20 PUSH1 0x3 NOT DUP4 ADD SLT PUSH2 0x3D0 JUMPI PUSH1 0x4 CALLDATALOAD PUSH1 0x1 PUSH1 0x1 PUSH1 0x40 SHL SUB DUP2 GT PUSH2 0x3D0 JUMPI DUP3 PUSH1 0x23 DUP3 ADD SLT ISZERO PUSH2 0x3D0 JUMPI DUP1 PUSH1 0x4 ADD CALLDATALOAD SWAP3 PUSH1 0x1 PUSH1 0x1 PUSH1 0x40 SHL SUB DUP5 GT PUSH2 0x3D0 JUMPI PUSH1 0x24 DUP5 PUSH1 0x5 SHL DUP4 ADD ADD GT PUSH2 0x3D0 JUMPI PUSH1 0x24 ADD SWAP2 SWAP1 JUMP JUMPDEST PUSH1 0x20 PUSH1 0x40 DUP2 DUP4 ADD SWAP3 DUP3 DUP2 MSTORE DUP5 MLOAD DUP1 SWAP5 MSTORE ADD SWAP3 ADD SWAP1 PUSH1 0x0 JUMPDEST DUP2 DUP2 LT PUSH2 0x2FF6 JUMPI POP POP POP SWAP1 JUMP JUMPDEST DUP3 MLOAD DUP5 MSTORE PUSH1 0x20 SWAP4 DUP5 ADD SWAP4 SWAP1 SWAP3 ADD SWAP2 PUSH1 0x1 ADD PUSH2 0x2FE9 JUMP JUMPDEST SWAP2 SWAP1 DUP3 SUB SWAP2 DUP3 GT PUSH2 0x9D3 JUMPI JUMP JUMPDEST PUSH1 0x6 SLOAD DUP1 TIMESTAMP LT PUSH2 0x3035 JUMPI PUSH2 0x3031 PUSH3 0x93A80 SWAP2 TIMESTAMP PUSH2 0x300C JUMP JUMPDEST DIV SWAP1 JUMP JUMPDEST POP PUSH1 0x0 SWAP1 JUMP JUMPDEST SWAP2 SWAP1 DUP3 ADD DUP1 SWAP3 GT PUSH2 0x9D3 JUMPI JUMP JUMPDEST ISZERO PUSH2 0x304F JUMPI JUMP JUMPDEST PUSH1 0x40 MLOAD PUSH3 0x461BCD PUSH1 0xE5 SHL DUP2 MSTORE PUSH1 0x20 PUSH1 0x4 DUP3 ADD MSTORE PUSH1 0x9 PUSH1 0x24 DUP3 ADD MSTORE PUSH9 0x2737BA1030B236B4B7 PUSH1 0xB9 SHL PUSH1 0x44 DUP3 ADD MSTORE PUSH1 0x64 SWAP1 REVERT JUMPDEST ISZERO PUSH2 0x3087 JUMPI JUMP JUMPDEST PUSH1 0x40 MLOAD PUSH3 0x461BCD PUSH1 0xE5 SHL DUP2 MSTORE PUSH1 0x20 PUSH1 0x4 DUP3 ADD MSTORE PUSH1 0x10 PUSH1 0x24 DUP3 ADD MSTORE PUSH16 0x105B1C9958591E48195E1958DD5D1959 PUSH1 0x82 SHL PUSH1 0x44 DUP3 ADD MSTORE PUSH1 0x64 SWAP1 REVERT JUMPDEST PUSH1 0x1A SLOAD PUSH1 0xFF DUP2 PUSH1 0xA0 SHR AND PUSH2 0x30D2 JUMPI POP SELFBALANCE SWAP1 JUMP JUMPDEST PUSH1 0x40 MLOAD PUSH4 0x70A08231 PUSH1 0xE0 SHL DUP2 MSTORE ADDRESS PUSH1 0x4 DUP3 ADD MSTORE SWAP1 PUSH1 0x20 SWAP1 DUP3 SWAP1 PUSH1 0x24 SWAP1 DUP3 SWAP1 PUSH1 0x1 PUSH1 0x1 PUSH1 0xA0 SHL SUB AND GAS STATICCALL SWAP1 DUP2 ISZERO PUSH2 0x68E JUMPI PUSH1 0x0 SWAP2 PUSH2 0x310D JUMPI POP SWAP1 JUMP JUMPDEST SWAP1 POP PUSH1 0x20 DUP2 RETURNDATASIZE PUSH1 0x20 GT PUSH2 0x3134 JUMPI JUMPDEST DUP2 PUSH2 0x3128 PUSH1 0x20 SWAP4 DUP4 PUSH2 0x2D32 JUMP JUMPDEST DUP2 ADD SUB SLT PUSH2 0x3D0 JUMPI MLOAD SWAP1 JUMP JUMPDEST RETURNDATASIZE SWAP2 POP PUSH2 0x311B JUMP JUMPDEST ISZERO PUSH2 0x3143 JUMPI JUMP JUMPDEST PUSH1 0x40 MLOAD PUSH3 0x461BCD PUSH1 0xE5 SHL DUP2 MSTORE PUSH1 0x20 PUSH1 0x4 DUP3 ADD MSTORE PUSH1 0x14 PUSH1 0x24 DUP3 ADD MSTORE PUSH20 0x2737BA1030B71030B1BA34BB329036B2B6B132B9 PUSH1 0x61 SHL PUSH1 0x44 DUP3 ADD MSTORE PUSH1 0x64 SWAP1 REVERT JUMPDEST PUSH1 0x0 NOT DUP2 EQ PUSH2 0x9D3 JUMPI PUSH1 0x1 ADD SWAP1 JUMP JUMPDEST ISZERO PUSH2 0x3195 JUMPI JUMP JUMPDEST PUSH1 0x40 MLOAD PUSH3 0x461BCD PUSH1 0xE5 SHL DUP2 MSTORE PUSH1 0x20 PUSH1 0x4 DUP3 ADD MSTORE PUSH1 0xC PUSH1 0x24 DUP3 ADD MSTORE PUSH12 0x27B7363C9031B932B0BA37B9 PUSH1 0xA1 SHL PUSH1 0x44 DUP3 ADD MSTORE PUSH1 0x64 SWAP1 REVERT JUMPDEST ISZERO PUSH2 0x31D0 JUMPI JUMP JUMPDEST PUSH1 0x40 MLOAD PUSH3 0x461BCD PUSH1 0xE5 SHL DUP2 MSTORE PUSH1 0x20 PUSH1 0x4 DUP3 ADD MSTORE PUSH1 0x15 PUSH1 0x24 DUP3 ADD MSTORE PUSH21 0x21B0B73737BA103932B6B7BB329031B932B0BA37B9 PUSH1 0x59 SHL PUSH1 0x44 DUP3 ADD MSTORE PUSH1 0x64 SWAP1 REVERT JUMPDEST ISZERO PUSH2 0x3214 JUMPI JUMP JUMPDEST PUSH1 0x40 MLOAD PUSH3 0x461BCD PUSH1 0xE5 SHL DUP2 MSTORE PUSH1 0x20 PUSH1 0x4 DUP3 ADD MSTORE PUSH1 0xC PUSH1 0x24 DUP3 ADD MSTORE PUSH12 0x2737BA1030B71030B236B4B7 PUSH1 0xA1 SHL PUSH1 0x44 DUP3 ADD MSTORE PUSH1 0x64 SWAP1 REVERT JUMPDEST PUSH1 0x4 DUP3 LT ISZERO PUSH2 0x1885 JUMPI MSTORE JUMP JUMPDEST PUSH1 0x1 PUSH1 0x1 PUSH1 0x40 SHL SUB DUP2 GT PUSH2 0xFA5 JUMPI PUSH1 0x1F ADD PUSH1 0x1F NOT AND PUSH1 0x20 ADD SWAP1 JUMP JUMPDEST DUP2 DUP2 LT PUSH2 0x327A JUMPI POP POP JUMP JUMPDEST PUSH1 0x0 DUP2 SSTORE PUSH1 0x1 ADD PUSH2 0x326F JUMP JUMPDEST SWAP2 SWAP1 PUSH1 0x1F DUP2 GT PUSH2 0x3295 JUMPI POP POP POP JUMP JUMPDEST PUSH2 0x2D8C SWAP3 PUSH1 0x0 MSTORE PUSH1 0x20 PUSH1 0x0 KECCAK256 SWAP1 PUSH1 0x20 PUSH1 0x1F DUP5 ADD PUSH1 0x5 SHR DUP4 ADD SWAP4 LT PUSH2 0x32C1 JUMPI JUMPDEST PUSH1 0x1F ADD PUSH1 0x5 SHR ADD SWAP1 PUSH2 0x326F JUMP JUMPDEST SWAP1 SWAP2 POP DUP2 SWAP1 PUSH2 0x32B4 JUMP JUMPDEST DUP1 ISZERO PUSH2 0x9D3 JUMPI PUSH1 0x0 NOT ADD SWAP1 JUMP JUMPDEST ISZERO PUSH2 0x32DF JUMPI JUMP JUMPDEST PUSH1 0x40 MLOAD PUSH3 0x461BCD PUSH1 0xE5 SHL DUP2 MSTORE PUSH1 0x20 PUSH1 0x4 DUP3 ADD MSTORE PUSH1 0x13 PUSH1 0x24 DUP3 ADD MSTORE PUSH19 0x47726F7570206973206E6F7420616374697665 PUSH1 0x68 SHL PUSH1 0x44 DUP3 ADD MSTORE PUSH1 0x64 SWAP1 REVERT JUMPDEST ISZERO PUSH2 0x3321 JUMPI JUMP JUMPDEST PUSH1 0x40 MLOAD PUSH3 0x461BCD PUSH1 0xE5 SHL DUP2 MSTORE PUSH1 0x20 PUSH1 0x4 DUP3 ADD MSTORE PUSH1 0x14 PUSH1 0x24 DUP3 ADD MSTORE PUSH20 0x11DC9BDD5C081A185CDB89DD081CDD185C9D1959 PUSH1 0x62 SHL PUSH1 0x44 DUP3 ADD MSTORE PUSH1 0x64 SWAP1 REVERT JUMPDEST ISZERO PUSH2 0x3364 JUMPI JUMP JUMPDEST PUSH1 0x40 MLOAD PUSH3 0x461BCD PUSH1 0xE5 SHL DUP2 MSTORE PUSH1 0x20 PUSH1 0x4 DUP3 ADD MSTORE PUSH1 0xF PUSH1 0x24 DUP3 ADD MSTORE PUSH15 0x11DC9BDD5C081A185CC8195B991959 PUSH1 0x8A SHL PUSH1 0x44 DUP3 ADD MSTORE PUSH1 0x64 SWAP1 REVERT JUMPDEST DUP2 ISZERO PUSH2 0x33A5 JUMPI MOD SWAP1 JUMP JUMPDEST PUSH4 0x4E487B71 PUSH1 0xE0 SHL PUSH1 0x0 MSTORE PUSH1 0x12 PUSH1 0x4 MSTORE PUSH1 0x24 PUSH1 0x0 REVERT JUMPDEST ISZERO PUSH2 0x33C2 JUMPI JUMP JUMPDEST PUSH1 0x40 MLOAD PUSH3 0x461BCD PUSH1 0xE5 SHL DUP2 MSTORE PUSH1 0x20 PUSH1 0x4 DUP3 ADD MSTORE PUSH1 0x14 PUSH1 0x24 DUP3 ADD MSTORE PUSH20 0x139BC81858DD1A5D99481C1D5B9A5CDA1B595B9D PUSH1 0x62 SHL PUSH1 0x44 DUP3 ADD MSTORE PUSH1 0x64 SWAP1 REVERT JUMPDEST SWAP2 SWAP1 DUP2 LT ISZERO PUSH2 0x2F52 JUMPI PUSH1 0x5 SHL ADD SWAP1 JUMP JUMPDEST CALLDATALOAD PUSH1 0x1 PUSH1 0x1 PUSH1 0xA0 SHL SUB DUP2 AND DUP2 SUB PUSH2 0x3D0 JUMPI SWAP1 JUMP JUMPDEST ISZERO PUSH2 0x3429 JUMPI JUMP JUMPDEST PUSH1 0x40 MLOAD PUSH3 0x461BCD PUSH1 0xE5 SHL DUP2 MSTORE PUSH1 0x20 PUSH1 0x4 DUP3 ADD MSTORE PUSH1 0xD PUSH1 0x24 DUP3 ADD MSTORE PUSH13 0x11DC9BDD5C081A5CC8199D5B1B PUSH1 0x9A SHL PUSH1 0x44 DUP3 ADD MSTORE PUSH1 0x64 SWAP1 REVERT JUMPDEST PUSH1 0x1 PUSH1 0x1 PUSH1 0x40 SHL SUB DUP2 GT PUSH2 0xFA5 JUMPI PUSH1 0x5 SHL PUSH1 0x20 ADD SWAP1 JUMP JUMPDEST SWAP1 PUSH2 0x347F DUP3 PUSH2 0x345E JUMP JUMPDEST PUSH2 0x348C PUSH1 0x40 MLOAD SWAP2 DUP3 PUSH2 0x2D32 JUMP JUMPDEST DUP3 DUP2 MSTORE DUP1 SWAP3 PUSH2 0x349D PUSH1 0x1F NOT SWAP2 PUSH2 0x345E JUMP JUMPDEST ADD SWAP1 PUSH1 0x20 CALLDATASIZE SWAP2 ADD CALLDATACOPY JUMP JUMPDEST DUP1 MLOAD DUP3 LT ISZERO PUSH2 0x2F52 JUMPI PUSH1 0x20 SWAP2 PUSH1 0x5 SHL ADD ADD SWAP1 JUMP JUMPDEST PUSH1 0x1 PUSH1 0x1 PUSH1 0xA0 SHL SUB AND PUSH1 0x0 DUP2 DUP2 MSTORE PUSH1 0x9 PUSH1 0x20 MSTORE PUSH1 0x40 SWAP1 KECCAK256 SLOAD SWAP1 SWAP2 SWAP1 PUSH1 0xFF AND ISZERO PUSH2 0x35CB JUMPI PUSH2 0x34E6 PUSH2 0x3019 JUMP JUMPDEST PUSH2 0x34EF DUP2 PUSH2 0x3475 JUMP JUMPDEST PUSH1 0x6 SLOAD PUSH1 0x1C SLOAD PUSH1 0x1B SLOAD SWAP3 SWAP6 PUSH1 0x0 SWAP5 SWAP3 DUP6 JUMPDEST DUP5 DUP2 LT PUSH2 0x3547 JUMPI POP POP POP POP POP POP PUSH2 0x3516 DUP2 PUSH2 0x3475 JUMP JUMPDEST SWAP1 PUSH1 0x0 JUMPDEST DUP2 DUP2 LT PUSH2 0x3528 JUMPI POP SWAP1 SWAP3 POP POP JUMP JUMPDEST DUP1 PUSH2 0x3535 PUSH1 0x1 SWAP3 DUP8 PUSH2 0x34A7 JUMP JUMPDEST MLOAD PUSH2 0x3540 DUP3 DUP7 PUSH2 0x34A7 JUMP JUMPDEST MSTORE ADD PUSH2 0x351A JUMP JUMPDEST PUSH3 0x93A80 DUP2 MUL DUP2 DUP2 DIV PUSH3 0x93A80 EQ DUP3 ISZERO OR ISZERO PUSH2 0x9D3 JUMPI DUP7 PUSH2 0x356F DUP7 PUSH2 0x356F PUSH2 0x3574 SWAP5 DUP8 PUSH2 0x303B JUMP JUMPDEST PUSH2 0x303B JUMP JUMPDEST TIMESTAMP GT DUP1 PUSH2 0x35A9 JUMPI JUMPDEST PUSH2 0x3589 JUMPI JUMPDEST PUSH1 0x1 ADD PUSH2 0x3500 JUMP JUMPDEST SWAP6 PUSH2 0x35A1 DUP2 DUP9 PUSH2 0x359B PUSH1 0x1 SWAP5 DUP14 PUSH2 0x34A7 JUMP JUMPDEST MSTORE PUSH2 0x317F JUMP JUMPDEST SWAP7 SWAP1 POP PUSH2 0x3581 JUMP JUMPDEST POP DUP3 PUSH1 0x0 MSTORE PUSH1 0x11 PUSH1 0x20 MSTORE PUSH1 0x40 PUSH1 0x0 KECCAK256 DUP2 PUSH1 0x0 MSTORE PUSH1 0x20 MSTORE PUSH1 0x40 PUSH1 0x0 KECCAK256 SLOAD ISZERO PUSH2 0x357C JUMP JUMPDEST SWAP1 POP PUSH1 0x40 MLOAD PUSH2 0x35DB PUSH1 0x20 DUP3 PUSH2 0x2D32 JUMP JUMPDEST PUSH1 0x0 DUP2 MSTORE PUSH1 0x0 CALLDATASIZE DUP2 CALLDATACOPY SWAP1 JUMP JUMPDEST RETURNDATASIZE ISZERO PUSH2 0x3612 JUMPI RETURNDATASIZE SWAP1 PUSH2 0x35F8 DUP3 PUSH2 0x3254 JUMP JUMPDEST SWAP2 PUSH2 0x3606 PUSH1 0x40 MLOAD SWAP4 DUP5 PUSH2 0x2D32 JUMP JUMPDEST DUP3 MSTORE RETURNDATASIZE PUSH1 0x0 PUSH1 0x20 DUP5 ADD RETURNDATACOPY JUMP JUMPDEST PUSH1 0x60 SWAP1 JUMP JUMPDEST ISZERO PUSH2 0x361E JUMPI JUMP JUMPDEST PUSH1 0x40 MLOAD PUSH3 0x461BCD PUSH1 0xE5 SHL DUP2 MSTORE PUSH1 0x20 PUSH1 0x4 DUP3 ADD MSTORE PUSH1 0xF PUSH1 0x24 DUP3 ADD MSTORE PUSH15 0x151C985B9CD9995C8819985A5B1959 PUSH1 0x8A SHL PUSH1 0x44 DUP3 ADD MSTORE PUSH1 0x64 SWAP1 REVERT JUMPDEST DUP1 SLOAD PUSH1 0xFF DUP2 AND SWAP1 PUSH1 0x5 DUP3 LT ISZERO PUSH2 0x1885 JUMPI PUSH1 0x1 DUP3 SUB PUSH2 0x368A JUMPI POP POP SLOAD PUSH2 0x3685 SWAP1 PUSH1 0x8 SHR PUSH1 0x1 PUSH1 0x1 PUSH1 0xA0 SHL SUB AND PUSH2 0x3E2E JUMP JUMPDEST PUSH1 0x1 SWAP1 JUMP JUMPDEST PUSH1 0x0 PUSH1 0x2 DUP4 SUB PUSH2 0x3743 JUMPI POP POP DUP2 SLOAD PUSH1 0x8 SHR PUSH1 0x1 PUSH1 0x1 PUSH1 0xA0 SHL SUB AND PUSH1 0x0 DUP2 DUP2 MSTORE PUSH1 0x12 PUSH1 0x20 MSTORE PUSH1 0x40 SWAP1 KECCAK256 SLOAD SWAP1 SWAP2 POP PUSH1 0xFF AND PUSH2 0x370E JUMPI PUSH1 0x0 SWAP1 DUP2 MSTORE PUSH1 0x12 PUSH1 0x20 MSTORE PUSH1 0x40 DUP2 KECCAK256 DUP1 SLOAD PUSH1 0xFF NOT AND PUSH1 0x1 OR SWAP1 SSTORE SWAP1 SLOAD PUSH1 0x8 SHR PUSH1 0x1 PUSH1 0x1 PUSH1 0xA0 SHL SUB AND SWAP1 PUSH32 0x44D6D25963F097AD14F29F06854A01F575648A1EF82F30E562CCD3889717E339 SWAP1 DUP1 LOG2 PUSH1 0x1 SWAP1 JUMP JUMPDEST PUSH1 0x40 MLOAD PUSH3 0x461BCD PUSH1 0xE5 SHL DUP2 MSTORE PUSH1 0x20 PUSH1 0x4 DUP3 ADD MSTORE PUSH1 0xD PUSH1 0x24 DUP3 ADD MSTORE PUSH13 0x20B63932B0B23C9030B236B4B7 PUSH1 0x99 SHL PUSH1 0x44 DUP3 ADD MSTORE PUSH1 0x64 SWAP1 REVERT JUMPDEST POP PUSH1 0x3 DUP3 SUB PUSH2 0x37D9 JUMPI POP POP DUP1 SLOAD PUSH1 0x19 SLOAD PUSH1 0x1 PUSH1 0x1 PUSH1 0xA0 SHL SUB PUSH1 0x8 SWAP3 SWAP1 SWAP3 SHR DUP3 AND SWAP2 PUSH2 0x3771 SWAP2 AND DUP3 EQ ISZERO PUSH2 0x31C9 JUMP JUMPDEST DUP1 PUSH1 0x0 MSTORE PUSH1 0x12 PUSH1 0x20 MSTORE PUSH2 0x378B PUSH1 0xFF PUSH1 0x40 PUSH1 0x0 KECCAK256 SLOAD AND PUSH2 0x320D JUMP JUMPDEST PUSH1 0x0 SWAP1 DUP2 MSTORE PUSH1 0x12 PUSH1 0x20 MSTORE PUSH1 0x40 DUP2 KECCAK256 DUP1 SLOAD PUSH1 0xFF NOT AND SWAP1 SSTORE SWAP1 SLOAD PUSH1 0x8 SHR PUSH1 0x1 PUSH1 0x1 PUSH1 0xA0 SHL SUB AND SWAP1 PUSH32 0xA3B62BC36326052D97EA62D63C3D60308ED4C3EA8AC079DD8499F1E9C4F80C0F SWAP1 DUP1 LOG2 PUSH1 0x1 SWAP1 JUMP JUMPDEST PUSH1 0x0 SWAP3 POP SWAP1 PUSH1 0x4 EQ PUSH2 0x37EC JUMPI POP POP PUSH1 0x0 SWAP1 JUMP JUMPDEST PUSH1 0x8 SHR PUSH1 0x1 PUSH1 0x1 PUSH1 0xA0 SHL SUB AND DUP1 DUP3 MSTORE PUSH1 0x9 PUSH1 0x20 MSTORE PUSH1 0x40 DUP3 KECCAK256 SLOAD SWAP1 SWAP2 SWAP1 PUSH1 0xFF AND DUP1 PUSH2 0x3873 JUMPI JUMPDEST ISZERO PUSH2 0x383D JUMPI PUSH1 0x40 SWAP2 DUP2 MSTORE PUSH1 0x9 PUSH1 0x20 MSTORE KECCAK256 PUSH2 0xFF00 NOT DUP2 SLOAD AND SWAP1 SSTORE PUSH2 0x3835 PUSH1 0x15 SLOAD PUSH2 0x32CB JUMP JUMPDEST PUSH1 0x15 SSTORE PUSH1 0x1 SWAP1 JUMP JUMPDEST PUSH1 0x40 MLOAD PUSH3 0x461BCD PUSH1 0xE5 SHL DUP2 MSTORE PUSH1 0x20 PUSH1 0x4 DUP3 ADD MSTORE PUSH1 0xE PUSH1 0x24 DUP3 ADD MSTORE PUSH14 0x24B73B30B634B21036B2B6B132B9 PUSH1 0x91 SHL PUSH1 0x44 DUP3 ADD MSTORE PUSH1 0x64 SWAP1 REVERT JUMPDEST POP DUP2 DUP2 MSTORE PUSH1 0x9 PUSH1 0x20 MSTORE PUSH1 0xFF PUSH1 0x40 DUP3 KECCAK256 SLOAD PUSH1 0x8 SHR AND PUSH2 0x3811 JUMP JUMPDEST PUSH1 0x1 PUSH1 0x1 PUSH1 0xA0 SHL SUB DUP2 AND PUSH1 0x0 DUP2 DUP2 MSTORE PUSH1 0x9 PUSH1 0x20 MSTORE PUSH1 0x40 SWAP1 KECCAK256 SLOAD PUSH1 0xFF AND ISZERO DUP1 ISZERO PUSH2 0x3E12 JUMPI JUMPDEST PUSH2 0x3E0E JUMPI PUSH2 0x38BC PUSH2 0x3019 JUMP JUMPDEST PUSH1 0x0 DUP3 DUP2 MSTORE PUSH1 0xF PUSH1 0x20 MSTORE PUSH1 0x40 SWAP1 KECCAK256 SLOAD PUSH1 0x0 NOT DUP2 SUB PUSH2 0x3DBF JUMPI PUSH1 0x0 JUMPDEST PUSH2 0x3944 PUSH1 0x40 SWAP3 PUSH2 0x3912 DUP6 DUP6 MLOAD PUSH2 0x38ED DUP8 DUP3 PUSH2 0x2D32 JUMP JUMPDEST PUSH1 0x13 DUP2 MSTORE PUSH19 0x2232B13AB390169031BAB9392832B934B7B21D PUSH1 0x69 SHL PUSH1 0x20 DUP3 ADD MSTORE PUSH2 0x41CC JUMP JUMPDEST DUP4 MLOAD PUSH2 0x391E DUP6 DUP3 PUSH2 0x2D32 JUMP JUMPDEST PUSH1 0x14 DUP2 MSTORE PUSH20 0x2232B13AB39016903630B9BA21B432B1B5B2B21D PUSH1 0x61 SHL PUSH1 0x20 DUP3 ADD MSTORE PUSH2 0x41CC JUMP JUMPDEST PUSH2 0x397A DUP2 DUP4 MLOAD PUSH2 0x3954 DUP6 DUP3 PUSH2 0x2D32 JUMP JUMPDEST PUSH1 0x14 DUP2 MSTORE PUSH20 0x2232B13AB390169039BA30B93A2832B934B7B21D PUSH1 0x61 SHL PUSH1 0x20 DUP3 ADD MSTORE PUSH2 0x41CC JUMP JUMPDEST DUP3 DUP2 LT PUSH2 0x39F8 JUMPI JUMPDEST POP SWAP1 DUP1 SWAP3 SWAP4 POP PUSH2 0x3991 JUMPI POP POP POP JUMP JUMPDEST PUSH1 0x0 NOT DUP3 ADD SWAP2 DUP3 GT PUSH2 0x9D3 JUMPI PUSH2 0x2D8C SWAP3 PUSH1 0x0 MSTORE PUSH1 0xF PUSH1 0x20 MSTORE DUP2 DUP2 PUSH1 0x0 KECCAK256 SSTORE PUSH5 0x32103A379D PUSH1 0xD9 SHL DUP2 MLOAD SWAP2 PUSH2 0x39C6 PUSH1 0x60 DUP5 PUSH2 0x2D32 JUMP JUMPDEST PUSH1 0x25 DUP4 MSTORE PUSH32 0x4465627567202D2055706461746564206C617374436865636B6564506572696F PUSH1 0x20 DUP5 ADD MSTORE DUP3 ADD MSTORE PUSH2 0x41CC JUMP JUMPDEST PUSH1 0x6 SLOAD PUSH3 0x93A80 DUP3 MUL DUP3 DUP2 DIV PUSH3 0x93A80 EQ DUP4 ISZERO OR ISZERO PUSH2 0x9D3 JUMPI PUSH2 0x816 PUSH2 0x81F SWAP2 PUSH2 0x3A21 SWAP4 PUSH2 0x303B JUMP JUMPDEST PUSH2 0x3A60 DUP3 DUP5 MLOAD PUSH2 0x3A31 DUP7 DUP3 PUSH2 0x2D32 JUMP JUMPDEST PUSH1 0x18 DUP2 MSTORE PUSH32 0x4465627567202D20436865636B696E6720706572696F643A0000000000000000 PUSH1 0x20 DUP3 ADD MSTORE PUSH2 0x41CC JUMP JUMPDEST PUSH2 0x3A9F DUP2 DUP5 MLOAD PUSH2 0x3A70 DUP7 DUP3 PUSH2 0x2D32 JUMP JUMPDEST PUSH1 0x18 DUP2 MSTORE PUSH32 0x4465627567202D20506572696F6420646561646C696E653A0000000000000000 PUSH1 0x20 DUP3 ADD MSTORE PUSH2 0x41CC JUMP JUMPDEST PUSH2 0x3ADF DUP4 MLOAD PUSH2 0x3AAE DUP6 DUP3 PUSH2 0x2D32 JUMP JUMPDEST PUSH1 0x1A DUP2 MSTORE PUSH32 0x4465627567202D2043757272656E742074696D657374616D703A000000000000 PUSH1 0x20 DUP3 ADD MSTORE TIMESTAMP SWAP1 PUSH2 0x41CC JUMP JUMPDEST TIMESTAMP GT PUSH2 0x3B20 DUP2 DUP5 MLOAD PUSH2 0x3AF1 DUP7 DUP3 PUSH2 0x2D32 JUMP JUMPDEST PUSH1 0x19 DUP2 MSTORE PUSH32 0x4465627567202D204973207061737420646561646C696E653A00000000000000 PUSH1 0x20 DUP3 ADD MSTORE PUSH2 0x4227 JUMP JUMPDEST DUP5 PUSH1 0x0 MSTORE PUSH1 0x11 PUSH1 0x20 MSTORE DUP3 PUSH1 0x0 KECCAK256 DUP3 PUSH1 0x0 MSTORE PUSH1 0x20 MSTORE PUSH2 0x3B79 DUP4 PUSH1 0x0 KECCAK256 SLOAD ISZERO ISZERO DUP5 MLOAD PUSH2 0x3B4A DUP7 DUP3 PUSH2 0x2D32 JUMP JUMPDEST PUSH1 0x19 DUP2 MSTORE PUSH32 0x4465627567202D2048617320636F6E747269627574696F6E3A00000000000000 PUSH1 0x20 DUP3 ADD MSTORE PUSH2 0x4227 JUMP JUMPDEST DUP1 PUSH2 0x3D9F JUMPI JUMPDEST PUSH2 0x3B8C JUMPI JUMPDEST PUSH1 0x1 ADD PUSH2 0x397A JUMP JUMPDEST DUP4 PUSH1 0x0 MSTORE PUSH1 0x9 PUSH1 0x20 MSTORE PUSH1 0x3 DUP3 PUSH1 0x0 KECCAK256 ADD PUSH2 0x3BA6 DUP2 SLOAD PUSH2 0x317F JUMP JUMPDEST SWAP1 SSTORE PUSH1 0x60 PUSH2 0x3C01 DUP3 DUP5 MLOAD PUSH2 0x3BBA DUP5 DUP3 PUSH2 0x2D32 JUMP JUMPDEST PUSH1 0x30 DUP2 MSTORE PUSH32 0x4465627567202D204D697373656420636F6E747269627574696F6E2064657465 PUSH1 0x20 DUP3 ADD MSTORE PUSH16 0x31BA32B2103337B9103832B934B7B21D PUSH1 0x81 SHL DUP7 DUP3 ADD MSTORE PUSH2 0x41CC JUMP JUMPDEST DUP5 PUSH1 0x0 MSTORE PUSH1 0x9 PUSH1 0x20 MSTORE PUSH2 0x3C5B PUSH1 0x3 DUP5 PUSH1 0x0 KECCAK256 ADD SLOAD DUP5 MLOAD PUSH2 0x3C21 DUP5 DUP3 PUSH2 0x2D32 JUMP JUMPDEST PUSH1 0x23 DUP2 MSTORE PUSH32 0x4465627567202D20546F74616C206D697373656420636F6E747269627574696F PUSH1 0x20 DUP3 ADD MSTORE PUSH3 0x37399D PUSH1 0xE9 SHL DUP7 DUP3 ADD MSTORE PUSH2 0x41CC JUMP JUMPDEST DUP5 PUSH32 0xE7131EEA105622E12D8E35BE7BDE01BB5DD1869B7F695186A0DB0DE3B2EF38F0 DUP5 DUP1 MLOAD DUP6 DUP2 MSTORE TIMESTAMP PUSH1 0x20 DUP3 ADD MSTORE LOG2 DUP5 PUSH1 0x0 MSTORE PUSH1 0x9 PUSH1 0x20 MSTORE PUSH1 0x3 DUP1 DUP5 PUSH1 0x0 KECCAK256 ADD SLOAD LT ISZERO PUSH2 0x3CA8 JUMPI POP PUSH2 0x3B84 JUMP JUMPDEST SWAP1 POP DUP2 SWAP3 SWAP4 SWAP5 PUSH1 0x0 DUP1 PUSH2 0x3D2B PUSH2 0x3D39 PUSH2 0x3D96 SWAP7 MLOAD PUSH2 0x3CC6 DUP8 DUP3 PUSH2 0x2D32 JUMP JUMPDEST PUSH1 0x30 DUP2 MSTORE PUSH32 0x4465627567202D204170706C79696E672070756E6973686D656E74202D206D61 PUSH1 0x20 DUP3 ADD MSTORE PUSH16 0x1E081B5A5CDCD959081C995858DA1959 PUSH1 0x82 SHL DUP10 DUP3 ADD MSTORE DUP9 MLOAD SWAP3 DUP4 SWAP2 PUSH4 0x104C13EB PUSH1 0xE2 SHL PUSH1 0x20 DUP5 ADD MSTORE PUSH1 0x20 PUSH1 0x24 DUP5 ADD MSTORE PUSH1 0x44 DUP4 ADD SWAP1 PUSH2 0x2E04 JUMP JUMPDEST SUB PUSH1 0x1F NOT DUP2 ADD DUP4 MSTORE DUP3 PUSH2 0x2D32 JUMP JUMPDEST PUSH1 0x20 DUP2 MLOAD SWAP2 ADD PUSH11 0x636F6E736F6C652E6C6F67 GAS STATICCALL POP PUSH2 0x3D5A DUP5 MLOAD SWAP3 DUP4 PUSH2 0x2D32 JUMP JUMPDEST PUSH1 0x25 DUP3 MSTORE PUSH32 0x4578636565646564206D6178696D756D206D697373656420636F6E7472696275 PUSH1 0x20 DUP4 ADD MSTORE PUSH5 0x74696F6E73 PUSH1 0xD8 SHL DUP5 DUP4 ADD MSTORE PUSH2 0x426D JUMP JUMPDEST SWAP1 DUP3 SWAP2 CODESIZE PUSH2 0x3982 JUMP JUMPDEST POP DUP4 PUSH1 0x0 MSTORE PUSH1 0x11 PUSH1 0x20 MSTORE DUP2 PUSH1 0x0 KECCAK256 DUP2 PUSH1 0x0 MSTORE PUSH1 0x20 MSTORE DUP2 PUSH1 0x0 KECCAK256 SLOAD ISZERO PUSH2 0x3B7F JUMP JUMPDEST DUP1 ISZERO DUP1 PUSH2 0x3DF5 JUMPI JUMPDEST ISZERO PUSH2 0x3DD3 JUMPI PUSH1 0x0 PUSH2 0x38D7 JUMP JUMPDEST PUSH1 0x1 DUP2 ADD DUP1 DUP3 GT ISZERO PUSH2 0x38D7 JUMPI PUSH4 0x4E487B71 PUSH1 0xE0 SHL PUSH1 0x0 MSTORE PUSH1 0x11 PUSH1 0x4 MSTORE PUSH1 0x24 PUSH1 0x0 REVERT JUMPDEST POP DUP3 PUSH1 0x0 MSTORE PUSH1 0x9 PUSH1 0x20 MSTORE PUSH1 0x2 PUSH1 0x40 PUSH1 0x0 KECCAK256 ADD SLOAD ISZERO PUSH2 0x3DC7 JUMP JUMPDEST POP POP JUMP JUMPDEST POP DUP1 PUSH1 0x0 MSTORE PUSH1 0x9 PUSH1 0x20 MSTORE PUSH1 0xFF PUSH1 0x40 PUSH1 0x0 KECCAK256 SLOAD PUSH1 0x8 SHR AND ISZERO PUSH2 0x38B0 JUMP JUMPDEST PUSH1 0x1 PUSH1 0x1 PUSH1 0xA0 SHL SUB AND PUSH1 0x0 DUP2 DUP2 MSTORE PUSH1 0xA PUSH1 0x20 MSTORE PUSH1 0x40 SWAP1 KECCAK256 PUSH1 0x2 ADD SLOAD PUSH2 0x3E55 SWAP1 PUSH1 0xFF AND PUSH2 0x33BB JUMP JUMPDEST DUP1 PUSH1 0x0 MSTORE PUSH1 0xA PUSH1 0x20 MSTORE PUSH1 0xFF PUSH1 0x40 PUSH1 0x0 KECCAK256 SLOAD AND PUSH1 0x4 DUP2 LT ISZERO PUSH2 0x1885 JUMPI PUSH1 0x3 EQ PUSH2 0x3ECE JUMPI JUMPDEST PUSH1 0x0 DUP2 DUP2 MSTORE PUSH1 0xA PUSH1 0x20 SWAP1 DUP2 MSTORE PUSH1 0x40 DUP1 DUP4 KECCAK256 PUSH1 0x2 ADD DUP1 SLOAD PUSH1 0xFF NOT AND SWAP1 SSTORE PUSH1 0x9 SWAP1 SWAP2 MSTORE DUP2 KECCAK256 PUSH1 0x3 DUP2 ADD DUP3 SWAP1 SSTORE PUSH1 0x4 ADD DUP2 SWAP1 SSTORE PUSH32 0xE392F41381026E9D0DF0330D30D754DCD2D3E5B50EFD896EBF8EC1499F849715 SWAP1 DUP1 LOG2 JUMP JUMPDEST DUP1 PUSH1 0x0 MSTORE PUSH1 0x9 PUSH1 0x20 MSTORE PUSH1 0x40 PUSH1 0x0 KECCAK256 PUSH2 0x100 PUSH2 0xFF00 NOT DUP3 SLOAD AND OR SWAP1 SSTORE PUSH2 0x3EF4 PUSH1 0x15 SLOAD PUSH2 0x317F JUMP JUMPDEST PUSH1 0x15 SSTORE PUSH2 0x3E78 JUMP JUMPDEST PUSH1 0x2 PUSH1 0x0 SLOAD EQ PUSH2 0x3F0D JUMPI PUSH1 0x2 PUSH1 0x0 SSTORE JUMP JUMPDEST PUSH4 0x3EE5AEB5 PUSH1 0xE0 SHL PUSH1 0x0 MSTORE PUSH1 0x4 PUSH1 0x0 REVERT JUMPDEST PUSH1 0xB SLOAD PUSH1 0x1 JUMPDEST DUP2 DUP2 LT PUSH2 0x3F33 JUMPI POP POP POP PUSH1 0x0 SWAP1 JUMP JUMPDEST PUSH2 0x3F49 PUSH2 0x3F44 DUP4 PUSH2 0x195D DUP5 DUP8 PUSH2 0x303B JUMP JUMPDEST PUSH2 0x2F37 JUMP JUMPDEST SWAP1 SLOAD PUSH1 0x3 SWAP2 SWAP1 SWAP2 SHL SHR PUSH1 0x1 PUSH1 0x1 PUSH1 0xA0 SHL SUB AND PUSH1 0x0 DUP2 DUP2 MSTORE PUSH1 0x9 PUSH1 0x20 MSTORE PUSH1 0x40 SWAP1 KECCAK256 SLOAD PUSH1 0x8 SHR PUSH1 0xFF AND DUP1 PUSH2 0x3F8A JUMPI JUMPDEST PUSH2 0x3F83 JUMPI POP PUSH1 0x1 ADD PUSH2 0x3F24 JUMP JUMPDEST SWAP3 POP POP POP SWAP1 JUMP JUMPDEST POP DUP1 PUSH1 0x0 MSTORE PUSH1 0xA PUSH1 0x20 MSTORE PUSH1 0xFF PUSH1 0x2 PUSH1 0x40 PUSH1 0x0 KECCAK256 ADD SLOAD AND ISZERO PUSH2 0x3F76 JUMP JUMPDEST SWAP1 PUSH1 0xFF PUSH1 0x1A SLOAD PUSH1 0xA0 SHR AND PUSH1 0x0 EQ PUSH2 0x3FCD JUMPI PUSH1 0x1A SLOAD PUSH2 0x2D8C SWAP3 SWAP1 PUSH1 0x1 PUSH1 0x1 PUSH1 0xA0 SHL SUB AND PUSH2 0x4191 JUMP JUMPDEST PUSH2 0x2D8C SWAP2 PUSH1 0x0 SWAP2 DUP3 SWAP2 DUP3 SWAP2 DUP3 SWAP2 PUSH1 0x1 PUSH1 0x1 PUSH1 0xA0 SHL SUB AND GAS CALL PUSH2 0x6B5 PUSH2 0x35E7 JUMP JUMPDEST PUSH1 0x40 MLOAD PUSH4 0x23B872DD PUSH1 0xE0 SHL PUSH1 0x20 DUP3 ADD MSTORE PUSH1 0x1 PUSH1 0x1 PUSH1 0xA0 SHL SUB SWAP3 DUP4 AND PUSH1 0x24 DUP3 ADD MSTORE SWAP3 SWAP1 SWAP2 AND PUSH1 0x44 DUP4 ADD MSTORE PUSH1 0x64 DUP1 DUP4 ADD SWAP4 SWAP1 SWAP4 MSTORE SWAP2 DUP2 MSTORE PUSH2 0x2D8C SWAP2 PUSH2 0x4031 PUSH1 0x84 DUP4 PUSH2 0x2D32 JUMP JUMPDEST PUSH2 0x44D4 JUMP JUMPDEST PUSH1 0x40 MLOAD PUSH2 0x4042 DUP2 PUSH2 0x2D17 JUMP JUMPDEST PUSH1 0x1 DUP2 MSTORE PUSH1 0x4 PUSH1 0x20 DUP3 ADD SWAP3 PUSH1 0x1 DUP5 MSTORE PUSH1 0x40 DUP4 ADD TIMESTAMP DUP2 MSTORE PUSH1 0x60 DUP5 ADD PUSH1 0x0 DUP2 MSTORE PUSH1 0x80 DUP6 ADD SWAP2 PUSH1 0x0 DUP4 MSTORE PUSH1 0xA0 DUP7 ADD SWAP4 PUSH1 0x0 DUP6 MSTORE PUSH1 0x1 DUP1 PUSH1 0xA0 SHL SUB AND SWAP7 DUP8 PUSH1 0x0 MSTORE PUSH1 0x9 PUSH1 0x20 MSTORE PUSH2 0x40A2 PUSH1 0x40 PUSH1 0x0 KECCAK256 SWAP8 MLOAD ISZERO ISZERO DUP9 SWAP1 PUSH1 0xFF DUP1 NOT DUP4 SLOAD AND SWAP2 ISZERO ISZERO AND OR SWAP1 SSTORE JUMP JUMPDEST MLOAD DUP7 SLOAD PUSH2 0xFF00 NOT AND SWAP1 ISZERO ISZERO PUSH1 0x8 SHL PUSH2 0xFF00 AND OR DUP7 SSTORE MLOAD PUSH1 0x1 DUP7 ADD SSTORE MLOAD PUSH1 0x2 DUP6 ADD SSTORE MLOAD PUSH1 0x3 DUP5 ADD SSTORE MLOAD SWAP2 ADD SSTORE PUSH1 0x14 SLOAD PUSH2 0x40D9 SWAP1 PUSH2 0x317F JUMP JUMPDEST PUSH1 0x14 SSTORE DUP1 PUSH1 0x0 MSTORE PUSH1 0xF PUSH1 0x20 MSTORE PUSH1 0x0 NOT PUSH1 0x40 PUSH1 0x0 KECCAK256 SSTORE PUSH2 0x40F9 PUSH1 0x15 SLOAD PUSH2 0x317F JUMP JUMPDEST PUSH1 0x15 SSTORE PUSH32 0x7F3B9EFFE05CFB4F31F854004DE03199FD03FE56BF38A48B2AA9A9F4402D6E23 PUSH1 0x20 PUSH1 0x40 MLOAD TIMESTAMP DUP2 MSTORE LOG2 JUMP JUMPDEST PUSH1 0x1 PUSH1 0x1 PUSH1 0xA0 SHL SUB AND PUSH1 0x0 DUP2 DUP2 MSTORE PUSH1 0xD PUSH1 0x20 MSTORE PUSH1 0x40 SWAP1 KECCAK256 SLOAD PUSH2 0x3035 JUMPI PUSH1 0x0 SWAP1 DUP2 MSTORE PUSH1 0x9 PUSH1 0x20 MSTORE PUSH1 0x40 SWAP1 KECCAK256 PUSH1 0x2 DUP2 ADD SLOAD PUSH1 0x3 SWAP1 SWAP2 ADD SLOAD PUSH7 0x2386F26FC10000 DUP1 DUP3 MUL SWAP2 DUP1 ISZERO SWAP1 DUP4 DIV SWAP1 SWAP2 EQ OR ISZERO PUSH2 0x9D3 JUMPI DUP1 DUP3 GT PUSH2 0x4185 JUMPI POP POP PUSH1 0x0 SWAP1 JUMP JUMPDEST PUSH2 0x418E SWAP2 PUSH2 0x300C JUMP JUMPDEST SWAP1 JUMP JUMPDEST PUSH1 0x40 MLOAD PUSH4 0xA9059CBB PUSH1 0xE0 SHL PUSH1 0x20 DUP3 ADD MSTORE PUSH1 0x1 PUSH1 0x1 PUSH1 0xA0 SHL SUB SWAP1 SWAP3 AND PUSH1 0x24 DUP4 ADD MSTORE PUSH1 0x44 DUP1 DUP4 ADD SWAP4 SWAP1 SWAP4 MSTORE SWAP2 DUP2 MSTORE PUSH2 0x2D8C SWAP2 PUSH2 0x4031 PUSH1 0x64 DUP4 PUSH2 0x2D32 JUMP JUMPDEST PUSH2 0x41FC PUSH2 0x4210 PUSH1 0x0 SWAP4 SWAP3 DUP5 SWAP4 PUSH1 0x40 MLOAD SWAP4 DUP5 SWAP3 PUSH4 0x2D839CB3 PUSH1 0xE2 SHL PUSH1 0x20 DUP6 ADD MSTORE PUSH1 0x40 PUSH1 0x24 DUP6 ADD MSTORE PUSH1 0x64 DUP5 ADD SWAP1 PUSH2 0x2E04 JUMP JUMPDEST SWAP1 PUSH1 0x44 DUP4 ADD MSTORE SUB PUSH1 0x1F NOT DUP2 ADD DUP4 MSTORE DUP3 PUSH2 0x2D32 JUMP JUMPDEST PUSH1 0x20 DUP2 MLOAD SWAP2 ADD PUSH11 0x636F6E736F6C652E6C6F67 GAS STATICCALL POP JUMP JUMPDEST PUSH2 0x4257 PUSH2 0x4210 PUSH1 0x0 SWAP4 SWAP3 DUP5 SWAP4 PUSH1 0x40 MLOAD SWAP4 DUP5 SWAP3 PUSH4 0xC3B55635 PUSH1 0xE0 SHL PUSH1 0x20 DUP6 ADD MSTORE PUSH1 0x40 PUSH1 0x24 DUP6 ADD MSTORE PUSH1 0x64 DUP5 ADD SWAP1 PUSH2 0x2E04 JUMP JUMPDEST SWAP1 ISZERO ISZERO PUSH1 0x44 DUP4 ADD MSTORE SUB PUSH1 0x1F NOT DUP2 ADD DUP4 MSTORE DUP3 PUSH2 0x2D32 JUMP JUMPDEST SWAP1 PUSH1 0xFF PUSH1 0x8 SLOAD AND PUSH1 0x4 DUP2 LT ISZERO PUSH2 0x1885 JUMPI DUP1 ISZERO PUSH2 0x44CF JUMPI PUSH1 0x0 DUP2 PUSH1 0x2 DUP2 SUB PUSH2 0x4485 JUMPI POP POP PUSH7 0x2386F26FC10000 PUSH1 0x1 DUP1 PUSH1 0xA0 SHL SUB DUP5 AND DUP1 PUSH1 0x0 MSTORE PUSH1 0x9 PUSH1 0x20 MSTORE PUSH1 0x4 PUSH1 0x40 PUSH1 0x0 KECCAK256 ADD PUSH2 0x42BC DUP2 SLOAD PUSH2 0x317F JUMP JUMPDEST SWAP1 SSTORE DUP1 PUSH1 0x0 MSTORE PUSH1 0x9 PUSH1 0x20 MSTORE PUSH1 0x3 PUSH1 0x4 PUSH1 0x40 PUSH1 0x0 KECCAK256 ADD SLOAD LT ISZERO PUSH2 0x4456 JUMPI JUMPDEST POP JUMPDEST PUSH1 0x40 MLOAD PUSH2 0x42E7 DUP2 PUSH2 0x2CE1 JUMP JUMPDEST PUSH2 0x42F1 DUP4 DUP3 PUSH2 0x3248 JUMP JUMPDEST PUSH1 0x20 DUP2 ADD SWAP5 DUP5 DUP7 MSTORE PUSH1 0x40 DUP3 ADD PUSH1 0x1 DUP2 MSTORE PUSH1 0x60 DUP4 ADD SWAP1 TIMESTAMP DUP3 MSTORE PUSH1 0x80 DUP5 ADD SWAP3 DUP6 DUP5 MSTORE PUSH1 0x1 DUP1 PUSH1 0xA0 SHL SUB AND SWAP8 DUP9 PUSH1 0x0 MSTORE PUSH1 0xA PUSH1 0x20 MSTORE PUSH1 0x40 PUSH1 0x0 KECCAK256 SWAP5 MLOAD PUSH1 0x4 DUP2 LT ISZERO PUSH2 0x1885 JUMPI PUSH1 0x0 SWAP1 PUSH1 0xFF DUP1 NOT DUP9 SLOAD AND SWAP2 AND OR DUP7 SSTORE PUSH1 0x1 DUP7 ADD SWAP2 MLOAD SWAP1 DUP2 MLOAD SWAP2 PUSH1 0x1 PUSH1 0x1 PUSH1 0x40 SHL SUB DUP4 GT PUSH2 0xC78 JUMPI PUSH2 0x4368 DUP4 PUSH2 0xB8F DUP7 SLOAD PUSH2 0x2CA7 JUMP JUMPDEST PUSH1 0x20 SWAP2 PUSH1 0x1F DUP5 GT PUSH1 0x1 EQ PUSH2 0x43EE JUMPI SWAP4 PUSH2 0x2427 DUP5 PUSH2 0x43D9 SWAP13 SWAP11 SWAP9 SWAP6 PUSH2 0x43B8 SWAP6 PUSH1 0x0 DUP1 MLOAD PUSH1 0x20 PUSH2 0x4530 DUP4 CODECOPY DUP2 MLOAD SWAP2 MSTORE SWAP16 SWAP14 SWAP12 SWAP9 SWAP6 PUSH1 0x4 SWAP11 SWAP7 SWAP3 PUSH2 0x24B7 JUMPI POP POP DUP2 PUSH1 0x1 SHL SWAP2 PUSH1 0x0 NOT SWAP1 PUSH1 0x3 SHL SHR NOT AND OR SWAP1 JUMP JUMPDEST MLOAD PUSH1 0x3 DUP5 ADD SSTORE MLOAD SWAP2 ADD SSTORE PUSH2 0x43E4 PUSH1 0x40 MLOAD SWAP5 DUP6 SWAP5 PUSH1 0x60 DUP7 MSTORE PUSH1 0x60 DUP7 ADD SWAP1 PUSH2 0x2E04 JUMP JUMPDEST SWAP3 PUSH1 0x20 DUP6 ADD SWAP1 PUSH2 0x2EF3 JUMP JUMPDEST PUSH1 0x40 DUP4 ADD MSTORE SUB SWAP1 LOG2 JUMP JUMPDEST SWAP2 SWAP1 PUSH1 0x1F NOT DUP5 AND DUP6 DUP5 MSTORE DUP3 DUP5 KECCAK256 SWAP4 JUMPDEST DUP2 DUP2 LT PUSH2 0x443E JUMPI POP DUP5 PUSH2 0x43B8 SWAP5 PUSH1 0x4 SWAP9 SWAP5 PUSH1 0x0 DUP1 MLOAD PUSH1 0x20 PUSH2 0x4530 DUP4 CODECOPY DUP2 MLOAD SWAP2 MSTORE SWAP16 SWAP14 SWAP12 SWAP9 SWAP5 PUSH2 0x43D9 SWAP16 SWAP14 SWAP12 SWAP9 PUSH1 0x1 SWAP6 LT PUSH2 0x2519 JUMPI POP POP POP DUP2 SHL ADD SWAP1 SSTORE PUSH2 0x242A JUMP JUMPDEST SWAP3 SWAP4 PUSH1 0x20 PUSH1 0x1 DUP2 SWAP3 DUP8 DUP7 ADD MLOAD DUP2 SSTORE ADD SWAP6 ADD SWAP4 ADD PUSH2 0x43FD JUMP JUMPDEST SWAP2 POP PUSH1 0x3 SWAP2 PUSH1 0x0 MSTORE PUSH1 0x9 PUSH1 0x20 MSTORE PUSH1 0x40 PUSH1 0x0 KECCAK256 PUSH2 0xFF00 NOT DUP2 SLOAD AND SWAP1 SSTORE PUSH2 0x447C PUSH1 0x15 SLOAD PUSH2 0x32CB JUMP JUMPDEST PUSH1 0x15 SSTORE CODESIZE PUSH2 0x42D9 JUMP JUMPDEST PUSH1 0x3 SUB PUSH2 0x42DB JUMPI PUSH1 0x1 PUSH1 0x1 PUSH1 0xA0 SHL SUB DUP5 AND DUP1 DUP3 MSTORE PUSH1 0x9 PUSH1 0x20 MSTORE PUSH1 0x40 DUP3 KECCAK256 DUP1 SLOAD PUSH2 0xFF00 NOT AND SWAP1 SSTORE PUSH1 0x15 SLOAD PUSH2 0x44B7 SWAP1 PUSH2 0x32CB JUMP JUMPDEST PUSH1 0x15 SSTORE DUP2 MSTORE PUSH1 0x9 PUSH1 0x20 MSTORE DUP1 PUSH1 0x4 PUSH1 0x40 DUP3 KECCAK256 ADD SSTORE PUSH2 0x42DB JUMP JUMPDEST POP POP POP JUMP JUMPDEST SWAP1 PUSH1 0x0 PUSH1 0x20 SWAP2 DUP3 DUP2 MLOAD SWAP2 ADD DUP3 DUP6 GAS CALL ISZERO PUSH2 0x68E JUMPI PUSH1 0x0 MLOAD RETURNDATASIZE PUSH2 0x4526 JUMPI POP PUSH1 0x1 PUSH1 0x1 PUSH1 0xA0 SHL SUB DUP2 AND EXTCODESIZE ISZERO JUMPDEST PUSH2 0x4505 JUMPI POP JUMP JUMPDEST PUSH4 0x5274AFE7 PUSH1 0xE0 SHL PUSH1 0x0 SWAP1 DUP2 MSTORE PUSH1 0x1 PUSH1 0x1 PUSH1 0xA0 SHL SUB SWAP2 SWAP1 SWAP2 AND PUSH1 0x4 MSTORE PUSH1 0x24 SWAP1 REVERT JUMPDEST PUSH1 0x1 EQ ISZERO PUSH2 0x44FE JUMP INVALID SWAP3 0xAE 0x28 0xD1 REVERT PUSH23 0xD6083FE6C8A95100BB3B117195E864014E4AA144D26FA4 PUSH30 0xC17A264697066735822122027EB803FD4F71D8A83EC4C2E3F28B4EC0CBC DUP13 DUP9 0xBE 0x4D 0xB9 0xC9 0xDB SGT 0xCB PUSH3 0x2FFBD1 BLOCKHASH PUSH5 0x736F6C6343 STOP ADDMOD SHR STOP CALLER LOG2 PUSH5 0x6970667358 0x22 SLT KECCAK256 0xAE SHL 0xEB MSTORE STATICCALL SWAP16 0xF8 EQ JUMP 0xF6 BYTE 0xD1 0x21 TIMESTAMP ADD 0xBA DUP9 MLOAD 0xE 0xE7 0xD7 PUSH32 0x27509F628F36CEC12E3B64736F6C634300081C00330000000000000000000000 "},"methodIdentifiers":{"MAX_CONTRIBUTION_AMOUNT()":"1b89c1ad","MAX_GROUPS_PER_CREATOR()":"9c6f5374","MAX_MEMBERS()":"ea0e35b1","MIN_CONTRIBUTION_AMOUNT()":"0c49c0a2","MIN_MEMBERS()":"d9a67220","allGroups(uint256)":"fd16c1d3","createGroup((string,uint256,uint256,uint256,uint256,string,uint8,bool,bool,address,address,uint256,uint256))":"73c7125b","creatorGroups(address,uint256)":"d8802c46","getAllGroups()":"21cd3cae","getCreatorGroups(address)":"4d88d1ad","groupCounter()":"d24924fe","isValidGroup(address)":"c2e70bb6","owner()":"8da5cb5b","pause()":"8456cb59","paused()":"5c975abb","renounceOwnership()":"715018a6","transferOwnership(address)":"f2fde38b","unpause()":"3f4ba83a"}}}}}