{"contracts/ChamaFactory.sol":{"ChamaFactory":{"abi":[{"inputs":[{"internalType":"address","name":"initialOwner","type":"address"}],"stateMutability":"nonpayable","type":"constructor"},{"inputs":[],"name":"EnforcedPause","type":"error"},{"inputs":[],"name":"ExpectedPause","type":"error"},{"inputs":[{"internalType":"address","name":"owner","type":"address"}],"name":"OwnableInvalidOwner","type":"error"},{"inputs":[{"internalType":"address","name":"account","type":"address"}],"name":"OwnableUnauthorizedAccount","type":"error"},{"anonymous":false,"inputs":[{"indexed":true,"internalType":"address","name":"creator","type":"address"},{"indexed":true,"internalType":"address","name":"groupAddress","type":"address"},{"indexed":false,"internalType":"string","name":"name","type":"string"},{"indexed":false,"internalType":"uint256","name":"contributionAmount","type":"uint256"},{"indexed":false,"internalType":"uint256","name":"maxMembers","type":"uint256"}],"name":"GroupCreated","type":"event"},{"anonymous":false,"inputs":[{"indexed":true,"internalType":"address","name":"previousOwner","type":"address"},{"indexed":true,"internalType":"address","name":"newOwner","type":"address"}],"name":"OwnershipTransferred","type":"event"},{"anonymous":false,"inputs":[{"indexed":false,"internalType":"address","name":"account","type":"address"}],"name":"Paused","type":"event"},{"anonymous":false,"inputs":[{"indexed":false,"internalType":"address","name":"account","type":"address"}],"name":"Unpaused","type":"event"},{"inputs":[],"name":"MAX_CONTRIBUTION_AMOUNT","outputs":[{"internalType":"uint256","name":"","type":"uint256"}],"stateMutability":"view","type":"function"},{"inputs":[],"name":"MAX_GROUPS_PER_CREATOR","outputs":[{"internalType":"uint256","name":"","type":"uint256"}],"stateMutability":"view","type":"function"},{"inputs":[],"name":"MAX_MEMBERS","outputs":[{"internalType":"uint256","name":"","type":"uint256"}],"stateMutability":"view","type":"function"},{"inputs":[],"name":"MIN_CONTRIBUTION_AMOUNT","outputs":[{"internalType":"uint256","name":"","type":"uint256"}],"stateMutability":"view","type":"function"},{"inputs":[],"name":"MIN_MEMBERS","outputs":[{"internalType":"uint256","name":"","type":"uint256"}],"stateMutability":"view","type":"function"},{"inputs":[{"internalType":"uint256","name":"","type":"uint256"}],"name":"allGroups","outputs":[{"internalType":"address","name":"","type":"address"}],"stateMutability":"view","type":"function"},{"inputs":[{"components":[{"internalType":"string","name":"name","type":"string"},{"internalType":"uint256","name":"contributionAmount","type":"uint256"},{"internalType":"uint256","name":"maxMembers","type":"uint256"},{"internalType":"uint256","name":"startDate","type":"uint256"},{"internalType":"uint256","name":"endDate","type":"uint256"},{"internalType":"string","name":"contributionFrequency","type":"string"},{"internalType":"enum ChamaStructs.PunishmentAction","name":"punishmentMode","type":"uint8"},{"internalType":"bool","name":"approvalRequired","type":"bool"},{"internalType":"bool","name":"emergencyWithdrawAllowed","type":"bool"},{"internalType":"address","name":"creator","type":"address"},{"internalType":"address","name":"contributionToken","type":"address"},{"internalType":"uint256","name":"gracePeriod","type":"uint256"},{"internalType":"uint256","name":"contributionWindow","type":"uint256"}],"internalType":"struct ChamaStructs.GroupConfig","name":"config","type":"tuple"}],"name":"createGroup","outputs":[],"stateMutability":"nonpayable","type":"function"},{"inputs":[{"internalType":"address","name":"","type":"address"},{"internalType":"uint256","name":"","type":"uint256"}],"name":"creatorGroups","outputs":[{"internalType":"address","name":"","type":"address"}],"stateMutability":"view","type":"function"},{"inputs":[],"name":"getAllGroups","outputs":[{"internalType":"address[]","name":"","type":"address[]"}],"stateMutability":"view","type":"function"},{"inputs":[{"internalType":"address","name":"creator","type":"address"}],"name":"getCreatorGroups","outputs":[{"internalType":"address[]","name":"","type":"address[]"}],"stateMutability":"view","type":"function"},{"inputs":[],"name":"groupCounter","outputs":[{"internalType":"uint256","name":"","type":"uint256"}],"stateMutability":"view","type":"function"},{"inputs":[{"internalType":"address","name":"","type":"address"}],"name":"isValidGroup","outputs":[{"internalType":"bool","name":"","type":"bool"}],"stateMutability":"view","type":"function"},{"inputs":[],"name":"owner","outputs":[{"internalType":"address","name":"","type":"address"}],"stateMutability":"view","type":"function"},{"inputs":[],"name":"pause","outputs":[],"stateMutability":"nonpayable","type":"function"},{"inputs":[],"name":"paused","outputs":[{"internalType":"bool","name":"","type":"bool"}],"stateMutability":"view","type":"function"},{"inputs":[],"name":"renounceOwnership","outputs":[],"stateMutability":"nonpayable","type":"function"},{"inputs":[{"internalType":"address","name":"newOwner","type":"address"}],"name":"transferOwnership","outputs":[],"stateMutability":"nonpayable","type":"function"},{"inputs":[],"name":"unpause","outputs":[],"stateMutability":"nonpayable","type":"function"}],"evm":{"bytecode":{"linkReferences":{},"object":"60803460bc57601f61526b38819003918201601f19168301916001600160401b0383118484101760c15780849260209460405283398101031260bc57516001600160a01b0381169081900360bc57801560a657600080546001600160a01b031981168317825560405192916001600160a01b03909116907f8be0079c531659141344cd1fd0a4f28419497f9722a3daafe3b4186f6b6457e09080a361519390816100d88239f35b631e4fbdf760e01b600052600060045260246000fd5b600080fd5b634e487b7160e01b600052604160045260246000fdfe608080604052600436101561001357600080fd5b60003560e01c9081630c49c0a214610bec575080631b89c1ad14610bc857806321cd3cae14610b485780633f4ba83a14610ad75780634d88d1ad14610a475780635c975abb14610a21578063715018a6146109c857806373c7125b1461038e5780638456cb591461032c5780638da5cb5b146103035780639c6f5374146102e7578063c2e70bb6146102a8578063d24924fe1461028a578063d8802c4614610227578063d9a672201461020b578063ea0e35b1146101ef578063f2fde38b146101665763fd16c1d3146100e557600080fd5b34610161576020366003190112610161576004356003548110156101615760009060035481101561014d5760039091527fc2575a0e9e593c00f959f8c92f12db2869c3395a3b0502d05e2516446f71f85b01546040516001600160a01b039091168152602090f35b634e487b7160e01b82526032600452602482fd5b600080fd5b346101615760203660031901126101615761017f610c4f565b610187610d6e565b6001600160a01b031680156101d957600080546001600160a01b03198116831782556001600160a01b0316907f8be0079c531659141344cd1fd0a4f28419497f9722a3daafe3b4186f6b6457e09080a3005b631e4fbdf760e01b600052600060045260246000fd5b3461016157600036600319011261016157602060405160648152f35b3461016157600036600319011261016157602060405160038152f35b3461016157604036600319011261016157610240610c4f565b6001600160a01b03166000908152600160205260409020805460243591908210156101615760209161027191610cff565b905460405160039290921b1c6001600160a01b03168152f35b34610161576000366003190112610161576020600454604051908152f35b34610161576020366003190112610161576001600160a01b036102c9610c4f565b166000526002602052602060ff604060002054166040519015158152f35b34610161576000366003190112610161576020604051600a8152f35b34610161576000366003190112610161576000546040516001600160a01b039091168152602090f35b3461016157600036600319011261016157610345610d6e565b61034d610d97565b6000805460ff60a01b1916600160a01b1790556040513381527f62e78cea01bee320cd4e420270b5ea74000d11b0c9f74754ebdbfc544b05a25890602090a1005b346101615760203660031901126101615760043567ffffffffffffffff8111610161576101a06003198236030112610161576040516101a0810181811067ffffffffffffffff82111761078157604052816004013567ffffffffffffffff8111610161576104029060043691850101610c9b565b81526020810160248301358152604082019060448401358252606083016064850135815260808401906084860135825260a486013567ffffffffffffffff8111610161576104569060043691890101610c9b565b9160a0860192835260c48701359260048410156101615760c0870193845261048060e48901610cf2565b9060e088019182526104956101048a01610cf2565b9261010089019384526104ab6101248b01610c65565b6101208a01526104be6101448b01610c65565b996101408a019a8b526101608a0161016482013581526101846101808c0192013582526104e9610d97565b8a515180151590816109bc575b501561098157885166038d7ea4c68000811015908161096d575b50156109285789516003811015908161091c575b50156108e157865142101561089c5782518751101561084d5782516301e1338042019081421161083757116107f257336000526001602052600a60406000205410156107ad5760049b8b518a51968c519951955196519a519e8f101561079757511515975115159160018060a01b0390511692519351966040519a6143a697888d01978d891067ffffffffffffffff8a1117610781578d9c6105de610600968f9c6101809d610db890396101a08c526101a08c0190610d2d565b9460208b015260408a01526060890152608088015286820360a0880152610d2d565b9660009d60c086015260e0850152610100840152336101208401526101408301526101608201520152039085f080156107765760018060a01b031692338552600160205260408520805490600160401b821015610762579061066791600182018155610cff565b8154600391821b87811b6001600160a01b0390911b1990911617909155848652600260205260408620805460ff1916600117905554600160401b81101561074e578060016106ba92016003556003610cff565b81546001600160a01b0360039290921b91821b19169086901b179055600454600019811461073a579060017fdabfbddd3c17390733a672db1121758da191fc5b5ce4a81a1bbe0d8ab456ff63939201600455519051925161072660405192606084526060840190610d2d565b93602083015260408201528033930390a380f35b634e487b7160e01b86526011600452602486fd5b634e487b7160e01b86526041600452602486fd5b634e487b7160e01b87526041600452602487fd5b6040513d86823e3d90fd5b634e487b7160e01b600052604160045260246000fd5b634e487b7160e01b600052602160045260246000fd5b60405162461bcd60e51b815260206004820152601760248201527f546f6f206d616e792067726f75707320637265617465640000000000000000006044820152606490fd5b60405162461bcd60e51b815260206004820152601a60248201527f456e64206461746520746f6f2066617220696e206675747572650000000000006044820152606490fd5b634e487b7160e01b600052601160045260246000fd5b60405162461bcd60e51b815260206004820152602160248201527f456e642064617465206d757374206265206166746572207374617274206461746044820152606560f81b6064820152608490fd5b60405162461bcd60e51b815260206004820152601c60248201527f53746172742064617465206d75737420626520696e20667574757265000000006044820152606490fd5b60405162461bcd60e51b8152602060048201526013602482015272496e76616c6964206d6178206d656d6265727360681b6044820152606490fd5b6064915011158d610524565b60405162461bcd60e51b815260206004820152601b60248201527f496e76616c696420636f6e747269627574696f6e20616d6f756e7400000000006044820152606490fd5b68056bc75e2d63100000915011158d610510565b60405162461bcd60e51b8152602060048201526013602482015272092dcecc2d8d2c840dcc2daca40d8cadccee8d606b1b6044820152606490fd5b6032915011158d6104f6565b34610161576000366003190112610161576109e1610d6e565b600080546001600160a01b0319811682556001600160a01b03167f8be0079c531659141344cd1fd0a4f28419497f9722a3daafe3b4186f6b6457e08280a3005b3461016157600036600319011261016157602060ff60005460a01c166040519015158152f35b34610161576020366003190112610161576001600160a01b03610a68610c4f565b166000526001602052604060002060405190816020825491828152019160005260206000209060005b818110610ab857610ab485610aa881870382610c79565b60405191829182610c0c565b0390f35b82546001600160a01b0316845260209093019260019283019201610a91565b3461016157600036600319011261016157610af0610d6e565b60005460ff8160a01c1615610b375760ff60a01b19166000556040513381527f5db9ee0a495bf2e6ff9c91a7834c1ba4fdd244a5e8aa4e537bd38aeae4b073aa90602090a1005b638dfc202b60e01b60005260046000fd5b346101615760003660031901126101615760405180602060035491828152019060036000527fc2575a0e9e593c00f959f8c92f12db2869c3395a3b0502d05e2516446f71f85b9060005b818110610ba957610ab485610aa881870382610c79565b82546001600160a01b0316845260209093019260019283019201610b92565b3461016157600036600319011261016157602060405168056bc75e2d631000008152f35b34610161576000366003190112610161578066038d7ea4c6800060209252f35b602060408183019282815284518094520192019060005b818110610c305750505090565b82516001600160a01b0316845260209384019390920191600101610c23565b600435906001600160a01b038216820361016157565b35906001600160a01b038216820361016157565b90601f8019910116810190811067ffffffffffffffff82111761078157604052565b81601f820112156101615780359067ffffffffffffffff82116107815760405192610cd0601f8401601f191660200185610c79565b8284526020838301011161016157816000926020809301838601378301015290565b3590811515820361016157565b8054821015610d175760005260206000200190600090565b634e487b7160e01b600052603260045260246000fd5b919082519283825260005b848110610d59575050826000602080949584010152601f8019910116010190565b80602080928401015182828601015201610d38565b6000546001600160a01b03163303610d8257565b63118cdaa760e01b6000523360045260246000fd5b60ff60005460a01c16610da657565b63d93c066560e01b60005260046000fdfe608060405234610619576143a6803803806100198161061e565b9283398101906101a0818303126106195780516001600160401b0381116106195782610046918301610643565b602082015160408301516060840151608085015160a08601519396909493906001600160401b0382116106195761007e918701610643565b9360c08601519360048510156106195761009a60e088016106ae565b916100a861010089016106ae565b936100b66101208a016106bb565b956100c46101408b016106bb565b986101806101608c01519b01519b60016000556202a300601a5562069780601b556203f480601c5560405195610120870187811060018060401b038211176106035760405286526020860190815260408601918252606086019283526080860193845260a0860194855260c086019560009a875260e081019715158852610100810198151589525180519060018060401b0382116105ef57600254600181811c911680156105e5575b60208210146105d1579081601f849311610560575b506020908d601f84116001146104fb57926104f0575b50508160011b916000199060031b1c1916176002555b51600355518051906001600160401b0382116104dc57600454600181811c911680156104d2575b60208210146104be579081601f849311610450575b50602090601f83116001146103eb578b926103e0575b50508160011b916000199060031b1c1916176004555b5160055551600655516007555160048110156103cc57600880549251935162ffffff1990931660ff9290921691909117921515811b61ff00169290921790151560101b62ff000016179055601880546001600160a01b0319166001600160a01b0392909216918217905580825260116020526040808320805460ff19166001179055519060c082016001600160401b038111838210176103b85790600491604052600183526020830160018152604084014281526060850190868252608086019287845260a087019488865288526009602052604088209651151560ff8019895416911617875551151561ff0087549160081b169061ff001916178655516001860155516002850155516003840155519101556103346013546106cf565b6013556103426014546106cf565b6014556018805460ff60a01b1916600160a01b1790556016556001600160a01b031680610399575b5080610390575b5080610387575b604051613cb190816106f58239f35b601b5538610378565b601a5538610371565b601980546001600160a81b031916909117600160a01b1790553861036a565b634e487b7160e01b84526041600452602484fd5b634e487b7160e01b85526021600452602485fd5b015190503880610200565b60048c52818c209250601f1984168c5b818110610438575090846001959493921061041f575b505050811b01600455610216565b015160001960f88460031b161c19169055388080610411565b929360206001819287860151815501950193016103fb565b60048c529091507f8a35acfbc15ff81a39ae7d344fd709f28e8600b4aa8c65c6b64bfe7fe36bd19b601f840160051c810191602085106104b4575b90601f859493920160051c01905b8181106104a657506101ea565b8c8155849350600101610499565b909150819061048b565b634e487b7160e01b8b52602260045260248bfd5b90607f16906101d5565b634e487b7160e01b8a52604160045260248afd5b015190503880610198565b600281528281209350601f198516905b818110610548575090846001959493921061052f575b505050811b016002556101ae565b015160001960f88460031b161c19169055388080610521565b9293602060018192878601518155019501930161050b565b60028e529091507f405787fa12a823e0f2b7631cc41b3ba8828b3321ca811111fa75cd3aa3bb5ace601f840160051c810191602085106105c7575b849392918f91601f0160051c0191905b8282106105b9575050610182565b81558493506001018e6105ab565b909150819061059b565b634e487b7160e01b8d52602260045260248dfd5b90607f169061016d565b634e487b7160e01b8c52604160045260248cfd5b634e487b7160e01b600052604160045260246000fd5b600080fd5b6040519190601f01601f191682016001600160401b0381118382101761060357604052565b81601f82011215610619578051906001600160401b03821161060357610672601f8301601f191660200161061e565b92828452602083830101116106195760005b82811061069957505060206000918301015290565b80602080928401015182828701015201610684565b5190811515820361061957565b51906001600160a01b038216820361061957565b60001981146106de5760010190565b634e487b7160e01b600052601160045260246000fdfe60806040526004361015610010575b005b60003560e01c8063013cf08b14612c0b57806302d05d3f14612be25780630604061814612bc4578063086146d214612ba957806308ae4b0c14612b215780630c0512e914612b035780630d3a9f0d14612ab35780630d61b5191461290a57806311aee380146128ec57806312065fe0146128c957806313335786146127115780631614665c146125a65780631785f53c146125085780631bb1f108146124ea5780631d6b1058146124c457806322f3e2d41461249e57806322faa41f14611bc55780632768c62c14612133578063286eb1e0146121115780632b81a65b1461206557806330109962146120475780633b4d01a714611fd95780633f4ba83a14611f5e578063414570f314611f1c578063429b62e514611edd5780634353be8914611ec157806347bbf00714611e865780634bedf9a814611e5d5780634dcdb23714611dff57806352f6747a14611c065780635c975abb14611be35780635fb6c6ed14611bc5578063600303d8146112d1578063615601db146117f85780636558954f146117da5780636bca1ed2146110405780636d531e8314611624578063704802751461155f5780637a5c15c8146114dd5780637afca9a7146114bf5780637d8b62051461145b57806383fd09541461139c5780638456cb591461131e5780638e1f6a2c146112d1578063968ed600146112b35780639ac79e0a146110ff578063a06db7dc146110e1578063aa6cd9d614611088578063af40c98314611040578063b20ca92214610df3578063b478c1eb14610d39578063cb1fb49014610bee578063d449540f146109fb578063d7bb99ba14610715578063dabefbde1461051c578063dcbfee4c14610500578063dfb748aa146103e8578063ef213106146103a95763fa3fa1960361000e57346103a45760203660031901126103a4576102b7612e6c565b601854906001600160a01b038216906102d13383146130ef565b6001600160a01b031691821561036d57818314610336576001600160a01b03191682176018556000828152601160205260408120805460ff191660011790557f7f11fe0c7098e1a76afcc68f35abaa07ef156fa7d6dd2d39664812fe37348d169080a3005b60405162461bcd60e51b815260206004820152600f60248201526e20b63932b0b23c9031b932b0ba37b960891b6044820152606490fd5b60405162461bcd60e51b815260206004820152600f60248201526e496e76616c6964206164647265737360881b6044820152606490fd5b600080fd5b346103a45760203660031901126103a4576001600160a01b036103ca612e6c565b166000526012602052602060ff604060002054166040519015158152f35b346103a45760203660031901126103a457610401612e6c565b33600052601160205261041b60ff60406000205416612f8e565b61042c60ff60185460a01c1661321e565b61043a600654421015613260565b6104486007544211156132a3565b6001600160a01b03811660008181526012602052604090205490919060ff16156104c35761049a9061047f60135460055411613344565b826000526012602052604060002060ff198154169055613a7c565b33907f2ed8ced05f0bf5751c86b0f3520b9f501827ab6a1f26a190c721ae2fa8a5d482600080a3005b60405162461bcd60e51b8152602060048201526015602482015274139bc81a9bda5b881c995c5d595cdd08199bdd5b99605a1b6044820152606490fd5b346103a45760003660031901126103a457602060405160328152f35b346103a45760003660031901126103a45733600052601160205261054760ff60406000205416612f8e565b61054f613942565b60ff60085460101c16156106d05760195460a01c60ff161561066e576019546040516370a0823160e01b8152306004820152906001600160a01b0316602082602481845afa9182156106625760009261062b575b508180156105ee576105b6913390613bc5565b60006015556040519081527f378c5d0d6dec48ecf81cdeab52145598556d2a86fb096d5a344cd4d4bf06411360203392a26001600055005b60405162461bcd60e51b81526020600482015260156024820152744e6f20746f6b656e7320746f20776974686472617760581b6044820152606490fd5b90916020823d60201161065a575b8161064660209383612d04565b8101031261065757505190826105a3565b80fd5b3d9150610639565b6040513d6000823e3d90fd5b4780156106945761068f600080808085335af1610689613394565b506133c4565b6105b6565b60405162461bcd60e51b81526020600482015260146024820152734e6f2066756e647320746f20776974686472617760601b6044820152606490fd5b60405162461bcd60e51b815260206004820152601e60248201527f456d657267656e6379207769746864726177206e6f7420616c6c6f77656400006044820152606490fd5b60003660031901126103a45733600052600960205260ff60406000205416806109df575b610742906130ac565b61075360ff60185460a01c1661321e565b610761600654421015613260565b61076f6007544211156132a3565b610777613942565b61077f612f5f565b33600052601060205260406000208160005260205260406000205461099a5760065462093a80820282810462093a801483151715610984576107c76107d0916107d993612f81565b601b5490612f81565b601a5490612f81565b421161093f5760195460ff8160a01c166000146108f0573461089c5760035461080e91309033906001600160a01b0316613a33565b336000526010602052604060002081600052602052426040600020556003543360005260096020526108496002604060002001918254612f81565b90556003549061085b82601554612f81565b60155560405191825260208201524260408201527fbe446d8cd0c11cac7c17817d3cc2a18d11008ab0c439d03564c978df9780572860603392a26001600055005b60405162461bcd60e51b815260206004820152602660248201527f446f6e27742073656e642045544820666f7220746f6b656e20636f6e747269626044820152657574696f6e7360d01b6064820152608490fd5b50600354341461080e5760405162461bcd60e51b815260206004820152601d60248201527f496e636f727265637420636f6e747269627574696f6e20616d6f756e740000006044820152606490fd5b60405162461bcd60e51b815260206004820152601a60248201527f436f6e747269627574696f6e2077696e646f7720636c6f7365640000000000006044820152606490fd5b634e487b7160e01b600052601160045260246000fd5b60405162461bcd60e51b815260206004820152601f60248201527f416c726561647920636f6e7472696275746564207468697320706572696f64006044820152606490fd5b503360009081526009602052604090205460081c60ff16610739565b346103a45760803660031901126103a45760043560058110156103a457610a20612e82565b906064356001600160401b0381116103a457610a40903690600401612e98565b92909233600052600960205260ff6040600020541680610bd2575b610a64906130ac565b610a6f601d54613082565b601d8190556000908152600e6020526040812080546001600160a81b03191660ff86161760089490941b610100600160a81b0316939093178355604435600184015560028301916001600160401b038111610bbe57602095610adb82610ad58654612c79565b866131cc565b82601f8311600114610b5b57610b0893909183610b50575b50508160011b916000199060031b1c19161790565b90555b600542910155601d5490610b226040518092612dc9565b817f3263432a41f78a4701cc9465f62411ed717ade32290c084135a3dd6b29f4bf28843393a3604051908152f35b013590508780610af3565b9192601f198416858452888420935b818110610ba75750908460019594939210610b8d575b505050811b019055610b0b565b0135600019600384901b60f8161c19169055868080610b80565b919389600181928787013581550195019201610b6a565b634e487b7160e01b82526041600452602482fd5b503360009081526009602052604090205460081c60ff16610a5b565b346103a45760003660031901126103a45733600052600960205260ff6040600020541680610d1d575b610c20906130ac565b610c28613942565b33600052600a60205260ff60026040600020015416610ccc57610c4a33613b5c565b336000526009602052604060002061ff00198154169055610c6c601454613211565b60145580610cae575b6040519081524260208201527f9fe2549e029dc601c32d2b99a63bb5d8790e62936ae6dfd93013cbae2a3f2e1e60403392a26001600055005b610cba81601554612f52565b601555610cc781336139ec565b610c75565b60405162461bcd60e51b815260206004820152602360248201527f43616e6e6f74206c656176652077697468206163746976652070756e6973686d604482015262195b9d60ea1b6064820152608490fd5b503360009081526009602052604090205460081c60ff16610c17565b346103a45760203660031901126103a4576001600160a01b03610d5a612e6c565b16600052600d60205260406000206040518060208354918281520190819360005260206000209060005b818110610ddd5750505081610d9a910382612d04565b6040519182916020830190602084525180915260408301919060005b818110610dc4575050500390f35b8251845285945060209384019390920191600101610db6565b8254845260209093019260019283019201610d84565b346103a45760203660031901126103a4576004356001600160401b0381116103a457366023820112156103a4578060040135906001600160401b0382116103a4573660248360051b830101116103a457610e5860018060a01b036018541633146130ef565b600b5480611004576013548303610fc85760005b83811015610ef15760ff604060006001600160a01b03610e94600586901b8801602401613380565b168152600960205220541615610eac57600101610e6c565b60405162461bcd60e51b815260206004820152601760248201527f496e76616c6964206d656d62657220696e2071756575650000000000000000006044820152606490fd5b509190600092600160401b8311610fb4579060249183600b55808410610f60575b5001600b8352825b828110610f25578380f35b6001906020610f3384613380565b930192817f0175b7a638427703f0dbe7bb9bbf987a2551717b34e79f33b5b1008d1fa01db9015501610f1a565b610fae907f0175b7a638427703f0dbe7bb9bbf987a2551717b34e79f33b5b1008d1fa01db901847f0175b7a638427703f0dbe7bb9bbf987a2551717b34e79f33b5b1008d1fa01db9016131b5565b84610f12565b634e487b7160e01b84526041600452602484fd5b60405162461bcd60e51b8152602060048201526014602482015273092dcecc2d8d2c840e2eacaeaca40d8cadccee8d60631b6044820152606490fd5b60405162461bcd60e51b8152602060048201526014602482015273145d595d59481a5cc8185b1c9958591e481cd95d60621b6044820152606490fd5b346103a45760403660031901126103a4576001600160a01b03611061612e6c565b16600052601060205260406000206024356000526020526020604060002054604051908152f35b346103a45760403660031901126103a4576110a1612e6c565b6001600160a01b03166000908152600d60205260409020805460243591908210156103a4576020916110d291612f3a565b90549060031b1c604051908152f35b346103a45760003660031901126103a4576020601a54604051908152f35b346103a45760003660031901126103a45761112160ff60185460a01c1661321e565b61112f600654421015613260565b61113d6007544211156132a3565b33600052600960205260ff6040600020541661127b5761116260135460055411613344565b33600052600a60205260ff600260406000200154166112365760ff60085460081c1660001461122d5733600052601260205260ff604060002054166111e8573360005260126020526040600020600160ff198254161790556040514281527f2f11fedbf3e827478272cb1ff550237376aa545f3d4742ceba5ca14f195bb53a60203392a2005b60405162461bcd60e51b815260206004820152601e60248201527f4a6f696e207265717565737420616c7265616479207375626d697474656400006044820152606490fd5b61000e33613a7c565b60405162461bcd60e51b815260206004820152601a60248201527f5573657220686173206163746976652070756e6973686d656e740000000000006044820152606490fd5b60405162461bcd60e51b815260206004820152601060248201526f20b63932b0b23c90309036b2b6b132b960811b6044820152606490fd5b346103a45760003660031901126103a4576020601554604051908152f35b346103a45760403660031901126103a4576112ea612e82565b600435600052600f60205260406000209060018060a01b0316600052602052602060ff604060002054166040519015158152f35b346103a45760003660031901126103a45733600052601160205261134960ff60406000205416612f8e565b60015460ff811661138b5760019060ff1916176001557f62e78cea01bee320cd4e420270b5ea74000d11b0c9f74754ebdbfc544b05a2586020604051338152a1005b63d93c066560e01b60005260046000fd5b346103a45760203660031901126103a4576001600160a01b036113bd612e6c565b1660005260096020526040600020604051906113d882612ce9565b61145760a082549260ff80851615159485875260081c161515948560208201526001820154806040830152600283015491826060820152600460038501549485608084015201549485910152604051968796879260a094919796959260c085019815158552151560208501526040840152606083015260808201520152565b0390f35b346103a45760203660031901126103a4576001600160a01b0361147c612e6c565b16600052600a602052604060002060ff81541661145761149e60018401612d25565b9260ff60028201541690600460038201549101549160405195869586612ed2565b346103a45760003660031901126103a4576020601754604051908152f35b346103a45760203660031901126103a457600435600052600c60205260406000206040519061150b82612cce565b80546001600160a01b0316808352600182015460208085018290526002840154604080870182905260039095015460ff16151560609687018190528551948552918401929092529282015291820152608090f35b346103a45760203660031901126103a457611578612e6c565b61158d60018060a01b036018541633146130ef565b6001600160a01b031660008181526011602052604090205460ff166115ec578060005260116020526040600020600160ff198254161790557f44d6d25963f097ad14f29f06854a01f575648a1ef82f30e562ccd3889717e339600080a2005b60405162461bcd60e51b815260206004820152601060248201526f20b63932b0b23c9030b71030b236b4b760811b6044820152606490fd5b60003660031901126103a457611638613942565b33600052600a6020526040600020600281019061165860ff835416613301565b60ff81541660048110156117c45760020361178757600401549060195460ff8160a01c1660001461174257346116fd576116a0908390309033906001600160a01b0316613a33565b60ff198154169055336000526009602052600060046040822001556116c781601554612f81565b6015556040519081527fea01a5db185fb713c48073ed217455c9e653281d3c5ba9509467be58f467706d60203392a26001600055005b60405162461bcd60e51b815260206004820152601e60248201527f446f6e27742073656e642045544820666f7220746f6b656e2066696e657300006044820152606490fd5b503482146116a05760405162461bcd60e51b8152602060048201526015602482015274125b98dbdc9c9958dd08199a5b9948185b5bdd5b9d605a1b6044820152606490fd5b60405162461bcd60e51b8152602060048201526015602482015274139bdd081848199a5b99481c1d5b9a5cda1b595b9d605a1b6044820152606490fd5b634e487b7160e01b600052602160045260246000fd5b346103a45760003660031901126103a457602060405162093a808152f35b346103a45760003660031901126103a45733600052601160205261182360ff60406000205416612f8e565b61183460ff60185460a01c1661321e565b611842600654421015613260565b6118506007544211156132a3565b611858613942565b611860612f5f565b6000818152600c60205260409020546001600160a01b0316611b8057600b549060005b828110611ab657506118a16017549261189c8484612f52565b6132e1565b916118ab83612f09565b60018060a01b0391549060031b1c1690600093828552600960205260ff604086205460081c16158015611a9d575b611a2e575b5050600354601454908181029181830414901517156109845761190381601554612f52565b6015556040519361191385612cce565b61199060018060a01b038416958681526003602082019385855260408301428152606084019115159586835289600052600c60205260406000209460018060a01b039051166bffffffffffffffffffffffff60a01b86541617855551600185015551600284015551151591019060ff801983541691151516179055565b84600052600d602052604060002093845494600160401b861015611a1857836060956119e688611a009460017fc1fe199bd1ec460de9ba76650239b5f5da0d631f4d02bdc57fb26925f8d6b7cf9b018155612f3a565b81549060031b9086821b91600019901b19161790556139ec565b60405192835260208301526040820152a26001600055005b634e487b7160e01b600052604160045260246000fd5b909350611a499150611a41600194613082565b601755613964565b6001600160a01b03811615611a5f5783806118de565b60405162461bcd60e51b81526020600482015260166024820152754e6f20656c696769626c6520726563697069656e747360501b6044820152606490fd5b50828552600a60205260ff6002604087200154166118d9565b611abf81612f09565b905460039190911b1c6001600160a01b031660008181526009602052604090205460081c60ff1680611b64575b611afa575b50600101611883565b600052601060205260406000208260005260205260406000205415611b1f5783611af1565b60405162461bcd60e51b815260206004820152601e60248201527f4d656d62657220686173206e6f7420636f6e74726962757465642079657400006044820152606490fd5b5080600052600a60205260ff6002604060002001541615611aec565b60405162461bcd60e51b815260206004820152601d60248201527f416c72656164792070726f636573736564207468697320706572696f640000006044820152606490fd5b346103a45760003660031901126103a4576020601454604051908152f35b346103a45760003660031901126103a457602060ff600154166040519015158152f35b346103a45760003660031901126103a457604051600254816000611c2983612c79565b8083529260018116908115611de05750600114611d80575b611c4d92500382612d04565b60035490604051916000600454611c6381612c79565b8086529060018116908115611d5e5750600114611d05575b5083611c8e611cb69560ff930382612d04565b60055492600654611cc96007549260085494604051998a996101208b526101208b0190612dd6565b9160208a015288820360408a0152612dd6565b946060870152608086015260a0850152611ce860c08501838316612ec5565b818160081c16151560e085015260101c1615156101008301520390f35b6004600090815291507f8a35acfbc15ff81a39ae7d344fd709f28e8600b4aa8c65c6b64bfe7fe36bd19b5b818310611d44575050830160200183611c7b565b6001816020929493945483858a0101520191019190611d30565b60ff191660208088019190915291151560051b86019091019150849050611c7b565b506002600090815290917f405787fa12a823e0f2b7631cc41b3ba8828b3321ca811111fa75cd3aa3bb5ace5b818310611dc4575050906020611c4d92820101611c41565b6020919350806001915483858801015201910190918392611dac565b60209250611c4d94915060ff191682840152151560051b820101611c41565b346103a45760203660031901126103a4576004356000908152600c602090815260409182902080546001820154600283015460039093015485516001600160a01b039093168352938201529283015260ff1615156060820152608090f35b346103a45760003660031901126103a4576019546040516001600160a01b039091168152602090f35b346103a45760203660031901126103a45761000e611ea2612e6c565b336000526011602052611ebc60ff60406000205416612f8e565b613874565b346103a45760003660031901126103a457602060405160038152f35b346103a45760203660031901126103a4576001600160a01b03611efe612e6c565b166000526011602052602060ff604060002054166040519015158152f35b346103a45760203660031901126103a457600435600b548110156103a457611f45602091612f09565b905460405160039290921b1c6001600160a01b03168152f35b346103a45760003660031901126103a457336000526011602052611f8960ff60406000205416612f8e565b60015460ff811615611fc85760ff19166001557f5db9ee0a495bf2e6ff9c91a7834c1ba4fdd244a5e8aa4e537bd38aeae4b073aa6020604051338152a1005b638dfc202b60e01b60005260046000fd5b346103a45760203660031901126103a457600435600052600e6020526040600020805461145760018301549260038101546004820154600583015491612029600260ff6006870154169501612d25565b604051978897600881901c6001600160a01b03169060ff1689612e17565b346103a45760003660031901126103a4576020601c54604051908152f35b346103a45760203660031901126103a4576001600160a01b03612086612e6c565b16600052600a60205260406000206040516120a081612cb3565b6120ae60ff835416826131a9565b6120ba60018301612d25565b6020820190815260ff6002840154169260408301931515845260046003820154916060850192835201549260808101938452519260048410156117c457611457925194511515915190519160405195869586612ed2565b346103a45760003660031901126103a4576020604051662386f26fc100008152f35b346103a45760603660031901126103a45761214c612e6c565b6024359060048210156103a4576044356001600160401b0381116103a457612178903690600401612e98565b909133600052601160205261219460ff60406000205416612f8e565b6001600160a01b031660008181526009602052604090205490929060ff1615612462576000841561241d576002851461240f575b604051946121d586612cb3565b6121df81876131a9565b6121e884613091565b956121f66040519788612d04565b84875236858501116103a4578484602089013760006020868901015260208101968752604081016001815260608201428152608083019185835288600052600a602052604060002093519960048b10156117c45760009a60ff801987541691161785556001850190518051906001600160401b0382116123fb576122848261227e8554612c79565b856131cc565b6020908d601f8411600114612373578c9b9995600080516020613c5c8339815191529d99956122d88660049760809f9c9761232b9c976122f397926123685750508160011b916000199060031b1c19161790565b90555b511515600286019060ff801983541691151516179055565b5160038401555191015560038114612340575b6040519687956060875281606088015287870137898685870101526020850190612ec5565b6040830152601f01601f19168101030190a280f35b888a52600960205260408a2061ff00198154169055612360601454613211565b601455612306565b015190503880610af3565b9190601f198416858452828420935b8181106123e35750958d9c9a96956001600080516020613c5c8339815191529f9b979660809e9b9661232b9b966122f3968360049b106123ca575b505050811b0190556122db565b015160001960f88460031b161c191690553880806123bd565b92936020600181928786015181550195019301612382565b634e487b7160e01b8d52604160045260248dfd5b50662386f26fc100006121c8565b60405162461bcd60e51b815260206004820152601960248201527f496e76616c69642070756e6973686d656e7420616374696f6e000000000000006044820152606490fd5b60405162461bcd60e51b81526020600482015260146024820152732ab9b2b91034b9903737ba10309036b2b6b132b960611b6044820152606490fd5b346103a45760003660031901126103a457602060ff60185460a01c166040519015158152f35b346103a45760003660031901126103a457602060ff60195460a01c166040519015158152f35b346103a45760003660031901126103a4576020601b54604051908152f35b346103a45760203660031901126103a457612521612e6c565b6018546001600160a01b03169061254f9061253d3384146130ef565b6001600160a01b03169182141561312a565b80600052601160205261256960ff6040600020541661316e565b806000526011602052604060002060ff1981541690557fa3b62bc36326052d97ea62d63c3d60308ed4c3ea8ac079dd8499f1e9c4f80c0f600080a2005b346103a45760403660031901126103a45760043560243580151581036103a45733600052600960205260ff60406000205416806126f5575b6125e7906130ac565b81600052600e60205260406000209161260760ff60068501541615612fc6565b6126186005840154601c5490612f81565b42116126bb576000818152600f6020908152604080832033845290915290205460ff16612686576000908152600f602090815260408083203384529091529020805460ff1916600117905515612679576003016126758154613082565b9055005b6004016126758154613082565b60405162461bcd60e51b815260206004820152600d60248201526c105b1c9958591e481d9bdd1959609a1b6044820152606490fd5b60405162461bcd60e51b81526020600482015260126024820152712b37ba34b733903832b934b7b21037bb32b960711b6044820152606490fd5b503360009081526009602052604090205460081c60ff166125de565b346103a45760203660031901126103a45761272a612e6c565b33600052601160205261274460ff60406000205416612f8e565b6001600160a01b03811660008181526009602052604090205460ff16806128ae575b1561286957612773612f5f565b8061277a57005b60001981019081116109845760065462093a80820282810462093a801483151715610984576107c76107d0916127af93612f81565b42119081612845575b506127bf57005b80600052600960205260036040600020016127da8154613082565b905560005260096020526003806040600020015410156127f657005b60405161000e91612808606083612d04565b602582527f4578636565646564206d6178696d756d206d697373656420636f6e747269627560208301526474696f6e7360d81b6040830152613639565b905081600052601060205260406000209060005260205260406000205415836127b8565b60405162461bcd60e51b815260206004820152601960248201527f55736572206973206e6f7420616374697665206d656d626572000000000000006044820152606490fd5b5080600052600960205260ff60406000205460081c16612766565b346103a45760003660031901126103a45760206128e4613005565b604051908152f35b346103a45760003660031901126103a4576020601354604051908152f35b346103a45760203660031901126103a45760043533600052601160205261293860ff60406000205416612f8e565b80600052600e6020526040600020600681019061295960ff83541615612fc6565b61296a6005820154601c5490612f81565b421115612a785760038101546004820154906129868282612f81565b6014546032810290808204603214901517156109845760638101809111610984576064900411612a335711156129fa577f948f4a9cd986f1118c3fbd459f7a22b23c0693e1ca3ef06a6a8be5aa7d39cc03916129e3602092613402565b815460ff19166001179091556040519015158152a2005b60405162461bcd60e51b8152602060048201526011602482015270141c9bdc1bdcd85b081c995a9958dd1959607a1b6044820152606490fd5b60405162461bcd60e51b815260206004820152601a60248201527f496e73756666696369656e742070617274696369706174696f6e0000000000006044820152606490fd5b60405162461bcd60e51b8152602060048201526013602482015272566f74696e67207374696c6c2061637469766560681b6044820152606490fd5b346103a45760003660031901126103a457612acc612f5f565b60065462093a8082029180830462093a801490151715610984576107d06107c7602093612af893612f81565b421115604051908152f35b346103a45760003660031901126103a4576020601d54604051908152f35b346103a45760203660031901126103a4576001600160a01b03612b42612e6c565b166000526009602052604060002080546114576001830154926002810154906004600382015491015491604051958560ff80899860081c169116879260a094919796959260c085019815158552151560208501526040840152606083015260808201520152565b346103a45760003660031901126103a45760206128e4612f5f565b346103a45760003660031901126103a4576020601654604051908152f35b346103a45760003660031901126103a4576018546040516001600160a01b039091168152602090f35b346103a45760203660031901126103a457600435600052600e60205260406000208054611457600183015492612c4360028201612d25565b90600381015460048201549060ff60066005850154940154169360405197889760ff60018060a01b038260081c16911689612e17565b90600182811c92168015612ca9575b6020831014612c9357565b634e487b7160e01b600052602260045260246000fd5b91607f1691612c88565b60a081019081106001600160401b03821117611a1857604052565b608081019081106001600160401b03821117611a1857604052565b60c081019081106001600160401b03821117611a1857604052565b90601f801991011681019081106001600160401b03821117611a1857604052565b9060405191826000825492612d3984612c79565b8084529360018116908115612da75750600114612d60575b50612d5e92500383612d04565b565b90506000929192526020600020906000915b818310612d8b575050906020612d5e9282010138612d51565b6020919350806001915483858901015201910190918492612d72565b905060209250612d5e94915060ff191682840152151560051b82010138612d51565b9060058210156117c45752565b919082519283825260005b848110612e02575050826000602080949584010152601f8019910116010190565b80602080928401015182828601015201612de1565b96939092612e5592612e308960e099969c9b989c612dc9565b6001600160a01b03166020890152604088015261010060608801819052870190612dd6565b96608086015260a085015260c08401521515910152565b600435906001600160a01b03821682036103a457565b602435906001600160a01b03821682036103a457565b9181601f840112156103a4578235916001600160401b0383116103a457602083818601950101116103a457565b9060048210156117c45752565b91612ef890612ee78460809699989794612ec5565b60a0602085015260a0840190612dd6565b951515604083015260608201520152565b600b54811015612f2457600b60005260206000200190600090565b634e487b7160e01b600052603260045260246000fd5b8054821015612f245760005260206000200190600090565b9190820391821161098457565b600654804210612f7b57612f7762093a809142612f52565b0490565b50600090565b9190820180921161098457565b15612f9557565b60405162461bcd60e51b81526020600482015260096024820152682737ba1030b236b4b760b91b6044820152606490fd5b15612fcd57565b60405162461bcd60e51b815260206004820152601060248201526f105b1c9958591e48195e1958dd5d195960821b6044820152606490fd5b60195460ff8160a01c1661301857504790565b6040516370a0823160e01b815230600482015290602090829060249082906001600160a01b03165afa90811561066257600091613053575090565b90506020813d60201161307a575b8161306e60209383612d04565b810103126103a4575190565b3d9150613061565b60001981146109845760010190565b6001600160401b038111611a1857601f01601f191660200190565b156130b357565b60405162461bcd60e51b81526020600482015260146024820152732737ba1030b71030b1ba34bb329036b2b6b132b960611b6044820152606490fd5b156130f657565b60405162461bcd60e51b815260206004820152600c60248201526b27b7363c9031b932b0ba37b960a11b6044820152606490fd5b1561313157565b60405162461bcd60e51b815260206004820152601560248201527421b0b73737ba103932b6b7bb329031b932b0ba37b960591b6044820152606490fd5b1561317557565b60405162461bcd60e51b815260206004820152600c60248201526b2737ba1030b71030b236b4b760a11b6044820152606490fd5b60048210156117c45752565b8181106131c0575050565b600081556001016131b5565b9190601f81116131db57505050565b612d5e926000526020600020906020601f840160051c83019310613207575b601f0160051c01906131b5565b90915081906131fa565b8015610984576000190190565b1561322557565b60405162461bcd60e51b815260206004820152601360248201527247726f7570206973206e6f742061637469766560681b6044820152606490fd5b1561326757565b60405162461bcd60e51b815260206004820152601460248201527311dc9bdd5c081a185cdb89dd081cdd185c9d195960621b6044820152606490fd5b156132aa57565b60405162461bcd60e51b815260206004820152600f60248201526e11dc9bdd5c081a185cc8195b991959608a1b6044820152606490fd5b81156132eb570690565b634e487b7160e01b600052601260045260246000fd5b1561330857565b60405162461bcd60e51b8152602060048201526014602482015273139bc81858dd1a5d99481c1d5b9a5cda1b595b9d60621b6044820152606490fd5b1561334b57565b60405162461bcd60e51b815260206004820152600d60248201526c11dc9bdd5c081a5cc8199d5b1b609a1b6044820152606490fd5b356001600160a01b03811681036103a45790565b3d156133bf573d906133a582613091565b916133b36040519384612d04565b82523d6000602084013e565b606090565b156133cb57565b60405162461bcd60e51b815260206004820152600f60248201526e151c985b9cd9995c8819985a5b1959608a1b6044820152606490fd5b805460ff81169060058210156117c45760018203613437575050546134329060081c6001600160a01b0316613874565b600190565b6000600283036134f0575050815460081c6001600160a01b031660008181526011602052604090205490915060ff166134bb576000908152601160205260408120805460ff19166001179055905460081c6001600160a01b0316907f44d6d25963f097ad14f29f06854a01f575648a1ef82f30e562ccd3889717e3399080a2600190565b60405162461bcd60e51b815260206004820152600d60248201526c20b63932b0b23c9030b236b4b760991b6044820152606490fd5b506003820361358657505080546018546001600160a01b0360089290921c82169161351e911682141561312a565b80600052601160205261353860ff6040600020541661316e565b6000908152601160205260408120805460ff19169055905460081c6001600160a01b0316907fa3b62bc36326052d97ea62d63c3d60308ed4c3ea8ac079dd8499f1e9c4f80c0f9080a2600190565b6000925090600414613599575050600090565b60081c6001600160a01b03168082526009602052604082205490919060ff1680613620575b156135ea57604091815260096020522061ff001981541690556135e2601454613211565b601455600190565b60405162461bcd60e51b815260206004820152600e60248201526d24b73b30b634b21036b2b6b132b960911b6044820152606490fd5b50818152600960205260ff604082205460081c166135be565b9060ff6008541660048110156117c457801561386f5760006002820361384f5750662386f26fc1000060018060a01b03841680600052600960205260046040600020016136868154613082565b905580600052600960205260036004604060002001541015613820575b505b6040516136b181612cb3565b6136bb83826131a9565b602081019484865260408201600181526060830190428252608084019285845260018060a01b03169788600052600a6020526040600020945160048110156117c45760009060ff80198854169116178655600186019151908151916001600160401b038311610bbe5761373283610ad58654612c79565b602091601f84116001146137b857936122d8846137a39c9a989561378295600080516020613c5c8339815191529f9d9b989560049a96926123685750508160011b916000199060031b1c19161790565b516003840155519101556137ae604051948594606086526060860190612dd6565b926020850190612ec5565b60408301520390a2565b9190601f198416858452828420935b8181106138085750846137829460049894600080516020613c5c8339815191529f9d9b98946137a39f9d9b98600195106123ca57505050811b0190556122db565b929360206001819287860151815501950193016137c7565b91506003916000526009602052604060002061ff00198154169055613846601454613211565b601455386136a3565b6001600160a01b03841681526009602052604081206004018190556136a5565b505050565b6001600160a01b03166000818152600a602052604090206002015461389b9060ff16613301565b80600052600a60205260ff6040600020541660048110156117c457600314613914575b6000818152600a60209081526040808320600201805460ff1916905560099091528120600381018290556004018190557fe392f41381026e9d0df0330d30d754dcd2d3e5b50efd896ebf8ec1499f8497159080a2565b806000526009602052604060002061010061ff001982541617905561393a601454613082565b6014556138be565b600260005414613953576002600055565b633ee5aeb560e01b60005260046000fd5b600b5460015b81811061397957505050600090565b61398f61398a8361189c8487612f81565b612f09565b905460039190911b1c6001600160a01b031660008181526009602052604090205460081c60ff16806139d0575b6139c9575060010161396a565b9250505090565b5080600052600a60205260ff60026040600020015416156139bc565b9060ff60195460a01c16600014613a1357601954612d5e92906001600160a01b0316613bc5565b612d5e916000918291829182916001600160a01b03165af1610689613394565b6040516323b872dd60e01b60208201526001600160a01b039283166024820152929091166044830152606480830193909352918152612d5e91613a77608483612d04565b613c00565b604051613a8881612ce9565b60018152600460208201926001845260408301428152606084016000815260808501916000835260a08601936000855260018060a01b031696876000526009602052613ae8604060002097511515889060ff801983541691151516179055565b51865461ff00191690151560081b61ff001617865551600186015551600285015551600384015551910155601354613b1f90613082565b601355613b2d601454613082565b6014557f7f3b9effe05cfb4f31f854004de03199fd03fe56bf38a48b2aa9a9f4402d6e236020604051428152a2565b6001600160a01b03166000818152600d6020526040902054612f7b5760009081526009602052604090206002810154600390910154662386f26fc10000808202918015908304909114171561098457808211613bb9575050600090565b613bc291612f52565b90565b60405163a9059cbb60e01b60208201526001600160a01b039092166024830152604480830193909352918152612d5e91613a77606483612d04565b906000602091828151910182855af115610662576000513d613c5257506001600160a01b0381163b155b613c315750565b635274afe760e01b60009081526001600160a01b0391909116600452602490fd5b60011415613c2a56fe92ae28d1fd76d6083fe6c8a95100bb3b117195e864014e4aa144d26fa47d0c17a264697066735822122041af1d35f9c537917efbfea37bf467ea7edeb7660cf934d1de60ea39e0c663e864736f6c634300081c0033a2646970667358221220755b1b59079339791985450849d08faa3fca4638498b461fe5e9ce905789846f64736f6c634300081c0033","opcodes":"PUSH1 0x80 CALLVALUE PUSH1 0xBC JUMPI PUSH1 0x1F PUSH2 0x526B CODESIZE DUP2 SWAP1 SUB SWAP2 DUP3 ADD PUSH1 0x1F NOT AND DUP4 ADD SWAP2 PUSH1 0x1 PUSH1 0x1 PUSH1 0x40 SHL SUB DUP4 GT DUP5 DUP5 LT OR PUSH1 0xC1 JUMPI DUP1 DUP5 SWAP3 PUSH1 0x20 SWAP5 PUSH1 0x40 MSTORE DUP4 CODECOPY DUP2 ADD SUB SLT PUSH1 0xBC JUMPI MLOAD PUSH1 0x1 PUSH1 0x1 PUSH1 0xA0 SHL SUB DUP2 AND SWAP1 DUP2 SWAP1 SUB PUSH1 0xBC JUMPI DUP1 ISZERO PUSH1 0xA6 JUMPI PUSH1 0x0 DUP1 SLOAD PUSH1 0x1 PUSH1 0x1 PUSH1 0xA0 SHL SUB NOT DUP2 AND DUP4 OR DUP3 SSTORE PUSH1 0x40 MLOAD SWAP3 SWAP2 PUSH1 0x1 PUSH1 0x1 PUSH1 0xA0 SHL SUB SWAP1 SWAP2 AND SWAP1 PUSH32 0x8BE0079C531659141344CD1FD0A4F28419497F9722A3DAAFE3B4186F6B6457E0 SWAP1 DUP1 LOG3 PUSH2 0x5193 SWAP1 DUP2 PUSH2 0xD8 DUP3 CODECOPY RETURN JUMPDEST PUSH4 0x1E4FBDF7 PUSH1 0xE0 SHL PUSH1 0x0 MSTORE PUSH1 0x0 PUSH1 0x4 MSTORE PUSH1 0x24 PUSH1 0x0 REVERT JUMPDEST PUSH1 0x0 DUP1 REVERT JUMPDEST PUSH4 0x4E487B71 PUSH1 0xE0 SHL PUSH1 0x0 MSTORE PUSH1 0x41 PUSH1 0x4 MSTORE PUSH1 0x24 PUSH1 0x0 REVERT INVALID PUSH1 0x80 DUP1 PUSH1 0x40 MSTORE PUSH1 0x4 CALLDATASIZE LT ISZERO PUSH2 0x13 JUMPI PUSH1 0x0 DUP1 REVERT JUMPDEST PUSH1 0x0 CALLDATALOAD PUSH1 0xE0 SHR SWAP1 DUP2 PUSH4 0xC49C0A2 EQ PUSH2 0xBEC JUMPI POP DUP1 PUSH4 0x1B89C1AD EQ PUSH2 0xBC8 JUMPI DUP1 PUSH4 0x21CD3CAE EQ PUSH2 0xB48 JUMPI DUP1 PUSH4 0x3F4BA83A EQ PUSH2 0xAD7 JUMPI DUP1 PUSH4 0x4D88D1AD EQ PUSH2 0xA47 JUMPI DUP1 PUSH4 0x5C975ABB EQ PUSH2 0xA21 JUMPI DUP1 PUSH4 0x715018A6 EQ PUSH2 0x9C8 JUMPI DUP1 PUSH4 0x73C7125B EQ PUSH2 0x38E JUMPI DUP1 PUSH4 0x8456CB59 EQ PUSH2 0x32C JUMPI DUP1 PUSH4 0x8DA5CB5B EQ PUSH2 0x303 JUMPI DUP1 PUSH4 0x9C6F5374 EQ PUSH2 0x2E7 JUMPI DUP1 PUSH4 0xC2E70BB6 EQ PUSH2 0x2A8 JUMPI DUP1 PUSH4 0xD24924FE EQ PUSH2 0x28A JUMPI DUP1 PUSH4 0xD8802C46 EQ PUSH2 0x227 JUMPI DUP1 PUSH4 0xD9A67220 EQ PUSH2 0x20B JUMPI DUP1 PUSH4 0xEA0E35B1 EQ PUSH2 0x1EF JUMPI DUP1 PUSH4 0xF2FDE38B EQ PUSH2 0x166 JUMPI PUSH4 0xFD16C1D3 EQ PUSH2 0xE5 JUMPI PUSH1 0x0 DUP1 REVERT JUMPDEST CALLVALUE PUSH2 0x161 JUMPI PUSH1 0x20 CALLDATASIZE PUSH1 0x3 NOT ADD SLT PUSH2 0x161 JUMPI PUSH1 0x4 CALLDATALOAD PUSH1 0x3 SLOAD DUP2 LT ISZERO PUSH2 0x161 JUMPI PUSH1 0x0 SWAP1 PUSH1 0x3 SLOAD DUP2 LT ISZERO PUSH2 0x14D JUMPI PUSH1 0x3 SWAP1 SWAP2 MSTORE PUSH32 0xC2575A0E9E593C00F959F8C92F12DB2869C3395A3B0502D05E2516446F71F85B ADD SLOAD PUSH1 0x40 MLOAD PUSH1 0x1 PUSH1 0x1 PUSH1 0xA0 SHL SUB SWAP1 SWAP2 AND DUP2 MSTORE PUSH1 0x20 SWAP1 RETURN JUMPDEST PUSH4 0x4E487B71 PUSH1 0xE0 SHL DUP3 MSTORE PUSH1 0x32 PUSH1 0x4 MSTORE PUSH1 0x24 DUP3 REVERT JUMPDEST PUSH1 0x0 DUP1 REVERT JUMPDEST CALLVALUE PUSH2 0x161 JUMPI PUSH1 0x20 CALLDATASIZE PUSH1 0x3 NOT ADD SLT PUSH2 0x161 JUMPI PUSH2 0x17F PUSH2 0xC4F JUMP JUMPDEST PUSH2 0x187 PUSH2 0xD6E JUMP JUMPDEST PUSH1 0x1 PUSH1 0x1 PUSH1 0xA0 SHL SUB AND DUP1 ISZERO PUSH2 0x1D9 JUMPI PUSH1 0x0 DUP1 SLOAD PUSH1 0x1 PUSH1 0x1 PUSH1 0xA0 SHL SUB NOT DUP2 AND DUP4 OR DUP3 SSTORE PUSH1 0x1 PUSH1 0x1 PUSH1 0xA0 SHL SUB AND SWAP1 PUSH32 0x8BE0079C531659141344CD1FD0A4F28419497F9722A3DAAFE3B4186F6B6457E0 SWAP1 DUP1 LOG3 STOP JUMPDEST PUSH4 0x1E4FBDF7 PUSH1 0xE0 SHL PUSH1 0x0 MSTORE PUSH1 0x0 PUSH1 0x4 MSTORE PUSH1 0x24 PUSH1 0x0 REVERT JUMPDEST CALLVALUE PUSH2 0x161 JUMPI PUSH1 0x0 CALLDATASIZE PUSH1 0x3 NOT ADD SLT PUSH2 0x161 JUMPI PUSH1 0x20 PUSH1 0x40 MLOAD PUSH1 0x64 DUP2 MSTORE RETURN JUMPDEST CALLVALUE PUSH2 0x161 JUMPI PUSH1 0x0 CALLDATASIZE PUSH1 0x3 NOT ADD SLT PUSH2 0x161 JUMPI PUSH1 0x20 PUSH1 0x40 MLOAD PUSH1 0x3 DUP2 MSTORE RETURN JUMPDEST CALLVALUE PUSH2 0x161 JUMPI PUSH1 0x40 CALLDATASIZE PUSH1 0x3 NOT ADD SLT PUSH2 0x161 JUMPI PUSH2 0x240 PUSH2 0xC4F JUMP JUMPDEST PUSH1 0x1 PUSH1 0x1 PUSH1 0xA0 SHL SUB AND PUSH1 0x0 SWAP1 DUP2 MSTORE PUSH1 0x1 PUSH1 0x20 MSTORE PUSH1 0x40 SWAP1 KECCAK256 DUP1 SLOAD PUSH1 0x24 CALLDATALOAD SWAP2 SWAP1 DUP3 LT ISZERO PUSH2 0x161 JUMPI PUSH1 0x20 SWAP2 PUSH2 0x271 SWAP2 PUSH2 0xCFF JUMP JUMPDEST SWAP1 SLOAD PUSH1 0x40 MLOAD PUSH1 0x3 SWAP3 SWAP1 SWAP3 SHL SHR PUSH1 0x1 PUSH1 0x1 PUSH1 0xA0 SHL SUB AND DUP2 MSTORE RETURN JUMPDEST CALLVALUE PUSH2 0x161 JUMPI PUSH1 0x0 CALLDATASIZE PUSH1 0x3 NOT ADD SLT PUSH2 0x161 JUMPI PUSH1 0x20 PUSH1 0x4 SLOAD PUSH1 0x40 MLOAD SWAP1 DUP2 MSTORE RETURN JUMPDEST CALLVALUE PUSH2 0x161 JUMPI PUSH1 0x20 CALLDATASIZE PUSH1 0x3 NOT ADD SLT PUSH2 0x161 JUMPI PUSH1 0x1 PUSH1 0x1 PUSH1 0xA0 SHL SUB PUSH2 0x2C9 PUSH2 0xC4F JUMP JUMPDEST AND PUSH1 0x0 MSTORE PUSH1 0x2 PUSH1 0x20 MSTORE PUSH1 0x20 PUSH1 0xFF PUSH1 0x40 PUSH1 0x0 KECCAK256 SLOAD AND PUSH1 0x40 MLOAD SWAP1 ISZERO ISZERO DUP2 MSTORE RETURN JUMPDEST CALLVALUE PUSH2 0x161 JUMPI PUSH1 0x0 CALLDATASIZE PUSH1 0x3 NOT ADD SLT PUSH2 0x161 JUMPI PUSH1 0x20 PUSH1 0x40 MLOAD PUSH1 0xA DUP2 MSTORE RETURN JUMPDEST CALLVALUE PUSH2 0x161 JUMPI PUSH1 0x0 CALLDATASIZE PUSH1 0x3 NOT ADD SLT PUSH2 0x161 JUMPI PUSH1 0x0 SLOAD PUSH1 0x40 MLOAD PUSH1 0x1 PUSH1 0x1 PUSH1 0xA0 SHL SUB SWAP1 SWAP2 AND DUP2 MSTORE PUSH1 0x20 SWAP1 RETURN JUMPDEST CALLVALUE PUSH2 0x161 JUMPI PUSH1 0x0 CALLDATASIZE PUSH1 0x3 NOT ADD SLT PUSH2 0x161 JUMPI PUSH2 0x345 PUSH2 0xD6E JUMP JUMPDEST PUSH2 0x34D PUSH2 0xD97 JUMP JUMPDEST PUSH1 0x0 DUP1 SLOAD PUSH1 0xFF PUSH1 0xA0 SHL NOT AND PUSH1 0x1 PUSH1 0xA0 SHL OR SWAP1 SSTORE PUSH1 0x40 MLOAD CALLER DUP2 MSTORE PUSH32 0x62E78CEA01BEE320CD4E420270B5EA74000D11B0C9F74754EBDBFC544B05A258 SWAP1 PUSH1 0x20 SWAP1 LOG1 STOP JUMPDEST CALLVALUE PUSH2 0x161 JUMPI PUSH1 0x20 CALLDATASIZE PUSH1 0x3 NOT ADD SLT PUSH2 0x161 JUMPI PUSH1 0x4 CALLDATALOAD PUSH8 0xFFFFFFFFFFFFFFFF DUP2 GT PUSH2 0x161 JUMPI PUSH2 0x1A0 PUSH1 0x3 NOT DUP3 CALLDATASIZE SUB ADD SLT PUSH2 0x161 JUMPI PUSH1 0x40 MLOAD PUSH2 0x1A0 DUP2 ADD DUP2 DUP2 LT PUSH8 0xFFFFFFFFFFFFFFFF DUP3 GT OR PUSH2 0x781 JUMPI PUSH1 0x40 MSTORE DUP2 PUSH1 0x4 ADD CALLDATALOAD PUSH8 0xFFFFFFFFFFFFFFFF DUP2 GT PUSH2 0x161 JUMPI PUSH2 0x402 SWAP1 PUSH1 0x4 CALLDATASIZE SWAP2 DUP6 ADD ADD PUSH2 0xC9B JUMP JUMPDEST DUP2 MSTORE PUSH1 0x20 DUP2 ADD PUSH1 0x24 DUP4 ADD CALLDATALOAD DUP2 MSTORE PUSH1 0x40 DUP3 ADD SWAP1 PUSH1 0x44 DUP5 ADD CALLDATALOAD DUP3 MSTORE PUSH1 0x60 DUP4 ADD PUSH1 0x64 DUP6 ADD CALLDATALOAD DUP2 MSTORE PUSH1 0x80 DUP5 ADD SWAP1 PUSH1 0x84 DUP7 ADD CALLDATALOAD DUP3 MSTORE PUSH1 0xA4 DUP7 ADD CALLDATALOAD PUSH8 0xFFFFFFFFFFFFFFFF DUP2 GT PUSH2 0x161 JUMPI PUSH2 0x456 SWAP1 PUSH1 0x4 CALLDATASIZE SWAP2 DUP10 ADD ADD PUSH2 0xC9B JUMP JUMPDEST SWAP2 PUSH1 0xA0 DUP7 ADD SWAP3 DUP4 MSTORE PUSH1 0xC4 DUP8 ADD CALLDATALOAD SWAP3 PUSH1 0x4 DUP5 LT ISZERO PUSH2 0x161 JUMPI PUSH1 0xC0 DUP8 ADD SWAP4 DUP5 MSTORE PUSH2 0x480 PUSH1 0xE4 DUP10 ADD PUSH2 0xCF2 JUMP JUMPDEST SWAP1 PUSH1 0xE0 DUP9 ADD SWAP2 DUP3 MSTORE PUSH2 0x495 PUSH2 0x104 DUP11 ADD PUSH2 0xCF2 JUMP JUMPDEST SWAP3 PUSH2 0x100 DUP10 ADD SWAP4 DUP5 MSTORE PUSH2 0x4AB PUSH2 0x124 DUP12 ADD PUSH2 0xC65 JUMP JUMPDEST PUSH2 0x120 DUP11 ADD MSTORE PUSH2 0x4BE PUSH2 0x144 DUP12 ADD PUSH2 0xC65 JUMP JUMPDEST SWAP10 PUSH2 0x140 DUP11 ADD SWAP11 DUP12 MSTORE PUSH2 0x160 DUP11 ADD PUSH2 0x164 DUP3 ADD CALLDATALOAD DUP2 MSTORE PUSH2 0x184 PUSH2 0x180 DUP13 ADD SWAP3 ADD CALLDATALOAD DUP3 MSTORE PUSH2 0x4E9 PUSH2 0xD97 JUMP JUMPDEST DUP11 MLOAD MLOAD DUP1 ISZERO ISZERO SWAP1 DUP2 PUSH2 0x9BC JUMPI JUMPDEST POP ISZERO PUSH2 0x981 JUMPI DUP9 MLOAD PUSH7 0x38D7EA4C68000 DUP2 LT ISZERO SWAP1 DUP2 PUSH2 0x96D JUMPI JUMPDEST POP ISZERO PUSH2 0x928 JUMPI DUP10 MLOAD PUSH1 0x3 DUP2 LT ISZERO SWAP1 DUP2 PUSH2 0x91C JUMPI JUMPDEST POP ISZERO PUSH2 0x8E1 JUMPI DUP7 MLOAD TIMESTAMP LT ISZERO PUSH2 0x89C JUMPI DUP3 MLOAD DUP8 MLOAD LT ISZERO PUSH2 0x84D JUMPI DUP3 MLOAD PUSH4 0x1E13380 TIMESTAMP ADD SWAP1 DUP2 TIMESTAMP GT PUSH2 0x837 JUMPI GT PUSH2 0x7F2 JUMPI CALLER PUSH1 0x0 MSTORE PUSH1 0x1 PUSH1 0x20 MSTORE PUSH1 0xA PUSH1 0x40 PUSH1 0x0 KECCAK256 SLOAD LT ISZERO PUSH2 0x7AD JUMPI PUSH1 0x4 SWAP12 DUP12 MLOAD DUP11 MLOAD SWAP7 DUP13 MLOAD SWAP10 MLOAD SWAP6 MLOAD SWAP7 MLOAD SWAP11 MLOAD SWAP15 DUP16 LT ISZERO PUSH2 0x797 JUMPI MLOAD ISZERO ISZERO SWAP8 MLOAD ISZERO ISZERO SWAP2 PUSH1 0x1 DUP1 PUSH1 0xA0 SHL SUB SWAP1 MLOAD AND SWAP3 MLOAD SWAP4 MLOAD SWAP7 PUSH1 0x40 MLOAD SWAP11 PUSH2 0x43A6 SWAP8 DUP9 DUP14 ADD SWAP8 DUP14 DUP10 LT PUSH8 0xFFFFFFFFFFFFFFFF DUP11 GT OR PUSH2 0x781 JUMPI DUP14 SWAP13 PUSH2 0x5DE PUSH2 0x600 SWAP7 DUP16 SWAP13 PUSH2 0x180 SWAP14 PUSH2 0xDB8 SWAP1 CODECOPY PUSH2 0x1A0 DUP13 MSTORE PUSH2 0x1A0 DUP13 ADD SWAP1 PUSH2 0xD2D JUMP JUMPDEST SWAP5 PUSH1 0x20 DUP12 ADD MSTORE PUSH1 0x40 DUP11 ADD MSTORE PUSH1 0x60 DUP10 ADD MSTORE PUSH1 0x80 DUP9 ADD MSTORE DUP7 DUP3 SUB PUSH1 0xA0 DUP9 ADD MSTORE PUSH2 0xD2D JUMP JUMPDEST SWAP7 PUSH1 0x0 SWAP14 PUSH1 0xC0 DUP7 ADD MSTORE PUSH1 0xE0 DUP6 ADD MSTORE PUSH2 0x100 DUP5 ADD MSTORE CALLER PUSH2 0x120 DUP5 ADD MSTORE PUSH2 0x140 DUP4 ADD MSTORE PUSH2 0x160 DUP3 ADD MSTORE ADD MSTORE SUB SWAP1 DUP6 CREATE DUP1 ISZERO PUSH2 0x776 JUMPI PUSH1 0x1 DUP1 PUSH1 0xA0 SHL SUB AND SWAP3 CALLER DUP6 MSTORE PUSH1 0x1 PUSH1 0x20 MSTORE PUSH1 0x40 DUP6 KECCAK256 DUP1 SLOAD SWAP1 PUSH1 0x1 PUSH1 0x40 SHL DUP3 LT ISZERO PUSH2 0x762 JUMPI SWAP1 PUSH2 0x667 SWAP2 PUSH1 0x1 DUP3 ADD DUP2 SSTORE PUSH2 0xCFF JUMP JUMPDEST DUP2 SLOAD PUSH1 0x3 SWAP2 DUP3 SHL DUP8 DUP2 SHL PUSH1 0x1 PUSH1 0x1 PUSH1 0xA0 SHL SUB SWAP1 SWAP2 SHL NOT SWAP1 SWAP2 AND OR SWAP1 SWAP2 SSTORE DUP5 DUP7 MSTORE PUSH1 0x2 PUSH1 0x20 MSTORE PUSH1 0x40 DUP7 KECCAK256 DUP1 SLOAD PUSH1 0xFF NOT AND PUSH1 0x1 OR SWAP1 SSTORE SLOAD PUSH1 0x1 PUSH1 0x40 SHL DUP2 LT ISZERO PUSH2 0x74E JUMPI DUP1 PUSH1 0x1 PUSH2 0x6BA SWAP3 ADD PUSH1 0x3 SSTORE PUSH1 0x3 PUSH2 0xCFF JUMP JUMPDEST DUP2 SLOAD PUSH1 0x1 PUSH1 0x1 PUSH1 0xA0 SHL SUB PUSH1 0x3 SWAP3 SWAP1 SWAP3 SHL SWAP2 DUP3 SHL NOT AND SWAP1 DUP7 SWAP1 SHL OR SWAP1 SSTORE PUSH1 0x4 SLOAD PUSH1 0x0 NOT DUP2 EQ PUSH2 0x73A JUMPI SWAP1 PUSH1 0x1 PUSH32 0xDABFBDDD3C17390733A672DB1121758DA191FC5B5CE4A81A1BBE0D8AB456FF63 SWAP4 SWAP3 ADD PUSH1 0x4 SSTORE MLOAD SWAP1 MLOAD SWAP3 MLOAD PUSH2 0x726 PUSH1 0x40 MLOAD SWAP3 PUSH1 0x60 DUP5 MSTORE PUSH1 0x60 DUP5 ADD SWAP1 PUSH2 0xD2D JUMP JUMPDEST SWAP4 PUSH1 0x20 DUP4 ADD MSTORE PUSH1 0x40 DUP3 ADD MSTORE DUP1 CALLER SWAP4 SUB SWAP1 LOG3 DUP1 RETURN JUMPDEST PUSH4 0x4E487B71 PUSH1 0xE0 SHL DUP7 MSTORE PUSH1 0x11 PUSH1 0x4 MSTORE PUSH1 0x24 DUP7 REVERT JUMPDEST PUSH4 0x4E487B71 PUSH1 0xE0 SHL DUP7 MSTORE PUSH1 0x41 PUSH1 0x4 MSTORE PUSH1 0x24 DUP7 REVERT JUMPDEST PUSH4 0x4E487B71 PUSH1 0xE0 SHL DUP8 MSTORE PUSH1 0x41 PUSH1 0x4 MSTORE PUSH1 0x24 DUP8 REVERT JUMPDEST PUSH1 0x40 MLOAD RETURNDATASIZE DUP7 DUP3 RETURNDATACOPY RETURNDATASIZE SWAP1 REVERT JUMPDEST PUSH4 0x4E487B71 PUSH1 0xE0 SHL PUSH1 0x0 MSTORE PUSH1 0x41 PUSH1 0x4 MSTORE PUSH1 0x24 PUSH1 0x0 REVERT JUMPDEST PUSH4 0x4E487B71 PUSH1 0xE0 SHL PUSH1 0x0 MSTORE PUSH1 0x21 PUSH1 0x4 MSTORE PUSH1 0x24 PUSH1 0x0 REVERT JUMPDEST PUSH1 0x40 MLOAD PUSH3 0x461BCD PUSH1 0xE5 SHL DUP2 MSTORE PUSH1 0x20 PUSH1 0x4 DUP3 ADD MSTORE PUSH1 0x17 PUSH1 0x24 DUP3 ADD MSTORE PUSH32 0x546F6F206D616E792067726F7570732063726561746564000000000000000000 PUSH1 0x44 DUP3 ADD MSTORE PUSH1 0x64 SWAP1 REVERT JUMPDEST PUSH1 0x40 MLOAD PUSH3 0x461BCD PUSH1 0xE5 SHL DUP2 MSTORE PUSH1 0x20 PUSH1 0x4 DUP3 ADD MSTORE PUSH1 0x1A PUSH1 0x24 DUP3 ADD MSTORE PUSH32 0x456E64206461746520746F6F2066617220696E20667574757265000000000000 PUSH1 0x44 DUP3 ADD MSTORE PUSH1 0x64 SWAP1 REVERT JUMPDEST PUSH4 0x4E487B71 PUSH1 0xE0 SHL PUSH1 0x0 MSTORE PUSH1 0x11 PUSH1 0x4 MSTORE PUSH1 0x24 PUSH1 0x0 REVERT JUMPDEST PUSH1 0x40 MLOAD PUSH3 0x461BCD PUSH1 0xE5 SHL DUP2 MSTORE PUSH1 0x20 PUSH1 0x4 DUP3 ADD MSTORE PUSH1 0x21 PUSH1 0x24 DUP3 ADD MSTORE PUSH32 0x456E642064617465206D75737420626520616674657220737461727420646174 PUSH1 0x44 DUP3 ADD MSTORE PUSH1 0x65 PUSH1 0xF8 SHL PUSH1 0x64 DUP3 ADD MSTORE PUSH1 0x84 SWAP1 REVERT JUMPDEST PUSH1 0x40 MLOAD PUSH3 0x461BCD PUSH1 0xE5 SHL DUP2 MSTORE PUSH1 0x20 PUSH1 0x4 DUP3 ADD MSTORE PUSH1 0x1C PUSH1 0x24 DUP3 ADD MSTORE PUSH32 0x53746172742064617465206D75737420626520696E2066757475726500000000 PUSH1 0x44 DUP3 ADD MSTORE PUSH1 0x64 SWAP1 REVERT JUMPDEST PUSH1 0x40 MLOAD PUSH3 0x461BCD PUSH1 0xE5 SHL DUP2 MSTORE PUSH1 0x20 PUSH1 0x4 DUP3 ADD MSTORE PUSH1 0x13 PUSH1 0x24 DUP3 ADD MSTORE PUSH19 0x496E76616C6964206D6178206D656D62657273 PUSH1 0x68 SHL PUSH1 0x44 DUP3 ADD MSTORE PUSH1 0x64 SWAP1 REVERT JUMPDEST PUSH1 0x64 SWAP2 POP GT ISZERO DUP14 PUSH2 0x524 JUMP JUMPDEST PUSH1 0x40 MLOAD PUSH3 0x461BCD PUSH1 0xE5 SHL DUP2 MSTORE PUSH1 0x20 PUSH1 0x4 DUP3 ADD MSTORE PUSH1 0x1B PUSH1 0x24 DUP3 ADD MSTORE PUSH32 0x496E76616C696420636F6E747269627574696F6E20616D6F756E740000000000 PUSH1 0x44 DUP3 ADD MSTORE PUSH1 0x64 SWAP1 REVERT JUMPDEST PUSH9 0x56BC75E2D63100000 SWAP2 POP GT ISZERO DUP14 PUSH2 0x510 JUMP JUMPDEST PUSH1 0x40 MLOAD PUSH3 0x461BCD PUSH1 0xE5 SHL DUP2 MSTORE PUSH1 0x20 PUSH1 0x4 DUP3 ADD MSTORE PUSH1 0x13 PUSH1 0x24 DUP3 ADD MSTORE PUSH19 0x92DCECC2D8D2C840DCC2DACA40D8CADCCEE8D PUSH1 0x6B SHL PUSH1 0x44 DUP3 ADD MSTORE PUSH1 0x64 SWAP1 REVERT JUMPDEST PUSH1 0x32 SWAP2 POP GT ISZERO DUP14 PUSH2 0x4F6 JUMP JUMPDEST CALLVALUE PUSH2 0x161 JUMPI PUSH1 0x0 CALLDATASIZE PUSH1 0x3 NOT ADD SLT PUSH2 0x161 JUMPI PUSH2 0x9E1 PUSH2 0xD6E JUMP JUMPDEST PUSH1 0x0 DUP1 SLOAD PUSH1 0x1 PUSH1 0x1 PUSH1 0xA0 SHL SUB NOT DUP2 AND DUP3 SSTORE PUSH1 0x1 PUSH1 0x1 PUSH1 0xA0 SHL SUB AND PUSH32 0x8BE0079C531659141344CD1FD0A4F28419497F9722A3DAAFE3B4186F6B6457E0 DUP3 DUP1 LOG3 STOP JUMPDEST CALLVALUE PUSH2 0x161 JUMPI PUSH1 0x0 CALLDATASIZE PUSH1 0x3 NOT ADD SLT PUSH2 0x161 JUMPI PUSH1 0x20 PUSH1 0xFF PUSH1 0x0 SLOAD PUSH1 0xA0 SHR AND PUSH1 0x40 MLOAD SWAP1 ISZERO ISZERO DUP2 MSTORE RETURN JUMPDEST CALLVALUE PUSH2 0x161 JUMPI PUSH1 0x20 CALLDATASIZE PUSH1 0x3 NOT ADD SLT PUSH2 0x161 JUMPI PUSH1 0x1 PUSH1 0x1 PUSH1 0xA0 SHL SUB PUSH2 0xA68 PUSH2 0xC4F JUMP JUMPDEST AND PUSH1 0x0 MSTORE PUSH1 0x1 PUSH1 0x20 MSTORE PUSH1 0x40 PUSH1 0x0 KECCAK256 PUSH1 0x40 MLOAD SWAP1 DUP2 PUSH1 0x20 DUP3 SLOAD SWAP2 DUP3 DUP2 MSTORE ADD SWAP2 PUSH1 0x0 MSTORE PUSH1 0x20 PUSH1 0x0 KECCAK256 SWAP1 PUSH1 0x0 JUMPDEST DUP2 DUP2 LT PUSH2 0xAB8 JUMPI PUSH2 0xAB4 DUP6 PUSH2 0xAA8 DUP2 DUP8 SUB DUP3 PUSH2 0xC79 JUMP JUMPDEST PUSH1 0x40 MLOAD SWAP2 DUP3 SWAP2 DUP3 PUSH2 0xC0C JUMP JUMPDEST SUB SWAP1 RETURN JUMPDEST DUP3 SLOAD PUSH1 0x1 PUSH1 0x1 PUSH1 0xA0 SHL SUB AND DUP5 MSTORE PUSH1 0x20 SWAP1 SWAP4 ADD SWAP3 PUSH1 0x1 SWAP3 DUP4 ADD SWAP3 ADD PUSH2 0xA91 JUMP JUMPDEST CALLVALUE PUSH2 0x161 JUMPI PUSH1 0x0 CALLDATASIZE PUSH1 0x3 NOT ADD SLT PUSH2 0x161 JUMPI PUSH2 0xAF0 PUSH2 0xD6E JUMP JUMPDEST PUSH1 0x0 SLOAD PUSH1 0xFF DUP2 PUSH1 0xA0 SHR AND ISZERO PUSH2 0xB37 JUMPI PUSH1 0xFF PUSH1 0xA0 SHL NOT AND PUSH1 0x0 SSTORE PUSH1 0x40 MLOAD CALLER DUP2 MSTORE PUSH32 0x5DB9EE0A495BF2E6FF9C91A7834C1BA4FDD244A5E8AA4E537BD38AEAE4B073AA SWAP1 PUSH1 0x20 SWAP1 LOG1 STOP JUMPDEST PUSH4 0x8DFC202B PUSH1 0xE0 SHL PUSH1 0x0 MSTORE PUSH1 0x4 PUSH1 0x0 REVERT JUMPDEST CALLVALUE PUSH2 0x161 JUMPI PUSH1 0x0 CALLDATASIZE PUSH1 0x3 NOT ADD SLT PUSH2 0x161 JUMPI PUSH1 0x40 MLOAD DUP1 PUSH1 0x20 PUSH1 0x3 SLOAD SWAP2 DUP3 DUP2 MSTORE ADD SWAP1 PUSH1 0x3 PUSH1 0x0 MSTORE PUSH32 0xC2575A0E9E593C00F959F8C92F12DB2869C3395A3B0502D05E2516446F71F85B SWAP1 PUSH1 0x0 JUMPDEST DUP2 DUP2 LT PUSH2 0xBA9 JUMPI PUSH2 0xAB4 DUP6 PUSH2 0xAA8 DUP2 DUP8 SUB DUP3 PUSH2 0xC79 JUMP JUMPDEST DUP3 SLOAD PUSH1 0x1 PUSH1 0x1 PUSH1 0xA0 SHL SUB AND DUP5 MSTORE PUSH1 0x20 SWAP1 SWAP4 ADD SWAP3 PUSH1 0x1 SWAP3 DUP4 ADD SWAP3 ADD PUSH2 0xB92 JUMP JUMPDEST CALLVALUE PUSH2 0x161 JUMPI PUSH1 0x0 CALLDATASIZE PUSH1 0x3 NOT ADD SLT PUSH2 0x161 JUMPI PUSH1 0x20 PUSH1 0x40 MLOAD PUSH9 0x56BC75E2D63100000 DUP2 MSTORE RETURN JUMPDEST CALLVALUE PUSH2 0x161 JUMPI PUSH1 0x0 CALLDATASIZE PUSH1 0x3 NOT ADD SLT PUSH2 0x161 JUMPI DUP1 PUSH7 0x38D7EA4C68000 PUSH1 0x20 SWAP3 MSTORE RETURN JUMPDEST PUSH1 0x20 PUSH1 0x40 DUP2 DUP4 ADD SWAP3 DUP3 DUP2 MSTORE DUP5 MLOAD DUP1 SWAP5 MSTORE ADD SWAP3 ADD SWAP1 PUSH1 0x0 JUMPDEST DUP2 DUP2 LT PUSH2 0xC30 JUMPI POP POP POP SWAP1 JUMP JUMPDEST DUP3 MLOAD PUSH1 0x1 PUSH1 0x1 PUSH1 0xA0 SHL SUB AND DUP5 MSTORE PUSH1 0x20 SWAP4 DUP5 ADD SWAP4 SWAP1 SWAP3 ADD SWAP2 PUSH1 0x1 ADD PUSH2 0xC23 JUMP JUMPDEST PUSH1 0x4 CALLDATALOAD SWAP1 PUSH1 0x1 PUSH1 0x1 PUSH1 0xA0 SHL SUB DUP3 AND DUP3 SUB PUSH2 0x161 JUMPI JUMP JUMPDEST CALLDATALOAD SWAP1 PUSH1 0x1 PUSH1 0x1 PUSH1 0xA0 SHL SUB DUP3 AND DUP3 SUB PUSH2 0x161 JUMPI JUMP JUMPDEST SWAP1 PUSH1 0x1F DUP1 NOT SWAP2 ADD AND DUP2 ADD SWAP1 DUP2 LT PUSH8 0xFFFFFFFFFFFFFFFF DUP3 GT OR PUSH2 0x781 JUMPI PUSH1 0x40 MSTORE JUMP JUMPDEST DUP2 PUSH1 0x1F DUP3 ADD SLT ISZERO PUSH2 0x161 JUMPI DUP1 CALLDATALOAD SWAP1 PUSH8 0xFFFFFFFFFFFFFFFF DUP3 GT PUSH2 0x781 JUMPI PUSH1 0x40 MLOAD SWAP3 PUSH2 0xCD0 PUSH1 0x1F DUP5 ADD PUSH1 0x1F NOT AND PUSH1 0x20 ADD DUP6 PUSH2 0xC79 JUMP JUMPDEST DUP3 DUP5 MSTORE PUSH1 0x20 DUP4 DUP4 ADD ADD GT PUSH2 0x161 JUMPI DUP2 PUSH1 0x0 SWAP3 PUSH1 0x20 DUP1 SWAP4 ADD DUP4 DUP7 ADD CALLDATACOPY DUP4 ADD ADD MSTORE SWAP1 JUMP JUMPDEST CALLDATALOAD SWAP1 DUP2 ISZERO ISZERO DUP3 SUB PUSH2 0x161 JUMPI JUMP JUMPDEST DUP1 SLOAD DUP3 LT ISZERO PUSH2 0xD17 JUMPI PUSH1 0x0 MSTORE PUSH1 0x20 PUSH1 0x0 KECCAK256 ADD SWAP1 PUSH1 0x0 SWAP1 JUMP JUMPDEST PUSH4 0x4E487B71 PUSH1 0xE0 SHL PUSH1 0x0 MSTORE PUSH1 0x32 PUSH1 0x4 MSTORE PUSH1 0x24 PUSH1 0x0 REVERT JUMPDEST SWAP2 SWAP1 DUP3 MLOAD SWAP3 DUP4 DUP3 MSTORE PUSH1 0x0 JUMPDEST DUP5 DUP2 LT PUSH2 0xD59 JUMPI POP POP DUP3 PUSH1 0x0 PUSH1 0x20 DUP1 SWAP5 SWAP6 DUP5 ADD ADD MSTORE PUSH1 0x1F DUP1 NOT SWAP2 ADD AND ADD ADD SWAP1 JUMP JUMPDEST DUP1 PUSH1 0x20 DUP1 SWAP3 DUP5 ADD ADD MLOAD DUP3 DUP3 DUP7 ADD ADD MSTORE ADD PUSH2 0xD38 JUMP JUMPDEST PUSH1 0x0 SLOAD PUSH1 0x1 PUSH1 0x1 PUSH1 0xA0 SHL SUB AND CALLER SUB PUSH2 0xD82 JUMPI JUMP JUMPDEST PUSH4 0x118CDAA7 PUSH1 0xE0 SHL PUSH1 0x0 MSTORE CALLER PUSH1 0x4 MSTORE PUSH1 0x24 PUSH1 0x0 REVERT JUMPDEST PUSH1 0xFF PUSH1 0x0 SLOAD PUSH1 0xA0 SHR AND PUSH2 0xDA6 JUMPI JUMP JUMPDEST PUSH4 0xD93C0665 PUSH1 0xE0 SHL PUSH1 0x0 MSTORE PUSH1 0x4 PUSH1 0x0 REVERT INVALID PUSH1 0x80 PUSH1 0x40 MSTORE CALLVALUE PUSH2 0x619 JUMPI PUSH2 0x43A6 DUP1 CODESIZE SUB DUP1 PUSH2 0x19 DUP2 PUSH2 0x61E JUMP JUMPDEST SWAP3 DUP4 CODECOPY DUP2 ADD SWAP1 PUSH2 0x1A0 DUP2 DUP4 SUB SLT PUSH2 0x619 JUMPI DUP1 MLOAD PUSH1 0x1 PUSH1 0x1 PUSH1 0x40 SHL SUB DUP2 GT PUSH2 0x619 JUMPI DUP3 PUSH2 0x46 SWAP2 DUP4 ADD PUSH2 0x643 JUMP JUMPDEST PUSH1 0x20 DUP3 ADD MLOAD PUSH1 0x40 DUP4 ADD MLOAD PUSH1 0x60 DUP5 ADD MLOAD PUSH1 0x80 DUP6 ADD MLOAD PUSH1 0xA0 DUP7 ADD MLOAD SWAP4 SWAP7 SWAP1 SWAP5 SWAP4 SWAP1 PUSH1 0x1 PUSH1 0x1 PUSH1 0x40 SHL SUB DUP3 GT PUSH2 0x619 JUMPI PUSH2 0x7E SWAP2 DUP8 ADD PUSH2 0x643 JUMP JUMPDEST SWAP4 PUSH1 0xC0 DUP7 ADD MLOAD SWAP4 PUSH1 0x4 DUP6 LT ISZERO PUSH2 0x619 JUMPI PUSH2 0x9A PUSH1 0xE0 DUP9 ADD PUSH2 0x6AE JUMP JUMPDEST SWAP2 PUSH2 0xA8 PUSH2 0x100 DUP10 ADD PUSH2 0x6AE JUMP JUMPDEST SWAP4 PUSH2 0xB6 PUSH2 0x120 DUP11 ADD PUSH2 0x6BB JUMP JUMPDEST SWAP6 PUSH2 0xC4 PUSH2 0x140 DUP12 ADD PUSH2 0x6BB JUMP JUMPDEST SWAP9 PUSH2 0x180 PUSH2 0x160 DUP13 ADD MLOAD SWAP12 ADD MLOAD SWAP12 PUSH1 0x1 PUSH1 0x0 SSTORE PUSH3 0x2A300 PUSH1 0x1A SSTORE PUSH3 0x69780 PUSH1 0x1B SSTORE PUSH3 0x3F480 PUSH1 0x1C SSTORE PUSH1 0x40 MLOAD SWAP6 PUSH2 0x120 DUP8 ADD DUP8 DUP2 LT PUSH1 0x1 DUP1 PUSH1 0x40 SHL SUB DUP3 GT OR PUSH2 0x603 JUMPI PUSH1 0x40 MSTORE DUP7 MSTORE PUSH1 0x20 DUP7 ADD SWAP1 DUP2 MSTORE PUSH1 0x40 DUP7 ADD SWAP2 DUP3 MSTORE PUSH1 0x60 DUP7 ADD SWAP3 DUP4 MSTORE PUSH1 0x80 DUP7 ADD SWAP4 DUP5 MSTORE PUSH1 0xA0 DUP7 ADD SWAP5 DUP6 MSTORE PUSH1 0xC0 DUP7 ADD SWAP6 PUSH1 0x0 SWAP11 DUP8 MSTORE PUSH1 0xE0 DUP2 ADD SWAP8 ISZERO ISZERO DUP9 MSTORE PUSH2 0x100 DUP2 ADD SWAP9 ISZERO ISZERO DUP10 MSTORE MLOAD DUP1 MLOAD SWAP1 PUSH1 0x1 DUP1 PUSH1 0x40 SHL SUB DUP3 GT PUSH2 0x5EF JUMPI PUSH1 0x2 SLOAD PUSH1 0x1 DUP2 DUP2 SHR SWAP2 AND DUP1 ISZERO PUSH2 0x5E5 JUMPI JUMPDEST PUSH1 0x20 DUP3 LT EQ PUSH2 0x5D1 JUMPI SWAP1 DUP2 PUSH1 0x1F DUP5 SWAP4 GT PUSH2 0x560 JUMPI JUMPDEST POP PUSH1 0x20 SWAP1 DUP14 PUSH1 0x1F DUP5 GT PUSH1 0x1 EQ PUSH2 0x4FB JUMPI SWAP3 PUSH2 0x4F0 JUMPI JUMPDEST POP POP DUP2 PUSH1 0x1 SHL SWAP2 PUSH1 0x0 NOT SWAP1 PUSH1 0x3 SHL SHR NOT AND OR PUSH1 0x2 SSTORE JUMPDEST MLOAD PUSH1 0x3 SSTORE MLOAD DUP1 MLOAD SWAP1 PUSH1 0x1 PUSH1 0x1 PUSH1 0x40 SHL SUB DUP3 GT PUSH2 0x4DC JUMPI PUSH1 0x4 SLOAD PUSH1 0x1 DUP2 DUP2 SHR SWAP2 AND DUP1 ISZERO PUSH2 0x4D2 JUMPI JUMPDEST PUSH1 0x20 DUP3 LT EQ PUSH2 0x4BE JUMPI SWAP1 DUP2 PUSH1 0x1F DUP5 SWAP4 GT PUSH2 0x450 JUMPI JUMPDEST POP PUSH1 0x20 SWAP1 PUSH1 0x1F DUP4 GT PUSH1 0x1 EQ PUSH2 0x3EB JUMPI DUP12 SWAP3 PUSH2 0x3E0 JUMPI JUMPDEST POP POP DUP2 PUSH1 0x1 SHL SWAP2 PUSH1 0x0 NOT SWAP1 PUSH1 0x3 SHL SHR NOT AND OR PUSH1 0x4 SSTORE JUMPDEST MLOAD PUSH1 0x5 SSTORE MLOAD PUSH1 0x6 SSTORE MLOAD PUSH1 0x7 SSTORE MLOAD PUSH1 0x4 DUP2 LT ISZERO PUSH2 0x3CC JUMPI PUSH1 0x8 DUP1 SLOAD SWAP3 MLOAD SWAP4 MLOAD PUSH3 0xFFFFFF NOT SWAP1 SWAP4 AND PUSH1 0xFF SWAP3 SWAP1 SWAP3 AND SWAP2 SWAP1 SWAP2 OR SWAP3 ISZERO ISZERO DUP2 SHL PUSH2 0xFF00 AND SWAP3 SWAP1 SWAP3 OR SWAP1 ISZERO ISZERO PUSH1 0x10 SHL PUSH3 0xFF0000 AND OR SWAP1 SSTORE PUSH1 0x18 DUP1 SLOAD PUSH1 0x1 PUSH1 0x1 PUSH1 0xA0 SHL SUB NOT AND PUSH1 0x1 PUSH1 0x1 PUSH1 0xA0 SHL SUB SWAP3 SWAP1 SWAP3 AND SWAP2 DUP3 OR SWAP1 SSTORE DUP1 DUP3 MSTORE PUSH1 0x11 PUSH1 0x20 MSTORE PUSH1 0x40 DUP1 DUP4 KECCAK256 DUP1 SLOAD PUSH1 0xFF NOT AND PUSH1 0x1 OR SWAP1 SSTORE MLOAD SWAP1 PUSH1 0xC0 DUP3 ADD PUSH1 0x1 PUSH1 0x1 PUSH1 0x40 SHL SUB DUP2 GT DUP4 DUP3 LT OR PUSH2 0x3B8 JUMPI SWAP1 PUSH1 0x4 SWAP2 PUSH1 0x40 MSTORE PUSH1 0x1 DUP4 MSTORE PUSH1 0x20 DUP4 ADD PUSH1 0x1 DUP2 MSTORE PUSH1 0x40 DUP5 ADD TIMESTAMP DUP2 MSTORE PUSH1 0x60 DUP6 ADD SWAP1 DUP7 DUP3 MSTORE PUSH1 0x80 DUP7 ADD SWAP3 DUP8 DUP5 MSTORE PUSH1 0xA0 DUP8 ADD SWAP5 DUP9 DUP7 MSTORE DUP9 MSTORE PUSH1 0x9 PUSH1 0x20 MSTORE PUSH1 0x40 DUP9 KECCAK256 SWAP7 MLOAD ISZERO ISZERO PUSH1 0xFF DUP1 NOT DUP10 SLOAD AND SWAP2 AND OR DUP8 SSTORE MLOAD ISZERO ISZERO PUSH2 0xFF00 DUP8 SLOAD SWAP2 PUSH1 0x8 SHL AND SWAP1 PUSH2 0xFF00 NOT AND OR DUP7 SSTORE MLOAD PUSH1 0x1 DUP7 ADD SSTORE MLOAD PUSH1 0x2 DUP6 ADD SSTORE MLOAD PUSH1 0x3 DUP5 ADD SSTORE MLOAD SWAP2 ADD SSTORE PUSH2 0x334 PUSH1 0x13 SLOAD PUSH2 0x6CF JUMP JUMPDEST PUSH1 0x13 SSTORE PUSH2 0x342 PUSH1 0x14 SLOAD PUSH2 0x6CF JUMP JUMPDEST PUSH1 0x14 SSTORE PUSH1 0x18 DUP1 SLOAD PUSH1 0xFF PUSH1 0xA0 SHL NOT AND PUSH1 0x1 PUSH1 0xA0 SHL OR SWAP1 SSTORE PUSH1 0x16 SSTORE PUSH1 0x1 PUSH1 0x1 PUSH1 0xA0 SHL SUB AND DUP1 PUSH2 0x399 JUMPI JUMPDEST POP DUP1 PUSH2 0x390 JUMPI JUMPDEST POP DUP1 PUSH2 0x387 JUMPI JUMPDEST PUSH1 0x40 MLOAD PUSH2 0x3CB1 SWAP1 DUP2 PUSH2 0x6F5 DUP3 CODECOPY RETURN JUMPDEST PUSH1 0x1B SSTORE CODESIZE PUSH2 0x378 JUMP JUMPDEST PUSH1 0x1A SSTORE CODESIZE PUSH2 0x371 JUMP JUMPDEST PUSH1 0x19 DUP1 SLOAD PUSH1 0x1 PUSH1 0x1 PUSH1 0xA8 SHL SUB NOT AND SWAP1 SWAP2 OR PUSH1 0x1 PUSH1 0xA0 SHL OR SWAP1 SSTORE CODESIZE PUSH2 0x36A JUMP JUMPDEST PUSH4 0x4E487B71 PUSH1 0xE0 SHL DUP5 MSTORE PUSH1 0x41 PUSH1 0x4 MSTORE PUSH1 0x24 DUP5 REVERT JUMPDEST PUSH4 0x4E487B71 PUSH1 0xE0 SHL DUP6 MSTORE PUSH1 0x21 PUSH1 0x4 MSTORE PUSH1 0x24 DUP6 REVERT JUMPDEST ADD MLOAD SWAP1 POP CODESIZE DUP1 PUSH2 0x200 JUMP JUMPDEST PUSH1 0x4 DUP13 MSTORE DUP2 DUP13 KECCAK256 SWAP3 POP PUSH1 0x1F NOT DUP5 AND DUP13 JUMPDEST DUP2 DUP2 LT PUSH2 0x438 JUMPI POP SWAP1 DUP5 PUSH1 0x1 SWAP6 SWAP5 SWAP4 SWAP3 LT PUSH2 0x41F JUMPI JUMPDEST POP POP POP DUP2 SHL ADD PUSH1 0x4 SSTORE PUSH2 0x216 JUMP JUMPDEST ADD MLOAD PUSH1 0x0 NOT PUSH1 0xF8 DUP5 PUSH1 0x3 SHL AND SHR NOT AND SWAP1 SSTORE CODESIZE DUP1 DUP1 PUSH2 0x411 JUMP JUMPDEST SWAP3 SWAP4 PUSH1 0x20 PUSH1 0x1 DUP2 SWAP3 DUP8 DUP7 ADD MLOAD DUP2 SSTORE ADD SWAP6 ADD SWAP4 ADD PUSH2 0x3FB JUMP JUMPDEST PUSH1 0x4 DUP13 MSTORE SWAP1 SWAP2 POP PUSH32 0x8A35ACFBC15FF81A39AE7D344FD709F28E8600B4AA8C65C6B64BFE7FE36BD19B PUSH1 0x1F DUP5 ADD PUSH1 0x5 SHR DUP2 ADD SWAP2 PUSH1 0x20 DUP6 LT PUSH2 0x4B4 JUMPI JUMPDEST SWAP1 PUSH1 0x1F DUP6 SWAP5 SWAP4 SWAP3 ADD PUSH1 0x5 SHR ADD SWAP1 JUMPDEST DUP2 DUP2 LT PUSH2 0x4A6 JUMPI POP PUSH2 0x1EA JUMP JUMPDEST DUP13 DUP2 SSTORE DUP5 SWAP4 POP PUSH1 0x1 ADD PUSH2 0x499 JUMP JUMPDEST SWAP1 SWAP2 POP DUP2 SWAP1 PUSH2 0x48B JUMP JUMPDEST PUSH4 0x4E487B71 PUSH1 0xE0 SHL DUP12 MSTORE PUSH1 0x22 PUSH1 0x4 MSTORE PUSH1 0x24 DUP12 REVERT JUMPDEST SWAP1 PUSH1 0x7F AND SWAP1 PUSH2 0x1D5 JUMP JUMPDEST PUSH4 0x4E487B71 PUSH1 0xE0 SHL DUP11 MSTORE PUSH1 0x41 PUSH1 0x4 MSTORE PUSH1 0x24 DUP11 REVERT JUMPDEST ADD MLOAD SWAP1 POP CODESIZE DUP1 PUSH2 0x198 JUMP JUMPDEST PUSH1 0x2 DUP2 MSTORE DUP3 DUP2 KECCAK256 SWAP4 POP PUSH1 0x1F NOT DUP6 AND SWAP1 JUMPDEST DUP2 DUP2 LT PUSH2 0x548 JUMPI POP SWAP1 DUP5 PUSH1 0x1 SWAP6 SWAP5 SWAP4 SWAP3 LT PUSH2 0x52F JUMPI JUMPDEST POP POP POP DUP2 SHL ADD PUSH1 0x2 SSTORE PUSH2 0x1AE JUMP JUMPDEST ADD MLOAD PUSH1 0x0 NOT PUSH1 0xF8 DUP5 PUSH1 0x3 SHL AND SHR NOT AND SWAP1 SSTORE CODESIZE DUP1 DUP1 PUSH2 0x521 JUMP JUMPDEST SWAP3 SWAP4 PUSH1 0x20 PUSH1 0x1 DUP2 SWAP3 DUP8 DUP7 ADD MLOAD DUP2 SSTORE ADD SWAP6 ADD SWAP4 ADD PUSH2 0x50B JUMP JUMPDEST PUSH1 0x2 DUP15 MSTORE SWAP1 SWAP2 POP PUSH32 0x405787FA12A823E0F2B7631CC41B3BA8828B3321CA811111FA75CD3AA3BB5ACE PUSH1 0x1F DUP5 ADD PUSH1 0x5 SHR DUP2 ADD SWAP2 PUSH1 0x20 DUP6 LT PUSH2 0x5C7 JUMPI JUMPDEST DUP5 SWAP4 SWAP3 SWAP2 DUP16 SWAP2 PUSH1 0x1F ADD PUSH1 0x5 SHR ADD SWAP2 SWAP1 JUMPDEST DUP3 DUP3 LT PUSH2 0x5B9 JUMPI POP POP PUSH2 0x182 JUMP JUMPDEST DUP2 SSTORE DUP5 SWAP4 POP PUSH1 0x1 ADD DUP15 PUSH2 0x5AB JUMP JUMPDEST SWAP1 SWAP2 POP DUP2 SWAP1 PUSH2 0x59B JUMP JUMPDEST PUSH4 0x4E487B71 PUSH1 0xE0 SHL DUP14 MSTORE PUSH1 0x22 PUSH1 0x4 MSTORE PUSH1 0x24 DUP14 REVERT JUMPDEST SWAP1 PUSH1 0x7F AND SWAP1 PUSH2 0x16D JUMP JUMPDEST PUSH4 0x4E487B71 PUSH1 0xE0 SHL DUP13 MSTORE PUSH1 0x41 PUSH1 0x4 MSTORE PUSH1 0x24 DUP13 REVERT JUMPDEST PUSH4 0x4E487B71 PUSH1 0xE0 SHL PUSH1 0x0 MSTORE PUSH1 0x41 PUSH1 0x4 MSTORE PUSH1 0x24 PUSH1 0x0 REVERT JUMPDEST PUSH1 0x0 DUP1 REVERT JUMPDEST PUSH1 0x40 MLOAD SWAP2 SWAP1 PUSH1 0x1F ADD PUSH1 0x1F NOT AND DUP3 ADD PUSH1 0x1 PUSH1 0x1 PUSH1 0x40 SHL SUB DUP2 GT DUP4 DUP3 LT OR PUSH2 0x603 JUMPI PUSH1 0x40 MSTORE JUMP JUMPDEST DUP2 PUSH1 0x1F DUP3 ADD SLT ISZERO PUSH2 0x619 JUMPI DUP1 MLOAD SWAP1 PUSH1 0x1 PUSH1 0x1 PUSH1 0x40 SHL SUB DUP3 GT PUSH2 0x603 JUMPI PUSH2 0x672 PUSH1 0x1F DUP4 ADD PUSH1 0x1F NOT AND PUSH1 0x20 ADD PUSH2 0x61E JUMP JUMPDEST SWAP3 DUP3 DUP5 MSTORE PUSH1 0x20 DUP4 DUP4 ADD ADD GT PUSH2 0x619 JUMPI PUSH1 0x0 JUMPDEST DUP3 DUP2 LT PUSH2 0x699 JUMPI POP POP PUSH1 0x20 PUSH1 0x0 SWAP2 DUP4 ADD ADD MSTORE SWAP1 JUMP JUMPDEST DUP1 PUSH1 0x20 DUP1 SWAP3 DUP5 ADD ADD MLOAD DUP3 DUP3 DUP8 ADD ADD MSTORE ADD PUSH2 0x684 JUMP JUMPDEST MLOAD SWAP1 DUP2 ISZERO ISZERO DUP3 SUB PUSH2 0x619 JUMPI JUMP JUMPDEST MLOAD SWAP1 PUSH1 0x1 PUSH1 0x1 PUSH1 0xA0 SHL SUB DUP3 AND DUP3 SUB PUSH2 0x619 JUMPI JUMP JUMPDEST PUSH1 0x0 NOT DUP2 EQ PUSH2 0x6DE JUMPI PUSH1 0x1 ADD SWAP1 JUMP JUMPDEST PUSH4 0x4E487B71 PUSH1 0xE0 SHL PUSH1 0x0 MSTORE PUSH1 0x11 PUSH1 0x4 MSTORE PUSH1 0x24 PUSH1 0x0 REVERT INVALID PUSH1 0x80 PUSH1 0x40 MSTORE PUSH1 0x4 CALLDATASIZE LT ISZERO PUSH2 0x10 JUMPI JUMPDEST STOP JUMPDEST PUSH1 0x0 CALLDATALOAD PUSH1 0xE0 SHR DUP1 PUSH4 0x13CF08B EQ PUSH2 0x2C0B JUMPI DUP1 PUSH4 0x2D05D3F EQ PUSH2 0x2BE2 JUMPI DUP1 PUSH4 0x6040618 EQ PUSH2 0x2BC4 JUMPI DUP1 PUSH4 0x86146D2 EQ PUSH2 0x2BA9 JUMPI DUP1 PUSH4 0x8AE4B0C EQ PUSH2 0x2B21 JUMPI DUP1 PUSH4 0xC0512E9 EQ PUSH2 0x2B03 JUMPI DUP1 PUSH4 0xD3A9F0D EQ PUSH2 0x2AB3 JUMPI DUP1 PUSH4 0xD61B519 EQ PUSH2 0x290A JUMPI DUP1 PUSH4 0x11AEE380 EQ PUSH2 0x28EC JUMPI DUP1 PUSH4 0x12065FE0 EQ PUSH2 0x28C9 JUMPI DUP1 PUSH4 0x13335786 EQ PUSH2 0x2711 JUMPI DUP1 PUSH4 0x1614665C EQ PUSH2 0x25A6 JUMPI DUP1 PUSH4 0x1785F53C EQ PUSH2 0x2508 JUMPI DUP1 PUSH4 0x1BB1F108 EQ PUSH2 0x24EA JUMPI DUP1 PUSH4 0x1D6B1058 EQ PUSH2 0x24C4 JUMPI DUP1 PUSH4 0x22F3E2D4 EQ PUSH2 0x249E JUMPI DUP1 PUSH4 0x22FAA41F EQ PUSH2 0x1BC5 JUMPI DUP1 PUSH4 0x2768C62C EQ PUSH2 0x2133 JUMPI DUP1 PUSH4 0x286EB1E0 EQ PUSH2 0x2111 JUMPI DUP1 PUSH4 0x2B81A65B EQ PUSH2 0x2065 JUMPI DUP1 PUSH4 0x30109962 EQ PUSH2 0x2047 JUMPI DUP1 PUSH4 0x3B4D01A7 EQ PUSH2 0x1FD9 JUMPI DUP1 PUSH4 0x3F4BA83A EQ PUSH2 0x1F5E JUMPI DUP1 PUSH4 0x414570F3 EQ PUSH2 0x1F1C JUMPI DUP1 PUSH4 0x429B62E5 EQ PUSH2 0x1EDD JUMPI DUP1 PUSH4 0x4353BE89 EQ PUSH2 0x1EC1 JUMPI DUP1 PUSH4 0x47BBF007 EQ PUSH2 0x1E86 JUMPI DUP1 PUSH4 0x4BEDF9A8 EQ PUSH2 0x1E5D JUMPI DUP1 PUSH4 0x4DCDB237 EQ PUSH2 0x1DFF JUMPI DUP1 PUSH4 0x52F6747A EQ PUSH2 0x1C06 JUMPI DUP1 PUSH4 0x5C975ABB EQ PUSH2 0x1BE3 JUMPI DUP1 PUSH4 0x5FB6C6ED EQ PUSH2 0x1BC5 JUMPI DUP1 PUSH4 0x600303D8 EQ PUSH2 0x12D1 JUMPI DUP1 PUSH4 0x615601DB EQ PUSH2 0x17F8 JUMPI DUP1 PUSH4 0x6558954F EQ PUSH2 0x17DA JUMPI DUP1 PUSH4 0x6BCA1ED2 EQ PUSH2 0x1040 JUMPI DUP1 PUSH4 0x6D531E83 EQ PUSH2 0x1624 JUMPI DUP1 PUSH4 0x70480275 EQ PUSH2 0x155F JUMPI DUP1 PUSH4 0x7A5C15C8 EQ PUSH2 0x14DD JUMPI DUP1 PUSH4 0x7AFCA9A7 EQ PUSH2 0x14BF JUMPI DUP1 PUSH4 0x7D8B6205 EQ PUSH2 0x145B JUMPI DUP1 PUSH4 0x83FD0954 EQ PUSH2 0x139C JUMPI DUP1 PUSH4 0x8456CB59 EQ PUSH2 0x131E JUMPI DUP1 PUSH4 0x8E1F6A2C EQ PUSH2 0x12D1 JUMPI DUP1 PUSH4 0x968ED600 EQ PUSH2 0x12B3 JUMPI DUP1 PUSH4 0x9AC79E0A EQ PUSH2 0x10FF JUMPI DUP1 PUSH4 0xA06DB7DC EQ PUSH2 0x10E1 JUMPI DUP1 PUSH4 0xAA6CD9D6 EQ PUSH2 0x1088 JUMPI DUP1 PUSH4 0xAF40C983 EQ PUSH2 0x1040 JUMPI DUP1 PUSH4 0xB20CA922 EQ PUSH2 0xDF3 JUMPI DUP1 PUSH4 0xB478C1EB EQ PUSH2 0xD39 JUMPI DUP1 PUSH4 0xCB1FB490 EQ PUSH2 0xBEE JUMPI DUP1 PUSH4 0xD449540F EQ PUSH2 0x9FB JUMPI DUP1 PUSH4 0xD7BB99BA EQ PUSH2 0x715 JUMPI DUP1 PUSH4 0xDABEFBDE EQ PUSH2 0x51C JUMPI DUP1 PUSH4 0xDCBFEE4C EQ PUSH2 0x500 JUMPI DUP1 PUSH4 0xDFB748AA EQ PUSH2 0x3E8 JUMPI DUP1 PUSH4 0xEF213106 EQ PUSH2 0x3A9 JUMPI PUSH4 0xFA3FA196 SUB PUSH2 0xE JUMPI CALLVALUE PUSH2 0x3A4 JUMPI PUSH1 0x20 CALLDATASIZE PUSH1 0x3 NOT ADD SLT PUSH2 0x3A4 JUMPI PUSH2 0x2B7 PUSH2 0x2E6C JUMP JUMPDEST PUSH1 0x18 SLOAD SWAP1 PUSH1 0x1 PUSH1 0x1 PUSH1 0xA0 SHL SUB DUP3 AND SWAP1 PUSH2 0x2D1 CALLER DUP4 EQ PUSH2 0x30EF JUMP JUMPDEST PUSH1 0x1 PUSH1 0x1 PUSH1 0xA0 SHL SUB AND SWAP2 DUP3 ISZERO PUSH2 0x36D JUMPI DUP2 DUP4 EQ PUSH2 0x336 JUMPI PUSH1 0x1 PUSH1 0x1 PUSH1 0xA0 SHL SUB NOT AND DUP3 OR PUSH1 0x18 SSTORE PUSH1 0x0 DUP3 DUP2 MSTORE PUSH1 0x11 PUSH1 0x20 MSTORE PUSH1 0x40 DUP2 KECCAK256 DUP1 SLOAD PUSH1 0xFF NOT AND PUSH1 0x1 OR SWAP1 SSTORE PUSH32 0x7F11FE0C7098E1A76AFCC68F35ABAA07EF156FA7D6DD2D39664812FE37348D16 SWAP1 DUP1 LOG3 STOP JUMPDEST PUSH1 0x40 MLOAD PUSH3 0x461BCD PUSH1 0xE5 SHL DUP2 MSTORE PUSH1 0x20 PUSH1 0x4 DUP3 ADD MSTORE PUSH1 0xF PUSH1 0x24 DUP3 ADD MSTORE PUSH15 0x20B63932B0B23C9031B932B0BA37B9 PUSH1 0x89 SHL PUSH1 0x44 DUP3 ADD MSTORE PUSH1 0x64 SWAP1 REVERT JUMPDEST PUSH1 0x40 MLOAD PUSH3 0x461BCD PUSH1 0xE5 SHL DUP2 MSTORE PUSH1 0x20 PUSH1 0x4 DUP3 ADD MSTORE PUSH1 0xF PUSH1 0x24 DUP3 ADD MSTORE PUSH15 0x496E76616C69642061646472657373 PUSH1 0x88 SHL PUSH1 0x44 DUP3 ADD MSTORE PUSH1 0x64 SWAP1 REVERT JUMPDEST PUSH1 0x0 DUP1 REVERT JUMPDEST CALLVALUE PUSH2 0x3A4 JUMPI PUSH1 0x20 CALLDATASIZE PUSH1 0x3 NOT ADD SLT PUSH2 0x3A4 JUMPI PUSH1 0x1 PUSH1 0x1 PUSH1 0xA0 SHL SUB PUSH2 0x3CA PUSH2 0x2E6C JUMP JUMPDEST AND PUSH1 0x0 MSTORE PUSH1 0x12 PUSH1 0x20 MSTORE PUSH1 0x20 PUSH1 0xFF PUSH1 0x40 PUSH1 0x0 KECCAK256 SLOAD AND PUSH1 0x40 MLOAD SWAP1 ISZERO ISZERO DUP2 MSTORE RETURN JUMPDEST CALLVALUE PUSH2 0x3A4 JUMPI PUSH1 0x20 CALLDATASIZE PUSH1 0x3 NOT ADD SLT PUSH2 0x3A4 JUMPI PUSH2 0x401 PUSH2 0x2E6C JUMP JUMPDEST CALLER PUSH1 0x0 MSTORE PUSH1 0x11 PUSH1 0x20 MSTORE PUSH2 0x41B PUSH1 0xFF PUSH1 0x40 PUSH1 0x0 KECCAK256 SLOAD AND PUSH2 0x2F8E JUMP JUMPDEST PUSH2 0x42C PUSH1 0xFF PUSH1 0x18 SLOAD PUSH1 0xA0 SHR AND PUSH2 0x321E JUMP JUMPDEST PUSH2 0x43A PUSH1 0x6 SLOAD TIMESTAMP LT ISZERO PUSH2 0x3260 JUMP JUMPDEST PUSH2 0x448 PUSH1 0x7 SLOAD TIMESTAMP GT ISZERO PUSH2 0x32A3 JUMP JUMPDEST PUSH1 0x1 PUSH1 0x1 PUSH1 0xA0 SHL SUB DUP2 AND PUSH1 0x0 DUP2 DUP2 MSTORE PUSH1 0x12 PUSH1 0x20 MSTORE PUSH1 0x40 SWAP1 KECCAK256 SLOAD SWAP1 SWAP2 SWAP1 PUSH1 0xFF AND ISZERO PUSH2 0x4C3 JUMPI PUSH2 0x49A SWAP1 PUSH2 0x47F PUSH1 0x13 SLOAD PUSH1 0x5 SLOAD GT PUSH2 0x3344 JUMP JUMPDEST DUP3 PUSH1 0x0 MSTORE PUSH1 0x12 PUSH1 0x20 MSTORE PUSH1 0x40 PUSH1 0x0 KECCAK256 PUSH1 0xFF NOT DUP2 SLOAD AND SWAP1 SSTORE PUSH2 0x3A7C JUMP JUMPDEST CALLER SWAP1 PUSH32 0x2ED8CED05F0BF5751C86B0F3520B9F501827AB6A1F26A190C721AE2FA8A5D482 PUSH1 0x0 DUP1 LOG3 STOP JUMPDEST PUSH1 0x40 MLOAD PUSH3 0x461BCD PUSH1 0xE5 SHL DUP2 MSTORE PUSH1 0x20 PUSH1 0x4 DUP3 ADD MSTORE PUSH1 0x15 PUSH1 0x24 DUP3 ADD MSTORE PUSH21 0x139BC81A9BDA5B881C995C5D595CDD08199BDD5B99 PUSH1 0x5A SHL PUSH1 0x44 DUP3 ADD MSTORE PUSH1 0x64 SWAP1 REVERT JUMPDEST CALLVALUE PUSH2 0x3A4 JUMPI PUSH1 0x0 CALLDATASIZE PUSH1 0x3 NOT ADD SLT PUSH2 0x3A4 JUMPI PUSH1 0x20 PUSH1 0x40 MLOAD PUSH1 0x32 DUP2 MSTORE RETURN JUMPDEST CALLVALUE PUSH2 0x3A4 JUMPI PUSH1 0x0 CALLDATASIZE PUSH1 0x3 NOT ADD SLT PUSH2 0x3A4 JUMPI CALLER PUSH1 0x0 MSTORE PUSH1 0x11 PUSH1 0x20 MSTORE PUSH2 0x547 PUSH1 0xFF PUSH1 0x40 PUSH1 0x0 KECCAK256 SLOAD AND PUSH2 0x2F8E JUMP JUMPDEST PUSH2 0x54F PUSH2 0x3942 JUMP JUMPDEST PUSH1 0xFF PUSH1 0x8 SLOAD PUSH1 0x10 SHR AND ISZERO PUSH2 0x6D0 JUMPI PUSH1 0x19 SLOAD PUSH1 0xA0 SHR PUSH1 0xFF AND ISZERO PUSH2 0x66E JUMPI PUSH1 0x19 SLOAD PUSH1 0x40 MLOAD PUSH4 0x70A08231 PUSH1 0xE0 SHL DUP2 MSTORE ADDRESS PUSH1 0x4 DUP3 ADD MSTORE SWAP1 PUSH1 0x1 PUSH1 0x1 PUSH1 0xA0 SHL SUB AND PUSH1 0x20 DUP3 PUSH1 0x24 DUP2 DUP5 GAS STATICCALL SWAP2 DUP3 ISZERO PUSH2 0x662 JUMPI PUSH1 0x0 SWAP3 PUSH2 0x62B JUMPI JUMPDEST POP DUP2 DUP1 ISZERO PUSH2 0x5EE JUMPI PUSH2 0x5B6 SWAP2 CALLER SWAP1 PUSH2 0x3BC5 JUMP JUMPDEST PUSH1 0x0 PUSH1 0x15 SSTORE PUSH1 0x40 MLOAD SWAP1 DUP2 MSTORE PUSH32 0x378C5D0D6DEC48ECF81CDEAB52145598556D2A86FB096D5A344CD4D4BF064113 PUSH1 0x20 CALLER SWAP3 LOG2 PUSH1 0x1 PUSH1 0x0 SSTORE STOP JUMPDEST PUSH1 0x40 MLOAD PUSH3 0x461BCD PUSH1 0xE5 SHL DUP2 MSTORE PUSH1 0x20 PUSH1 0x4 DUP3 ADD MSTORE PUSH1 0x15 PUSH1 0x24 DUP3 ADD MSTORE PUSH21 0x4E6F20746F6B656E7320746F207769746864726177 PUSH1 0x58 SHL PUSH1 0x44 DUP3 ADD MSTORE PUSH1 0x64 SWAP1 REVERT JUMPDEST SWAP1 SWAP2 PUSH1 0x20 DUP3 RETURNDATASIZE PUSH1 0x20 GT PUSH2 0x65A JUMPI JUMPDEST DUP2 PUSH2 0x646 PUSH1 0x20 SWAP4 DUP4 PUSH2 0x2D04 JUMP JUMPDEST DUP2 ADD SUB SLT PUSH2 0x657 JUMPI POP MLOAD SWAP1 DUP3 PUSH2 0x5A3 JUMP JUMPDEST DUP1 REVERT JUMPDEST RETURNDATASIZE SWAP2 POP PUSH2 0x639 JUMP JUMPDEST PUSH1 0x40 MLOAD RETURNDATASIZE PUSH1 0x0 DUP3 RETURNDATACOPY RETURNDATASIZE SWAP1 REVERT JUMPDEST SELFBALANCE DUP1 ISZERO PUSH2 0x694 JUMPI PUSH2 0x68F PUSH1 0x0 DUP1 DUP1 DUP1 DUP6 CALLER GAS CALL PUSH2 0x689 PUSH2 0x3394 JUMP JUMPDEST POP PUSH2 0x33C4 JUMP JUMPDEST PUSH2 0x5B6 JUMP JUMPDEST PUSH1 0x40 MLOAD PUSH3 0x461BCD PUSH1 0xE5 SHL DUP2 MSTORE PUSH1 0x20 PUSH1 0x4 DUP3 ADD MSTORE PUSH1 0x14 PUSH1 0x24 DUP3 ADD MSTORE PUSH20 0x4E6F2066756E647320746F207769746864726177 PUSH1 0x60 SHL PUSH1 0x44 DUP3 ADD MSTORE PUSH1 0x64 SWAP1 REVERT JUMPDEST PUSH1 0x40 MLOAD PUSH3 0x461BCD PUSH1 0xE5 SHL DUP2 MSTORE PUSH1 0x20 PUSH1 0x4 DUP3 ADD MSTORE PUSH1 0x1E PUSH1 0x24 DUP3 ADD MSTORE PUSH32 0x456D657267656E6379207769746864726177206E6F7420616C6C6F7765640000 PUSH1 0x44 DUP3 ADD MSTORE PUSH1 0x64 SWAP1 REVERT JUMPDEST PUSH1 0x0 CALLDATASIZE PUSH1 0x3 NOT ADD SLT PUSH2 0x3A4 JUMPI CALLER PUSH1 0x0 MSTORE PUSH1 0x9 PUSH1 0x20 MSTORE PUSH1 0xFF PUSH1 0x40 PUSH1 0x0 KECCAK256 SLOAD AND DUP1 PUSH2 0x9DF JUMPI JUMPDEST PUSH2 0x742 SWAP1 PUSH2 0x30AC JUMP JUMPDEST PUSH2 0x753 PUSH1 0xFF PUSH1 0x18 SLOAD PUSH1 0xA0 SHR AND PUSH2 0x321E JUMP JUMPDEST PUSH2 0x761 PUSH1 0x6 SLOAD TIMESTAMP LT ISZERO PUSH2 0x3260 JUMP JUMPDEST PUSH2 0x76F PUSH1 0x7 SLOAD TIMESTAMP GT ISZERO PUSH2 0x32A3 JUMP JUMPDEST PUSH2 0x777 PUSH2 0x3942 JUMP JUMPDEST PUSH2 0x77F PUSH2 0x2F5F JUMP JUMPDEST CALLER PUSH1 0x0 MSTORE PUSH1 0x10 PUSH1 0x20 MSTORE PUSH1 0x40 PUSH1 0x0 KECCAK256 DUP2 PUSH1 0x0 MSTORE PUSH1 0x20 MSTORE PUSH1 0x40 PUSH1 0x0 KECCAK256 SLOAD PUSH2 0x99A JUMPI PUSH1 0x6 SLOAD PUSH3 0x93A80 DUP3 MUL DUP3 DUP2 DIV PUSH3 0x93A80 EQ DUP4 ISZERO OR ISZERO PUSH2 0x984 JUMPI PUSH2 0x7C7 PUSH2 0x7D0 SWAP2 PUSH2 0x7D9 SWAP4 PUSH2 0x2F81 JUMP JUMPDEST PUSH1 0x1B SLOAD SWAP1 PUSH2 0x2F81 JUMP JUMPDEST PUSH1 0x1A SLOAD SWAP1 PUSH2 0x2F81 JUMP JUMPDEST TIMESTAMP GT PUSH2 0x93F JUMPI PUSH1 0x19 SLOAD PUSH1 0xFF DUP2 PUSH1 0xA0 SHR AND PUSH1 0x0 EQ PUSH2 0x8F0 JUMPI CALLVALUE PUSH2 0x89C JUMPI PUSH1 0x3 SLOAD PUSH2 0x80E SWAP2 ADDRESS SWAP1 CALLER SWAP1 PUSH1 0x1 PUSH1 0x1 PUSH1 0xA0 SHL SUB AND PUSH2 0x3A33 JUMP JUMPDEST CALLER PUSH1 0x0 MSTORE PUSH1 0x10 PUSH1 0x20 MSTORE PUSH1 0x40 PUSH1 0x0 KECCAK256 DUP2 PUSH1 0x0 MSTORE PUSH1 0x20 MSTORE TIMESTAMP PUSH1 0x40 PUSH1 0x0 KECCAK256 SSTORE PUSH1 0x3 SLOAD CALLER PUSH1 0x0 MSTORE PUSH1 0x9 PUSH1 0x20 MSTORE PUSH2 0x849 PUSH1 0x2 PUSH1 0x40 PUSH1 0x0 KECCAK256 ADD SWAP2 DUP3 SLOAD PUSH2 0x2F81 JUMP JUMPDEST SWAP1 SSTORE PUSH1 0x3 SLOAD SWAP1 PUSH2 0x85B DUP3 PUSH1 0x15 SLOAD PUSH2 0x2F81 JUMP JUMPDEST PUSH1 0x15 SSTORE PUSH1 0x40 MLOAD SWAP2 DUP3 MSTORE PUSH1 0x20 DUP3 ADD MSTORE TIMESTAMP PUSH1 0x40 DUP3 ADD MSTORE PUSH32 0xBE446D8CD0C11CAC7C17817D3CC2A18D11008AB0C439D03564C978DF97805728 PUSH1 0x60 CALLER SWAP3 LOG2 PUSH1 0x1 PUSH1 0x0 SSTORE STOP JUMPDEST PUSH1 0x40 MLOAD PUSH3 0x461BCD PUSH1 0xE5 SHL DUP2 MSTORE PUSH1 0x20 PUSH1 0x4 DUP3 ADD MSTORE PUSH1 0x26 PUSH1 0x24 DUP3 ADD MSTORE PUSH32 0x446F6E27742073656E642045544820666F7220746F6B656E20636F6E74726962 PUSH1 0x44 DUP3 ADD MSTORE PUSH6 0x7574696F6E73 PUSH1 0xD0 SHL PUSH1 0x64 DUP3 ADD MSTORE PUSH1 0x84 SWAP1 REVERT JUMPDEST POP PUSH1 0x3 SLOAD CALLVALUE EQ PUSH2 0x80E JUMPI PUSH1 0x40 MLOAD PUSH3 0x461BCD PUSH1 0xE5 SHL DUP2 MSTORE PUSH1 0x20 PUSH1 0x4 DUP3 ADD MSTORE PUSH1 0x1D PUSH1 0x24 DUP3 ADD MSTORE PUSH32 0x496E636F727265637420636F6E747269627574696F6E20616D6F756E74000000 PUSH1 0x44 DUP3 ADD MSTORE PUSH1 0x64 SWAP1 REVERT JUMPDEST PUSH1 0x40 MLOAD PUSH3 0x461BCD PUSH1 0xE5 SHL DUP2 MSTORE PUSH1 0x20 PUSH1 0x4 DUP3 ADD MSTORE PUSH1 0x1A PUSH1 0x24 DUP3 ADD MSTORE PUSH32 0x436F6E747269627574696F6E2077696E646F7720636C6F736564000000000000 PUSH1 0x44 DUP3 ADD MSTORE PUSH1 0x64 SWAP1 REVERT JUMPDEST PUSH4 0x4E487B71 PUSH1 0xE0 SHL PUSH1 0x0 MSTORE PUSH1 0x11 PUSH1 0x4 MSTORE PUSH1 0x24 PUSH1 0x0 REVERT JUMPDEST PUSH1 0x40 MLOAD PUSH3 0x461BCD PUSH1 0xE5 SHL DUP2 MSTORE PUSH1 0x20 PUSH1 0x4 DUP3 ADD MSTORE PUSH1 0x1F PUSH1 0x24 DUP3 ADD MSTORE PUSH32 0x416C726561647920636F6E7472696275746564207468697320706572696F6400 PUSH1 0x44 DUP3 ADD MSTORE PUSH1 0x64 SWAP1 REVERT JUMPDEST POP CALLER PUSH1 0x0 SWAP1 DUP2 MSTORE PUSH1 0x9 PUSH1 0x20 MSTORE PUSH1 0x40 SWAP1 KECCAK256 SLOAD PUSH1 0x8 SHR PUSH1 0xFF AND PUSH2 0x739 JUMP JUMPDEST CALLVALUE PUSH2 0x3A4 JUMPI PUSH1 0x80 CALLDATASIZE PUSH1 0x3 NOT ADD SLT PUSH2 0x3A4 JUMPI PUSH1 0x4 CALLDATALOAD PUSH1 0x5 DUP2 LT ISZERO PUSH2 0x3A4 JUMPI PUSH2 0xA20 PUSH2 0x2E82 JUMP JUMPDEST SWAP1 PUSH1 0x64 CALLDATALOAD PUSH1 0x1 PUSH1 0x1 PUSH1 0x40 SHL SUB DUP2 GT PUSH2 0x3A4 JUMPI PUSH2 0xA40 SWAP1 CALLDATASIZE SWAP1 PUSH1 0x4 ADD PUSH2 0x2E98 JUMP JUMPDEST SWAP3 SWAP1 SWAP3 CALLER PUSH1 0x0 MSTORE PUSH1 0x9 PUSH1 0x20 MSTORE PUSH1 0xFF PUSH1 0x40 PUSH1 0x0 KECCAK256 SLOAD AND DUP1 PUSH2 0xBD2 JUMPI JUMPDEST PUSH2 0xA64 SWAP1 PUSH2 0x30AC JUMP JUMPDEST PUSH2 0xA6F PUSH1 0x1D SLOAD PUSH2 0x3082 JUMP JUMPDEST PUSH1 0x1D DUP2 SWAP1 SSTORE PUSH1 0x0 SWAP1 DUP2 MSTORE PUSH1 0xE PUSH1 0x20 MSTORE PUSH1 0x40 DUP2 KECCAK256 DUP1 SLOAD PUSH1 0x1 PUSH1 0x1 PUSH1 0xA8 SHL SUB NOT AND PUSH1 0xFF DUP7 AND OR PUSH1 0x8 SWAP5 SWAP1 SWAP5 SHL PUSH2 0x100 PUSH1 0x1 PUSH1 0xA8 SHL SUB AND SWAP4 SWAP1 SWAP4 OR DUP4 SSTORE PUSH1 0x44 CALLDATALOAD PUSH1 0x1 DUP5 ADD SSTORE PUSH1 0x2 DUP4 ADD SWAP2 PUSH1 0x1 PUSH1 0x1 PUSH1 0x40 SHL SUB DUP2 GT PUSH2 0xBBE JUMPI PUSH1 0x20 SWAP6 PUSH2 0xADB DUP3 PUSH2 0xAD5 DUP7 SLOAD PUSH2 0x2C79 JUMP JUMPDEST DUP7 PUSH2 0x31CC JUMP JUMPDEST DUP3 PUSH1 0x1F DUP4 GT PUSH1 0x1 EQ PUSH2 0xB5B JUMPI PUSH2 0xB08 SWAP4 SWAP1 SWAP2 DUP4 PUSH2 0xB50 JUMPI JUMPDEST POP POP DUP2 PUSH1 0x1 SHL SWAP2 PUSH1 0x0 NOT SWAP1 PUSH1 0x3 SHL SHR NOT AND OR SWAP1 JUMP JUMPDEST SWAP1 SSTORE JUMPDEST PUSH1 0x5 TIMESTAMP SWAP2 ADD SSTORE PUSH1 0x1D SLOAD SWAP1 PUSH2 0xB22 PUSH1 0x40 MLOAD DUP1 SWAP3 PUSH2 0x2DC9 JUMP JUMPDEST DUP2 PUSH32 0x3263432A41F78A4701CC9465F62411ED717ADE32290C084135A3DD6B29F4BF28 DUP5 CALLER SWAP4 LOG3 PUSH1 0x40 MLOAD SWAP1 DUP2 MSTORE RETURN JUMPDEST ADD CALLDATALOAD SWAP1 POP DUP8 DUP1 PUSH2 0xAF3 JUMP JUMPDEST SWAP2 SWAP3 PUSH1 0x1F NOT DUP5 AND DUP6 DUP5 MSTORE DUP9 DUP5 KECCAK256 SWAP4 JUMPDEST DUP2 DUP2 LT PUSH2 0xBA7 JUMPI POP SWAP1 DUP5 PUSH1 0x1 SWAP6 SWAP5 SWAP4 SWAP3 LT PUSH2 0xB8D JUMPI JUMPDEST POP POP POP DUP2 SHL ADD SWAP1 SSTORE PUSH2 0xB0B JUMP JUMPDEST ADD CALLDATALOAD PUSH1 0x0 NOT PUSH1 0x3 DUP5 SWAP1 SHL PUSH1 0xF8 AND SHR NOT AND SWAP1 SSTORE DUP7 DUP1 DUP1 PUSH2 0xB80 JUMP JUMPDEST SWAP2 SWAP4 DUP10 PUSH1 0x1 DUP2 SWAP3 DUP8 DUP8 ADD CALLDATALOAD DUP2 SSTORE ADD SWAP6 ADD SWAP3 ADD PUSH2 0xB6A JUMP JUMPDEST PUSH4 0x4E487B71 PUSH1 0xE0 SHL DUP3 MSTORE PUSH1 0x41 PUSH1 0x4 MSTORE PUSH1 0x24 DUP3 REVERT JUMPDEST POP CALLER PUSH1 0x0 SWAP1 DUP2 MSTORE PUSH1 0x9 PUSH1 0x20 MSTORE PUSH1 0x40 SWAP1 KECCAK256 SLOAD PUSH1 0x8 SHR PUSH1 0xFF AND PUSH2 0xA5B JUMP JUMPDEST CALLVALUE PUSH2 0x3A4 JUMPI PUSH1 0x0 CALLDATASIZE PUSH1 0x3 NOT ADD SLT PUSH2 0x3A4 JUMPI CALLER PUSH1 0x0 MSTORE PUSH1 0x9 PUSH1 0x20 MSTORE PUSH1 0xFF PUSH1 0x40 PUSH1 0x0 KECCAK256 SLOAD AND DUP1 PUSH2 0xD1D JUMPI JUMPDEST PUSH2 0xC20 SWAP1 PUSH2 0x30AC JUMP JUMPDEST PUSH2 0xC28 PUSH2 0x3942 JUMP JUMPDEST CALLER PUSH1 0x0 MSTORE PUSH1 0xA PUSH1 0x20 MSTORE PUSH1 0xFF PUSH1 0x2 PUSH1 0x40 PUSH1 0x0 KECCAK256 ADD SLOAD AND PUSH2 0xCCC JUMPI PUSH2 0xC4A CALLER PUSH2 0x3B5C JUMP JUMPDEST CALLER PUSH1 0x0 MSTORE PUSH1 0x9 PUSH1 0x20 MSTORE PUSH1 0x40 PUSH1 0x0 KECCAK256 PUSH2 0xFF00 NOT DUP2 SLOAD AND SWAP1 SSTORE PUSH2 0xC6C PUSH1 0x14 SLOAD PUSH2 0x3211 JUMP JUMPDEST PUSH1 0x14 SSTORE DUP1 PUSH2 0xCAE JUMPI JUMPDEST PUSH1 0x40 MLOAD SWAP1 DUP2 MSTORE TIMESTAMP PUSH1 0x20 DUP3 ADD MSTORE PUSH32 0x9FE2549E029DC601C32D2B99A63BB5D8790E62936AE6DFD93013CBAE2A3F2E1E PUSH1 0x40 CALLER SWAP3 LOG2 PUSH1 0x1 PUSH1 0x0 SSTORE STOP JUMPDEST PUSH2 0xCBA DUP2 PUSH1 0x15 SLOAD PUSH2 0x2F52 JUMP JUMPDEST PUSH1 0x15 SSTORE PUSH2 0xCC7 DUP2 CALLER PUSH2 0x39EC JUMP JUMPDEST PUSH2 0xC75 JUMP JUMPDEST PUSH1 0x40 MLOAD PUSH3 0x461BCD PUSH1 0xE5 SHL DUP2 MSTORE PUSH1 0x20 PUSH1 0x4 DUP3 ADD MSTORE PUSH1 0x23 PUSH1 0x24 DUP3 ADD MSTORE PUSH32 0x43616E6E6F74206C656176652077697468206163746976652070756E6973686D PUSH1 0x44 DUP3 ADD MSTORE PUSH3 0x195B9D PUSH1 0xEA SHL PUSH1 0x64 DUP3 ADD MSTORE PUSH1 0x84 SWAP1 REVERT JUMPDEST POP CALLER PUSH1 0x0 SWAP1 DUP2 MSTORE PUSH1 0x9 PUSH1 0x20 MSTORE PUSH1 0x40 SWAP1 KECCAK256 SLOAD PUSH1 0x8 SHR PUSH1 0xFF AND PUSH2 0xC17 JUMP JUMPDEST CALLVALUE PUSH2 0x3A4 JUMPI PUSH1 0x20 CALLDATASIZE PUSH1 0x3 NOT ADD SLT PUSH2 0x3A4 JUMPI PUSH1 0x1 PUSH1 0x1 PUSH1 0xA0 SHL SUB PUSH2 0xD5A PUSH2 0x2E6C JUMP JUMPDEST AND PUSH1 0x0 MSTORE PUSH1 0xD PUSH1 0x20 MSTORE PUSH1 0x40 PUSH1 0x0 KECCAK256 PUSH1 0x40 MLOAD DUP1 PUSH1 0x20 DUP4 SLOAD SWAP2 DUP3 DUP2 MSTORE ADD SWAP1 DUP2 SWAP4 PUSH1 0x0 MSTORE PUSH1 0x20 PUSH1 0x0 KECCAK256 SWAP1 PUSH1 0x0 JUMPDEST DUP2 DUP2 LT PUSH2 0xDDD JUMPI POP POP POP DUP2 PUSH2 0xD9A SWAP2 SUB DUP3 PUSH2 0x2D04 JUMP JUMPDEST PUSH1 0x40 MLOAD SWAP2 DUP3 SWAP2 PUSH1 0x20 DUP4 ADD SWAP1 PUSH1 0x20 DUP5 MSTORE MLOAD DUP1 SWAP2 MSTORE PUSH1 0x40 DUP4 ADD SWAP2 SWAP1 PUSH1 0x0 JUMPDEST DUP2 DUP2 LT PUSH2 0xDC4 JUMPI POP POP POP SUB SWAP1 RETURN JUMPDEST DUP3 MLOAD DUP5 MSTORE DUP6 SWAP5 POP PUSH1 0x20 SWAP4 DUP5 ADD SWAP4 SWAP1 SWAP3 ADD SWAP2 PUSH1 0x1 ADD PUSH2 0xDB6 JUMP JUMPDEST DUP3 SLOAD DUP5 MSTORE PUSH1 0x20 SWAP1 SWAP4 ADD SWAP3 PUSH1 0x1 SWAP3 DUP4 ADD SWAP3 ADD PUSH2 0xD84 JUMP JUMPDEST CALLVALUE PUSH2 0x3A4 JUMPI PUSH1 0x20 CALLDATASIZE PUSH1 0x3 NOT ADD SLT PUSH2 0x3A4 JUMPI PUSH1 0x4 CALLDATALOAD PUSH1 0x1 PUSH1 0x1 PUSH1 0x40 SHL SUB DUP2 GT PUSH2 0x3A4 JUMPI CALLDATASIZE PUSH1 0x23 DUP3 ADD SLT ISZERO PUSH2 0x3A4 JUMPI DUP1 PUSH1 0x4 ADD CALLDATALOAD SWAP1 PUSH1 0x1 PUSH1 0x1 PUSH1 0x40 SHL SUB DUP3 GT PUSH2 0x3A4 JUMPI CALLDATASIZE PUSH1 0x24 DUP4 PUSH1 0x5 SHL DUP4 ADD ADD GT PUSH2 0x3A4 JUMPI PUSH2 0xE58 PUSH1 0x1 DUP1 PUSH1 0xA0 SHL SUB PUSH1 0x18 SLOAD AND CALLER EQ PUSH2 0x30EF JUMP JUMPDEST PUSH1 0xB SLOAD DUP1 PUSH2 0x1004 JUMPI PUSH1 0x13 SLOAD DUP4 SUB PUSH2 0xFC8 JUMPI PUSH1 0x0 JUMPDEST DUP4 DUP2 LT ISZERO PUSH2 0xEF1 JUMPI PUSH1 0xFF PUSH1 0x40 PUSH1 0x0 PUSH1 0x1 PUSH1 0x1 PUSH1 0xA0 SHL SUB PUSH2 0xE94 PUSH1 0x5 DUP7 SWAP1 SHL DUP9 ADD PUSH1 0x24 ADD PUSH2 0x3380 JUMP JUMPDEST AND DUP2 MSTORE PUSH1 0x9 PUSH1 0x20 MSTORE KECCAK256 SLOAD AND ISZERO PUSH2 0xEAC JUMPI PUSH1 0x1 ADD PUSH2 0xE6C JUMP JUMPDEST PUSH1 0x40 MLOAD PUSH3 0x461BCD PUSH1 0xE5 SHL DUP2 MSTORE PUSH1 0x20 PUSH1 0x4 DUP3 ADD MSTORE PUSH1 0x17 PUSH1 0x24 DUP3 ADD MSTORE PUSH32 0x496E76616C6964206D656D62657220696E207175657565000000000000000000 PUSH1 0x44 DUP3 ADD MSTORE PUSH1 0x64 SWAP1 REVERT JUMPDEST POP SWAP2 SWAP1 PUSH1 0x0 SWAP3 PUSH1 0x1 PUSH1 0x40 SHL DUP4 GT PUSH2 0xFB4 JUMPI SWAP1 PUSH1 0x24 SWAP2 DUP4 PUSH1 0xB SSTORE DUP1 DUP5 LT PUSH2 0xF60 JUMPI JUMPDEST POP ADD PUSH1 0xB DUP4 MSTORE DUP3 JUMPDEST DUP3 DUP2 LT PUSH2 0xF25 JUMPI DUP4 DUP1 RETURN JUMPDEST PUSH1 0x1 SWAP1 PUSH1 0x20 PUSH2 0xF33 DUP5 PUSH2 0x3380 JUMP JUMPDEST SWAP4 ADD SWAP3 DUP2 PUSH32 0x175B7A638427703F0DBE7BB9BBF987A2551717B34E79F33B5B1008D1FA01DB9 ADD SSTORE ADD PUSH2 0xF1A JUMP JUMPDEST PUSH2 0xFAE SWAP1 PUSH32 0x175B7A638427703F0DBE7BB9BBF987A2551717B34E79F33B5B1008D1FA01DB9 ADD DUP5 PUSH32 0x175B7A638427703F0DBE7BB9BBF987A2551717B34E79F33B5B1008D1FA01DB9 ADD PUSH2 0x31B5 JUMP JUMPDEST DUP5 PUSH2 0xF12 JUMP JUMPDEST PUSH4 0x4E487B71 PUSH1 0xE0 SHL DUP5 MSTORE PUSH1 0x41 PUSH1 0x4 MSTORE PUSH1 0x24 DUP5 REVERT JUMPDEST PUSH1 0x40 MLOAD PUSH3 0x461BCD PUSH1 0xE5 SHL DUP2 MSTORE PUSH1 0x20 PUSH1 0x4 DUP3 ADD MSTORE PUSH1 0x14 PUSH1 0x24 DUP3 ADD MSTORE PUSH20 0x92DCECC2D8D2C840E2EACAEACA40D8CADCCEE8D PUSH1 0x63 SHL PUSH1 0x44 DUP3 ADD MSTORE PUSH1 0x64 SWAP1 REVERT JUMPDEST PUSH1 0x40 MLOAD PUSH3 0x461BCD PUSH1 0xE5 SHL DUP2 MSTORE PUSH1 0x20 PUSH1 0x4 DUP3 ADD MSTORE PUSH1 0x14 PUSH1 0x24 DUP3 ADD MSTORE PUSH20 0x145D595D59481A5CC8185B1C9958591E481CD95D PUSH1 0x62 SHL PUSH1 0x44 DUP3 ADD MSTORE PUSH1 0x64 SWAP1 REVERT JUMPDEST CALLVALUE PUSH2 0x3A4 JUMPI PUSH1 0x40 CALLDATASIZE PUSH1 0x3 NOT ADD SLT PUSH2 0x3A4 JUMPI PUSH1 0x1 PUSH1 0x1 PUSH1 0xA0 SHL SUB PUSH2 0x1061 PUSH2 0x2E6C JUMP JUMPDEST AND PUSH1 0x0 MSTORE PUSH1 0x10 PUSH1 0x20 MSTORE PUSH1 0x40 PUSH1 0x0 KECCAK256 PUSH1 0x24 CALLDATALOAD PUSH1 0x0 MSTORE PUSH1 0x20 MSTORE PUSH1 0x20 PUSH1 0x40 PUSH1 0x0 KECCAK256 SLOAD PUSH1 0x40 MLOAD SWAP1 DUP2 MSTORE RETURN JUMPDEST CALLVALUE PUSH2 0x3A4 JUMPI PUSH1 0x40 CALLDATASIZE PUSH1 0x3 NOT ADD SLT PUSH2 0x3A4 JUMPI PUSH2 0x10A1 PUSH2 0x2E6C JUMP JUMPDEST PUSH1 0x1 PUSH1 0x1 PUSH1 0xA0 SHL SUB AND PUSH1 0x0 SWAP1 DUP2 MSTORE PUSH1 0xD PUSH1 0x20 MSTORE PUSH1 0x40 SWAP1 KECCAK256 DUP1 SLOAD PUSH1 0x24 CALLDATALOAD SWAP2 SWAP1 DUP3 LT ISZERO PUSH2 0x3A4 JUMPI PUSH1 0x20 SWAP2 PUSH2 0x10D2 SWAP2 PUSH2 0x2F3A JUMP JUMPDEST SWAP1 SLOAD SWAP1 PUSH1 0x3 SHL SHR PUSH1 0x40 MLOAD SWAP1 DUP2 MSTORE RETURN JUMPDEST CALLVALUE PUSH2 0x3A4 JUMPI PUSH1 0x0 CALLDATASIZE PUSH1 0x3 NOT ADD SLT PUSH2 0x3A4 JUMPI PUSH1 0x20 PUSH1 0x1A SLOAD PUSH1 0x40 MLOAD SWAP1 DUP2 MSTORE RETURN JUMPDEST CALLVALUE PUSH2 0x3A4 JUMPI PUSH1 0x0 CALLDATASIZE PUSH1 0x3 NOT ADD SLT PUSH2 0x3A4 JUMPI PUSH2 0x1121 PUSH1 0xFF PUSH1 0x18 SLOAD PUSH1 0xA0 SHR AND PUSH2 0x321E JUMP JUMPDEST PUSH2 0x112F PUSH1 0x6 SLOAD TIMESTAMP LT ISZERO PUSH2 0x3260 JUMP JUMPDEST PUSH2 0x113D PUSH1 0x7 SLOAD TIMESTAMP GT ISZERO PUSH2 0x32A3 JUMP JUMPDEST CALLER PUSH1 0x0 MSTORE PUSH1 0x9 PUSH1 0x20 MSTORE PUSH1 0xFF PUSH1 0x40 PUSH1 0x0 KECCAK256 SLOAD AND PUSH2 0x127B JUMPI PUSH2 0x1162 PUSH1 0x13 SLOAD PUSH1 0x5 SLOAD GT PUSH2 0x3344 JUMP JUMPDEST CALLER PUSH1 0x0 MSTORE PUSH1 0xA PUSH1 0x20 MSTORE PUSH1 0xFF PUSH1 0x2 PUSH1 0x40 PUSH1 0x0 KECCAK256 ADD SLOAD AND PUSH2 0x1236 JUMPI PUSH1 0xFF PUSH1 0x8 SLOAD PUSH1 0x8 SHR AND PUSH1 0x0 EQ PUSH2 0x122D JUMPI CALLER PUSH1 0x0 MSTORE PUSH1 0x12 PUSH1 0x20 MSTORE PUSH1 0xFF PUSH1 0x40 PUSH1 0x0 KECCAK256 SLOAD AND PUSH2 0x11E8 JUMPI CALLER PUSH1 0x0 MSTORE PUSH1 0x12 PUSH1 0x20 MSTORE PUSH1 0x40 PUSH1 0x0 KECCAK256 PUSH1 0x1 PUSH1 0xFF NOT DUP3 SLOAD AND OR SWAP1 SSTORE PUSH1 0x40 MLOAD TIMESTAMP DUP2 MSTORE PUSH32 0x2F11FEDBF3E827478272CB1FF550237376AA545F3D4742CEBA5CA14F195BB53A PUSH1 0x20 CALLER SWAP3 LOG2 STOP JUMPDEST PUSH1 0x40 MLOAD PUSH3 0x461BCD PUSH1 0xE5 SHL DUP2 MSTORE PUSH1 0x20 PUSH1 0x4 DUP3 ADD MSTORE PUSH1 0x1E PUSH1 0x24 DUP3 ADD MSTORE PUSH32 0x4A6F696E207265717565737420616C7265616479207375626D69747465640000 PUSH1 0x44 DUP3 ADD MSTORE PUSH1 0x64 SWAP1 REVERT JUMPDEST PUSH2 0xE CALLER PUSH2 0x3A7C JUMP JUMPDEST PUSH1 0x40 MLOAD PUSH3 0x461BCD PUSH1 0xE5 SHL DUP2 MSTORE PUSH1 0x20 PUSH1 0x4 DUP3 ADD MSTORE PUSH1 0x1A PUSH1 0x24 DUP3 ADD MSTORE PUSH32 0x5573657220686173206163746976652070756E6973686D656E74000000000000 PUSH1 0x44 DUP3 ADD MSTORE PUSH1 0x64 SWAP1 REVERT JUMPDEST PUSH1 0x40 MLOAD PUSH3 0x461BCD PUSH1 0xE5 SHL DUP2 MSTORE PUSH1 0x20 PUSH1 0x4 DUP3 ADD MSTORE PUSH1 0x10 PUSH1 0x24 DUP3 ADD MSTORE PUSH16 0x20B63932B0B23C90309036B2B6B132B9 PUSH1 0x81 SHL PUSH1 0x44 DUP3 ADD MSTORE PUSH1 0x64 SWAP1 REVERT JUMPDEST CALLVALUE PUSH2 0x3A4 JUMPI PUSH1 0x0 CALLDATASIZE PUSH1 0x3 NOT ADD SLT PUSH2 0x3A4 JUMPI PUSH1 0x20 PUSH1 0x15 SLOAD PUSH1 0x40 MLOAD SWAP1 DUP2 MSTORE RETURN JUMPDEST CALLVALUE PUSH2 0x3A4 JUMPI PUSH1 0x40 CALLDATASIZE PUSH1 0x3 NOT ADD SLT PUSH2 0x3A4 JUMPI PUSH2 0x12EA PUSH2 0x2E82 JUMP JUMPDEST PUSH1 0x4 CALLDATALOAD PUSH1 0x0 MSTORE PUSH1 0xF PUSH1 0x20 MSTORE PUSH1 0x40 PUSH1 0x0 KECCAK256 SWAP1 PUSH1 0x1 DUP1 PUSH1 0xA0 SHL SUB AND PUSH1 0x0 MSTORE PUSH1 0x20 MSTORE PUSH1 0x20 PUSH1 0xFF PUSH1 0x40 PUSH1 0x0 KECCAK256 SLOAD AND PUSH1 0x40 MLOAD SWAP1 ISZERO ISZERO DUP2 MSTORE RETURN JUMPDEST CALLVALUE PUSH2 0x3A4 JUMPI PUSH1 0x0 CALLDATASIZE PUSH1 0x3 NOT ADD SLT PUSH2 0x3A4 JUMPI CALLER PUSH1 0x0 MSTORE PUSH1 0x11 PUSH1 0x20 MSTORE PUSH2 0x1349 PUSH1 0xFF PUSH1 0x40 PUSH1 0x0 KECCAK256 SLOAD AND PUSH2 0x2F8E JUMP JUMPDEST PUSH1 0x1 SLOAD PUSH1 0xFF DUP2 AND PUSH2 0x138B JUMPI PUSH1 0x1 SWAP1 PUSH1 0xFF NOT AND OR PUSH1 0x1 SSTORE PUSH32 0x62E78CEA01BEE320CD4E420270B5EA74000D11B0C9F74754EBDBFC544B05A258 PUSH1 0x20 PUSH1 0x40 MLOAD CALLER DUP2 MSTORE LOG1 STOP JUMPDEST PUSH4 0xD93C0665 PUSH1 0xE0 SHL PUSH1 0x0 MSTORE PUSH1 0x4 PUSH1 0x0 REVERT JUMPDEST CALLVALUE PUSH2 0x3A4 JUMPI PUSH1 0x20 CALLDATASIZE PUSH1 0x3 NOT ADD SLT PUSH2 0x3A4 JUMPI PUSH1 0x1 PUSH1 0x1 PUSH1 0xA0 SHL SUB PUSH2 0x13BD PUSH2 0x2E6C JUMP JUMPDEST AND PUSH1 0x0 MSTORE PUSH1 0x9 PUSH1 0x20 MSTORE PUSH1 0x40 PUSH1 0x0 KECCAK256 PUSH1 0x40 MLOAD SWAP1 PUSH2 0x13D8 DUP3 PUSH2 0x2CE9 JUMP JUMPDEST PUSH2 0x1457 PUSH1 0xA0 DUP3 SLOAD SWAP3 PUSH1 0xFF DUP1 DUP6 AND ISZERO ISZERO SWAP5 DUP6 DUP8 MSTORE PUSH1 0x8 SHR AND ISZERO ISZERO SWAP5 DUP6 PUSH1 0x20 DUP3 ADD MSTORE PUSH1 0x1 DUP3 ADD SLOAD DUP1 PUSH1 0x40 DUP4 ADD MSTORE PUSH1 0x2 DUP4 ADD SLOAD SWAP2 DUP3 PUSH1 0x60 DUP3 ADD MSTORE PUSH1 0x4 PUSH1 0x3 DUP6 ADD SLOAD SWAP5 DUP6 PUSH1 0x80 DUP5 ADD MSTORE ADD SLOAD SWAP5 DUP6 SWAP2 ADD MSTORE PUSH1 0x40 MLOAD SWAP7 DUP8 SWAP7 DUP8 SWAP3 PUSH1 0xA0 SWAP5 SWAP2 SWAP8 SWAP7 SWAP6 SWAP3 PUSH1 0xC0 DUP6 ADD SWAP9 ISZERO ISZERO DUP6 MSTORE ISZERO ISZERO PUSH1 0x20 DUP6 ADD MSTORE PUSH1 0x40 DUP5 ADD MSTORE PUSH1 0x60 DUP4 ADD MSTORE PUSH1 0x80 DUP3 ADD MSTORE ADD MSTORE JUMP JUMPDEST SUB SWAP1 RETURN JUMPDEST CALLVALUE PUSH2 0x3A4 JUMPI PUSH1 0x20 CALLDATASIZE PUSH1 0x3 NOT ADD SLT PUSH2 0x3A4 JUMPI PUSH1 0x1 PUSH1 0x1 PUSH1 0xA0 SHL SUB PUSH2 0x147C PUSH2 0x2E6C JUMP JUMPDEST AND PUSH1 0x0 MSTORE PUSH1 0xA PUSH1 0x20 MSTORE PUSH1 0x40 PUSH1 0x0 KECCAK256 PUSH1 0xFF DUP2 SLOAD AND PUSH2 0x1457 PUSH2 0x149E PUSH1 0x1 DUP5 ADD PUSH2 0x2D25 JUMP JUMPDEST SWAP3 PUSH1 0xFF PUSH1 0x2 DUP3 ADD SLOAD AND SWAP1 PUSH1 0x4 PUSH1 0x3 DUP3 ADD SLOAD SWAP2 ADD SLOAD SWAP2 PUSH1 0x40 MLOAD SWAP6 DUP7 SWAP6 DUP7 PUSH2 0x2ED2 JUMP JUMPDEST CALLVALUE PUSH2 0x3A4 JUMPI PUSH1 0x0 CALLDATASIZE PUSH1 0x3 NOT ADD SLT PUSH2 0x3A4 JUMPI PUSH1 0x20 PUSH1 0x17 SLOAD PUSH1 0x40 MLOAD SWAP1 DUP2 MSTORE RETURN JUMPDEST CALLVALUE PUSH2 0x3A4 JUMPI PUSH1 0x20 CALLDATASIZE PUSH1 0x3 NOT ADD SLT PUSH2 0x3A4 JUMPI PUSH1 0x4 CALLDATALOAD PUSH1 0x0 MSTORE PUSH1 0xC PUSH1 0x20 MSTORE PUSH1 0x40 PUSH1 0x0 KECCAK256 PUSH1 0x40 MLOAD SWAP1 PUSH2 0x150B DUP3 PUSH2 0x2CCE JUMP JUMPDEST DUP1 SLOAD PUSH1 0x1 PUSH1 0x1 PUSH1 0xA0 SHL SUB AND DUP1 DUP4 MSTORE PUSH1 0x1 DUP3 ADD SLOAD PUSH1 0x20 DUP1 DUP6 ADD DUP3 SWAP1 MSTORE PUSH1 0x2 DUP5 ADD SLOAD PUSH1 0x40 DUP1 DUP8 ADD DUP3 SWAP1 MSTORE PUSH1 0x3 SWAP1 SWAP6 ADD SLOAD PUSH1 0xFF AND ISZERO ISZERO PUSH1 0x60 SWAP7 DUP8 ADD DUP2 SWAP1 MSTORE DUP6 MLOAD SWAP5 DUP6 MSTORE SWAP2 DUP5 ADD SWAP3 SWAP1 SWAP3 MSTORE SWAP3 DUP3 ADD MSTORE SWAP2 DUP3 ADD MSTORE PUSH1 0x80 SWAP1 RETURN JUMPDEST CALLVALUE PUSH2 0x3A4 JUMPI PUSH1 0x20 CALLDATASIZE PUSH1 0x3 NOT ADD SLT PUSH2 0x3A4 JUMPI PUSH2 0x1578 PUSH2 0x2E6C JUMP JUMPDEST PUSH2 0x158D PUSH1 0x1 DUP1 PUSH1 0xA0 SHL SUB PUSH1 0x18 SLOAD AND CALLER EQ PUSH2 0x30EF JUMP JUMPDEST PUSH1 0x1 PUSH1 0x1 PUSH1 0xA0 SHL SUB AND PUSH1 0x0 DUP2 DUP2 MSTORE PUSH1 0x11 PUSH1 0x20 MSTORE PUSH1 0x40 SWAP1 KECCAK256 SLOAD PUSH1 0xFF AND PUSH2 0x15EC JUMPI DUP1 PUSH1 0x0 MSTORE PUSH1 0x11 PUSH1 0x20 MSTORE PUSH1 0x40 PUSH1 0x0 KECCAK256 PUSH1 0x1 PUSH1 0xFF NOT DUP3 SLOAD AND OR SWAP1 SSTORE PUSH32 0x44D6D25963F097AD14F29F06854A01F575648A1EF82F30E562CCD3889717E339 PUSH1 0x0 DUP1 LOG2 STOP JUMPDEST PUSH1 0x40 MLOAD PUSH3 0x461BCD PUSH1 0xE5 SHL DUP2 MSTORE PUSH1 0x20 PUSH1 0x4 DUP3 ADD MSTORE PUSH1 0x10 PUSH1 0x24 DUP3 ADD MSTORE PUSH16 0x20B63932B0B23C9030B71030B236B4B7 PUSH1 0x81 SHL PUSH1 0x44 DUP3 ADD MSTORE PUSH1 0x64 SWAP1 REVERT JUMPDEST PUSH1 0x0 CALLDATASIZE PUSH1 0x3 NOT ADD SLT PUSH2 0x3A4 JUMPI PUSH2 0x1638 PUSH2 0x3942 JUMP JUMPDEST CALLER PUSH1 0x0 MSTORE PUSH1 0xA PUSH1 0x20 MSTORE PUSH1 0x40 PUSH1 0x0 KECCAK256 PUSH1 0x2 DUP2 ADD SWAP1 PUSH2 0x1658 PUSH1 0xFF DUP4 SLOAD AND PUSH2 0x3301 JUMP JUMPDEST PUSH1 0xFF DUP2 SLOAD AND PUSH1 0x4 DUP2 LT ISZERO PUSH2 0x17C4 JUMPI PUSH1 0x2 SUB PUSH2 0x1787 JUMPI PUSH1 0x4 ADD SLOAD SWAP1 PUSH1 0x19 SLOAD PUSH1 0xFF DUP2 PUSH1 0xA0 SHR AND PUSH1 0x0 EQ PUSH2 0x1742 JUMPI CALLVALUE PUSH2 0x16FD JUMPI PUSH2 0x16A0 SWAP1 DUP4 SWAP1 ADDRESS SWAP1 CALLER SWAP1 PUSH1 0x1 PUSH1 0x1 PUSH1 0xA0 SHL SUB AND PUSH2 0x3A33 JUMP JUMPDEST PUSH1 0xFF NOT DUP2 SLOAD AND SWAP1 SSTORE CALLER PUSH1 0x0 MSTORE PUSH1 0x9 PUSH1 0x20 MSTORE PUSH1 0x0 PUSH1 0x4 PUSH1 0x40 DUP3 KECCAK256 ADD SSTORE PUSH2 0x16C7 DUP2 PUSH1 0x15 SLOAD PUSH2 0x2F81 JUMP JUMPDEST PUSH1 0x15 SSTORE PUSH1 0x40 MLOAD SWAP1 DUP2 MSTORE PUSH32 0xEA01A5DB185FB713C48073ED217455C9E653281D3C5BA9509467BE58F467706D PUSH1 0x20 CALLER SWAP3 LOG2 PUSH1 0x1 PUSH1 0x0 SSTORE STOP JUMPDEST PUSH1 0x40 MLOAD PUSH3 0x461BCD PUSH1 0xE5 SHL DUP2 MSTORE PUSH1 0x20 PUSH1 0x4 DUP3 ADD MSTORE PUSH1 0x1E PUSH1 0x24 DUP3 ADD MSTORE PUSH32 0x446F6E27742073656E642045544820666F7220746F6B656E2066696E65730000 PUSH1 0x44 DUP3 ADD MSTORE PUSH1 0x64 SWAP1 REVERT JUMPDEST POP CALLVALUE DUP3 EQ PUSH2 0x16A0 JUMPI PUSH1 0x40 MLOAD PUSH3 0x461BCD PUSH1 0xE5 SHL DUP2 MSTORE PUSH1 0x20 PUSH1 0x4 DUP3 ADD MSTORE PUSH1 0x15 PUSH1 0x24 DUP3 ADD MSTORE PUSH21 0x125B98DBDC9C9958DD08199A5B9948185B5BDD5B9D PUSH1 0x5A SHL PUSH1 0x44 DUP3 ADD MSTORE PUSH1 0x64 SWAP1 REVERT JUMPDEST PUSH1 0x40 MLOAD PUSH3 0x461BCD PUSH1 0xE5 SHL DUP2 MSTORE PUSH1 0x20 PUSH1 0x4 DUP3 ADD MSTORE PUSH1 0x15 PUSH1 0x24 DUP3 ADD MSTORE PUSH21 0x139BDD081848199A5B99481C1D5B9A5CDA1B595B9D PUSH1 0x5A SHL PUSH1 0x44 DUP3 ADD MSTORE PUSH1 0x64 SWAP1 REVERT JUMPDEST PUSH4 0x4E487B71 PUSH1 0xE0 SHL PUSH1 0x0 MSTORE PUSH1 0x21 PUSH1 0x4 MSTORE PUSH1 0x24 PUSH1 0x0 REVERT JUMPDEST CALLVALUE PUSH2 0x3A4 JUMPI PUSH1 0x0 CALLDATASIZE PUSH1 0x3 NOT ADD SLT PUSH2 0x3A4 JUMPI PUSH1 0x20 PUSH1 0x40 MLOAD PUSH3 0x93A80 DUP2 MSTORE RETURN JUMPDEST CALLVALUE PUSH2 0x3A4 JUMPI PUSH1 0x0 CALLDATASIZE PUSH1 0x3 NOT ADD SLT PUSH2 0x3A4 JUMPI CALLER PUSH1 0x0 MSTORE PUSH1 0x11 PUSH1 0x20 MSTORE PUSH2 0x1823 PUSH1 0xFF PUSH1 0x40 PUSH1 0x0 KECCAK256 SLOAD AND PUSH2 0x2F8E JUMP JUMPDEST PUSH2 0x1834 PUSH1 0xFF PUSH1 0x18 SLOAD PUSH1 0xA0 SHR AND PUSH2 0x321E JUMP JUMPDEST PUSH2 0x1842 PUSH1 0x6 SLOAD TIMESTAMP LT ISZERO PUSH2 0x3260 JUMP JUMPDEST PUSH2 0x1850 PUSH1 0x7 SLOAD TIMESTAMP GT ISZERO PUSH2 0x32A3 JUMP JUMPDEST PUSH2 0x1858 PUSH2 0x3942 JUMP JUMPDEST PUSH2 0x1860 PUSH2 0x2F5F JUMP JUMPDEST PUSH1 0x0 DUP2 DUP2 MSTORE PUSH1 0xC PUSH1 0x20 MSTORE PUSH1 0x40 SWAP1 KECCAK256 SLOAD PUSH1 0x1 PUSH1 0x1 PUSH1 0xA0 SHL SUB AND PUSH2 0x1B80 JUMPI PUSH1 0xB SLOAD SWAP1 PUSH1 0x0 JUMPDEST DUP3 DUP2 LT PUSH2 0x1AB6 JUMPI POP PUSH2 0x18A1 PUSH1 0x17 SLOAD SWAP3 PUSH2 0x189C DUP5 DUP5 PUSH2 0x2F52 JUMP JUMPDEST PUSH2 0x32E1 JUMP JUMPDEST SWAP2 PUSH2 0x18AB DUP4 PUSH2 0x2F09 JUMP JUMPDEST PUSH1 0x1 DUP1 PUSH1 0xA0 SHL SUB SWAP2 SLOAD SWAP1 PUSH1 0x3 SHL SHR AND SWAP1 PUSH1 0x0 SWAP4 DUP3 DUP6 MSTORE PUSH1 0x9 PUSH1 0x20 MSTORE PUSH1 0xFF PUSH1 0x40 DUP7 KECCAK256 SLOAD PUSH1 0x8 SHR AND ISZERO DUP1 ISZERO PUSH2 0x1A9D JUMPI JUMPDEST PUSH2 0x1A2E JUMPI JUMPDEST POP POP PUSH1 0x3 SLOAD PUSH1 0x14 SLOAD SWAP1 DUP2 DUP2 MUL SWAP2 DUP2 DUP4 DIV EQ SWAP1 ISZERO OR ISZERO PUSH2 0x984 JUMPI PUSH2 0x1903 DUP2 PUSH1 0x15 SLOAD PUSH2 0x2F52 JUMP JUMPDEST PUSH1 0x15 SSTORE PUSH1 0x40 MLOAD SWAP4 PUSH2 0x1913 DUP6 PUSH2 0x2CCE JUMP JUMPDEST PUSH2 0x1990 PUSH1 0x1 DUP1 PUSH1 0xA0 SHL SUB DUP5 AND SWAP6 DUP7 DUP2 MSTORE PUSH1 0x3 PUSH1 0x20 DUP3 ADD SWAP4 DUP6 DUP6 MSTORE PUSH1 0x40 DUP4 ADD TIMESTAMP DUP2 MSTORE PUSH1 0x60 DUP5 ADD SWAP2 ISZERO ISZERO SWAP6 DUP7 DUP4 MSTORE DUP10 PUSH1 0x0 MSTORE PUSH1 0xC PUSH1 0x20 MSTORE PUSH1 0x40 PUSH1 0x0 KECCAK256 SWAP5 PUSH1 0x1 DUP1 PUSH1 0xA0 SHL SUB SWAP1 MLOAD AND PUSH12 0xFFFFFFFFFFFFFFFFFFFFFFFF PUSH1 0xA0 SHL DUP7 SLOAD AND OR DUP6 SSTORE MLOAD PUSH1 0x1 DUP6 ADD SSTORE MLOAD PUSH1 0x2 DUP5 ADD SSTORE MLOAD ISZERO ISZERO SWAP2 ADD SWAP1 PUSH1 0xFF DUP1 NOT DUP4 SLOAD AND SWAP2 ISZERO ISZERO AND OR SWAP1 SSTORE JUMP JUMPDEST DUP5 PUSH1 0x0 MSTORE PUSH1 0xD PUSH1 0x20 MSTORE PUSH1 0x40 PUSH1 0x0 KECCAK256 SWAP4 DUP5 SLOAD SWAP5 PUSH1 0x1 PUSH1 0x40 SHL DUP7 LT ISZERO PUSH2 0x1A18 JUMPI DUP4 PUSH1 0x60 SWAP6 PUSH2 0x19E6 DUP9 PUSH2 0x1A00 SWAP5 PUSH1 0x1 PUSH32 0xC1FE199BD1EC460DE9BA76650239B5F5DA0D631F4D02BDC57FB26925F8D6B7CF SWAP12 ADD DUP2 SSTORE PUSH2 0x2F3A JUMP JUMPDEST DUP2 SLOAD SWAP1 PUSH1 0x3 SHL SWAP1 DUP7 DUP3 SHL SWAP2 PUSH1 0x0 NOT SWAP1 SHL NOT AND OR SWAP1 SSTORE PUSH2 0x39EC JUMP JUMPDEST PUSH1 0x40 MLOAD SWAP3 DUP4 MSTORE PUSH1 0x20 DUP4 ADD MSTORE PUSH1 0x40 DUP3 ADD MSTORE LOG2 PUSH1 0x1 PUSH1 0x0 SSTORE STOP JUMPDEST PUSH4 0x4E487B71 PUSH1 0xE0 SHL PUSH1 0x0 MSTORE PUSH1 0x41 PUSH1 0x4 MSTORE PUSH1 0x24 PUSH1 0x0 REVERT JUMPDEST SWAP1 SWAP4 POP PUSH2 0x1A49 SWAP2 POP PUSH2 0x1A41 PUSH1 0x1 SWAP5 PUSH2 0x3082 JUMP JUMPDEST PUSH1 0x17 SSTORE PUSH2 0x3964 JUMP JUMPDEST PUSH1 0x1 PUSH1 0x1 PUSH1 0xA0 SHL SUB DUP2 AND ISZERO PUSH2 0x1A5F JUMPI DUP4 DUP1 PUSH2 0x18DE JUMP JUMPDEST PUSH1 0x40 MLOAD PUSH3 0x461BCD PUSH1 0xE5 SHL DUP2 MSTORE PUSH1 0x20 PUSH1 0x4 DUP3 ADD MSTORE PUSH1 0x16 PUSH1 0x24 DUP3 ADD MSTORE PUSH22 0x4E6F20656C696769626C6520726563697069656E7473 PUSH1 0x50 SHL PUSH1 0x44 DUP3 ADD MSTORE PUSH1 0x64 SWAP1 REVERT JUMPDEST POP DUP3 DUP6 MSTORE PUSH1 0xA PUSH1 0x20 MSTORE PUSH1 0xFF PUSH1 0x2 PUSH1 0x40 DUP8 KECCAK256 ADD SLOAD AND PUSH2 0x18D9 JUMP JUMPDEST PUSH2 0x1ABF DUP2 PUSH2 0x2F09 JUMP JUMPDEST SWAP1 SLOAD PUSH1 0x3 SWAP2 SWAP1 SWAP2 SHL SHR PUSH1 0x1 PUSH1 0x1 PUSH1 0xA0 SHL SUB AND PUSH1 0x0 DUP2 DUP2 MSTORE PUSH1 0x9 PUSH1 0x20 MSTORE PUSH1 0x40 SWAP1 KECCAK256 SLOAD PUSH1 0x8 SHR PUSH1 0xFF AND DUP1 PUSH2 0x1B64 JUMPI JUMPDEST PUSH2 0x1AFA JUMPI JUMPDEST POP PUSH1 0x1 ADD PUSH2 0x1883 JUMP JUMPDEST PUSH1 0x0 MSTORE PUSH1 0x10 PUSH1 0x20 MSTORE PUSH1 0x40 PUSH1 0x0 KECCAK256 DUP3 PUSH1 0x0 MSTORE PUSH1 0x20 MSTORE PUSH1 0x40 PUSH1 0x0 KECCAK256 SLOAD ISZERO PUSH2 0x1B1F JUMPI DUP4 PUSH2 0x1AF1 JUMP JUMPDEST PUSH1 0x40 MLOAD PUSH3 0x461BCD PUSH1 0xE5 SHL DUP2 MSTORE PUSH1 0x20 PUSH1 0x4 DUP3 ADD MSTORE PUSH1 0x1E PUSH1 0x24 DUP3 ADD MSTORE PUSH32 0x4D656D62657220686173206E6F7420636F6E7472696275746564207965740000 PUSH1 0x44 DUP3 ADD MSTORE PUSH1 0x64 SWAP1 REVERT JUMPDEST POP DUP1 PUSH1 0x0 MSTORE PUSH1 0xA PUSH1 0x20 MSTORE PUSH1 0xFF PUSH1 0x2 PUSH1 0x40 PUSH1 0x0 KECCAK256 ADD SLOAD AND ISZERO PUSH2 0x1AEC JUMP JUMPDEST PUSH1 0x40 MLOAD PUSH3 0x461BCD PUSH1 0xE5 SHL DUP2 MSTORE PUSH1 0x20 PUSH1 0x4 DUP3 ADD MSTORE PUSH1 0x1D PUSH1 0x24 DUP3 ADD MSTORE PUSH32 0x416C72656164792070726F636573736564207468697320706572696F64000000 PUSH1 0x44 DUP3 ADD MSTORE PUSH1 0x64 SWAP1 REVERT JUMPDEST CALLVALUE PUSH2 0x3A4 JUMPI PUSH1 0x0 CALLDATASIZE PUSH1 0x3 NOT ADD SLT PUSH2 0x3A4 JUMPI PUSH1 0x20 PUSH1 0x14 SLOAD PUSH1 0x40 MLOAD SWAP1 DUP2 MSTORE RETURN JUMPDEST CALLVALUE PUSH2 0x3A4 JUMPI PUSH1 0x0 CALLDATASIZE PUSH1 0x3 NOT ADD SLT PUSH2 0x3A4 JUMPI PUSH1 0x20 PUSH1 0xFF PUSH1 0x1 SLOAD AND PUSH1 0x40 MLOAD SWAP1 ISZERO ISZERO DUP2 MSTORE RETURN JUMPDEST CALLVALUE PUSH2 0x3A4 JUMPI PUSH1 0x0 CALLDATASIZE PUSH1 0x3 NOT ADD SLT PUSH2 0x3A4 JUMPI PUSH1 0x40 MLOAD PUSH1 0x2 SLOAD DUP2 PUSH1 0x0 PUSH2 0x1C29 DUP4 PUSH2 0x2C79 JUMP JUMPDEST DUP1 DUP4 MSTORE SWAP3 PUSH1 0x1 DUP2 AND SWAP1 DUP2 ISZERO PUSH2 0x1DE0 JUMPI POP PUSH1 0x1 EQ PUSH2 0x1D80 JUMPI JUMPDEST PUSH2 0x1C4D SWAP3 POP SUB DUP3 PUSH2 0x2D04 JUMP JUMPDEST PUSH1 0x3 SLOAD SWAP1 PUSH1 0x40 MLOAD SWAP2 PUSH1 0x0 PUSH1 0x4 SLOAD PUSH2 0x1C63 DUP2 PUSH2 0x2C79 JUMP JUMPDEST DUP1 DUP7 MSTORE SWAP1 PUSH1 0x1 DUP2 AND SWAP1 DUP2 ISZERO PUSH2 0x1D5E JUMPI POP PUSH1 0x1 EQ PUSH2 0x1D05 JUMPI JUMPDEST POP DUP4 PUSH2 0x1C8E PUSH2 0x1CB6 SWAP6 PUSH1 0xFF SWAP4 SUB DUP3 PUSH2 0x2D04 JUMP JUMPDEST PUSH1 0x5 SLOAD SWAP3 PUSH1 0x6 SLOAD PUSH2 0x1CC9 PUSH1 0x7 SLOAD SWAP3 PUSH1 0x8 SLOAD SWAP5 PUSH1 0x40 MLOAD SWAP10 DUP11 SWAP10 PUSH2 0x120 DUP12 MSTORE PUSH2 0x120 DUP12 ADD SWAP1 PUSH2 0x2DD6 JUMP JUMPDEST SWAP2 PUSH1 0x20 DUP11 ADD MSTORE DUP9 DUP3 SUB PUSH1 0x40 DUP11 ADD MSTORE PUSH2 0x2DD6 JUMP JUMPDEST SWAP5 PUSH1 0x60 DUP8 ADD MSTORE PUSH1 0x80 DUP7 ADD MSTORE PUSH1 0xA0 DUP6 ADD MSTORE PUSH2 0x1CE8 PUSH1 0xC0 DUP6 ADD DUP4 DUP4 AND PUSH2 0x2EC5 JUMP JUMPDEST DUP2 DUP2 PUSH1 0x8 SHR AND ISZERO ISZERO PUSH1 0xE0 DUP6 ADD MSTORE PUSH1 0x10 SHR AND ISZERO ISZERO PUSH2 0x100 DUP4 ADD MSTORE SUB SWAP1 RETURN JUMPDEST PUSH1 0x4 PUSH1 0x0 SWAP1 DUP2 MSTORE SWAP2 POP PUSH32 0x8A35ACFBC15FF81A39AE7D344FD709F28E8600B4AA8C65C6B64BFE7FE36BD19B JUMPDEST DUP2 DUP4 LT PUSH2 0x1D44 JUMPI POP POP DUP4 ADD PUSH1 0x20 ADD DUP4 PUSH2 0x1C7B JUMP JUMPDEST PUSH1 0x1 DUP2 PUSH1 0x20 SWAP3 SWAP5 SWAP4 SWAP5 SLOAD DUP4 DUP6 DUP11 ADD ADD MSTORE ADD SWAP2 ADD SWAP2 SWAP1 PUSH2 0x1D30 JUMP JUMPDEST PUSH1 0xFF NOT AND PUSH1 0x20 DUP1 DUP9 ADD SWAP2 SWAP1 SWAP2 MSTORE SWAP2 ISZERO ISZERO PUSH1 0x5 SHL DUP7 ADD SWAP1 SWAP2 ADD SWAP2 POP DUP5 SWAP1 POP PUSH2 0x1C7B JUMP JUMPDEST POP PUSH1 0x2 PUSH1 0x0 SWAP1 DUP2 MSTORE SWAP1 SWAP2 PUSH32 0x405787FA12A823E0F2B7631CC41B3BA8828B3321CA811111FA75CD3AA3BB5ACE JUMPDEST DUP2 DUP4 LT PUSH2 0x1DC4 JUMPI POP POP SWAP1 PUSH1 0x20 PUSH2 0x1C4D SWAP3 DUP3 ADD ADD PUSH2 0x1C41 JUMP JUMPDEST PUSH1 0x20 SWAP2 SWAP4 POP DUP1 PUSH1 0x1 SWAP2 SLOAD DUP4 DUP6 DUP9 ADD ADD MSTORE ADD SWAP2 ADD SWAP1 SWAP2 DUP4 SWAP3 PUSH2 0x1DAC JUMP JUMPDEST PUSH1 0x20 SWAP3 POP PUSH2 0x1C4D SWAP5 SWAP2 POP PUSH1 0xFF NOT AND DUP3 DUP5 ADD MSTORE ISZERO ISZERO PUSH1 0x5 SHL DUP3 ADD ADD PUSH2 0x1C41 JUMP JUMPDEST CALLVALUE PUSH2 0x3A4 JUMPI PUSH1 0x20 CALLDATASIZE PUSH1 0x3 NOT ADD SLT PUSH2 0x3A4 JUMPI PUSH1 0x4 CALLDATALOAD PUSH1 0x0 SWAP1 DUP2 MSTORE PUSH1 0xC PUSH1 0x20 SWAP1 DUP2 MSTORE PUSH1 0x40 SWAP2 DUP3 SWAP1 KECCAK256 DUP1 SLOAD PUSH1 0x1 DUP3 ADD SLOAD PUSH1 0x2 DUP4 ADD SLOAD PUSH1 0x3 SWAP1 SWAP4 ADD SLOAD DUP6 MLOAD PUSH1 0x1 PUSH1 0x1 PUSH1 0xA0 SHL SUB SWAP1 SWAP4 AND DUP4 MSTORE SWAP4 DUP3 ADD MSTORE SWAP3 DUP4 ADD MSTORE PUSH1 0xFF AND ISZERO ISZERO PUSH1 0x60 DUP3 ADD MSTORE PUSH1 0x80 SWAP1 RETURN JUMPDEST CALLVALUE PUSH2 0x3A4 JUMPI PUSH1 0x0 CALLDATASIZE PUSH1 0x3 NOT ADD SLT PUSH2 0x3A4 JUMPI PUSH1 0x19 SLOAD PUSH1 0x40 MLOAD PUSH1 0x1 PUSH1 0x1 PUSH1 0xA0 SHL SUB SWAP1 SWAP2 AND DUP2 MSTORE PUSH1 0x20 SWAP1 RETURN JUMPDEST CALLVALUE PUSH2 0x3A4 JUMPI PUSH1 0x20 CALLDATASIZE PUSH1 0x3 NOT ADD SLT PUSH2 0x3A4 JUMPI PUSH2 0xE PUSH2 0x1EA2 PUSH2 0x2E6C JUMP JUMPDEST CALLER PUSH1 0x0 MSTORE PUSH1 0x11 PUSH1 0x20 MSTORE PUSH2 0x1EBC PUSH1 0xFF PUSH1 0x40 PUSH1 0x0 KECCAK256 SLOAD AND PUSH2 0x2F8E JUMP JUMPDEST PUSH2 0x3874 JUMP JUMPDEST CALLVALUE PUSH2 0x3A4 JUMPI PUSH1 0x0 CALLDATASIZE PUSH1 0x3 NOT ADD SLT PUSH2 0x3A4 JUMPI PUSH1 0x20 PUSH1 0x40 MLOAD PUSH1 0x3 DUP2 MSTORE RETURN JUMPDEST CALLVALUE PUSH2 0x3A4 JUMPI PUSH1 0x20 CALLDATASIZE PUSH1 0x3 NOT ADD SLT PUSH2 0x3A4 JUMPI PUSH1 0x1 PUSH1 0x1 PUSH1 0xA0 SHL SUB PUSH2 0x1EFE PUSH2 0x2E6C JUMP JUMPDEST AND PUSH1 0x0 MSTORE PUSH1 0x11 PUSH1 0x20 MSTORE PUSH1 0x20 PUSH1 0xFF PUSH1 0x40 PUSH1 0x0 KECCAK256 SLOAD AND PUSH1 0x40 MLOAD SWAP1 ISZERO ISZERO DUP2 MSTORE RETURN JUMPDEST CALLVALUE PUSH2 0x3A4 JUMPI PUSH1 0x20 CALLDATASIZE PUSH1 0x3 NOT ADD SLT PUSH2 0x3A4 JUMPI PUSH1 0x4 CALLDATALOAD PUSH1 0xB SLOAD DUP2 LT ISZERO PUSH2 0x3A4 JUMPI PUSH2 0x1F45 PUSH1 0x20 SWAP2 PUSH2 0x2F09 JUMP JUMPDEST SWAP1 SLOAD PUSH1 0x40 MLOAD PUSH1 0x3 SWAP3 SWAP1 SWAP3 SHL SHR PUSH1 0x1 PUSH1 0x1 PUSH1 0xA0 SHL SUB AND DUP2 MSTORE RETURN JUMPDEST CALLVALUE PUSH2 0x3A4 JUMPI PUSH1 0x0 CALLDATASIZE PUSH1 0x3 NOT ADD SLT PUSH2 0x3A4 JUMPI CALLER PUSH1 0x0 MSTORE PUSH1 0x11 PUSH1 0x20 MSTORE PUSH2 0x1F89 PUSH1 0xFF PUSH1 0x40 PUSH1 0x0 KECCAK256 SLOAD AND PUSH2 0x2F8E JUMP JUMPDEST PUSH1 0x1 SLOAD PUSH1 0xFF DUP2 AND ISZERO PUSH2 0x1FC8 JUMPI PUSH1 0xFF NOT AND PUSH1 0x1 SSTORE PUSH32 0x5DB9EE0A495BF2E6FF9C91A7834C1BA4FDD244A5E8AA4E537BD38AEAE4B073AA PUSH1 0x20 PUSH1 0x40 MLOAD CALLER DUP2 MSTORE LOG1 STOP JUMPDEST PUSH4 0x8DFC202B PUSH1 0xE0 SHL PUSH1 0x0 MSTORE PUSH1 0x4 PUSH1 0x0 REVERT JUMPDEST CALLVALUE PUSH2 0x3A4 JUMPI PUSH1 0x20 CALLDATASIZE PUSH1 0x3 NOT ADD SLT PUSH2 0x3A4 JUMPI PUSH1 0x4 CALLDATALOAD PUSH1 0x0 MSTORE PUSH1 0xE PUSH1 0x20 MSTORE PUSH1 0x40 PUSH1 0x0 KECCAK256 DUP1 SLOAD PUSH2 0x1457 PUSH1 0x1 DUP4 ADD SLOAD SWAP3 PUSH1 0x3 DUP2 ADD SLOAD PUSH1 0x4 DUP3 ADD SLOAD PUSH1 0x5 DUP4 ADD SLOAD SWAP2 PUSH2 0x2029 PUSH1 0x2 PUSH1 0xFF PUSH1 0x6 DUP8 ADD SLOAD AND SWAP6 ADD PUSH2 0x2D25 JUMP JUMPDEST PUSH1 0x40 MLOAD SWAP8 DUP9 SWAP8 PUSH1 0x8 DUP2 SWAP1 SHR PUSH1 0x1 PUSH1 0x1 PUSH1 0xA0 SHL SUB AND SWAP1 PUSH1 0xFF AND DUP10 PUSH2 0x2E17 JUMP JUMPDEST CALLVALUE PUSH2 0x3A4 JUMPI PUSH1 0x0 CALLDATASIZE PUSH1 0x3 NOT ADD SLT PUSH2 0x3A4 JUMPI PUSH1 0x20 PUSH1 0x1C SLOAD PUSH1 0x40 MLOAD SWAP1 DUP2 MSTORE RETURN JUMPDEST CALLVALUE PUSH2 0x3A4 JUMPI PUSH1 0x20 CALLDATASIZE PUSH1 0x3 NOT ADD SLT PUSH2 0x3A4 JUMPI PUSH1 0x1 PUSH1 0x1 PUSH1 0xA0 SHL SUB PUSH2 0x2086 PUSH2 0x2E6C JUMP JUMPDEST AND PUSH1 0x0 MSTORE PUSH1 0xA PUSH1 0x20 MSTORE PUSH1 0x40 PUSH1 0x0 KECCAK256 PUSH1 0x40 MLOAD PUSH2 0x20A0 DUP2 PUSH2 0x2CB3 JUMP JUMPDEST PUSH2 0x20AE PUSH1 0xFF DUP4 SLOAD AND DUP3 PUSH2 0x31A9 JUMP JUMPDEST PUSH2 0x20BA PUSH1 0x1 DUP4 ADD PUSH2 0x2D25 JUMP JUMPDEST PUSH1 0x20 DUP3 ADD SWAP1 DUP2 MSTORE PUSH1 0xFF PUSH1 0x2 DUP5 ADD SLOAD AND SWAP3 PUSH1 0x40 DUP4 ADD SWAP4 ISZERO ISZERO DUP5 MSTORE PUSH1 0x4 PUSH1 0x3 DUP3 ADD SLOAD SWAP2 PUSH1 0x60 DUP6 ADD SWAP3 DUP4 MSTORE ADD SLOAD SWAP3 PUSH1 0x80 DUP2 ADD SWAP4 DUP5 MSTORE MLOAD SWAP3 PUSH1 0x4 DUP5 LT ISZERO PUSH2 0x17C4 JUMPI PUSH2 0x1457 SWAP3 MLOAD SWAP5 MLOAD ISZERO ISZERO SWAP2 MLOAD SWAP1 MLOAD SWAP2 PUSH1 0x40 MLOAD SWAP6 DUP7 SWAP6 DUP7 PUSH2 0x2ED2 JUMP JUMPDEST CALLVALUE PUSH2 0x3A4 JUMPI PUSH1 0x0 CALLDATASIZE PUSH1 0x3 NOT ADD SLT PUSH2 0x3A4 JUMPI PUSH1 0x20 PUSH1 0x40 MLOAD PUSH7 0x2386F26FC10000 DUP2 MSTORE RETURN JUMPDEST CALLVALUE PUSH2 0x3A4 JUMPI PUSH1 0x60 CALLDATASIZE PUSH1 0x3 NOT ADD SLT PUSH2 0x3A4 JUMPI PUSH2 0x214C PUSH2 0x2E6C JUMP JUMPDEST PUSH1 0x24 CALLDATALOAD SWAP1 PUSH1 0x4 DUP3 LT ISZERO PUSH2 0x3A4 JUMPI PUSH1 0x44 CALLDATALOAD PUSH1 0x1 PUSH1 0x1 PUSH1 0x40 SHL SUB DUP2 GT PUSH2 0x3A4 JUMPI PUSH2 0x2178 SWAP1 CALLDATASIZE SWAP1 PUSH1 0x4 ADD PUSH2 0x2E98 JUMP JUMPDEST SWAP1 SWAP2 CALLER PUSH1 0x0 MSTORE PUSH1 0x11 PUSH1 0x20 MSTORE PUSH2 0x2194 PUSH1 0xFF PUSH1 0x40 PUSH1 0x0 KECCAK256 SLOAD AND PUSH2 0x2F8E JUMP JUMPDEST PUSH1 0x1 PUSH1 0x1 PUSH1 0xA0 SHL SUB AND PUSH1 0x0 DUP2 DUP2 MSTORE PUSH1 0x9 PUSH1 0x20 MSTORE PUSH1 0x40 SWAP1 KECCAK256 SLOAD SWAP1 SWAP3 SWAP1 PUSH1 0xFF AND ISZERO PUSH2 0x2462 JUMPI PUSH1 0x0 DUP5 ISZERO PUSH2 0x241D JUMPI PUSH1 0x2 DUP6 EQ PUSH2 0x240F JUMPI JUMPDEST PUSH1 0x40 MLOAD SWAP5 PUSH2 0x21D5 DUP7 PUSH2 0x2CB3 JUMP JUMPDEST PUSH2 0x21DF DUP2 DUP8 PUSH2 0x31A9 JUMP JUMPDEST PUSH2 0x21E8 DUP5 PUSH2 0x3091 JUMP JUMPDEST SWAP6 PUSH2 0x21F6 PUSH1 0x40 MLOAD SWAP8 DUP9 PUSH2 0x2D04 JUMP JUMPDEST DUP5 DUP8 MSTORE CALLDATASIZE DUP6 DUP6 ADD GT PUSH2 0x3A4 JUMPI DUP5 DUP5 PUSH1 0x20 DUP10 ADD CALLDATACOPY PUSH1 0x0 PUSH1 0x20 DUP7 DUP10 ADD ADD MSTORE PUSH1 0x20 DUP2 ADD SWAP7 DUP8 MSTORE PUSH1 0x40 DUP2 ADD PUSH1 0x1 DUP2 MSTORE PUSH1 0x60 DUP3 ADD TIMESTAMP DUP2 MSTORE PUSH1 0x80 DUP4 ADD SWAP2 DUP6 DUP4 MSTORE DUP9 PUSH1 0x0 MSTORE PUSH1 0xA PUSH1 0x20 MSTORE PUSH1 0x40 PUSH1 0x0 KECCAK256 SWAP4 MLOAD SWAP10 PUSH1 0x4 DUP12 LT ISZERO PUSH2 0x17C4 JUMPI PUSH1 0x0 SWAP11 PUSH1 0xFF DUP1 NOT DUP8 SLOAD AND SWAP2 AND OR DUP6 SSTORE PUSH1 0x1 DUP6 ADD SWAP1 MLOAD DUP1 MLOAD SWAP1 PUSH1 0x1 PUSH1 0x1 PUSH1 0x40 SHL SUB DUP3 GT PUSH2 0x23FB JUMPI PUSH2 0x2284 DUP3 PUSH2 0x227E DUP6 SLOAD PUSH2 0x2C79 JUMP JUMPDEST DUP6 PUSH2 0x31CC JUMP JUMPDEST PUSH1 0x20 SWAP1 DUP14 PUSH1 0x1F DUP5 GT PUSH1 0x1 EQ PUSH2 0x2373 JUMPI DUP13 SWAP12 SWAP10 SWAP6 PUSH1 0x0 DUP1 MLOAD PUSH1 0x20 PUSH2 0x3C5C DUP4 CODECOPY DUP2 MLOAD SWAP2 MSTORE SWAP14 SWAP10 SWAP6 PUSH2 0x22D8 DUP7 PUSH1 0x4 SWAP8 PUSH1 0x80 SWAP16 SWAP13 SWAP8 PUSH2 0x232B SWAP13 SWAP8 PUSH2 0x22F3 SWAP8 SWAP3 PUSH2 0x2368 JUMPI POP POP DUP2 PUSH1 0x1 SHL SWAP2 PUSH1 0x0 NOT SWAP1 PUSH1 0x3 SHL SHR NOT AND OR SWAP1 JUMP JUMPDEST SWAP1 SSTORE JUMPDEST MLOAD ISZERO ISZERO PUSH1 0x2 DUP7 ADD SWAP1 PUSH1 0xFF DUP1 NOT DUP4 SLOAD AND SWAP2 ISZERO ISZERO AND OR SWAP1 SSTORE JUMP JUMPDEST MLOAD PUSH1 0x3 DUP5 ADD SSTORE MLOAD SWAP2 ADD SSTORE PUSH1 0x3 DUP2 EQ PUSH2 0x2340 JUMPI JUMPDEST PUSH1 0x40 MLOAD SWAP7 DUP8 SWAP6 PUSH1 0x60 DUP8 MSTORE DUP2 PUSH1 0x60 DUP9 ADD MSTORE DUP8 DUP8 ADD CALLDATACOPY DUP10 DUP7 DUP6 DUP8 ADD ADD MSTORE PUSH1 0x20 DUP6 ADD SWAP1 PUSH2 0x2EC5 JUMP JUMPDEST PUSH1 0x40 DUP4 ADD MSTORE PUSH1 0x1F ADD PUSH1 0x1F NOT AND DUP2 ADD SUB ADD SWAP1 LOG2 DUP1 RETURN JUMPDEST DUP9 DUP11 MSTORE PUSH1 0x9 PUSH1 0x20 MSTORE PUSH1 0x40 DUP11 KECCAK256 PUSH2 0xFF00 NOT DUP2 SLOAD AND SWAP1 SSTORE PUSH2 0x2360 PUSH1 0x14 SLOAD PUSH2 0x3211 JUMP JUMPDEST PUSH1 0x14 SSTORE PUSH2 0x2306 JUMP JUMPDEST ADD MLOAD SWAP1 POP CODESIZE DUP1 PUSH2 0xAF3 JUMP JUMPDEST SWAP2 SWAP1 PUSH1 0x1F NOT DUP5 AND DUP6 DUP5 MSTORE DUP3 DUP5 KECCAK256 SWAP4 JUMPDEST DUP2 DUP2 LT PUSH2 0x23E3 JUMPI POP SWAP6 DUP14 SWAP13 SWAP11 SWAP7 SWAP6 PUSH1 0x1 PUSH1 0x0 DUP1 MLOAD PUSH1 0x20 PUSH2 0x3C5C DUP4 CODECOPY DUP2 MLOAD SWAP2 MSTORE SWAP16 SWAP12 SWAP8 SWAP7 PUSH1 0x80 SWAP15 SWAP12 SWAP7 PUSH2 0x232B SWAP12 SWAP7 PUSH2 0x22F3 SWAP7 DUP4 PUSH1 0x4 SWAP12 LT PUSH2 0x23CA JUMPI JUMPDEST POP POP POP DUP2 SHL ADD SWAP1 SSTORE PUSH2 0x22DB JUMP JUMPDEST ADD MLOAD PUSH1 0x0 NOT PUSH1 0xF8 DUP5 PUSH1 0x3 SHL AND SHR NOT AND SWAP1 SSTORE CODESIZE DUP1 DUP1 PUSH2 0x23BD JUMP JUMPDEST SWAP3 SWAP4 PUSH1 0x20 PUSH1 0x1 DUP2 SWAP3 DUP8 DUP7 ADD MLOAD DUP2 SSTORE ADD SWAP6 ADD SWAP4 ADD PUSH2 0x2382 JUMP JUMPDEST PUSH4 0x4E487B71 PUSH1 0xE0 SHL DUP14 MSTORE PUSH1 0x41 PUSH1 0x4 MSTORE PUSH1 0x24 DUP14 REVERT JUMPDEST POP PUSH7 0x2386F26FC10000 PUSH2 0x21C8 JUMP JUMPDEST PUSH1 0x40 MLOAD PUSH3 0x461BCD PUSH1 0xE5 SHL DUP2 MSTORE PUSH1 0x20 PUSH1 0x4 DUP3 ADD MSTORE PUSH1 0x19 PUSH1 0x24 DUP3 ADD MSTORE PUSH32 0x496E76616C69642070756E6973686D656E7420616374696F6E00000000000000 PUSH1 0x44 DUP3 ADD MSTORE PUSH1 0x64 SWAP1 REVERT JUMPDEST PUSH1 0x40 MLOAD PUSH3 0x461BCD PUSH1 0xE5 SHL DUP2 MSTORE PUSH1 0x20 PUSH1 0x4 DUP3 ADD MSTORE PUSH1 0x14 PUSH1 0x24 DUP3 ADD MSTORE PUSH20 0x2AB9B2B91034B9903737BA10309036B2B6B132B9 PUSH1 0x61 SHL PUSH1 0x44 DUP3 ADD MSTORE PUSH1 0x64 SWAP1 REVERT JUMPDEST CALLVALUE PUSH2 0x3A4 JUMPI PUSH1 0x0 CALLDATASIZE PUSH1 0x3 NOT ADD SLT PUSH2 0x3A4 JUMPI PUSH1 0x20 PUSH1 0xFF PUSH1 0x18 SLOAD PUSH1 0xA0 SHR AND PUSH1 0x40 MLOAD SWAP1 ISZERO ISZERO DUP2 MSTORE RETURN JUMPDEST CALLVALUE PUSH2 0x3A4 JUMPI PUSH1 0x0 CALLDATASIZE PUSH1 0x3 NOT ADD SLT PUSH2 0x3A4 JUMPI PUSH1 0x20 PUSH1 0xFF PUSH1 0x19 SLOAD PUSH1 0xA0 SHR AND PUSH1 0x40 MLOAD SWAP1 ISZERO ISZERO DUP2 MSTORE RETURN JUMPDEST CALLVALUE PUSH2 0x3A4 JUMPI PUSH1 0x0 CALLDATASIZE PUSH1 0x3 NOT ADD SLT PUSH2 0x3A4 JUMPI PUSH1 0x20 PUSH1 0x1B SLOAD PUSH1 0x40 MLOAD SWAP1 DUP2 MSTORE RETURN JUMPDEST CALLVALUE PUSH2 0x3A4 JUMPI PUSH1 0x20 CALLDATASIZE PUSH1 0x3 NOT ADD SLT PUSH2 0x3A4 JUMPI PUSH2 0x2521 PUSH2 0x2E6C JUMP JUMPDEST PUSH1 0x18 SLOAD PUSH1 0x1 PUSH1 0x1 PUSH1 0xA0 SHL SUB AND SWAP1 PUSH2 0x254F SWAP1 PUSH2 0x253D CALLER DUP5 EQ PUSH2 0x30EF JUMP JUMPDEST PUSH1 0x1 PUSH1 0x1 PUSH1 0xA0 SHL SUB AND SWAP2 DUP3 EQ ISZERO PUSH2 0x312A JUMP JUMPDEST DUP1 PUSH1 0x0 MSTORE PUSH1 0x11 PUSH1 0x20 MSTORE PUSH2 0x2569 PUSH1 0xFF PUSH1 0x40 PUSH1 0x0 KECCAK256 SLOAD AND PUSH2 0x316E JUMP JUMPDEST DUP1 PUSH1 0x0 MSTORE PUSH1 0x11 PUSH1 0x20 MSTORE PUSH1 0x40 PUSH1 0x0 KECCAK256 PUSH1 0xFF NOT DUP2 SLOAD AND SWAP1 SSTORE PUSH32 0xA3B62BC36326052D97EA62D63C3D60308ED4C3EA8AC079DD8499F1E9C4F80C0F PUSH1 0x0 DUP1 LOG2 STOP JUMPDEST CALLVALUE PUSH2 0x3A4 JUMPI PUSH1 0x40 CALLDATASIZE PUSH1 0x3 NOT ADD SLT PUSH2 0x3A4 JUMPI PUSH1 0x4 CALLDATALOAD PUSH1 0x24 CALLDATALOAD DUP1 ISZERO ISZERO DUP2 SUB PUSH2 0x3A4 JUMPI CALLER PUSH1 0x0 MSTORE PUSH1 0x9 PUSH1 0x20 MSTORE PUSH1 0xFF PUSH1 0x40 PUSH1 0x0 KECCAK256 SLOAD AND DUP1 PUSH2 0x26F5 JUMPI JUMPDEST PUSH2 0x25E7 SWAP1 PUSH2 0x30AC JUMP JUMPDEST DUP2 PUSH1 0x0 MSTORE PUSH1 0xE PUSH1 0x20 MSTORE PUSH1 0x40 PUSH1 0x0 KECCAK256 SWAP2 PUSH2 0x2607 PUSH1 0xFF PUSH1 0x6 DUP6 ADD SLOAD AND ISZERO PUSH2 0x2FC6 JUMP JUMPDEST PUSH2 0x2618 PUSH1 0x5 DUP5 ADD SLOAD PUSH1 0x1C SLOAD SWAP1 PUSH2 0x2F81 JUMP JUMPDEST TIMESTAMP GT PUSH2 0x26BB JUMPI PUSH1 0x0 DUP2 DUP2 MSTORE PUSH1 0xF PUSH1 0x20 SWAP1 DUP2 MSTORE PUSH1 0x40 DUP1 DUP4 KECCAK256 CALLER DUP5 MSTORE SWAP1 SWAP2 MSTORE SWAP1 KECCAK256 SLOAD PUSH1 0xFF AND PUSH2 0x2686 JUMPI PUSH1 0x0 SWAP1 DUP2 MSTORE PUSH1 0xF PUSH1 0x20 SWAP1 DUP2 MSTORE PUSH1 0x40 DUP1 DUP4 KECCAK256 CALLER DUP5 MSTORE SWAP1 SWAP2 MSTORE SWAP1 KECCAK256 DUP1 SLOAD PUSH1 0xFF NOT AND PUSH1 0x1 OR SWAP1 SSTORE ISZERO PUSH2 0x2679 JUMPI PUSH1 0x3 ADD PUSH2 0x2675 DUP2 SLOAD PUSH2 0x3082 JUMP JUMPDEST SWAP1 SSTORE STOP JUMPDEST PUSH1 0x4 ADD PUSH2 0x2675 DUP2 SLOAD PUSH2 0x3082 JUMP JUMPDEST PUSH1 0x40 MLOAD PUSH3 0x461BCD PUSH1 0xE5 SHL DUP2 MSTORE PUSH1 0x20 PUSH1 0x4 DUP3 ADD MSTORE PUSH1 0xD PUSH1 0x24 DUP3 ADD MSTORE PUSH13 0x105B1C9958591E481D9BDD1959 PUSH1 0x9A SHL PUSH1 0x44 DUP3 ADD MSTORE PUSH1 0x64 SWAP1 REVERT JUMPDEST PUSH1 0x40 MLOAD PUSH3 0x461BCD PUSH1 0xE5 SHL DUP2 MSTORE PUSH1 0x20 PUSH1 0x4 DUP3 ADD MSTORE PUSH1 0x12 PUSH1 0x24 DUP3 ADD MSTORE PUSH18 0x2B37BA34B733903832B934B7B21037BB32B9 PUSH1 0x71 SHL PUSH1 0x44 DUP3 ADD MSTORE PUSH1 0x64 SWAP1 REVERT JUMPDEST POP CALLER PUSH1 0x0 SWAP1 DUP2 MSTORE PUSH1 0x9 PUSH1 0x20 MSTORE PUSH1 0x40 SWAP1 KECCAK256 SLOAD PUSH1 0x8 SHR PUSH1 0xFF AND PUSH2 0x25DE JUMP JUMPDEST CALLVALUE PUSH2 0x3A4 JUMPI PUSH1 0x20 CALLDATASIZE PUSH1 0x3 NOT ADD SLT PUSH2 0x3A4 JUMPI PUSH2 0x272A PUSH2 0x2E6C JUMP JUMPDEST CALLER PUSH1 0x0 MSTORE PUSH1 0x11 PUSH1 0x20 MSTORE PUSH2 0x2744 PUSH1 0xFF PUSH1 0x40 PUSH1 0x0 KECCAK256 SLOAD AND PUSH2 0x2F8E JUMP JUMPDEST PUSH1 0x1 PUSH1 0x1 PUSH1 0xA0 SHL SUB DUP2 AND PUSH1 0x0 DUP2 DUP2 MSTORE PUSH1 0x9 PUSH1 0x20 MSTORE PUSH1 0x40 SWAP1 KECCAK256 SLOAD PUSH1 0xFF AND DUP1 PUSH2 0x28AE JUMPI JUMPDEST ISZERO PUSH2 0x2869 JUMPI PUSH2 0x2773 PUSH2 0x2F5F JUMP JUMPDEST DUP1 PUSH2 0x277A JUMPI STOP JUMPDEST PUSH1 0x0 NOT DUP2 ADD SWAP1 DUP2 GT PUSH2 0x984 JUMPI PUSH1 0x6 SLOAD PUSH3 0x93A80 DUP3 MUL DUP3 DUP2 DIV PUSH3 0x93A80 EQ DUP4 ISZERO OR ISZERO PUSH2 0x984 JUMPI PUSH2 0x7C7 PUSH2 0x7D0 SWAP2 PUSH2 0x27AF SWAP4 PUSH2 0x2F81 JUMP JUMPDEST TIMESTAMP GT SWAP1 DUP2 PUSH2 0x2845 JUMPI JUMPDEST POP PUSH2 0x27BF JUMPI STOP JUMPDEST DUP1 PUSH1 0x0 MSTORE PUSH1 0x9 PUSH1 0x20 MSTORE PUSH1 0x3 PUSH1 0x40 PUSH1 0x0 KECCAK256 ADD PUSH2 0x27DA DUP2 SLOAD PUSH2 0x3082 JUMP JUMPDEST SWAP1 SSTORE PUSH1 0x0 MSTORE PUSH1 0x9 PUSH1 0x20 MSTORE PUSH1 0x3 DUP1 PUSH1 0x40 PUSH1 0x0 KECCAK256 ADD SLOAD LT ISZERO PUSH2 0x27F6 JUMPI STOP JUMPDEST PUSH1 0x40 MLOAD PUSH2 0xE SWAP2 PUSH2 0x2808 PUSH1 0x60 DUP4 PUSH2 0x2D04 JUMP JUMPDEST PUSH1 0x25 DUP3 MSTORE PUSH32 0x4578636565646564206D6178696D756D206D697373656420636F6E7472696275 PUSH1 0x20 DUP4 ADD MSTORE PUSH5 0x74696F6E73 PUSH1 0xD8 SHL PUSH1 0x40 DUP4 ADD MSTORE PUSH2 0x3639 JUMP JUMPDEST SWAP1 POP DUP2 PUSH1 0x0 MSTORE PUSH1 0x10 PUSH1 0x20 MSTORE PUSH1 0x40 PUSH1 0x0 KECCAK256 SWAP1 PUSH1 0x0 MSTORE PUSH1 0x20 MSTORE PUSH1 0x40 PUSH1 0x0 KECCAK256 SLOAD ISZERO DUP4 PUSH2 0x27B8 JUMP JUMPDEST PUSH1 0x40 MLOAD PUSH3 0x461BCD PUSH1 0xE5 SHL DUP2 MSTORE PUSH1 0x20 PUSH1 0x4 DUP3 ADD MSTORE PUSH1 0x19 PUSH1 0x24 DUP3 ADD MSTORE PUSH32 0x55736572206973206E6F7420616374697665206D656D62657200000000000000 PUSH1 0x44 DUP3 ADD MSTORE PUSH1 0x64 SWAP1 REVERT JUMPDEST POP DUP1 PUSH1 0x0 MSTORE PUSH1 0x9 PUSH1 0x20 MSTORE PUSH1 0xFF PUSH1 0x40 PUSH1 0x0 KECCAK256 SLOAD PUSH1 0x8 SHR AND PUSH2 0x2766 JUMP JUMPDEST CALLVALUE PUSH2 0x3A4 JUMPI PUSH1 0x0 CALLDATASIZE PUSH1 0x3 NOT ADD SLT PUSH2 0x3A4 JUMPI PUSH1 0x20 PUSH2 0x28E4 PUSH2 0x3005 JUMP JUMPDEST PUSH1 0x40 MLOAD SWAP1 DUP2 MSTORE RETURN JUMPDEST CALLVALUE PUSH2 0x3A4 JUMPI PUSH1 0x0 CALLDATASIZE PUSH1 0x3 NOT ADD SLT PUSH2 0x3A4 JUMPI PUSH1 0x20 PUSH1 0x13 SLOAD PUSH1 0x40 MLOAD SWAP1 DUP2 MSTORE RETURN JUMPDEST CALLVALUE PUSH2 0x3A4 JUMPI PUSH1 0x20 CALLDATASIZE PUSH1 0x3 NOT ADD SLT PUSH2 0x3A4 JUMPI PUSH1 0x4 CALLDATALOAD CALLER PUSH1 0x0 MSTORE PUSH1 0x11 PUSH1 0x20 MSTORE PUSH2 0x2938 PUSH1 0xFF PUSH1 0x40 PUSH1 0x0 KECCAK256 SLOAD AND PUSH2 0x2F8E JUMP JUMPDEST DUP1 PUSH1 0x0 MSTORE PUSH1 0xE PUSH1 0x20 MSTORE PUSH1 0x40 PUSH1 0x0 KECCAK256 PUSH1 0x6 DUP2 ADD SWAP1 PUSH2 0x2959 PUSH1 0xFF DUP4 SLOAD AND ISZERO PUSH2 0x2FC6 JUMP JUMPDEST PUSH2 0x296A PUSH1 0x5 DUP3 ADD SLOAD PUSH1 0x1C SLOAD SWAP1 PUSH2 0x2F81 JUMP JUMPDEST TIMESTAMP GT ISZERO PUSH2 0x2A78 JUMPI PUSH1 0x3 DUP2 ADD SLOAD PUSH1 0x4 DUP3 ADD SLOAD SWAP1 PUSH2 0x2986 DUP3 DUP3 PUSH2 0x2F81 JUMP JUMPDEST PUSH1 0x14 SLOAD PUSH1 0x32 DUP2 MUL SWAP1 DUP1 DUP3 DIV PUSH1 0x32 EQ SWAP1 ISZERO OR ISZERO PUSH2 0x984 JUMPI PUSH1 0x63 DUP2 ADD DUP1 SWAP2 GT PUSH2 0x984 JUMPI PUSH1 0x64 SWAP1 DIV GT PUSH2 0x2A33 JUMPI GT ISZERO PUSH2 0x29FA JUMPI PUSH32 0x948F4A9CD986F1118C3FBD459F7A22B23C0693E1CA3EF06A6A8BE5AA7D39CC03 SWAP2 PUSH2 0x29E3 PUSH1 0x20 SWAP3 PUSH2 0x3402 JUMP JUMPDEST DUP2 SLOAD PUSH1 0xFF NOT AND PUSH1 0x1 OR SWAP1 SWAP2 SSTORE PUSH1 0x40 MLOAD SWAP1 ISZERO ISZERO DUP2 MSTORE LOG2 STOP JUMPDEST PUSH1 0x40 MLOAD PUSH3 0x461BCD PUSH1 0xE5 SHL DUP2 MSTORE PUSH1 0x20 PUSH1 0x4 DUP3 ADD MSTORE PUSH1 0x11 PUSH1 0x24 DUP3 ADD MSTORE PUSH17 0x141C9BDC1BDCD85B081C995A9958DD1959 PUSH1 0x7A SHL PUSH1 0x44 DUP3 ADD MSTORE PUSH1 0x64 SWAP1 REVERT JUMPDEST PUSH1 0x40 MLOAD PUSH3 0x461BCD PUSH1 0xE5 SHL DUP2 MSTORE PUSH1 0x20 PUSH1 0x4 DUP3 ADD MSTORE PUSH1 0x1A PUSH1 0x24 DUP3 ADD MSTORE PUSH32 0x496E73756666696369656E742070617274696369706174696F6E000000000000 PUSH1 0x44 DUP3 ADD MSTORE PUSH1 0x64 SWAP1 REVERT JUMPDEST PUSH1 0x40 MLOAD PUSH3 0x461BCD PUSH1 0xE5 SHL DUP2 MSTORE PUSH1 0x20 PUSH1 0x4 DUP3 ADD MSTORE PUSH1 0x13 PUSH1 0x24 DUP3 ADD MSTORE PUSH19 0x566F74696E67207374696C6C20616374697665 PUSH1 0x68 SHL PUSH1 0x44 DUP3 ADD MSTORE PUSH1 0x64 SWAP1 REVERT JUMPDEST CALLVALUE PUSH2 0x3A4 JUMPI PUSH1 0x0 CALLDATASIZE PUSH1 0x3 NOT ADD SLT PUSH2 0x3A4 JUMPI PUSH2 0x2ACC PUSH2 0x2F5F JUMP JUMPDEST PUSH1 0x6 SLOAD PUSH3 0x93A80 DUP3 MUL SWAP2 DUP1 DUP4 DIV PUSH3 0x93A80 EQ SWAP1 ISZERO OR ISZERO PUSH2 0x984 JUMPI PUSH2 0x7D0 PUSH2 0x7C7 PUSH1 0x20 SWAP4 PUSH2 0x2AF8 SWAP4 PUSH2 0x2F81 JUMP JUMPDEST TIMESTAMP GT ISZERO PUSH1 0x40 MLOAD SWAP1 DUP2 MSTORE RETURN JUMPDEST CALLVALUE PUSH2 0x3A4 JUMPI PUSH1 0x0 CALLDATASIZE PUSH1 0x3 NOT ADD SLT PUSH2 0x3A4 JUMPI PUSH1 0x20 PUSH1 0x1D SLOAD PUSH1 0x40 MLOAD SWAP1 DUP2 MSTORE RETURN JUMPDEST CALLVALUE PUSH2 0x3A4 JUMPI PUSH1 0x20 CALLDATASIZE PUSH1 0x3 NOT ADD SLT PUSH2 0x3A4 JUMPI PUSH1 0x1 PUSH1 0x1 PUSH1 0xA0 SHL SUB PUSH2 0x2B42 PUSH2 0x2E6C JUMP JUMPDEST AND PUSH1 0x0 MSTORE PUSH1 0x9 PUSH1 0x20 MSTORE PUSH1 0x40 PUSH1 0x0 KECCAK256 DUP1 SLOAD PUSH2 0x1457 PUSH1 0x1 DUP4 ADD SLOAD SWAP3 PUSH1 0x2 DUP2 ADD SLOAD SWAP1 PUSH1 0x4 PUSH1 0x3 DUP3 ADD SLOAD SWAP2 ADD SLOAD SWAP2 PUSH1 0x40 MLOAD SWAP6 DUP6 PUSH1 0xFF DUP1 DUP10 SWAP9 PUSH1 0x8 SHR AND SWAP2 AND DUP8 SWAP3 PUSH1 0xA0 SWAP5 SWAP2 SWAP8 SWAP7 SWAP6 SWAP3 PUSH1 0xC0 DUP6 ADD SWAP9 ISZERO ISZERO DUP6 MSTORE ISZERO ISZERO PUSH1 0x20 DUP6 ADD MSTORE PUSH1 0x40 DUP5 ADD MSTORE PUSH1 0x60 DUP4 ADD MSTORE PUSH1 0x80 DUP3 ADD MSTORE ADD MSTORE JUMP JUMPDEST CALLVALUE PUSH2 0x3A4 JUMPI PUSH1 0x0 CALLDATASIZE PUSH1 0x3 NOT ADD SLT PUSH2 0x3A4 JUMPI PUSH1 0x20 PUSH2 0x28E4 PUSH2 0x2F5F JUMP JUMPDEST CALLVALUE PUSH2 0x3A4 JUMPI PUSH1 0x0 CALLDATASIZE PUSH1 0x3 NOT ADD SLT PUSH2 0x3A4 JUMPI PUSH1 0x20 PUSH1 0x16 SLOAD PUSH1 0x40 MLOAD SWAP1 DUP2 MSTORE RETURN JUMPDEST CALLVALUE PUSH2 0x3A4 JUMPI PUSH1 0x0 CALLDATASIZE PUSH1 0x3 NOT ADD SLT PUSH2 0x3A4 JUMPI PUSH1 0x18 SLOAD PUSH1 0x40 MLOAD PUSH1 0x1 PUSH1 0x1 PUSH1 0xA0 SHL SUB SWAP1 SWAP2 AND DUP2 MSTORE PUSH1 0x20 SWAP1 RETURN JUMPDEST CALLVALUE PUSH2 0x3A4 JUMPI PUSH1 0x20 CALLDATASIZE PUSH1 0x3 NOT ADD SLT PUSH2 0x3A4 JUMPI PUSH1 0x4 CALLDATALOAD PUSH1 0x0 MSTORE PUSH1 0xE PUSH1 0x20 MSTORE PUSH1 0x40 PUSH1 0x0 KECCAK256 DUP1 SLOAD PUSH2 0x1457 PUSH1 0x1 DUP4 ADD SLOAD SWAP3 PUSH2 0x2C43 PUSH1 0x2 DUP3 ADD PUSH2 0x2D25 JUMP JUMPDEST SWAP1 PUSH1 0x3 DUP2 ADD SLOAD PUSH1 0x4 DUP3 ADD SLOAD SWAP1 PUSH1 0xFF PUSH1 0x6 PUSH1 0x5 DUP6 ADD SLOAD SWAP5 ADD SLOAD AND SWAP4 PUSH1 0x40 MLOAD SWAP8 DUP9 SWAP8 PUSH1 0xFF PUSH1 0x1 DUP1 PUSH1 0xA0 SHL SUB DUP3 PUSH1 0x8 SHR AND SWAP2 AND DUP10 PUSH2 0x2E17 JUMP JUMPDEST SWAP1 PUSH1 0x1 DUP3 DUP2 SHR SWAP3 AND DUP1 ISZERO PUSH2 0x2CA9 JUMPI JUMPDEST PUSH1 0x20 DUP4 LT EQ PUSH2 0x2C93 JUMPI JUMP JUMPDEST PUSH4 0x4E487B71 PUSH1 0xE0 SHL PUSH1 0x0 MSTORE PUSH1 0x22 PUSH1 0x4 MSTORE PUSH1 0x24 PUSH1 0x0 REVERT JUMPDEST SWAP2 PUSH1 0x7F AND SWAP2 PUSH2 0x2C88 JUMP JUMPDEST PUSH1 0xA0 DUP2 ADD SWAP1 DUP2 LT PUSH1 0x1 PUSH1 0x1 PUSH1 0x40 SHL SUB DUP3 GT OR PUSH2 0x1A18 JUMPI PUSH1 0x40 MSTORE JUMP JUMPDEST PUSH1 0x80 DUP2 ADD SWAP1 DUP2 LT PUSH1 0x1 PUSH1 0x1 PUSH1 0x40 SHL SUB DUP3 GT OR PUSH2 0x1A18 JUMPI PUSH1 0x40 MSTORE JUMP JUMPDEST PUSH1 0xC0 DUP2 ADD SWAP1 DUP2 LT PUSH1 0x1 PUSH1 0x1 PUSH1 0x40 SHL SUB DUP3 GT OR PUSH2 0x1A18 JUMPI PUSH1 0x40 MSTORE JUMP JUMPDEST SWAP1 PUSH1 0x1F DUP1 NOT SWAP2 ADD AND DUP2 ADD SWAP1 DUP2 LT PUSH1 0x1 PUSH1 0x1 PUSH1 0x40 SHL SUB DUP3 GT OR PUSH2 0x1A18 JUMPI PUSH1 0x40 MSTORE JUMP JUMPDEST SWAP1 PUSH1 0x40 MLOAD SWAP2 DUP3 PUSH1 0x0 DUP3 SLOAD SWAP3 PUSH2 0x2D39 DUP5 PUSH2 0x2C79 JUMP JUMPDEST DUP1 DUP5 MSTORE SWAP4 PUSH1 0x1 DUP2 AND SWAP1 DUP2 ISZERO PUSH2 0x2DA7 JUMPI POP PUSH1 0x1 EQ PUSH2 0x2D60 JUMPI JUMPDEST POP PUSH2 0x2D5E SWAP3 POP SUB DUP4 PUSH2 0x2D04 JUMP JUMPDEST JUMP JUMPDEST SWAP1 POP PUSH1 0x0 SWAP3 SWAP2 SWAP3 MSTORE PUSH1 0x20 PUSH1 0x0 KECCAK256 SWAP1 PUSH1 0x0 SWAP2 JUMPDEST DUP2 DUP4 LT PUSH2 0x2D8B JUMPI POP POP SWAP1 PUSH1 0x20 PUSH2 0x2D5E SWAP3 DUP3 ADD ADD CODESIZE PUSH2 0x2D51 JUMP JUMPDEST PUSH1 0x20 SWAP2 SWAP4 POP DUP1 PUSH1 0x1 SWAP2 SLOAD DUP4 DUP6 DUP10 ADD ADD MSTORE ADD SWAP2 ADD SWAP1 SWAP2 DUP5 SWAP3 PUSH2 0x2D72 JUMP JUMPDEST SWAP1 POP PUSH1 0x20 SWAP3 POP PUSH2 0x2D5E SWAP5 SWAP2 POP PUSH1 0xFF NOT AND DUP3 DUP5 ADD MSTORE ISZERO ISZERO PUSH1 0x5 SHL DUP3 ADD ADD CODESIZE PUSH2 0x2D51 JUMP JUMPDEST SWAP1 PUSH1 0x5 DUP3 LT ISZERO PUSH2 0x17C4 JUMPI MSTORE JUMP JUMPDEST SWAP2 SWAP1 DUP3 MLOAD SWAP3 DUP4 DUP3 MSTORE PUSH1 0x0 JUMPDEST DUP5 DUP2 LT PUSH2 0x2E02 JUMPI POP POP DUP3 PUSH1 0x0 PUSH1 0x20 DUP1 SWAP5 SWAP6 DUP5 ADD ADD MSTORE PUSH1 0x1F DUP1 NOT SWAP2 ADD AND ADD ADD SWAP1 JUMP JUMPDEST DUP1 PUSH1 0x20 DUP1 SWAP3 DUP5 ADD ADD MLOAD DUP3 DUP3 DUP7 ADD ADD MSTORE ADD PUSH2 0x2DE1 JUMP JUMPDEST SWAP7 SWAP4 SWAP1 SWAP3 PUSH2 0x2E55 SWAP3 PUSH2 0x2E30 DUP10 PUSH1 0xE0 SWAP10 SWAP7 SWAP13 SWAP12 SWAP9 SWAP13 PUSH2 0x2DC9 JUMP JUMPDEST PUSH1 0x1 PUSH1 0x1 PUSH1 0xA0 SHL SUB AND PUSH1 0x20 DUP10 ADD MSTORE PUSH1 0x40 DUP9 ADD MSTORE PUSH2 0x100 PUSH1 0x60 DUP9 ADD DUP2 SWAP1 MSTORE DUP8 ADD SWAP1 PUSH2 0x2DD6 JUMP JUMPDEST SWAP7 PUSH1 0x80 DUP7 ADD MSTORE PUSH1 0xA0 DUP6 ADD MSTORE PUSH1 0xC0 DUP5 ADD MSTORE ISZERO ISZERO SWAP2 ADD MSTORE JUMP JUMPDEST PUSH1 0x4 CALLDATALOAD SWAP1 PUSH1 0x1 PUSH1 0x1 PUSH1 0xA0 SHL SUB DUP3 AND DUP3 SUB PUSH2 0x3A4 JUMPI JUMP JUMPDEST PUSH1 0x24 CALLDATALOAD SWAP1 PUSH1 0x1 PUSH1 0x1 PUSH1 0xA0 SHL SUB DUP3 AND DUP3 SUB PUSH2 0x3A4 JUMPI JUMP JUMPDEST SWAP2 DUP2 PUSH1 0x1F DUP5 ADD SLT ISZERO PUSH2 0x3A4 JUMPI DUP3 CALLDATALOAD SWAP2 PUSH1 0x1 PUSH1 0x1 PUSH1 0x40 SHL SUB DUP4 GT PUSH2 0x3A4 JUMPI PUSH1 0x20 DUP4 DUP2 DUP7 ADD SWAP6 ADD ADD GT PUSH2 0x3A4 JUMPI JUMP JUMPDEST SWAP1 PUSH1 0x4 DUP3 LT ISZERO PUSH2 0x17C4 JUMPI MSTORE JUMP JUMPDEST SWAP2 PUSH2 0x2EF8 SWAP1 PUSH2 0x2EE7 DUP5 PUSH1 0x80 SWAP7 SWAP10 SWAP9 SWAP8 SWAP5 PUSH2 0x2EC5 JUMP JUMPDEST PUSH1 0xA0 PUSH1 0x20 DUP6 ADD MSTORE PUSH1 0xA0 DUP5 ADD SWAP1 PUSH2 0x2DD6 JUMP JUMPDEST SWAP6 ISZERO ISZERO PUSH1 0x40 DUP4 ADD MSTORE PUSH1 0x60 DUP3 ADD MSTORE ADD MSTORE JUMP JUMPDEST PUSH1 0xB SLOAD DUP2 LT ISZERO PUSH2 0x2F24 JUMPI PUSH1 0xB PUSH1 0x0 MSTORE PUSH1 0x20 PUSH1 0x0 KECCAK256 ADD SWAP1 PUSH1 0x0 SWAP1 JUMP JUMPDEST PUSH4 0x4E487B71 PUSH1 0xE0 SHL PUSH1 0x0 MSTORE PUSH1 0x32 PUSH1 0x4 MSTORE PUSH1 0x24 PUSH1 0x0 REVERT JUMPDEST DUP1 SLOAD DUP3 LT ISZERO PUSH2 0x2F24 JUMPI PUSH1 0x0 MSTORE PUSH1 0x20 PUSH1 0x0 KECCAK256 ADD SWAP1 PUSH1 0x0 SWAP1 JUMP JUMPDEST SWAP2 SWAP1 DUP3 SUB SWAP2 DUP3 GT PUSH2 0x984 JUMPI JUMP JUMPDEST PUSH1 0x6 SLOAD DUP1 TIMESTAMP LT PUSH2 0x2F7B JUMPI PUSH2 0x2F77 PUSH3 0x93A80 SWAP2 TIMESTAMP PUSH2 0x2F52 JUMP JUMPDEST DIV SWAP1 JUMP JUMPDEST POP PUSH1 0x0 SWAP1 JUMP JUMPDEST SWAP2 SWAP1 DUP3 ADD DUP1 SWAP3 GT PUSH2 0x984 JUMPI JUMP JUMPDEST ISZERO PUSH2 0x2F95 JUMPI JUMP JUMPDEST PUSH1 0x40 MLOAD PUSH3 0x461BCD PUSH1 0xE5 SHL DUP2 MSTORE PUSH1 0x20 PUSH1 0x4 DUP3 ADD MSTORE PUSH1 0x9 PUSH1 0x24 DUP3 ADD MSTORE PUSH9 0x2737BA1030B236B4B7 PUSH1 0xB9 SHL PUSH1 0x44 DUP3 ADD MSTORE PUSH1 0x64 SWAP1 REVERT JUMPDEST ISZERO PUSH2 0x2FCD JUMPI JUMP JUMPDEST PUSH1 0x40 MLOAD PUSH3 0x461BCD PUSH1 0xE5 SHL DUP2 MSTORE PUSH1 0x20 PUSH1 0x4 DUP3 ADD MSTORE PUSH1 0x10 PUSH1 0x24 DUP3 ADD MSTORE PUSH16 0x105B1C9958591E48195E1958DD5D1959 PUSH1 0x82 SHL PUSH1 0x44 DUP3 ADD MSTORE PUSH1 0x64 SWAP1 REVERT JUMPDEST PUSH1 0x19 SLOAD PUSH1 0xFF DUP2 PUSH1 0xA0 SHR AND PUSH2 0x3018 JUMPI POP SELFBALANCE SWAP1 JUMP JUMPDEST PUSH1 0x40 MLOAD PUSH4 0x70A08231 PUSH1 0xE0 SHL DUP2 MSTORE ADDRESS PUSH1 0x4 DUP3 ADD MSTORE SWAP1 PUSH1 0x20 SWAP1 DUP3 SWAP1 PUSH1 0x24 SWAP1 DUP3 SWAP1 PUSH1 0x1 PUSH1 0x1 PUSH1 0xA0 SHL SUB AND GAS STATICCALL SWAP1 DUP2 ISZERO PUSH2 0x662 JUMPI PUSH1 0x0 SWAP2 PUSH2 0x3053 JUMPI POP SWAP1 JUMP JUMPDEST SWAP1 POP PUSH1 0x20 DUP2 RETURNDATASIZE PUSH1 0x20 GT PUSH2 0x307A JUMPI JUMPDEST DUP2 PUSH2 0x306E PUSH1 0x20 SWAP4 DUP4 PUSH2 0x2D04 JUMP JUMPDEST DUP2 ADD SUB SLT PUSH2 0x3A4 JUMPI MLOAD SWAP1 JUMP JUMPDEST RETURNDATASIZE SWAP2 POP PUSH2 0x3061 JUMP JUMPDEST PUSH1 0x0 NOT DUP2 EQ PUSH2 0x984 JUMPI PUSH1 0x1 ADD SWAP1 JUMP JUMPDEST PUSH1 0x1 PUSH1 0x1 PUSH1 0x40 SHL SUB DUP2 GT PUSH2 0x1A18 JUMPI PUSH1 0x1F ADD PUSH1 0x1F NOT AND PUSH1 0x20 ADD SWAP1 JUMP JUMPDEST ISZERO PUSH2 0x30B3 JUMPI JUMP JUMPDEST PUSH1 0x40 MLOAD PUSH3 0x461BCD PUSH1 0xE5 SHL DUP2 MSTORE PUSH1 0x20 PUSH1 0x4 DUP3 ADD MSTORE PUSH1 0x14 PUSH1 0x24 DUP3 ADD MSTORE PUSH20 0x2737BA1030B71030B1BA34BB329036B2B6B132B9 PUSH1 0x61 SHL PUSH1 0x44 DUP3 ADD MSTORE PUSH1 0x64 SWAP1 REVERT JUMPDEST ISZERO PUSH2 0x30F6 JUMPI JUMP JUMPDEST PUSH1 0x40 MLOAD PUSH3 0x461BCD PUSH1 0xE5 SHL DUP2 MSTORE PUSH1 0x20 PUSH1 0x4 DUP3 ADD MSTORE PUSH1 0xC PUSH1 0x24 DUP3 ADD MSTORE PUSH12 0x27B7363C9031B932B0BA37B9 PUSH1 0xA1 SHL PUSH1 0x44 DUP3 ADD MSTORE PUSH1 0x64 SWAP1 REVERT JUMPDEST ISZERO PUSH2 0x3131 JUMPI JUMP JUMPDEST PUSH1 0x40 MLOAD PUSH3 0x461BCD PUSH1 0xE5 SHL DUP2 MSTORE PUSH1 0x20 PUSH1 0x4 DUP3 ADD MSTORE PUSH1 0x15 PUSH1 0x24 DUP3 ADD MSTORE PUSH21 0x21B0B73737BA103932B6B7BB329031B932B0BA37B9 PUSH1 0x59 SHL PUSH1 0x44 DUP3 ADD MSTORE PUSH1 0x64 SWAP1 REVERT JUMPDEST ISZERO PUSH2 0x3175 JUMPI JUMP JUMPDEST PUSH1 0x40 MLOAD PUSH3 0x461BCD PUSH1 0xE5 SHL DUP2 MSTORE PUSH1 0x20 PUSH1 0x4 DUP3 ADD MSTORE PUSH1 0xC PUSH1 0x24 DUP3 ADD MSTORE PUSH12 0x2737BA1030B71030B236B4B7 PUSH1 0xA1 SHL PUSH1 0x44 DUP3 ADD MSTORE PUSH1 0x64 SWAP1 REVERT JUMPDEST PUSH1 0x4 DUP3 LT ISZERO PUSH2 0x17C4 JUMPI MSTORE JUMP JUMPDEST DUP2 DUP2 LT PUSH2 0x31C0 JUMPI POP POP JUMP JUMPDEST PUSH1 0x0 DUP2 SSTORE PUSH1 0x1 ADD PUSH2 0x31B5 JUMP JUMPDEST SWAP2 SWAP1 PUSH1 0x1F DUP2 GT PUSH2 0x31DB JUMPI POP POP POP JUMP JUMPDEST PUSH2 0x2D5E SWAP3 PUSH1 0x0 MSTORE PUSH1 0x20 PUSH1 0x0 KECCAK256 SWAP1 PUSH1 0x20 PUSH1 0x1F DUP5 ADD PUSH1 0x5 SHR DUP4 ADD SWAP4 LT PUSH2 0x3207 JUMPI JUMPDEST PUSH1 0x1F ADD PUSH1 0x5 SHR ADD SWAP1 PUSH2 0x31B5 JUMP JUMPDEST SWAP1 SWAP2 POP DUP2 SWAP1 PUSH2 0x31FA JUMP JUMPDEST DUP1 ISZERO PUSH2 0x984 JUMPI PUSH1 0x0 NOT ADD SWAP1 JUMP JUMPDEST ISZERO PUSH2 0x3225 JUMPI JUMP JUMPDEST PUSH1 0x40 MLOAD PUSH3 0x461BCD PUSH1 0xE5 SHL DUP2 MSTORE PUSH1 0x20 PUSH1 0x4 DUP3 ADD MSTORE PUSH1 0x13 PUSH1 0x24 DUP3 ADD MSTORE PUSH19 0x47726F7570206973206E6F7420616374697665 PUSH1 0x68 SHL PUSH1 0x44 DUP3 ADD MSTORE PUSH1 0x64 SWAP1 REVERT JUMPDEST ISZERO PUSH2 0x3267 JUMPI JUMP JUMPDEST PUSH1 0x40 MLOAD PUSH3 0x461BCD PUSH1 0xE5 SHL DUP2 MSTORE PUSH1 0x20 PUSH1 0x4 DUP3 ADD MSTORE PUSH1 0x14 PUSH1 0x24 DUP3 ADD MSTORE PUSH20 0x11DC9BDD5C081A185CDB89DD081CDD185C9D1959 PUSH1 0x62 SHL PUSH1 0x44 DUP3 ADD MSTORE PUSH1 0x64 SWAP1 REVERT JUMPDEST ISZERO PUSH2 0x32AA JUMPI JUMP JUMPDEST PUSH1 0x40 MLOAD PUSH3 0x461BCD PUSH1 0xE5 SHL DUP2 MSTORE PUSH1 0x20 PUSH1 0x4 DUP3 ADD MSTORE PUSH1 0xF PUSH1 0x24 DUP3 ADD MSTORE PUSH15 0x11DC9BDD5C081A185CC8195B991959 PUSH1 0x8A SHL PUSH1 0x44 DUP3 ADD MSTORE PUSH1 0x64 SWAP1 REVERT JUMPDEST DUP2 ISZERO PUSH2 0x32EB JUMPI MOD SWAP1 JUMP JUMPDEST PUSH4 0x4E487B71 PUSH1 0xE0 SHL PUSH1 0x0 MSTORE PUSH1 0x12 PUSH1 0x4 MSTORE PUSH1 0x24 PUSH1 0x0 REVERT JUMPDEST ISZERO PUSH2 0x3308 JUMPI JUMP JUMPDEST PUSH1 0x40 MLOAD PUSH3 0x461BCD PUSH1 0xE5 SHL DUP2 MSTORE PUSH1 0x20 PUSH1 0x4 DUP3 ADD MSTORE PUSH1 0x14 PUSH1 0x24 DUP3 ADD MSTORE PUSH20 0x139BC81858DD1A5D99481C1D5B9A5CDA1B595B9D PUSH1 0x62 SHL PUSH1 0x44 DUP3 ADD MSTORE PUSH1 0x64 SWAP1 REVERT JUMPDEST ISZERO PUSH2 0x334B JUMPI JUMP JUMPDEST PUSH1 0x40 MLOAD PUSH3 0x461BCD PUSH1 0xE5 SHL DUP2 MSTORE PUSH1 0x20 PUSH1 0x4 DUP3 ADD MSTORE PUSH1 0xD PUSH1 0x24 DUP3 ADD MSTORE PUSH13 0x11DC9BDD5C081A5CC8199D5B1B PUSH1 0x9A SHL PUSH1 0x44 DUP3 ADD MSTORE PUSH1 0x64 SWAP1 REVERT JUMPDEST CALLDATALOAD PUSH1 0x1 PUSH1 0x1 PUSH1 0xA0 SHL SUB DUP2 AND DUP2 SUB PUSH2 0x3A4 JUMPI SWAP1 JUMP JUMPDEST RETURNDATASIZE ISZERO PUSH2 0x33BF JUMPI RETURNDATASIZE SWAP1 PUSH2 0x33A5 DUP3 PUSH2 0x3091 JUMP JUMPDEST SWAP2 PUSH2 0x33B3 PUSH1 0x40 MLOAD SWAP4 DUP5 PUSH2 0x2D04 JUMP JUMPDEST DUP3 MSTORE RETURNDATASIZE PUSH1 0x0 PUSH1 0x20 DUP5 ADD RETURNDATACOPY JUMP JUMPDEST PUSH1 0x60 SWAP1 JUMP JUMPDEST ISZERO PUSH2 0x33CB JUMPI JUMP JUMPDEST PUSH1 0x40 MLOAD PUSH3 0x461BCD PUSH1 0xE5 SHL DUP2 MSTORE PUSH1 0x20 PUSH1 0x4 DUP3 ADD MSTORE PUSH1 0xF PUSH1 0x24 DUP3 ADD MSTORE PUSH15 0x151C985B9CD9995C8819985A5B1959 PUSH1 0x8A SHL PUSH1 0x44 DUP3 ADD MSTORE PUSH1 0x64 SWAP1 REVERT JUMPDEST DUP1 SLOAD PUSH1 0xFF DUP2 AND SWAP1 PUSH1 0x5 DUP3 LT ISZERO PUSH2 0x17C4 JUMPI PUSH1 0x1 DUP3 SUB PUSH2 0x3437 JUMPI POP POP SLOAD PUSH2 0x3432 SWAP1 PUSH1 0x8 SHR PUSH1 0x1 PUSH1 0x1 PUSH1 0xA0 SHL SUB AND PUSH2 0x3874 JUMP JUMPDEST PUSH1 0x1 SWAP1 JUMP JUMPDEST PUSH1 0x0 PUSH1 0x2 DUP4 SUB PUSH2 0x34F0 JUMPI POP POP DUP2 SLOAD PUSH1 0x8 SHR PUSH1 0x1 PUSH1 0x1 PUSH1 0xA0 SHL SUB AND PUSH1 0x0 DUP2 DUP2 MSTORE PUSH1 0x11 PUSH1 0x20 MSTORE PUSH1 0x40 SWAP1 KECCAK256 SLOAD SWAP1 SWAP2 POP PUSH1 0xFF AND PUSH2 0x34BB JUMPI PUSH1 0x0 SWAP1 DUP2 MSTORE PUSH1 0x11 PUSH1 0x20 MSTORE PUSH1 0x40 DUP2 KECCAK256 DUP1 SLOAD PUSH1 0xFF NOT AND PUSH1 0x1 OR SWAP1 SSTORE SWAP1 SLOAD PUSH1 0x8 SHR PUSH1 0x1 PUSH1 0x1 PUSH1 0xA0 SHL SUB AND SWAP1 PUSH32 0x44D6D25963F097AD14F29F06854A01F575648A1EF82F30E562CCD3889717E339 SWAP1 DUP1 LOG2 PUSH1 0x1 SWAP1 JUMP JUMPDEST PUSH1 0x40 MLOAD PUSH3 0x461BCD PUSH1 0xE5 SHL DUP2 MSTORE PUSH1 0x20 PUSH1 0x4 DUP3 ADD MSTORE PUSH1 0xD PUSH1 0x24 DUP3 ADD MSTORE PUSH13 0x20B63932B0B23C9030B236B4B7 PUSH1 0x99 SHL PUSH1 0x44 DUP3 ADD MSTORE PUSH1 0x64 SWAP1 REVERT JUMPDEST POP PUSH1 0x3 DUP3 SUB PUSH2 0x3586 JUMPI POP POP DUP1 SLOAD PUSH1 0x18 SLOAD PUSH1 0x1 PUSH1 0x1 PUSH1 0xA0 SHL SUB PUSH1 0x8 SWAP3 SWAP1 SWAP3 SHR DUP3 AND SWAP2 PUSH2 0x351E SWAP2 AND DUP3 EQ ISZERO PUSH2 0x312A JUMP JUMPDEST DUP1 PUSH1 0x0 MSTORE PUSH1 0x11 PUSH1 0x20 MSTORE PUSH2 0x3538 PUSH1 0xFF PUSH1 0x40 PUSH1 0x0 KECCAK256 SLOAD AND PUSH2 0x316E JUMP JUMPDEST PUSH1 0x0 SWAP1 DUP2 MSTORE PUSH1 0x11 PUSH1 0x20 MSTORE PUSH1 0x40 DUP2 KECCAK256 DUP1 SLOAD PUSH1 0xFF NOT AND SWAP1 SSTORE SWAP1 SLOAD PUSH1 0x8 SHR PUSH1 0x1 PUSH1 0x1 PUSH1 0xA0 SHL SUB AND SWAP1 PUSH32 0xA3B62BC36326052D97EA62D63C3D60308ED4C3EA8AC079DD8499F1E9C4F80C0F SWAP1 DUP1 LOG2 PUSH1 0x1 SWAP1 JUMP JUMPDEST PUSH1 0x0 SWAP3 POP SWAP1 PUSH1 0x4 EQ PUSH2 0x3599 JUMPI POP POP PUSH1 0x0 SWAP1 JUMP JUMPDEST PUSH1 0x8 SHR PUSH1 0x1 PUSH1 0x1 PUSH1 0xA0 SHL SUB AND DUP1 DUP3 MSTORE PUSH1 0x9 PUSH1 0x20 MSTORE PUSH1 0x40 DUP3 KECCAK256 SLOAD SWAP1 SWAP2 SWAP1 PUSH1 0xFF AND DUP1 PUSH2 0x3620 JUMPI JUMPDEST ISZERO PUSH2 0x35EA JUMPI PUSH1 0x40 SWAP2 DUP2 MSTORE PUSH1 0x9 PUSH1 0x20 MSTORE KECCAK256 PUSH2 0xFF00 NOT DUP2 SLOAD AND SWAP1 SSTORE PUSH2 0x35E2 PUSH1 0x14 SLOAD PUSH2 0x3211 JUMP JUMPDEST PUSH1 0x14 SSTORE PUSH1 0x1 SWAP1 JUMP JUMPDEST PUSH1 0x40 MLOAD PUSH3 0x461BCD PUSH1 0xE5 SHL DUP2 MSTORE PUSH1 0x20 PUSH1 0x4 DUP3 ADD MSTORE PUSH1 0xE PUSH1 0x24 DUP3 ADD MSTORE PUSH14 0x24B73B30B634B21036B2B6B132B9 PUSH1 0x91 SHL PUSH1 0x44 DUP3 ADD MSTORE PUSH1 0x64 SWAP1 REVERT JUMPDEST POP DUP2 DUP2 MSTORE PUSH1 0x9 PUSH1 0x20 MSTORE PUSH1 0xFF PUSH1 0x40 DUP3 KECCAK256 SLOAD PUSH1 0x8 SHR AND PUSH2 0x35BE JUMP JUMPDEST SWAP1 PUSH1 0xFF PUSH1 0x8 SLOAD AND PUSH1 0x4 DUP2 LT ISZERO PUSH2 0x17C4 JUMPI DUP1 ISZERO PUSH2 0x386F JUMPI PUSH1 0x0 PUSH1 0x2 DUP3 SUB PUSH2 0x384F JUMPI POP PUSH7 0x2386F26FC10000 PUSH1 0x1 DUP1 PUSH1 0xA0 SHL SUB DUP5 AND DUP1 PUSH1 0x0 MSTORE PUSH1 0x9 PUSH1 0x20 MSTORE PUSH1 0x4 PUSH1 0x40 PUSH1 0x0 KECCAK256 ADD PUSH2 0x3686 DUP2 SLOAD PUSH2 0x3082 JUMP JUMPDEST SWAP1 SSTORE DUP1 PUSH1 0x0 MSTORE PUSH1 0x9 PUSH1 0x20 MSTORE PUSH1 0x3 PUSH1 0x4 PUSH1 0x40 PUSH1 0x0 KECCAK256 ADD SLOAD LT ISZERO PUSH2 0x3820 JUMPI JUMPDEST POP JUMPDEST PUSH1 0x40 MLOAD PUSH2 0x36B1 DUP2 PUSH2 0x2CB3 JUMP JUMPDEST PUSH2 0x36BB DUP4 DUP3 PUSH2 0x31A9 JUMP JUMPDEST PUSH1 0x20 DUP2 ADD SWAP5 DUP5 DUP7 MSTORE PUSH1 0x40 DUP3 ADD PUSH1 0x1 DUP2 MSTORE PUSH1 0x60 DUP4 ADD SWAP1 TIMESTAMP DUP3 MSTORE PUSH1 0x80 DUP5 ADD SWAP3 DUP6 DUP5 MSTORE PUSH1 0x1 DUP1 PUSH1 0xA0 SHL SUB AND SWAP8 DUP9 PUSH1 0x0 MSTORE PUSH1 0xA PUSH1 0x20 MSTORE PUSH1 0x40 PUSH1 0x0 KECCAK256 SWAP5 MLOAD PUSH1 0x4 DUP2 LT ISZERO PUSH2 0x17C4 JUMPI PUSH1 0x0 SWAP1 PUSH1 0xFF DUP1 NOT DUP9 SLOAD AND SWAP2 AND OR DUP7 SSTORE PUSH1 0x1 DUP7 ADD SWAP2 MLOAD SWAP1 DUP2 MLOAD SWAP2 PUSH1 0x1 PUSH1 0x1 PUSH1 0x40 SHL SUB DUP4 GT PUSH2 0xBBE JUMPI PUSH2 0x3732 DUP4 PUSH2 0xAD5 DUP7 SLOAD PUSH2 0x2C79 JUMP JUMPDEST PUSH1 0x20 SWAP2 PUSH1 0x1F DUP5 GT PUSH1 0x1 EQ PUSH2 0x37B8 JUMPI SWAP4 PUSH2 0x22D8 DUP5 PUSH2 0x37A3 SWAP13 SWAP11 SWAP9 SWAP6 PUSH2 0x3782 SWAP6 PUSH1 0x0 DUP1 MLOAD PUSH1 0x20 PUSH2 0x3C5C DUP4 CODECOPY DUP2 MLOAD SWAP2 MSTORE SWAP16 SWAP14 SWAP12 SWAP9 SWAP6 PUSH1 0x4 SWAP11 SWAP7 SWAP3 PUSH2 0x2368 JUMPI POP POP DUP2 PUSH1 0x1 SHL SWAP2 PUSH1 0x0 NOT SWAP1 PUSH1 0x3 SHL SHR NOT AND OR SWAP1 JUMP JUMPDEST MLOAD PUSH1 0x3 DUP5 ADD SSTORE MLOAD SWAP2 ADD SSTORE PUSH2 0x37AE PUSH1 0x40 MLOAD SWAP5 DUP6 SWAP5 PUSH1 0x60 DUP7 MSTORE PUSH1 0x60 DUP7 ADD SWAP1 PUSH2 0x2DD6 JUMP JUMPDEST SWAP3 PUSH1 0x20 DUP6 ADD SWAP1 PUSH2 0x2EC5 JUMP JUMPDEST PUSH1 0x40 DUP4 ADD MSTORE SUB SWAP1 LOG2 JUMP JUMPDEST SWAP2 SWAP1 PUSH1 0x1F NOT DUP5 AND DUP6 DUP5 MSTORE DUP3 DUP5 KECCAK256 SWAP4 JUMPDEST DUP2 DUP2 LT PUSH2 0x3808 JUMPI POP DUP5 PUSH2 0x3782 SWAP5 PUSH1 0x4 SWAP9 SWAP5 PUSH1 0x0 DUP1 MLOAD PUSH1 0x20 PUSH2 0x3C5C DUP4 CODECOPY DUP2 MLOAD SWAP2 MSTORE SWAP16 SWAP14 SWAP12 SWAP9 SWAP5 PUSH2 0x37A3 SWAP16 SWAP14 SWAP12 SWAP9 PUSH1 0x1 SWAP6 LT PUSH2 0x23CA JUMPI POP POP POP DUP2 SHL ADD SWAP1 SSTORE PUSH2 0x22DB JUMP JUMPDEST SWAP3 SWAP4 PUSH1 0x20 PUSH1 0x1 DUP2 SWAP3 DUP8 DUP7 ADD MLOAD DUP2 SSTORE ADD SWAP6 ADD SWAP4 ADD PUSH2 0x37C7 JUMP JUMPDEST SWAP2 POP PUSH1 0x3 SWAP2 PUSH1 0x0 MSTORE PUSH1 0x9 PUSH1 0x20 MSTORE PUSH1 0x40 PUSH1 0x0 KECCAK256 PUSH2 0xFF00 NOT DUP2 SLOAD AND SWAP1 SSTORE PUSH2 0x3846 PUSH1 0x14 SLOAD PUSH2 0x3211 JUMP JUMPDEST PUSH1 0x14 SSTORE CODESIZE PUSH2 0x36A3 JUMP JUMPDEST PUSH1 0x1 PUSH1 0x1 PUSH1 0xA0 SHL SUB DUP5 AND DUP2 MSTORE PUSH1 0x9 PUSH1 0x20 MSTORE PUSH1 0x40 DUP2 KECCAK256 PUSH1 0x4 ADD DUP2 SWAP1 SSTORE PUSH2 0x36A5 JUMP JUMPDEST POP POP POP JUMP JUMPDEST PUSH1 0x1 PUSH1 0x1 PUSH1 0xA0 SHL SUB AND PUSH1 0x0 DUP2 DUP2 MSTORE PUSH1 0xA PUSH1 0x20 MSTORE PUSH1 0x40 SWAP1 KECCAK256 PUSH1 0x2 ADD SLOAD PUSH2 0x389B SWAP1 PUSH1 0xFF AND PUSH2 0x3301 JUMP JUMPDEST DUP1 PUSH1 0x0 MSTORE PUSH1 0xA PUSH1 0x20 MSTORE PUSH1 0xFF PUSH1 0x40 PUSH1 0x0 KECCAK256 SLOAD AND PUSH1 0x4 DUP2 LT ISZERO PUSH2 0x17C4 JUMPI PUSH1 0x3 EQ PUSH2 0x3914 JUMPI JUMPDEST PUSH1 0x0 DUP2 DUP2 MSTORE PUSH1 0xA PUSH1 0x20 SWAP1 DUP2 MSTORE PUSH1 0x40 DUP1 DUP4 KECCAK256 PUSH1 0x2 ADD DUP1 SLOAD PUSH1 0xFF NOT AND SWAP1 SSTORE PUSH1 0x9 SWAP1 SWAP2 MSTORE DUP2 KECCAK256 PUSH1 0x3 DUP2 ADD DUP3 SWAP1 SSTORE PUSH1 0x4 ADD DUP2 SWAP1 SSTORE PUSH32 0xE392F41381026E9D0DF0330D30D754DCD2D3E5B50EFD896EBF8EC1499F849715 SWAP1 DUP1 LOG2 JUMP JUMPDEST DUP1 PUSH1 0x0 MSTORE PUSH1 0x9 PUSH1 0x20 MSTORE PUSH1 0x40 PUSH1 0x0 KECCAK256 PUSH2 0x100 PUSH2 0xFF00 NOT DUP3 SLOAD AND OR SWAP1 SSTORE PUSH2 0x393A PUSH1 0x14 SLOAD PUSH2 0x3082 JUMP JUMPDEST PUSH1 0x14 SSTORE PUSH2 0x38BE JUMP JUMPDEST PUSH1 0x2 PUSH1 0x0 SLOAD EQ PUSH2 0x3953 JUMPI PUSH1 0x2 PUSH1 0x0 SSTORE JUMP JUMPDEST PUSH4 0x3EE5AEB5 PUSH1 0xE0 SHL PUSH1 0x0 MSTORE PUSH1 0x4 PUSH1 0x0 REVERT JUMPDEST PUSH1 0xB SLOAD PUSH1 0x1 JUMPDEST DUP2 DUP2 LT PUSH2 0x3979 JUMPI POP POP POP PUSH1 0x0 SWAP1 JUMP JUMPDEST PUSH2 0x398F PUSH2 0x398A DUP4 PUSH2 0x189C DUP5 DUP8 PUSH2 0x2F81 JUMP JUMPDEST PUSH2 0x2F09 JUMP JUMPDEST SWAP1 SLOAD PUSH1 0x3 SWAP2 SWAP1 SWAP2 SHL SHR PUSH1 0x1 PUSH1 0x1 PUSH1 0xA0 SHL SUB AND PUSH1 0x0 DUP2 DUP2 MSTORE PUSH1 0x9 PUSH1 0x20 MSTORE PUSH1 0x40 SWAP1 KECCAK256 SLOAD PUSH1 0x8 SHR PUSH1 0xFF AND DUP1 PUSH2 0x39D0 JUMPI JUMPDEST PUSH2 0x39C9 JUMPI POP PUSH1 0x1 ADD PUSH2 0x396A JUMP JUMPDEST SWAP3 POP POP POP SWAP1 JUMP JUMPDEST POP DUP1 PUSH1 0x0 MSTORE PUSH1 0xA PUSH1 0x20 MSTORE PUSH1 0xFF PUSH1 0x2 PUSH1 0x40 PUSH1 0x0 KECCAK256 ADD SLOAD AND ISZERO PUSH2 0x39BC JUMP JUMPDEST SWAP1 PUSH1 0xFF PUSH1 0x19 SLOAD PUSH1 0xA0 SHR AND PUSH1 0x0 EQ PUSH2 0x3A13 JUMPI PUSH1 0x19 SLOAD PUSH2 0x2D5E SWAP3 SWAP1 PUSH1 0x1 PUSH1 0x1 PUSH1 0xA0 SHL SUB AND PUSH2 0x3BC5 JUMP JUMPDEST PUSH2 0x2D5E SWAP2 PUSH1 0x0 SWAP2 DUP3 SWAP2 DUP3 SWAP2 DUP3 SWAP2 PUSH1 0x1 PUSH1 0x1 PUSH1 0xA0 SHL SUB AND GAS CALL PUSH2 0x689 PUSH2 0x3394 JUMP JUMPDEST PUSH1 0x40 MLOAD PUSH4 0x23B872DD PUSH1 0xE0 SHL PUSH1 0x20 DUP3 ADD MSTORE PUSH1 0x1 PUSH1 0x1 PUSH1 0xA0 SHL SUB SWAP3 DUP4 AND PUSH1 0x24 DUP3 ADD MSTORE SWAP3 SWAP1 SWAP2 AND PUSH1 0x44 DUP4 ADD MSTORE PUSH1 0x64 DUP1 DUP4 ADD SWAP4 SWAP1 SWAP4 MSTORE SWAP2 DUP2 MSTORE PUSH2 0x2D5E SWAP2 PUSH2 0x3A77 PUSH1 0x84 DUP4 PUSH2 0x2D04 JUMP JUMPDEST PUSH2 0x3C00 JUMP JUMPDEST PUSH1 0x40 MLOAD PUSH2 0x3A88 DUP2 PUSH2 0x2CE9 JUMP JUMPDEST PUSH1 0x1 DUP2 MSTORE PUSH1 0x4 PUSH1 0x20 DUP3 ADD SWAP3 PUSH1 0x1 DUP5 MSTORE PUSH1 0x40 DUP4 ADD TIMESTAMP DUP2 MSTORE PUSH1 0x60 DUP5 ADD PUSH1 0x0 DUP2 MSTORE PUSH1 0x80 DUP6 ADD SWAP2 PUSH1 0x0 DUP4 MSTORE PUSH1 0xA0 DUP7 ADD SWAP4 PUSH1 0x0 DUP6 MSTORE PUSH1 0x1 DUP1 PUSH1 0xA0 SHL SUB AND SWAP7 DUP8 PUSH1 0x0 MSTORE PUSH1 0x9 PUSH1 0x20 MSTORE PUSH2 0x3AE8 PUSH1 0x40 PUSH1 0x0 KECCAK256 SWAP8 MLOAD ISZERO ISZERO DUP9 SWAP1 PUSH1 0xFF DUP1 NOT DUP4 SLOAD AND SWAP2 ISZERO ISZERO AND OR SWAP1 SSTORE JUMP JUMPDEST MLOAD DUP7 SLOAD PUSH2 0xFF00 NOT AND SWAP1 ISZERO ISZERO PUSH1 0x8 SHL PUSH2 0xFF00 AND OR DUP7 SSTORE MLOAD PUSH1 0x1 DUP7 ADD SSTORE MLOAD PUSH1 0x2 DUP6 ADD SSTORE MLOAD PUSH1 0x3 DUP5 ADD SSTORE MLOAD SWAP2 ADD SSTORE PUSH1 0x13 SLOAD PUSH2 0x3B1F SWAP1 PUSH2 0x3082 JUMP JUMPDEST PUSH1 0x13 SSTORE PUSH2 0x3B2D PUSH1 0x14 SLOAD PUSH2 0x3082 JUMP JUMPDEST PUSH1 0x14 SSTORE PUSH32 0x7F3B9EFFE05CFB4F31F854004DE03199FD03FE56BF38A48B2AA9A9F4402D6E23 PUSH1 0x20 PUSH1 0x40 MLOAD TIMESTAMP DUP2 MSTORE LOG2 JUMP JUMPDEST PUSH1 0x1 PUSH1 0x1 PUSH1 0xA0 SHL SUB AND PUSH1 0x0 DUP2 DUP2 MSTORE PUSH1 0xD PUSH1 0x20 MSTORE PUSH1 0x40 SWAP1 KECCAK256 SLOAD PUSH2 0x2F7B JUMPI PUSH1 0x0 SWAP1 DUP2 MSTORE PUSH1 0x9 PUSH1 0x20 MSTORE PUSH1 0x40 SWAP1 KECCAK256 PUSH1 0x2 DUP2 ADD SLOAD PUSH1 0x3 SWAP1 SWAP2 ADD SLOAD PUSH7 0x2386F26FC10000 DUP1 DUP3 MUL SWAP2 DUP1 ISZERO SWAP1 DUP4 DIV SWAP1 SWAP2 EQ OR ISZERO PUSH2 0x984 JUMPI DUP1 DUP3 GT PUSH2 0x3BB9 JUMPI POP POP PUSH1 0x0 SWAP1 JUMP JUMPDEST PUSH2 0x3BC2 SWAP2 PUSH2 0x2F52 JUMP JUMPDEST SWAP1 JUMP JUMPDEST PUSH1 0x40 MLOAD PUSH4 0xA9059CBB PUSH1 0xE0 SHL PUSH1 0x20 DUP3 ADD MSTORE PUSH1 0x1 PUSH1 0x1 PUSH1 0xA0 SHL SUB SWAP1 SWAP3 AND PUSH1 0x24 DUP4 ADD MSTORE PUSH1 0x44 DUP1 DUP4 ADD SWAP4 SWAP1 SWAP4 MSTORE SWAP2 DUP2 MSTORE PUSH2 0x2D5E SWAP2 PUSH2 0x3A77 PUSH1 0x64 DUP4 PUSH2 0x2D04 JUMP JUMPDEST SWAP1 PUSH1 0x0 PUSH1 0x20 SWAP2 DUP3 DUP2 MLOAD SWAP2 ADD DUP3 DUP6 GAS CALL ISZERO PUSH2 0x662 JUMPI PUSH1 0x0 MLOAD RETURNDATASIZE PUSH2 0x3C52 JUMPI POP PUSH1 0x1 PUSH1 0x1 PUSH1 0xA0 SHL SUB DUP2 AND EXTCODESIZE ISZERO JUMPDEST PUSH2 0x3C31 JUMPI POP JUMP JUMPDEST PUSH4 0x5274AFE7 PUSH1 0xE0 SHL PUSH1 0x0 SWAP1 DUP2 MSTORE PUSH1 0x1 PUSH1 0x1 PUSH1 0xA0 SHL SUB SWAP2 SWAP1 SWAP2 AND PUSH1 0x4 MSTORE PUSH1 0x24 SWAP1 REVERT JUMPDEST PUSH1 0x1 EQ ISZERO PUSH2 0x3C2A JUMP INVALID SWAP3 0xAE 0x28 0xD1 REVERT PUSH23 0xD6083FE6C8A95100BB3B117195E864014E4AA144D26FA4 PUSH30 0xC17A264697066735822122041AF1D35F9C537917EFBFEA37BF467EA7EDE 0xB7 PUSH7 0xCF934D1DE60EA CODECOPY 0xE0 0xC6 PUSH4 0xE864736F PUSH13 0x634300081C0033A26469706673 PC 0x22 SLT KECCAK256 PUSH22 0x5B1B59079339791985450849D08FAA3FCA4638498B46 0x1F 0xE5 0xE9 0xCE SWAP1 JUMPI DUP10 DUP5 PUSH16 0x64736F6C634300081C00330000000000 "},"methodIdentifiers":{"MAX_CONTRIBUTION_AMOUNT()":"1b89c1ad","MAX_GROUPS_PER_CREATOR()":"9c6f5374","MAX_MEMBERS()":"ea0e35b1","MIN_CONTRIBUTION_AMOUNT()":"0c49c0a2","MIN_MEMBERS()":"d9a67220","allGroups(uint256)":"fd16c1d3","createGroup((string,uint256,uint256,uint256,uint256,string,uint8,bool,bool,address,address,uint256,uint256))":"73c7125b","creatorGroups(address,uint256)":"d8802c46","getAllGroups()":"21cd3cae","getCreatorGroups(address)":"4d88d1ad","groupCounter()":"d24924fe","isValidGroup(address)":"c2e70bb6","owner()":"8da5cb5b","pause()":"8456cb59","paused()":"5c975abb","renounceOwnership()":"715018a6","transferOwnership(address)":"f2fde38b","unpause()":"3f4ba83a"}}}}}